:020000040000fa
:080000000002040000000000f2
:020000040000fa
:10000800a8020000a8020000a8020000a802000040
:10001800a8020000a8020000a8020000a802000030
:10002800a8020000a8020000a8020000a802000020
:10003800a8020000a8020000a8020000a802000010
:020000040000fa
:020000040000fa
:10040000efac22000e7f24000e01880000000000e7
:100410000c000700001e2100010020001100070051
:10042000000020000000e000020032000000020096
:1004300000000000ba120200000000000040da00d4
:100440000000fe004440a900c00120000000e000c0
:100450000300320000002000a00188004440a800f2
:100460000000060091018800800078000000eb0089
:1004700015003700e280400032a0b4009101ba00bc
:10048000e280400032a0b4009102ba00e280400055
:1004900032a0b4000002eb00472bde00f507b200eb
:1004a000602ce10004003a000059eb008301e900f0
:1004b000fdff3e00040037006128e100010032002a
:1004c0000082eb00040007001101ba000200e00006
:1004d000e8ff3a00000006003159ba008301e90044
:1004e0000c0032002159ba008301e90008003200f3
:1004f0000400e00003003a00e280400032a0b400b3
:10050000f5ff370011d9ba008301e900faff3a007c
:100510008100e800e180400032a0b4000000060045
:10052000fc12040000000000ee10040000000000b7
:100530007010040000000000e4050400000000004a
:10054000a412040000000000a61204000000000035
:100550000040da000000fe00e68747008e1f7800aa
:10056000d0bf9f0066875700012f78000e0037002c
:100570005fba970014407800efb997009340780075
:100580000201e900814f5000040032000080fb00ae
:100590008180fb0001005000060037000402e800e3
:1005a000d4bf9f00030fe800e00f5100f0ff3a00b6
:1005b000020078004f0778006f00b10000000600cd
:1005c0008001780002003700815978000201e900bb
:0c05d000e00f5100fcff3a0000000600a4
:020000040000fa
:1005dc0049200000534800004954000020590000f5
:1005ec004f550000204e00004f540000000000004a
:1005fc00ffff0000ffff0000ffff000000000000f5
:08060c000000000000000000e6
:020000040000fa
:10061400405e20008304070020822000a23e2200c6
:100624008000eb00010878007c004000820f50003d
:10063400fcff3a000040eb00018020008048780075
:10064400e680400080487800e680400080487800da
:10065400e6804000804878000000060010418000d9
:10066400e00f500007003200e183200010c0b30007
:100674008001eb00e2cfb300918f110007003a0034
:10068400010037000040eb00c2c1b3000440bc00cd
:100694008181200001004100050037000040e8008e
:1006a400fc804000824f5000f3ff3a000000eb0052
:1006b40000000600e4874700889fbe008a9fbe00b2
:1006c4008c9fbe008e1f780080bf9f00810678003b
:1006d400e98220000004eb008005eb004e002000be
:1006e400ec0f200008027800a9ba97008b8f520003
:1006f40011003200998f16000f003a007c22b900d5
:100704006c02420080812000800042000e017800cb
:100714000fb897008fff07008b0f500006003a00b8
:1007240008407800c2c1b3000440bc0080812000ae
:1007340000004100050037000804e800fc84440080
:100744008c0f5400e7ff3a000000eb004f077800dd
:100754004f06be004f05be004f04be004f00b1005f
:1007640000000600218220000041eb00150020005b
:10077400e3cfb300918f12000a003a0071ba9700d8
:1007840014029000800f520006003a0002407800e4
:10079400c2c1b3000440bc008081200000004100bd
:1007a400050037000241e800fc804000834f5100ff
:1007b400f0ff3a000000eb0000000600881f7800fc
:1007c400000478000182200002072000010141009a
:1007d4000040eb00910f140001003a000040e800d3
:1007e400fc804000828f5000faff3a0018419000cc
:1007f4008040eb00824f50000700320097ff070053
:100804008040eb00e00f50000300320048009800e5
:100814001100200051009800014078004f04780036
:1008240000000600889fbe008a9fbe008c1f7800cf
:100834000004780081447800020578008041eb00d0
:1008440010408000880f5000320032004040800089
:10085400880f50002f00320070408000880f500035
:100864002c003200a0408000880f50002900320084
:100874000080200090cf110012003200660040007a
:1008840090cf1100090032006600400090cf1100a3
:1008940009003200660040003bc0b3003c00200069
:1008a40090cf11001b003a00080037001bc0b300b2
:1008b4001c002000050037002bc0b3002c002000d2
:1008c400020037000006eb008c45780063ff070048
:1008d4008041eb00e00f50000e0032000680200043
:1008e4006662b9008400430013c0b30083487800f3
:1008f4009800980099409800aa0098000b81fb008a
:100904006611b90002014300420098001300200060
:1009140053009800034078004f0678004f05be004e
:100924004f04be00000006000a00fa000000eb00bd
:10093400b0bf9f00010378006000b800c0bf9f00f3
:10094400d1bf9f00e0bf9f00f1bf9f000201d10013
:100954003fb89700800f5100150036003fb897004c
:100964000000400066007800bfb997008381410011
:10097400e68079006fba9700ffba9700c808dd00d7
:100984004800de000080700000004200e0804a0061
:10099400e0bf9f00f1bf9f003fb897000000e80050
:1009a400b0bf9f003fb89700820f5000ebff3900a3
:1009b4006fb89700ffb89700b1bf9f006fb897005a
:1009c400ffb8970001002000e0bf9f00f1bf9f0027
:1009d4003fb997006fb89700ffb897000200400036
:1009e400e0804800e0bf9f00f1bf9f006fb8970010
:1009f400ffb897000080ea008180ea00c0bf9f0032
:100a0400d1bf9f004fb89700dfb897000080fa006d
:100a140000000600889fbe008a9fbe008c9fbe0017
:100a24008e1f780002047800cc0cde00c24cdd007e
:100a34008084440058129000e8129000a4019800a9
:100a4400b501980038129000c81290008489be0045
:100a5400330890004801dd004800de00000071000a
:100a64002014980043009000100090004801dd001d
:100a74004800de0000007100101498003816900041
:100a840048129000c865dd000005eb004821de0037
:100a94008a0178000201750083817500fe0f200031
:100aa4000e02620005002000482bdd00c823de0092
:100ab400870373004823dd000601710087817100fc
:100ac40000f02f00000666000d002000c86edd0057
:100ad4000c80fd008c4678000046eb000c01710090
:100ae4008d817100321498004314980058139000bb
:100af400e8139000c832dd000a0278004839de00ad
:100b04008a01780002017200838172000e82630000
:100b140005002000482edd00c826de008d06760084
:100b24004826dd000c0171008d8171000003630013
:100b340007002000c83bdd000680fd0086437800e6
:100b44000043eb0006017100878171005214980084
:100b540063149800081890004801dd004800de0086
:100b640000007100001c98004808dd00c808de0081
:100b740081007000711498001a1c9800e8804400e9
:100b84007a00440076030700090050006600500014
:100b9400c800de004800dd0000807000101c9800d2
:100ba4001a0c98008940780008007800a603070012
:100bb4004f0778004f06be004f05be004f04be002d
:100bc40000000600ec874700889fbe008a9fbe0095
:100bd4008c9fbe008e1f780000047800785090002f
:100be400e64f50002d013a00080578009810900057
:100bf4004808dd00c808de008080700011149800e9
:100c0400a81590004858dd00c85dde008085750099
:100c14002b149800781090004801dd004800de0095
:100c24000000710070149800081890004801dd005d
:100c34004800de0000007100001c9800b816900007
:100c4400481690005810900080bf9f0068179000cd
:100c54007a00440097fe070080047800e08f540077
:100c640011003a000b007800befe070080047800f3
:100c7400e08f54000901320058099000e8099000ff
:100c8400e2049800f304980070804400e6004400f5
:100c94001101be000288be00d8009000a10c98008b
:100ca40098119000b30c9800c868dd000000eb00b8
:100cb4004862de00800278000400700085807000c5
:100cc4000c82fb0005002000482bdd00c823de0059
:100cd400870373004823dd000600700087807000de
:100ce40002f02f000281660003002000c819dd0015
:100cf4000280fd00824178000041eb000206700092
:100d0400838670000b00250080572000001d98008a
:100d140029009000b90090005015980061159800c2
:100d24001903be0036159800471598005901900024
:100d340003002000ea0f5100e08f5900d5003e0067
:100d4400026001000a003700150037003a0037003e
:100d5400d00037004400370086003700a900370070
:100d6400cc003700b3003700b5003700c0003700af
:100d74007a10900061006000c80032000b40a000af
:100d8400890178000a0178008b0078000000eb00ec
:100d940020ff070090002000d0049800bf00370017
:100da4007a10900062006000bc003200f0ff200066
:100db400808565000000260080857500610046007e
:100dc400e0804e00501598006115980050a52a0047
:100dd40051a52a003015980041159800490090004b
:100de400a00090000900780001000100e04f5000cd
:100df400060032002b01b30020002000d00498002c
:100e0400490090006dfe0700050037000b20a0008c
:100e140010002000d00498000000eb00c0049800eb
:100e2400890178000a0178008b0078000000eb004b
:100e3400f8fe0700990037007a109000f200600075
:100e4400f08f500003003a0040002000d0049800c6
:100e5400920037006400600090003200100020000f
:100e6400d00498008d0037007a1090006100600073
:100e7400090032000b40a000890178000a017800c3
:100e84008b0078000000eb00e2fe070090002000d9
:100e9400d004980081003700fa109000cc08de00de
:100ea400c208dd00080c90007404540001045400ce
:100eb400200220000a00400081004000d90990006f
:100ec4000801780009007800030001000b40a0002d
:100ed4008fb89700c80add000002eb004873de00fb
:100ee4008403780006017200878172000e87fb007c
:100ef4006170b800480bdd00c803de00870373008f
:100f04004803dd000601710087817100e2b79f008c
:100f1400f3b79f0006f02f008fb997000683610096
:100f240007002000c83bdd000680fd0086437800f2
:100f34000043eb006fb09700ffb09700060370000a
:100f440087837000361598004715980008004600fe
:100f5400e0804e00501598006115980089017800d2
:100f64000a0178008b00780004007800a9fe0700cd
:100f74004a0037007a109000f00060000e00320042
:100f84006100600003003a0060002000d004980073
:100f9400420037000b40a000890178000a01780064
:100fa4008b0078000000eb009afe07008000200010
:100fb400d004980039003700610060003700320027
:100fc4000b40a00061034300e0834b0056159800da
:100fd4006715980050a52a0051a52a0030159800dd
:100fe40041159800890178000a0178008b00780087
:100ff4000000eb0087fe070080002000d00498006a
:10100400260037007a10900061006000230032004f
:101014000b40a000890178000a0178008b00780059
:101024000000eb007bfe070080002000d004980045
:101034001a0037000000eb00d004980017003700b6
:101044000b20a0006000b8005015980061159800ae
:10105400890178000a0178008b0078000000eb0019
:101064006cfe07000000eb00d00498000b00370072
:101074000b40a000890178000a0178008b007800f9
:101084000000eb0063fe07000000eb00d0049800b2
:101094000200370010002000d00498004f077800a9
:1010a4004f06be004f05be004f04be00cf00b10086
:1010b4000000060000437800710020000040eb00af
:1010c4000683fb00804178008002eb0017002000bb
:1010d4000082eb0001b1de0061416100834f5100e9
:1010e40002003a00d202a90001003700d202a8008f
:1010f4005216800068016100850f51000200320021
:101104000139dd0002407000d222a800d222a900d9
:101114008100e900848f5000eeff3a0000000600d1
:101124000400fa008000eb00e1bf9f00f1bf9f00c4
:101134008041eb000002eb0031062000150037006f
:10114400e4bf9f006fb99700810f510010003e006b
:10115400f4bf9f007fb99700810f510006003e0045
:101164007fb997000201e800f2bf9f007fb99700a2
:10117400810f5100faff36006fb997000201e800b1
:10118400e2bf9f006fb99700810f5100f0ff360056
:101194000040e900834f5000e9ff3a000080fa0064
:1011a40000000600889fbe008a1f78008104780032
:1011b40002447800ca42a900beff0700e04f540071
:1011c400070032000045eb0019407800b9ff070022
:1011d400805c78000844e9008a4f5400faff3a0022
:1011e400ca42a8004f0578004f04be000000060064
:1011f4000200fa00889fbe00d0bf9f0081047800df
:101204000204780022c0b300e680570040c6b30051
:10121400e4ff07000841780089007800c0c2b300e9
:10122400e0ff07004f04be000080fa000000060043
:101234000200fa00889fbe00d0bf9f00810478009e
:101244000204780022c0b300e680570000c6b30051
:10125400d4ff0700084178008900780080c2b300f9
:10126400d0ff07004f04be000080fa000000060013
:101274000200fa00889fbe00d0bf9f00810478005e
:101284000204780022c0b300e6805700c0c6b30051
:10129400c4ff07000841780089007800a0c2b300a9
:1012a400c0ff07004f04be000080fa0000000600e3
:1012b400881f7800ca42a9007f4060007dff0700b4
:1012c4000040eb007bff07000084fb000040eb00c4
:1012d40078ff0700ca42a8004800dd00080070003b
:1012e4004f04780000000600881f7800010478008d
:1012f400ca42a9007f4060000064a0006dff07009f
:10130400084078006bff07004840de0069ff0700d3
:10131400ca42a8004f0478000000060080a62200fc
:1013240000c8eb0000000600881f78000044780025
:1013340080a62200904f540008003200ca42a9003f
:101344008840440000ccb30000c0700059ff07007f
:10135400ca42a80080a62200084878004f047800fa
:1013640000000600889fbe00014478008044780095
:10137400e04f5000030035000080fb004500de0014
:10138400e9ff0700ca42a9007fc064000074a000fe
:1013940048ff07000840780046ff0700ca42a8003b
:1013a4004f04be0000000600889fbe000044780081
:1013b400810478008940780008407800e9ff07003c
:1013c400c848de000840e800e6ff07004f04be00fe
:1013d40000000600889fbe00014478008044780025
:1013e400e04f5000030035000080fb004500de00a4
:1013f400cdff0700ca42a9007fc064000064a000ba
:101404002cff0700084078002aff0700ca42a80002
:101414004f04be0000000600889fbe000044780010
:10142400810478008940780008407800e9ff0700cb
:10143400c848de000840e800e6ff07004f04be008d
:1014440000000600881f780000447800e04f540034
:10145400030035000880fb004500de00b2ff0700f2
:10146400ca42a9007f40640012ff07000040eb005d
:1014740010ff0700ca42a8004f04780000000600cd
:10148400889fbe000044780008407800edff070004
:10149400804478000840e800eaff07004800dd00c7
:1014a4008984fb00090070004f04be0000000600a0
:1014b400a0c9b300e3ff070000000600fcff07001b
:1014c4000080fb000000ea004f00de000000060080
:1014d400b0c9b300dbff07006140600000000600f4
:1014e400e0c9b300d7ff07000000d100610060002d
:1014f40000000600889fbe008a9fbe008005780019
:1015040001057800f6ff07008004eb00e04f50006f
:10151400140032000040eb00d9ff0700800478007b
:1015240020c0b300d6ff0700890440000000230058
:10153400090050008a0f50000a003e000040eb00f2
:10154400cfff07000044eb008004eb00800f550040
:1015540004003e00e2ff0700884f5000fdff3a0000
:101564008004eb000a0178008b0078000900780001
:101574003fff07000044eb00d9ff0700884f5000ed
:10158400fdff3a00890078000040eb00a2ff07004d
:101594008a00780020c0b3009fff07000041eb00e1
:1015a4008000eb0040cdb300fefe07004f05be00f7
:1015b4004f04be00000006000600fa001001be0041
:1015c400d2bf9f00e3bf9f00a0019000f3bf9f0024
:1015d400660140001202be000488be00d0029000e2
:1015e400250098005fba9700efba97000489be00ff
:1015f4008302780055009800ee804000bdff07008c
:101604000080fa0000000600ec874700889fbe00b7
:101614008a9fbe008c9fbe008e1f78000007780052
:10162400a3ff070011c0b30081f79f00e04f5000f3
:101634003a0032008004eb008e85e8000d002300a0
:10164400ecff25006856810082002000f8805700d6
:1016540008007800e6fe07001fed97004855dd00fe
:101664000fe897000081fb0002057500afe99700c1
:101674003fe997004fea970070026200890f520019
:1016840017003a004811dd008381fb00030171005b
:101694000281e900660044008e007800d4fe070051
:1016a4006b019000c811dd004811de000281710059
:1016b400e20598000044eb0088f79f00f080570093
:1016c4000b007800990007000ff19700884f510034
:1016d40003003a00f08057000b0078002f02070047
:1016e400625681008c0078008d0f51000100320099
:1016f4008280e90060c0b30047ff07006a56890092
:101704000041eb0089007800c0ccb300a5fe0700bf
:1017140067ff0700e04f5000caff3a004f07780008
:101724004f06be004f05be004f04be00cf00b100ff
:1017340000000600889fbe00c842a900c862a80035
:10174400d002a900d022a900ca42a800d202a8004f
:10175400d222a800b8c9b3008004eb0041232100c1
:1017640060c9b3002cff070060c9b30044ff070041
:1017740041232100810f5000f8ff3a00084078000f
:1017840030ff070070006000890f5000fbff32003b
:1017940001c1b300e0c6b300f2fe0700dffe07009c
:1017a40040c6b3005efe070060c9b30034ff070003
:1017b400890f5000e9ff3a0040c6b30058fe070005
:1017c4000160220040c7b30013ff07008000eb0054
:1017d4000040eb0010ff07000100230040c0b300ed
:1017e4000dff07009100200040c3b3000aff07006b
:1017f40011c0b300e0c9b300dafe07004f04be0015
:10180400000006000040eb0021ab22008048780075
:10181400e480400080487800e480400080487800fc
:101824000000060021ab22000041eb00914f1100a3
:101834000a003200e4804000914f1100050032009c
:10184400e4804000914f11000b003a002100200079
:101854000300370011002000010037008000eb0076
:10186400c208dd0022ab22000101410011c0b30017
:10187400014978001001980000000600a15581007c
:10188400808f500002003a0021ab22008048eb0018
:10189400c1558100808f500002003a0061ab2200e4
:1018a4008048eb00e1558100808f500002003a002f
:1018b400a0ab22000048eb00000006000200fa0082
:1018c400889fbe008a9fbe008c1f780000067800a7
:1018d4000040eb00c0f79f0028ab2200e80544005d
:1018e40019c0b3000045780098cf140004003a00f2
:1018f40018019000ec8057000c00780002000100f1
:101904008b0f540004003200640444004ff097002d
:101914008a4f5000f4ff32004f0678004f05be0096
:101924004f04be000080fa0000000600e0019000b1
:1019340002802000828f510008003a0012c0b300d8
:1019440082487800800890004809dd00c808de005d
:101954008100710001089800d8ff0700000006000c
:101964000a00fa000001eb00b2bf9f006011b8004a
:10197400c2bf9f00d3bf9f00e2bf9f00f3bf9f0081
:101984008100d1003fb99700828f500015003600c6
:101994003fb997000201410060017900bfb9970087
:1019a40083814100e08179006fba9700ffba970004
:1019b400c819dd004811de000281710002014200f5
:1019c400e0814a00e2bf9f00f3bf9f003fb9970048
:1019d4000201e800b2bf9f003fb99700810f510098
:1019e400ebff39006fb89700ffb89700b1bf9f00b5
:1019f4006fb89700ffb8970001002000e0bf9f0078
:101a0400f1bf9f003fb997006fb89700ffb89700e8
:101a140002004000e0804800e0bf9f00f1bf9f004b
:101a24006fb89700ffb897000080ea008180ea0051
:101a3400c0bf9f00d1bf9f004fb89700dfb8970089
:101a44000080fa00000006000400fa00889fbe002f
:101a54008a9fbe00000478007e0144001202be008a
:101a6400a4bf9f00b5bf9f007a0044001002be00cf
:101a74000489be002fb99700bfb997000288be0041
:101a84000000eb00400c9800200c9800f4c04000cb
:101a94000185fb0068009000c800dd004800de00fe
:101aa40000807000600498004850dd00000c98002d
:101ab400ee044400f8009000ef806000c208dd00ee
:101ac40009007800a6ff070080057800f800900060
:101ad400ef806000c208dd0009007800a0ff070065
:101ae4004801dd00c858de0001007100400c980078
:101af4008a007800080078009b0207004f05be00aa
:101b04004f04be000080fa0000000600889fbe005b
:101b14008a9fbe0002047800f4844100e2ab2200f4
:101b240005000900325c78006800b10066014400d9
:101b340063aa220005000900335978006200b1004d
:101b440082002000620498007e0144000300090022
:101b5400305978004200b1004000b1007a004400de
:101b640022aa220003000900325878004000b10084
:101b740078019000f0f02f00000061000060a000e8
:101b840002ff2f00020060005000b30070049800b0
:101b94000040eb00704c98004849dd004848de00e6
:101ba40000007100000c980020412300100c9800e4
:101bb4000001eb00220c980000c8b30060549800a8
:101bc40071549800420c98006e05440041012000b5
:101bd4000a00780062ff070080057800f800900092
:101be400ef806000c208dd000a0078005cff070097
:101bf4004801dd00c858de0001007100400c980067
:101c0400ee80440008007800550207004f05be002e
:101c14004f04be00000006004e1302000000000046
:101c240020568100000006000080fb003056890029
:101c3400761102000000000000000600d302a90093
:101c4400710020000040eb00052020000002eb00a2
:101c5400160020008081eb00d2e2a80092168000da
:101c640005016100840f5100020032000131dd00e2
:101c740002407000d2e2a9008100e900838f500085
:101c8400f5ff3a0000000600881f780080437800c2
:101c9400710020000040eb008783fb008041780046
:101ca400062020008002eb00180020000082eb00d8
:101cb40001b9de0061416100834f510002003a0026
:101cc400d302a90001003700d302a800d2e2a80081
:101cd4009216800006016100850f51000200320057
:101ce4000141dd0002407000d2e2a9008100e90058
:101cf400848f5000eeff3a004f0478000000060085
:101d0400e1ff0700000006000200fa00889fbe0001
:101d14008a9fbe00000578008104780002047800e0
:101d24000000eb00b0bf9f00800f55000f003a0089
:101d34003fb89700800f54002d0036004e13020068
:101d440000000000bfb897002056810080f478009e
:101d54003fb897000000e800b0bf9f003fb897006d
:101d6400880f5000f5ff390021003700e08f540040
:101d7400040032003fb89700800f540011003e0069
:101d84001b0037003fb89700800f5400180036003e
:101d94003fb897006a4078000080fb003056890005
:101da40076110200000000003fb897000000e80030
:101db400b0bf9f003fb89700800f5400f4ff3e006f
:101dc4000b003700bfbd97003fb897006a4078000a
:101dd400cbff070080f47d003fb897000000e800c7
:101de400b0bf9f003fb89700800f5400f5ff3e003e
:101df4004f05be004f04be000080fa00000006003c
:101e0400d122a800f0ef2f00d022b600f1f72f0066
:101e14008000fd00d022b6008000fd00d0c2a900e1
:101e2400c922a9008000fd00d222b6008000fd0076
:101e3400d222b600000006004822ef008000eb002a
:101e44000012800061006000810f5000fcff32002e
:101e540040128000000006000200fa008000eb003f
:101e6400f1bf9f000080fb00401288000012800038
:101e740061006000810f5000fcff320040128000be
:101e8400f0bf9f000080fa0000000600000006007a
:101e94002a00fa0005102000a5b79f008500200045
:101ea400b5b79f0065c0b30085ef9f0045c0b30080
:101eb40095ef9f0005102000e04f52000100320012
:101ec40005202000d5b79f00748257000500090043
:101ed400305a78006400b1006000b1006e80570091
:101ee40003000900315878004000b1004100b100fe
:101ef4006a80570005000900325878006000b1007c
:101f04006200b10064805700030009003358780070
:101f14004000b1004300b10060fd2f000f004000fd
:101f2400e12f280005000900315878006000b10055
:101f3400c0fd2f000f00400061aa22000500090027
:101f4400315878006000b1008060200090b79f0095
:101f5400a102200060fd2f000f0040008001070057
:101f64000080fa00000006008201780022aa220004
:101f740003000900315978004100b10062aa22002f
:101f840005000900305978006000b1000042eb0000
:101f940042302800beff070000000600881f7800ba
:101fa400e001900062802000828f510021003a00fd
:101fb40012c0b300824878000004780078009000d2
:101fc400c800dd004800de00008070007004980046
:101fd40008089000c800dd004800de0000807000a2
:101fe400000c980028089000c800dd004800de00be
:101ff40001007000200c9800e20f50000d00320028
:1020040060022000080040004200200021aa2200b3
:1020140050f90700e00f500006003a007601440032
:1020240014c0b300fc01440021aa220060aa2200cb
:1020340097ff07004f04780000000600e02f2800f7
:102044000000060000072100f6fd07000080eb00f9
:10205400505389007053890090538900b05389000c
:10206400d0538900f05389001054890030548900fa
:10207400000006000200fa00889fbe008a9fbe008e
:10208400800478000040eb00e0f79f00a8a622003f
:10209400fc05440000457800a9109000988f1000ba
:1020a40004003a0018019000ea8057000900780003
:1020b400020001008b0f5400040032006404440049
:1020c4006ff097008a4f5000f3ff32004f05be00b7
:1020d4004f04be000080fa0000000600705190001a
:1020e400f14f510012003a0012c0b3008248780048
:1020f400901090004809dd00c808de0081007100de
:1021040011109800a01090004809dd00c808de00f6
:102114008100710021109800b01090004809dd0082
:10212400c808de008100710031109800d1ff07005b
:102134000000060052538100e10f41000900320003
:10214400e3a622000001eb000082eb0075002000f2
:102154000201e80002037800930f120008003a001d
:10216400010037000003eb004233dd00a2a6220089
:1021740006034100011b7800000b780003003700c0
:10218400e4814100850f5100f1ff3a000000060090
:1021940082027800e8804000480add004809de0039
:1021a40002017200321098004819dd00481ade005e
:1021b4000202720024109800141098000001eb0031
:1021c400421098000001be0011c1b3000500780060
:1021d4004efe070000000600881f780012c0b300fe
:1021e4008248780020119000b1072000810f51002f
:1021f4001f003a00102c9000202a9000c840dd00f7
:102204000000eb004821de0080017800020070002d
:10221400838070000482fb0005002000482bdd0051
:10222400c823de00870373004823dd000600700026
:102234008780700002f02f00020164000300200078
:10224400481add00c812de00850272004812dd0063
:1022540004007000858070000418280055c527000c
:102264000000420081804a0040568900515689008e
:102274004f04780000000600b1072000e00e2100a2
:10228400acff070000000600889fbe0080047800b1
:10229400e89c2200a20520008000eb0008007800e2
:1022a400c6f8070031ceb300a002200008004000a9
:1022b40001487800a1c0b3000080e800014878001c
:1022c400c1ceb3000000e80001487800b307200045
:1022d400090178000103200008007800acff070022
:0822e4004f04be0000000600db
:020000040000fa
:1022ec00801f7800305681000070a700d302a80030
:1022fc000070a600d302a900d2e2a900d2e2a80085
:10230c000060a700d302a8000060a600d302a900b9
:10231c00d2e2a900d2e2a8000050a700d302a80084
:10232c000050a600d302a900d2e2a900d2e2a80074
:10233c000040a700d302a8000040a600d302a900c9
:10234c00d2e2a900d2e2a8000030a700d302a80074
:10235c000030a600d302a900d2e2a900d2e2a80064
:10236c000020a700d302a8000020a600d302a900d9
:10237c00d2e2a900d2e2a8000010a700d302a80064
:10238c000010a600d302a900d2e2a900d2e2a80054
:10239c000000a700d302a8000000a600d302a900e9
:1023ac00d2e2a900d2e2a800d2e2a9004f00780044
:0423bc000000060017
:020000040000fa
:1023c000cc2a0000020000000200000000300000e3
:1023d000282a00004200000000000000c42a00007b
:1023e0000400000000000000a22a0000100000000d
:1023f00000000000be2a00000600000002000000ed
:10240000b0487a00db5bea00b22a00000c00000052
:1024100000000000c82a00000400000002000000c4
:102420000000000000000000ce2900005a0000005b
:10243000000000006a2a00002000000000000000e8
:1024400000080000e01b0000000000008a2a0000d5
:1024500018000000020000000004a3005020f60055
:10246000c0a801007bc0a8000101c000a801930022
:10247000c2aba70082ee8200e0230000ee05000060
:08248000000000000000000054
:020000040000fa
:10248800000028000011880000402000101188007a
:102498004000200040118800cae2a900123a8000da
:1024a800f20bb200600420007105200023742000a4
:1024b8008049780081497800824978003336800065
:1024c800f20f2e00028161000230b300323688001c
:1024d800123a80000260a00023742000804978002e
:1024e8008149780082497800000006000320200016
:1024f8000001eb001111800083806000828f500082
:10250800fcff3a000080fb00201188000000060054
:10251800889fbe008004780019407800e04f500082
:10252800050032000044eb00f0ff07005940780036
:10253800884f5000fcff3a004f04be000000060020
:1025480000000600412a21005108980010c0b3007d
:10255800000006002bfc070000000600e4fb070053
:102568000000060013fc070000000600889fbe005c
:102578002ca3ef00c902a90020fe0700c0ff070036
:102588006a000700a0a8220069fc07003efe0700b9
:1025980042a9220001a92200a0a8220071fe07007a
:1025a80097fc070019f80700622a210001c2b3004e
:1025b800204d20009af80700a1fe07003000070010
:1025c8002cff0700c0a922002eff07000044eb00e3
:1025d800e95e2000b8fb0700884f5000fdff32007d
:1025e80089007800003e220006fc0700f9ff37004a
:1025f800889fbe008a9fbe00000478007850900033
:10260800e14f50001b003a008048780018109000f5
:10261800e80f500017003a000040eb0020649800d3
:102628000000eb00201498002a022000080545004d
:1026380088089000f48050000a007800c7fc070062
:102648008005780088089000f48050000a0078001f
:10265800c2fc07004801dd00c858de000100710017
:102668002014980088089000f4c0500008007800f2
:10267800f4fc07004f05be004f04be000000060032
:10268800c02f210066fc07000000060000000600bd
:042698000000060038
:020000040000fa
:10269c00801f78000000eb00d302a900d2e2a80052
:1026ac00d322af000070a000d2e2a900d2e2a800b1
:1026bc00d322af000060a000d2e2a900d2e2a800b1
:1026cc00d322af000050a000d2e2a900d2e2a800b1
:1026dc00d322af000040a000d2e2a900d2e2a800b1
:1026ec00d322af000030a000d2e2a900d2e2a800b1
:1026fc00d322af000020a000d2e2a900d2e2a800b1
:10270c00d322af000010a000d2e2a900d2e2a800b0
:10271c00d322af000000a000d2e2a900205689000d
:08272c004f00780000000600d8
:020000040000fa
:10273400000006000000fa000080fa000000060015
:020000040000fa
:0200000401f009
:04000000ffff0000fe
:020000040000fa
:0200000401f009
:04000400ffff0000fa
:020000040000fa
:0200000401f009
:04000800ffff0000f6
:020000040000fa
:0200000401f009
:04000c0079ff000078
:020000040000fa
:0200000401f009
:040010001bff0000d2
:020000040000fa
:0200000401f009
:0400140077ff000072
:020000040000fa
:0200000401f009
:04001800f8ff0000ed
:020000040000fa
:0200000401f009
:04001c00deff000003
:00000001FF
