:020000040000fa
:080000000002040000000000f2
:020000040000fa
:10000800a4020000a4020000a4020000a402000050
:10001800a4020000a4020000a4020000a402000040
:10002800a4020000a4020000a4020000a402000030
:10003800a4020000a4020000a4020000a402000020
:020000040000fa
:020000040000fa
:100400000f0721000e7f24000e018800000000006d
:100410000c00070000ae21000100200011000700c1
:10042000000020000000e000020032000000020096
:1004300000000000481c0200000000000040da003c
:100440000000fe004440a900c01820000000e000a9
:100450000300320000002000a00188004440a800f2
:100460000000060091018800800078000000eb0089
:1004700015003700e280400032a0b4009101ba00bc
:10048000e280400032a0b4009102ba00e280400055
:1004900032a0b4000002eb00472bde00f507b200eb
:1004a000602ce10004003a000059eb008301e900f0
:1004b000fdff3e00040037006128e100010032002a
:1004c0000082eb00040007001101ba000200e00006
:1004d000e8ff3a00000006003159ba008301e90044
:1004e0000c0032002159ba008301e90008003200f3
:1004f0000400e00003003a00e280400032a0b400b3
:10050000f5ff370011d9ba008301e900faff3a007c
:100510008100e800e180400032a0b4000000060045
:10052000c6180400000000004a1d0400000000007e
:1005300088160400000000001a1e040000000000dd
:10054000c01c0400000000000040da000000fe00b3
:10055000e68747008e1f7800d0bf9f006687570050
:10056000012f78000e0037005fba97001440780022
:10057000efb99700934078000201e900814f5000e5
:10058000040032000080fb008180fb00010050006d
:10059000060037000402e800d4bf9f00030fe80004
:1005a000e00f5100f0ff3a00020078004f0778009a
:1005b0006f00b100000006008001780002003700e3
:1005c000815978000201e900e00f5100fcff3a0078
:1005d000000006000c00fa00889fbe0000047800ae
:1005e000f0ff2700d0bf9f008004eb0099bf9f0061
:1005f00088bf9f00a8bf9f00200c2000b0bf9f00b5
:1006000078815700cfb0970070805700070007002f
:100610000fb89700094878008fb8970008805000fd
:100620004f04be000080fa0000000600ef02b00098
:10063000889fbe008a9fbe008c9fbe008e1f7800e0
:10064000b0b79f00a1af9f0092b79f000000eb00e2
:10065000a0b79f009d033700afa897008100e80076
:10066000a1af9f0053c2b300834f510005003a0071
:100670000007eb0007c3b30005c2b300b2c2b3006a
:10068000130037003fb29700b40190000304b2009a
:10069000040032009401780082497800030ae800df
:1006a000070037000201fb00bfb09700020078008e
:1006b0009203070000017800e10f4100830332003c
:1006c000afb297008502e800a5b79f007f0337000f
:1006d0008101780031437800d8c2b300884f5300bd
:1006e0000900320005003c00854f5300080032002d
:1006f000824f53000c003a0007003700874f530029
:1007000009003a00060037000e30a000f0ff370065
:100710000e00a000eeff37000e10a000ecff370027
:100720000e20a000eaff37006201670001003200de
:100730000e00a10068016700010032000e20a10038
:100740000601fb000203b100e90f51000c003e005e
:10075000030378000006eb006a66b9003600fb0070
:100760000003b1000c064000860178001600fb0073
:100770000003b100e90f5000f7ff36000800370012
:100780000006eb00a5c2b300854f530004003a00f9
:100790009fb497004906780099b79f008301e8004d
:1007a0000005eb008ab79f00e5c2b30093cf1200ab
:1007b00016003a000ee0a000e4c25200d3cf1200af
:1007c00003003200030378000a00780008003700b5
:1007d0009fb597004b0078009bb79f0080b79f00a4
:1007e0008301e800090037006a00b90000004100f9
:1007f00086017800b600fb0002fd2f0001014100d8
:10080000e90f5100f8ff360080b79f0033437800ae
:10081000a3af9f00c2c6b300824f53002500320031
:100820000f003c0037c6b300874f5300a5003200cd
:1008300004003c00e04f53002903320085c5b3009b
:100840000f00370045c6b300854f53001700320034
:10085000e5c24200854f5300bd003a001300370047
:1008600037c7b300874f53001f00320007003c001a
:10087000f5c6b300854f5300140032008542e800ee
:10088000854f5300b2003a001300370055c7b3003c
:10089000854f5300b5003200e3c24200854f53003c
:1008a000ab003a00e6c79f000d003700e6c79f0087
:1008b000b000370070006700010120000100320025
:1008c0000100280001077700d0ff3700e6c79f002e
:1008d0000e60a000a7003700e6c79f000e50a000e2
:1008e0000e70a000a3003700e6c79f009fb19700dd
:1008f0004303780093b79f00c6b79f00e00f5300f3
:1009000002003a00a5032100c5b79f00cfb39700ae
:100910000003eb00010037000603e80067407b009e
:10092000e04f5000fcff3a00d6b79f000fb397008e
:10093000e00f530005003200dfb39700870f53002c
:100940000200310006047800d8b79f005fb397001b
:100950000004eb00860f5600010036000604560026
:10096000680767002e003a0009c2b300afb59700d0
:100970003fb597000e0037003a0090000004b20027
:10098000040032001a00780009487800000de800e1
:10099000050037008a00780000022000d702070017
:1009a000e10f4000010032008b05e8000804e90077
:1009b000e00f5400f0ff3a00f5ff2f008b0678009f
:1009c000190037003c0090000004b200090032001a
:1009d0009c01780008017800324078008049780056
:1009e000030ee80002047800e04f50000a003a00cd
:1009f00012003700080178003200fb000204780082
:100a00008c00780085bf9f00bc0207008fba97005a
:100a1000e10f4000090032008d06e80007003700b2
:100a200088027800afb697004fb49700dfb4970004
:100a30006fb59700ffb597003fb6970009017800a2
:100a40008204e900e00f5100deff3a00adb79f00dd
:100a500002027800c8b79f00d9b79f00eab79f008d
:100a6000fbb79f0005047800840f570097023200ff
:100a700009c2b3008d0578003fb597000e0037001e
:100a80003a0090000004b200040032001a0078001e
:100a900009487800000de800050037008a0078005a
:100aa0000002200095020700e10f40000100320023
:100ab0008b05e8000804e900e00f5400f0ff3a005d
:100ac000810237009fb097004103780091b79f00e3
:100ad00006047800cfc4de00090578008a05780096
:100ae000c8af9f00d9af9f00eaaf9f00fbaf9f0048
:100af0004844de004848dd0008047000e8c79f0055
:100b0000700367000a003200e04f54000800320012
:100b1000e14f440006003200f8c79f008fd89700cd
:100b200081cf9f0022002000d2b79f000400370031
:100b30008fd99700f3c79f0014002000d4b79f00ff
:100b400075fc2f0085824700c5b79f0077ff3700ef
:100b5000e6c79f0066fc2f0006834700c6b79f00cc
:100b600017002000d7b79f0070ff3700e6c79f002f
:100b70000e0cb3000e007800000cb2003a003a00f0
:100b8000800f570005003d001fb097004005be00d4
:100b90004004be0090b79f000e0037007000670051
:100ba000110032001fb197004200be0092b79f00b3
:100bb00012029000cfa1de000004be008305780081
:100bc0000802be00030378008b0378000605be0010
:100bd0000404be00c8b79f00d9b79f00eab79f00c2
:100be000fbb79f000b0037009fb4970049027800c5
:100bf00099b79f0004007800cf80de0001017800e3
:100c000082017800c0b79f00d1b79f00e2b79f0074
:100c1000f3b79f004fb29700dfb297006fb3970012
:100c2000ffb39700e00f5200e08f5a00e00f5b0027
:100c3000e08f5b0031003d003e00b3006044b8002f
:100c40006055b8000402540085825c0006035d0014
:100c500087835d00c4b79f00d5b79f00e6b79f00ac
:100c6000f7b79f0025003700e00f570005003d0053
:100c70001fb097004005be004004be0090b79f0023
:100c80000e00370070006700110032001fb197009e
:100c90004200be0092b79f00000478000105780072
:100ca0008004eb00080278008a02780009037800cb
:100cb000890378000605be000404be00c8b79f0083
:100cc000d9b79f00eab79f00fbb79f000b00370022
:100cd0009fb497004902780099b79f0004007800fc
:100ce000010020000200200003002000c0b79f0088
:100cf000d1b79f00e2b79f00f3b79f008fb0970076
:100d0000e08f50000d003a001200200082b79f00d3
:100d10004fb29700dfb297006fb39700ffb3970011
:100d2000e00f5200e08f5a00e00f5b00e08f5b00a5
:100d3000020032008002eb0085b79f000e037800ae
:100d4000060cb200c6af9f0006042000cfab970090
:100d5000868f53003500320003003c00e08f5300c3
:100d60004a003a0007003700060820004fac970001
:100d7000860f540015003200060c2000860f540028
:100d800042003a0003f8200016c0b30003027800c6
:100d90003400be003401be004fb49700dfb49700aa
:100da0006fb59700ffb597000040e10001c8e10072
:100db00002d0e10003d8e100330039000643e80027
:100dc000f44f5300f2ff3a002f00370016c0b30073
:100dd00008012000090020006055b8004fb09700be
:100de000dfb097006fb19700ffb197000800e100f6
:100df0000988e1000a90e1000b98e1002200390027
:100e0000410020000804d0008984d2000a85d20065
:100e10008b85d2008100e900faff3a000643e80022
:100e2000f04f5300edff3a001700370016c0b30033
:100e300088002000090020006055b8004fb09700de
:100e4000dfb097006fb19700ffb197000800e10095
:100e50000988e1000a90e1000b98e1000a003900de
:100e6000310020000804d0008984d2000a85d20015
:100e70008b85d2008100e900faff3a000643e800c2
:100e8000f54f5300edff3a00e6c79f006fc1970092
:100e90000203fb008fb19700830f530002003d0057
:100ea000e3c79f00040037000fb29700860f52007f
:100eb00001003d0086b79f00e00f5600030032009e
:100ec00063036700010032000c06e90006002400fd
:100ed00006036700060032008fb29700850f5600a8
:100ee0000200340005065600010037000006eb0042
:100ef000efc397000703fb000004eb00b8af9f00af
:100f0000860f56000200340006035600b6af9f005d
:100f1000e40267004c003200e2026700e103670070
:100f2000e08f52001b003200bfb49700b90290005e
:100f30000504b2000900320019037800b5c2b300fd
:100f4000e08f53000100320085c2e800054b7800b5
:100f50003fb59700060de8000a003700b6022000f2
:100f6000858f5300010032000683e800bfb0970070
:100f7000060078006101070080027800e18f4200de
:100f800018003200afb597008b05e800abb79f00a3
:100f900014003700858f5300120032003fb09700d5
:100fa000b00290000504b200050032001003780082
:100fb00005c2b300054b78000608e80006003700bc
:100fc000bfb09700000220004c01070080027800ab
:100fd000e18f420003003200afb097008100e800cb
:100fe000a1b79f003fa99700e00f510063003200b6
:100ff00008c3b30002057800afb59700bfb49700ef
:10100000390090000004b20004003200190078009a
:1010100008487800800ce800050037008900780057
:101020000003200035010700e10f400001003200fd
:101030008b05e8000a05e900f1ff3a00baaf9f000e
:10104000abb79f004d003700bfa99700858f5100b7
:1010500017003200e802670015003a0008c2b3002a
:1010600003057800afb59700bfb497003900900032
:101070000004b2000400320019007800084878002b
:10108000800ce8000500370089007800000220008d
:101090001a010700e10f4000010032008b05e80053
:1010a0000a05e900f1ff3a00baaf9f00abb79f0015
:1010b000e2026700e1036700e08f52001b0032008c
:1010c0003fb29700b40290000504b200090032005c
:1010d00014037800b5c2b300e08f53000100320062
:1010e00085c2e800054b7800bfb29700860ae80089
:1010f0000a003700b6022000858f5300010032003d
:101100000683e800bfb0970006007800fb000700e8
:1011100080027800e18f4200180032002fb3970060
:101120000603e800a6b79f0014003700858f530020
:1011300012003200bfb39700b70290000504b2005e
:10114000050032001703780005c2b300054b780094
:10115000860be80006003700bfb0970000022000b1
:10116000e600070080027800e18f420003003200b1
:101170002fb497000804e800a8b79f008fb4970029
:101180008902e900422ddd009aaf9f00632bb90070
:10119000860578008baf9f00c32bdd0085f720000c
:1011a0008582430070006700e0a79f008e007800f2
:1011b0000102b200d1a79f000e017800f2a79f00a4
:1011c00005077800a20037008fb197008301e9007e
:1011d00083b79f004faa970005042000850f520097
:1011e0007100320003003c00e00f52007d003a0025
:1011f00007003700000820004fab9700800f530016
:1012000055003200000c2000800f530075003a009a
:10121000ffa39700e08f53001f003d003e02be0079
:101220002e03be004fb09700dfb097006fb197005c
:10123000ffb197003902070000047800e8c79f005b
:101240000804fb00cfc4de00090578008a05780099
:101250003e02be002e03be000800be000a01be0012
:10126000aa0207004fb49700dfb497006fb597004c
:10127000ffb597000004540081845c0002055d0006
:1012800083855d00c8b79f00d9b79f00eab79f006c
:10129000fbb79f002c003700efa49700e08f5400ad
:1012a0001c0032004fb69700dfb697003e04be0028
:1012b0002e05be000801be000c00be004401070060
:1012c000e0c79f000000fb00cf80de000801be00e9
:1012d0004f0107000000560081805e008003780007
:1012e000010378000002eb00070078008600780018
:1012f00004017800840178000203be000002be00f1
:10130000c4b79f00d5b79f00e6b79f00f7b79f000f
:101310000d0037009e017800cfb29700811f780042
:10132000110009008382d800cf007800a2002000bd
:10133000811f7800110009000280d80001007800a8
:10134000cf007800e0c79f006fc397000643b0004e
:10135000e6c79f002300370094022100dfa3970017
:10136000e08f530001003200840121004fb097004c
:10137000dfb097006fb19700ffb197001fac9700e7
:101380000804e900050033008301d1000281d30085
:101390008180d3000080d300f9ff37006f00600028
:1013a000644078000e0037004fb09700dfb0970020
:1013b0006fb19700ffb197008fac97008904e900e7
:1013c000050033008301d1000281d3008180d30066
:1013d0000080d300f9ff3700674060000043b00091
:1013e000e0c79f003fb597003a0090000004b200ac
:1013f000070032001a0178006fc09700004978009a
:10140000020de800e04f500007003a0009003700e5
:10141000efc597000b00fb00bfb097003700070037
:10142000e10f4000030032002fb097000000e800f9
:10143000a0b79f009fa89700e480500091af9f0045
:101440000fa997006301510082af9f006807570002
:101450008fb19700e08f51005bff3a007fa79700a4
:10146000e80167000fb29700848f51001700320027
:10147000bfaa9700e08f52001400340008c2b300e6
:1014800005057800afb59700bfb49700390090000c
:101490000004b20004003200190078000848780007
:1014a000800ce80005003700890078000002200069
:1014b00012000700e10f4000010032008b05e80038
:1014c0000a05e900f1ff3a00abb79f002fab970088
:1014d00016417800e2c79f00e04f51005efc3a00e1
:1014e0002fb097004f0778004f06be004f05be0093
:1014f0004f04be00ef02b10000000600889fbe004e
:1015000001047800b8009000628160008084eb00e4
:101510003c003200810178000320b20018019000e5
:1015200002003a00830f510036003a000190a000fb
:101530003104980080047800f90fb200e00f5100e8
:1015400002003a0028009000000c7800ea8f540056
:1015500006003a00010078000008b20003003a00db
:1015600088007800d0002000e4ff070018009000f9
:10157000d8009000810f50000b0032000000e800fe
:10158000100498001800780009487800000ce80062
:1015900010c0b3008106210080487800ea8f540013
:1015a00018003a00050037008800780009407800ec
:1015b0001700070080047800120037003800900000
:1015c0000010b2000f00320018019000a800900037
:1015d000480090004f00070098009000810f5000d5
:1015e00004003200380090000003b300300498007b
:1015f0008084eb000000eb001004980028009000ad
:10160000000c7800090078004f04be0000000600be
:101610000200fa00889fbe00a0ff9f00010478002e
:1016200038009000000178000204b20034003a0053
:10163000e2006000828f500005003a000003b30012
:1016400030049800110498000080eb002e00370051
:10165000d8049000e08f540006003a0012002000e9
:10166000e6805700480090002a00070019049800ff
:1016700023003700a8009000e08f500008003a00d7
:10168000b106210021049800010c780021002000ff
:1016900051049800110498000030a0003004980014
:1016a00018019000a8009000480090001900070061
:1016b000280090008080eb0011049800aff897009c
:1016c00001487800000ce8002ff89700ea4f50001e
:1016d0000b003a00380090000010b2000800320001
:1016e00018019000a8009000480090000900070031
:1016f0000000eb0010049800a8009000010c780096
:10170000aff897000100fb004f04be000080fa0014
:10171000000006000a00fa00e20f500021003e001f
:1017200070838000e10f5000060032008523200006
:10173000442320002323200000232000e08f5200b8
:1017400004003a00852220004422200023222000a9
:1017500000222000060028009003630002003a00e7
:10176000870a780010087300004020001300600012
:1017700001003a0013a0a000020078000600370024
:10178000930278000510b200fdff3200b102fb00a9
:10179000050a78000000e900e00f5000f8ff3a0069
:1017a0000800370033002000b3bf9f00c0bf9f0078
:1017b000d1bf9f00e2bf9f006a80570000c0da00df
:1017c0006fb99700020078000080fa000000060060
:1017d0006022b800060220000000d0008180d20004
:1017e0000482d2008582d2000000a00002025200d2
:1017f00083825a00030031000202420083824a00c1
:101800000000a1000603e900f3ff3a000000060013
:10181000020ab900001bb9000200b80081004200b2
:1018200081004300000006000800fa00889fbe0007
:101830008a9fbe0084bf9f0095bf9f00a6bf9f00e8
:10184000b7bf9f003004be002005be000fba97004e
:101850009fba97002fbb9700bfbb970004044400ba
:1018600085844c0006054d0087854d000898be0014
:101870000a90be000440e10005c8e10006d0e10086
:1018800007d8e10002003100680040001008e800bd
:101890004f05be004f04be000080fa0000000600a5
:1018a000fe874700889fbe008a9fbe008c9fbe00b7
:1018b0008e1f7800d0b79f00e1b79f00f2b79f005e
:1018c00083bf9f0084b79f0095b79f00a6b79f0076
:1018d000b7b79f008000eb00f1af9f00e1af9f0022
:1018e000d1af9f00c1af9f00b1af9f00010678004c
:1018f0000d042000ccb79f000605be000404be0006
:101900007fae97006faf97005fa89700e00f56007b
:101910000f003d00cf71de000c0146000281710016
:10192000f2af9f005d0007004f20de008180400085
:1019300081007000640007000802be000a03be00b8
:1019400060fd2f000f004000b7ff07001d003700ab
:10195000520007004f21de008180400081007100ad
:10196000590007003faa9700cfaa97005fab9700e6
:10197000efab97000800520089805a000a015b0013
:101980008b815b00b0af9f00c1af9f00d2af9f00c3
:10199000e3af9f004f70de000c01460002007000b4
:1019a000130020000820e10009a8e1000ab0e100ce
:1019b0000bb8e100010039008001eb00030050008a
:1019c000f0af9f007fae9700e00f56000f0035008c
:1019d00010002000010020006011b8005fb29700e5
:1019e000efb297007fb397008fbb9700040270009f
:1019f000858270000603710087837100d4b79f0051
:101a0000e5b79f00f6b79f0087bf9f00cfb2970052
:101a10008502e800c5b79f008d8f5200b8ff3a00dd
:101a20000c017800e00f510007003d000fb2970055
:101a30009fb297002fb39700bfb3970060fd2f00b0
:101a40000f00400078ff0700ffa09700e08f5000d4
:101a500008003a003fac9700cfac97005fad97000d
:101a6000efad9700d8b79f00e9b79f00fab79f0086
:101a70008bbf9f005fb09700efb097007fb19700da
:101a80008fb997004f0778004f06be004f05be0084
:101a90004f04be00ef01b100000006004f01de0060
:101aa0008e00470081007100c1af9f00afa8970072
:101ab0004f09de000000400000007100b0af9f0041
:101ac0001faa970000000600a1af9f000e000700ac
:101ad0004f18de00040242000002720094af9f0023
:101ae0000900070000004000818048000201490011
:101af00083814900b0b79f00c1b79f00d2b79f0054
:101b0000e3b79f00000006001fb09700afb097003a
:101b10003fb19700cfb1970000000600881f780002
:101b200018002000881f78005dff07008f87e900fc
:101b30004f04780000000600801feb0058ff0700ec
:101b40008f87e90000000600889fbe008a9fbe00c4
:101b50008c1f78006044b8006055b8000800e100b0
:101b60000988e1000a90e1000b98e1000d003d00ba
:101b70000000540081805c0002015d0083815d00f3
:101b80001c0020000820e10009a8e1000ab0e100e3
:101b90000bb8e1000b003d00210007000006eb0040
:101ba000080037000006eb00e00f5200e08f5a00fb
:101bb000e00f5b00e08f5b0002003d0018000700b3
:101bc0001c002000d5ff0700800578000105780083
:101bd00082047800030478000b0278008a027800ff
:101be0000903780088037800e00f560006003200f1
:101bf0006000b8006011b8000402500085825800ef
:101c000006035900878359000400be000601be0088
:101c10004f0678004f05be004f04be0000000600ce
:101c20000402540085825c0006035d0087835d002a
:101c300000000600889fbe008a9fbe008c1f7800af
:101c40006044b8006055b8000800e1000988e10070
:101c50000a90e1000b98e1000b003d0000005400e9
:101c600081805c0002015d0083815d001c0020001a
:101c70000820e10009a8e1000ab0e1000bb8e1008a
:101c80000b003d00060037000006eb00e00f52009d
:101c9000e08f5a00e00f5b00e08f5b0004003d0026
:101ca0000402540085825c0006035d0087835d00aa
:101cb000a1ff070080057800010578008204780004
:101cc000030478000b0278008a0278000903780088
:101cd00088037800e00f5600060032006000b8006c
:101ce0006011b800040250008582580006035900b4
:101cf000878359000400be000601be004f0678002d
:101d00004f05be004f04be0000000600889fbe00c5
:101d10008a9fbe008c1f78000006eb00e00f500089
:101d2000e08f5800e00f5900e08f590007003d0098
:101d30006044b8006055b8000000540081805c0029
:101d400002015d0083815d001c002000e00f520055
:101d5000e08f5a00e00f5b00e08f5b0007003d0062
:101d60006044b8006055b8000402540085825c00ed
:101d700006035d0087835d000c00a20010000700d1
:101d80000203be000002be00e00f56000600320053
:101d90006000b8006011b80004025000858258004d
:101da00006035900878359000400be000601be00e7
:101db0004f0678004f05be004f04be00000006002d
:101dc000889fbe008a9fbe008c9fbe000404b8009e
:101dd0000506b8008904460060854e000606b80076
:101de0000a054600e0854e000706b8008b05460050
:101df000040eb800890446000a854e00e0854d00b7
:101e0000050eb8000a0546008b854e00060eb80088
:101e10008b0546000416b8000a0546008b854e0067
:101e20000516b8008b054600041eb8008b05460059
:101e30000800be000a01be004f06be004f05be00ee
:081e40004f04be000000060083
:020000040000fa
:101e48005b69000070760000345d000020520000dd
:101e58005820000050610000636b000065740000aa
:101e680020250000642000006279000074650000ed
:101e7800732c000020700000726f0000746f000067
:101e8800636f00006c20000025300000325800000d
:101e98002c2000006c6500006e670000746800006c
:101ea800202500003032000058200000736900002f
:101eb8007a6500006f6600003a2000002564000083
:101ec8000d0a0000005b0000697000007634000015
:101ed8005d2000005458000020500000616300009d
:101ee8006b6500007420000025640000206200007b
:101ef80079740000657300002c20000070720000e7
:101f08006f7400006f6300006f6c000020250000f4
:101f180030320000582c0000206c0000656e000074
:101f28006774000068200000253000003258000067
:101f380020430000524300002025000030340000f8
:101f4800580d00000a000000436f0000756c000087
:101f5800646e0000277400002072000065670000ae
:101f6800697300007465000072200000415200008f
:101f780050200000686100006e6400006c6500007d
:101f8800720000005b610000727000005d200000bc
:101f980000720000657000006c79000000200000ed
:101fa8006f6b0000002000002a2a00002a20000091
:101fb80046410000494c0000202a00002a2a00005f
:101fc80000770000686f00002d6800006173000052
:101fd80020000000256400002e250000642e00006b
:101fe800256400002e2500006400000072650000d2
:101ff800706c0000696500006400000064750000f2
:102008006e6e00006f0000000d0a000000ff000067
:10201800ffff0000ffff0000ff00000000000000bd
:1020280000000000000000002a2a00002a2a000000
:102038002a2a00002a2a00002a2a00002a2a000048
:102048002a2a00002a2a00002a2a00002a2a000038
:102058002a0d00000a0000002a2000002a200000a3
:10206800454e000043320000384a00003630000078
:1020780020640000656d00006f2000002a20000029
:102088002a0d00000a0000000d0a000009090000de
:1020980009090000090900000909000009090000f0
:1020a8000900000025300000325800002000000020
:1020b8005425000030320000587c000052250000f2
:1020c8003032000058200000000d00000a00000017
:1020d8005b690000636d0000705d00002050000027
:1020e800696e000067200000706f00006e670000d6
:1020f8002c200000736900007a6500006f660000fc
:102108003a20000025300000325800000d0a000077
:10211800000000002a2a00002a2a0000205400009b
:102128005820000070610000636b000065740000b7
:10213800202a00002a2a00002a0d00000a000000b8
:10214800554400005020000050610000636b0000ff
:082158006574000000000000a6
:020000040000fa
:10216000881f780001447800d2c2a9007f40600037
:102170000064a000ac04070008407800aa0407002f
:10218000d2c2a8004f04780000000600881f780023
:1021900001447800d2c2a9007f4060000074a00012
:1021a000a1040700084078009f040700d2c2a800dd
:1021b0004f04780000000600881f78000144780072
:1021c000d2c2a9007f40600001cab3000140700084
:1021d000950407000840780093040700d2c2a800c5
:1021e0004f04780000000600881f78000104780082
:1021f000d2c2a9007f4060000064a0008a040700ea
:1022000008407800880407004840de008604070084
:10221000d2c2a8004f04780000000600d2c2a90074
:102220007f406000800407000040eb007e04070050
:10223000d2c2a80000000600d2c2a9007f40600000
:10224000790407000040eb00770407000040eb0032
:1022500075040700d2c2a80000000600889fbe00d7
:102260000044780008407800ecff07008084fb0001
:102270000840e800e9ff07004800dd0009007000a1
:102280004f04be00000006000200fa004500de0018
:1022900063006000faeeb700e34f500007003a0019
:1022a000d2c2a900f0c9b3005f04070030c0b30078
:1022b0005d040700d2c2a80016003700f0fb2f0013
:1022c000d222b6005804070030c0b30056040700fd
:1022d000d2c2a8000040eb00e0ff9f0081c1b30024
:1022e0006ff897000041e800e2ff9f00814f500027
:1022f000fbff3600facebf0006003200d2c2a900b2
:10230000f0c9b30048040700facebf004604070036
:10231000d2c2a8000080fa0000000600881f7800e2
:102320000044780008407800e04f54000800350071
:102330004501de0063016100a1ef200091407800bb
:102340008180fb00810f510001003200ceff0700a9
:1023500008407800b1ff07004f0478000000060035
:10236000881f78000044780008407800e04f54004f
:10237000080035004501de0063016100a1ef200087
:10238000914078008180fb00810f510001003200f4
:10239000bdff070008407800b0ff07004f04780039
:1023a00000000600889fbe00004478008144780049
:1023b00008407800e04f5400080035004501de0079
:1023c00063016100a1ef2000914078008180fb0053
:1023d000810f510001003200abff070089407800f7
:1023e000084078005eff07004f04be0000000600b2
:1023f000889fbe000044780081447800084078003f
:10240000e04f5400080035004501de006301610023
:10241000a1ef2000914078008180fb00810f5100e6
:102420000100320098ff07008940780008407800da
:1024300056ff07004f04be0000000600889fbe0044
:10244000004478008144780008407800e04f540050
:10245000080035004501de0063016100a1ef2000a6
:10246000914078008180fb00810f51000100320013
:1024700085ff070089407800084078004eff07007c
:102480004f04be0000000600889fbe000044780094
:102490008104780008407800e04f540008003500bf
:1024a0004501de0063016100a1ef2000914078004a
:1024b0008180fb00810f51000100320072ff070094
:1024c000894078000840780025ff0700c848de00f2
:1024d0000840e80022ff07004f04be00000006008d
:1024e000889fbe0001047800820478008000780094
:1024f0000040eb00e4ff0700d2c2a900a0c3b30074
:10250000c903070009017800880078000000eb008b
:10251000c7030700d2c2a8004f04be000000060097
:10252000889fbe0081047800020478008000780053
:1025300020c0b300d4ff0700d2c2a900a0c7b300d7
:10254000b9030700080178008000eb00090078005b
:10255000b7030700d2c2a8004f04be000000060067
:10256000881f7800010478008040780040c5b300df
:102570008cff07008800780060c5b300c2ff070029
:102580004f047800000006000200fa00889fbe0099
:102590008040780040c5b30082ff070011c0b3003f
:1025a00020c5b30092ff0700a8c6b3008004eb006b
:1025b0000840780020ff070061006000890f50008c
:1025c000fbff3a0011c0b30020c5b3009bff07001a
:1025d000d2c2a90080c1b300930307000040eb0002
:1025e000910307000040eb008f0307000084fb000d
:1025f000d2c2a8000040eb00a0ff9f0082c1b30040
:10260000aff897000140e800a0ff9f0082cf500084
:10261000fbff3600d2c2a90090c1b30082030700bd
:102620000040eb00800307000040eb007e03070042
:10263000d2c2a8004800dd00080070004f04be00b0
:102640000080fa00000006000200fa00889fbe0029
:102650008a9fbe008005780001057800e008290007
:10266000680507000040eb00e0f79f00f8c9b300e1
:102670008004eb000800370081c0b30008407800f8
:102680005bff070081c0b300084078006bff0700c4
:10269000e0c2b30052050700084078001fff0700a2
:1026a000e8016000898f5100f3ff3a0001802000ab
:1026b00020c0b30074ff0700088020008801450097
:1026c0008300780060c0b3006fff070010c0b30044
:1026d0002603070012002000ea8057000800780057
:1026e0008fff07000a0178008b007800108020001f
:1026f0008bff07000040eb001c030700a1c0b300e4
:10270000c0c9b3004dff070081c0b300f0c9b300da
:1027100037ff0700c8c9b3008004eb000840780009
:10272000fefe070068006000890f5000fbff3200ca
:102730004f05be004f04be000080fa0000000600f6
:102740000600fa001001be00d2bf9f00e3bf9f0049
:10275000a0019000f3bf9f00660140001202be007e
:102760000488be00d0029000250098005fba970050
:10277000efba97000489be008302780055009800e4
:10278000ee804000b0ff07000080fa000000060065
:10279000c0c9b300e1fe0700800078000104b20068
:1027a00010c0b30001003a000040eb00000006003a
:1027b00090c3b300d9fe0700000006008000780037
:1027c000eecebf00070032000040eb0022ef2000f9
:1027d00012417800804f510009003a001200200099
:1027e000010037000001eb004211dd00e0ee2000a7
:1027f0000201400010c0b3000049780011019800a8
:102800000000060081778000808f500001003a00b0
:10281000ee6eef00a1778000808f500001003a003b
:10282000f26eef00000006000200fa00881f780038
:10283000000478000040eb00c0ff9f00eecebf0018
:10284000e14f500007003a00e4805700080078008c
:1028500082778000020001004ff89700e04f50009f
:1028600007003a00f2cebf00e14f500004003a00ea
:10287000e480570008007800a27780000200010081
:102880004f0478000080fa00000006000600fa00fd
:10289000889fbe008a9fbe008c9fbe008004780087
:1028a00001067800c2ff0700e04f500051003200df
:1028b000ed5e20000985e8000c0178008000eb0047
:1028c000090078003cf70700b17780000040eb007a
:1028d000edfe070062002000f2805700b077800014
:1028e000fffe07007fec97004844dd006fe897008b
:1028f0008081fb00030474001ff297004822dd0072
:102900008ff197008381fb0083057200aff1970080
:10291000e10f44000d003a008d8f55000b0036008a
:10292000f62eef000044eb0009c4b30003003700ab
:1029300089407800e0c9b300adfe07009cff0700a6
:10294000884f5000faff3a002a003700f0826100f9
:1029500010003a0010c0b300840207000b81e900a8
:10296000b07780006400400089007800dcfe07003a
:102970000040eb007d0207006a009000c800dd0007
:102980004800de0000807000600598000a007800b2
:10299000a5ff0700b877880080c0b30070fe07006d
:1029a00080417800b47780008381fb00848f5100e0
:1029b00006003a00a0c0b30069fe07008080fb005b
:1029c000c0c0b300b0fe0700030037008400e90078
:1029d000c0c0b300acfe070001c4b300e0c9b3003f
:1029e00083fe070072ff070080417800e0cf5100ae
:1029f000b1ff3a004f06be004f05be004f04be00b7
:102a00000080fa00000006000200fa00cb22a800b5
:102a10000040eb00e0ff9f0081c1b3006ff897001a
:102a20000041e800e2ff9f00814f5000fbff3600ad
:102a3000cb22a9000040eb00e0ff9f0081c1b30062
:102a40006ff897000041e800e2ff9f00814f5000bf
:102a5000fbff3600cb22a8000040eb00e0ff9f0008
:102a600081c1b3006ff897000041e800e2ff9f00ca
:102a7000814f5000fbff36000040eb00e0ff9f005d
:102a800081c1b3006ff897000041e800e2ff9f00aa
:102a9000814f5000fbff3600d2c2a90000c0eb00fe
:102aa00061020700d2c2a8000080fa000000060000
:102ab0000200fa00889fbe008a1f78000004780098
:102ac000d2c2a800c87788008004eb00797788001c
:102ad000cdff070089ff9f0080c1b3008ff89700ea
:102ae0000141e80082ff9f0080cf5000fbff3600cd
:102af00020c0b300a4fe070030c0b300a2fe070050
:102b000020c7b30005fe070001c4b300e0c9b3004d
:102b100037fe0700d9c9b3000005eb000940780073
:102b2000fefd0700610060008a0f5000fbff3200cd
:102b3000217a200040c1b30089fe07008000eb002d
:102b400080c0b30050fe0700f17f2000a0c0b3009a
:102b50004dfe07008000eb00c0c0b3004afe070036
:102b60000180200040c0b30047fe0700f1ff2000b5
:102b700060c0b30044fe0700d1c0b30000c4b3007e
:102b800008fe070061cfb30020c4b30005fe0700b4
:102b900001c4b30030c4b30002fe0700e15e2000b0
:102ba000a0c4b30038fe070021c1b30040c4b30085
:102bb000fcfd070021c1200060c4b30032fe070005
:102bc0009840780040c6b300f6fd0700984090009a
:102bd00050c6b300f3fd0700a840900020c6b30024
:102be000f0fd0700b840900030c6b300edfd0700cf
:102bf000c840900000c6b300eafd0700d84090002e
:102c000010c6b300e7fd07000110200000c1b300ab
:102c100053fe070041c0b300f0c9b300f4fd070044
:102c20004f0578004f04be000080fa000000060047
:102c300080682100e1fe07000000060061f6200028
:102c4000ec8240000041eb0014c0b300914f110032
:102c500002003a008448780090009800e480400028
:102c6000858f5000f9ff3a0000000600417b80008c
:102c7000808f500001003a00666fef00617b80009a
:102c8000808f500001003a006a6fef00817b800066
:102c9000808f500001003a006e6fef0000000600c8
:102ca0000200fa00889fbe008a9fbe008c1f780039
:102cb000000678000040eb00c0f79f0068f6200097
:102cc000e805440019c0b3000045780098cf14000f
:102cd00004003a0018019000ec8057000c007800c6
:102ce000020001008b0f5400040032006404440011
:102cf0004ff097008a4f5000f4ff32004f067800e3
:102d00004f05be004f04be000080fa000000060020
:102d1000881f78000004780068019000008020007f
:102d2000800f51001c003a0010c0b30080487800aa
:102d300008089000c800dd004800de0001007000b7
:102d4000000c980021022000811f7800801f78006d
:102d5000785090000080fb00801f78007800900081
:102d60006f406000210020000100dd000080fb00ba
:102d7000801f780040f22800801f7800e0de2000ed
:102d800014f60700e0de20009e030700080078002c
:102d9000c3ff0700ea8757004f04780000000600d1
:102da0000a00fa000001eb00b2bf9f006011b800fa
:102db000c2bf9f00d3bf9f00e2bf9f00f3bf9f0031
:102dc0008100d1003fb99700828f50001500360076
:102dd0003fb997000201410060017900bfb9970037
:102de00083814100e08179006fba9700ffba9700b4
:102df000c819dd004811de000281710002014200a5
:102e0000e0814a00e2bf9f00f3bf9f003fb99700f7
:102e10000201e800b2bf9f003fb99700810f510047
:102e2000ebff39006fb89700ffb89700b1bf9f0064
:102e30006fb89700ffb8970001002000e0bf9f0027
:102e4000f1bf9f003fb997006fb89700ffb8970098
:102e500002004000e0804800e0bf9f00f1bf9f00fb
:102e60006fb89700ffb897000080ea008180ea0001
:102e7000c0bf9f00d1bf9f004fb89700dfb8970039
:102e80000080fa00000006000400fa00889fbe00df
:102e90008a9fbe000004780081447800fe00440050
:102ea0001101be00a2bf9f00b3bf9f007a00440083
:102eb0001001be008288be002fb99700bfb99700ed
:102ec0000288be000000eb00400c980068009000f3
:102ed000c800dd004800de0000807000600498003b
:102ee00008089000c800dd004800de000080700087
:102ef000000c98006e054400f8009000ef80600020
:102f0000c208dd000a007800a5ff070080057800f0
:102f1000f8009000ef806000c208dd000a00780031
:102f20009fff07004801dd00c858de000100710066
:102f3000400c980048089000c8089000c808dd00c0
:102f40004800de00809f700008089000c800dd0087
:102f50004800de00809f7000785090000080fb00e9
:102f6000801f7800780090006f0060004200dd0054
:102f7000801f780070f62800801f7800e0de2000b7
:102f800094f50700e0de20001e0307008980fb00a7
:102f9000f480400008007800e9fd0700ea87570048
:102fa0004f05be004f04be000080fa00000006007e
:102fb0002200fa00889fbe008a1f780080047800f3
:102fc0000304780080002000a0b79f00f0f02f00dd
:102fd0003fb19700000061000005b30002ff2f0021
:102fe000020060000020a000b0b79f000041eb008d
:102ff000f2e79f00c8b79f0040232100d0b79f0091
:103000008001eb00e3b79f0002c8b300e2ef9f002e
:10301000f1ef9f0083bf9f00010120007a805700dd
:103020005fff070000057800bfb09700ef806000e9
:10303000c208dd007a80570059ff070000017800c0
:103040004811dd004850de000001710082bf9f0082
:10305000ea80570003000900b95878004100b10028
:103060004900b1006e80570061f52000030009009f
:10307000315878004000b100f400440080fd2f007a
:103080000f00400070fd07004f0578004f04be00a0
:103090000080fa0000000600608c2100c7fd0700d8
:1030a000e04f500002003a0080fa2800d5020700e5
:1030b000000006002a00fa0005102000a5b79f00b6
:1030c00085002000b5b79f0065c0b30085ef9f0065
:1030d00045c0b30095ef9f0005102000e04f52005f
:1030e0000100320005202000d5b79f0074825700f0
:1030f00005000900305a78006400b1006000b1009a
:103100006e80570003000900315878004000b1007c
:103110004100b1006a80570005000900325878006c
:103120006000b1006200b100648057000300090034
:10313000335878004000b1004300b10060fd2f001b
:103140000f004000b1002900050009003158780047
:103150006000b100c0fd2f000f004000a1f520006d
:1031600005000900315878006000b100806020003f
:1031700090b79f00a102200060fd2f000f004000cb
:1031800031fd07000080fa0000000600881f78006b
:10319000000478006801900060802000800f5100da
:1031a0005b003a0010c0b3008048780060fc280043
:1031b0009402070078009000c800dd004800de009f
:1031c000008070007004980008089000c800dd00be
:1031d0004800de0000807000000c98002808900075
:1031e000c800dd004800de0001007000200c9800df
:1031f000e20f500016003a00d0fc280081020700c0
:10320000000220000800400062002000a1f520001c
:10321000cff40700e00f50000a003a0060022000df
:10322000080040004200200061f52000c8f40700bb
:10323000e00f500003003a0030fd28007102070043
:103240003100370070fd28006e0207002e003700a5
:103250000002200008004000620020001101290047
:10326000bbf40700e00f500015003a0050fe2800a4
:1032700064020700186890000080fb00801f78003f
:10328000086890000080fb00801f78007860900044
:103290000080fb00801f7800686090000080fb00c9
:1032a000801f7800e0fe2800801f7800e0de20000c
:1032b000c8f40700e0de200052020700ea8757004a
:1032c00060022000080040004200200061f520005c
:1032d0009ff40700e00f500009003a007601440017
:1032e00014c0b300fc01440061f52000a0f52000eb
:1032f00070ff0700a0ff280042020700020037000d
:10330000200029003f020700800029003d0207003d
:103310004f047800000006008201780062f520006a
:1033200003000900315978004100b100a2f52000e6
:1033300005000900305978006000b1000042eb0040
:10334000120129005bff07000000060002ceb30057
:103350000241400010c0b300e1c5b300814f5100ed
:10336000010036000040eb000000060076efb700d9
:1033700000000600889fbe008a9fbe008c9fbe0092
:1033800080447800710020008046eb008984fb00b7
:103390008d4178000c102000fbef2f000808200062
:1033a000072020000003eb001a002000f5f72f0093
:1033b0000082eb0001c9de0061416100834f5100d2
:1033c00004003a008005fd00d222b6008005fd0011
:1033d000020037000c007800d222b7000800780005
:1033e000d222b7009216800007016100860f5100bb
:1033f000020032000151dd0082c676008002fd002d
:10340000d222b6008002fd008100e900848f5000c6
:10341000e8ff3a000d4078004f06be004f05be00a1
:103420004f04be0000000600d2ff070000000600a7
:10343000889fbe008a9fbe008c9fbe008e1f7800b2
:103440008005780001067800820678006af720007f
:103450001a4578000040eb00c4ff0700e04f55001c
:1034600004003200e08f550002003a008004290079
:10347000e4010700e08f5600380032008004eb00c2
:10348000ce0529000044eb00e08f5500010032001a
:103490006bc47c0008407800e3ff0700e00f560093
:1034a0000100320000f67c00e04f55002800320099
:1034b000e08f550008003a000080fb00801f780074
:1034c00060052900801f7800e0de200041f407003d
:1034d000e487570012003700e00f560008003a005a
:1034e0000884fb00881f780060052900801f780091
:1034f000e0de200037f40700e487570008003700bb
:103500000080fb00801f78000884fb00881f780083
:103510008e1f7800e0de20002ef40700e6875700bb
:10352000e0de2000b70107006f806400ef0f50005d
:1035300007003a00e08f550003003a00800429009c
:10354000b00107000200370090062900ad01070016
:103550008904e800898f5600caff3e00e04f5500fd
:103560000200320090062900a60107000a407800f8
:103570007eff07004f0778004f06be004f05be00d4
:103580004f04be0000000600d122a800f0ef2f007b
:10359000d022b600f1f72f008000fd00d022b60047
:1035a0008000fd00d0c2a900c922a9008000fd0052
:1035b000d222b6008000fd00d222b6000000060034
:020000040000fa
:1035c000ee0d00000e01000000000000760f00006c
:1035d0000200000000000000560f00001000000074
:1035e00000000000660f00000c000000000000005a
:1035f000440f000012000000020000000004a300bd
:1036000012345600c0a801007bc0a8000101c00010
:10361000a801930000080000ee0500000000000073
:10362000720f000004000000020000000000000013
:1036300000000000fc0e0000280000000000000058
:10364000240f0000200000000000000018100000ff
:103650002a0000000200000030313200333435000f
:1036600036373800394142004344450046003000b7
:103670003132330034353600373839006162630047
:103680006465660000286e00756c6c0029000000ff
:10369000780f0000a0000000020000000100000000
:1036a0000000000000000a00000000000000000010
:1036b000006400000000000000000000e8030000bb
:1036c00000000000000010002700000000000000c3
:1036d00000a08600010000000000000040420f0032
:1036e000000000000000800096980000000000002c
:1036f0000000e100f50500000000000000ca9a008b
:103700003b00000000000000e40b54000200000039
:103710000000e80076481700000000000010a50037
:10372000d4e8000000000000a0724e00180900005c
:10373000000040007a10f3005a0000000080c6002c
:10374000a47e8d000300000000c16f00f2862300fc
:10375000000000008a5d78004563010000006400fd
:10376000a7b3b600e00d000000e889000423c700fd
:103770008a00000068100000060000000000000041
:103780004210000026000000020000006910000046
:103790000069100009000000000200006b1000002a
:1037a000006b10000e02010000000000000000008d
:1037b00000000000060202000000000042100000ad
:1037c0006e10000002000000020000000100000076
:0437d00000000000f5
:020000040000fa
:1037d4000200fa000040eb00e0ff9f00f0ff9f00b2
:1037e400e0ff9f0070ccb300eff8970080cf50004b
:1037f40013003e008041eb0031c6b3000041780065
:10380400f3ff9f007ff89700814f500006003e00b1
:103814007ff897000040e800f0ff9f007ff89700d2
:10382400814f5000faff36006ff897000040e8001f
:10383400e0ff9f006ff89700824f5000f0ff3600c2
:103844000080fa0000000600881f78000104780058
:10385400d2c2a9000064a000c5fe07000840780099
:10386400c3fe0700d2c2a8004f047800000006007f
:10387400d2c2a900befe07000040eb00bcfe070058
:10388400d2c2a8000080fb0000000600889fbe0092
:103894008a1f78002ca3ef00f8ef2f000004fd002e
:1038a400c822b6000004fd00d2c2a80035ff0700fc
:1038b4000040eb00acfe0700ad00070080012900ca
:1038c400cf00070000032900cd0007008001290074
:1038d400cb0007000004fd00ca22b6000004fd006e
:1038e4000040eb00a0fe070040f420006ffc07003e
:1038f4000040eb009cfe0700cb02a800e5fd07009a
:10390400e2f42000a1f4200040f4200081fe07002e
:10391400c6fc07009100070020000700cf00070045
:1039240020f52000d10007008004eb000a102000dd
:103934000040eb008cfe07009cfb07008904e800b4
:103944006180640003003a00f0ef2f00ca22b60041
:10395400020037000a007800ca22b7000044eb00d6
:103964008afb0700884f5000fdff32008a00780070
:1039740000802000c4fb0700edff3700705090006a
:10398400f14f500004003a0010c0b30080487800a2
:10399400400a29009a0007000000060000cc21001c
:1039a400a5fc07000080eb0020798800407988009e
:1039b4006079880080798800a0798800c0798800bf
:1039c400e0798800007a8800000006000200fa000e
:1039d400889fbe008a9fbe00800478000040eb00f0
:1039e400e0f79f0048f22000fc0544000045780001
:1039f400a9009000988f100004003a00180190006c
:103a0400ea80570009007800020001008b0f54007f
:103a140004003200640444006ff097008a4f5000a1
:103a2400f3ff32004f05be004f04be000080fa00d1
:103a34000000060042f220000502200082824200bb
:103a44000082eb00920f120002003a000109780094
:103a54001001980064014100850f5100f9ff3a00fc
:103a6400000006000202780031009800230098004c
:103a7400130098000001eb00420098000001be0012
:103a840011c1b3000400780048fd070000000600df
:103a9400889fbe008a9fbe008c1f780000047800b7
:103aa40078509000e14f500028003a008048780098
:103ab40018109000e80f500024003a008002200003
:103ac400801f7800c0062900801f7800e0de2000f7
:103ad400bff20700e0de2000490007000040eb00d1
:103ae4002064980010c0b3001ffe07000005eb001f
:103af4002a1498002b02200088854500880890002d
:103b0400f48050000b007800a4fc07000006780045
:103b140088089000f48050000b0078009ffc070098
:103b24004801dd00c860de00010071002014980027
:103b340088089000f4c0500008007800d1fc070009
:103b44000a40780008fe0700e48757004f06780013
:103b54004f05be004f04be0000000600a0d42100a3
:103b640035fc070000000600000006000000060007
:103b74000000280000118800004020001011880077
:103b8400c000200040118800cae2a900123a800057
:103b9400f20bb200600420007105200023742000a1
:103ba4008049780081497800824978003336800062
:103bb400f20f2e00028161000230b3003236880019
:103bc400123a80000260a00023742000804978002b
:103bd4008149780082497800000006000320200013
:103be4000001eb001111800083806000828f50007f
:103bf400fcff3a000080fb00201188000000060052
:103c0400889fbe008004780019407800e04f50007f
:103c1400050032000044eb00f0ff07005940780033
:103c2400884f5000fcff3a004f04be00000006001d
:103c340012c0b3008248780020119000b0119000a7
:103c44000018280051c52700020240008382480062
:103c5400947b8800a57b880000000600b107200043
:103c6400a0e1210073ff07000000060031ceb3007d
:103c74008000fd0006efb7008000fd00a1c0b30086
:103c84008000fd0008efb7008000fd00c1ceb30046
:103c94008000fd0009efb7008000fd00b30720009d
:103ca40000017800e1012000c0ef20006dff070053
:043cb4000000060006
:020000040000fa
:0200000401f009
:04000000ffff0000fe
:020000040000fa
:0200000401f009
:04000400ffff0000fa
:020000040000fa
:0200000401f009
:04000800ffff0000f6
:020000040000fa
:0200000401f009
:04000c0079ff000078
:020000040000fa
:0200000401f009
:040010001bff0000d2
:020000040000fa
:0200000401f009
:0400140077ff000072
:020000040000fa
:0200000401f009
:04001800f8ff0000ed
:020000040000fa
:0200000401f009
:04001c00deff000003
:00000001FF
