:020000040000fa
:080000000002040000000000f2
:020000040000fa
:10000800a8020000a8020000a8020000a802000040
:10001800a8020000a8020000a8020000a802000030
:10002800a8020000a8020000a8020000a802000020
:10003800a8020000a8020000a8020000a802000010
:020000040000fa
:020000040000fa
:10040000ef1c21000e7f24000e0188000000000078
:100410000c000700c0fb21000100200011000700b4
:10042000000020000000e000020032000000020096
:100430000000000010250200000000000040da006b
:100440000000fe004440a900e02c20000000e00075
:100450000300320000002000a00188004440a800f2
:100460000000060091018800800078000000eb0089
:1004700015003700e280400032a0b4009101ba00bc
:10048000e280400032a0b4009102ba00e280400055
:1004900032a0b4000002eb00472bde00f507b200eb
:1004a000602ce10004003a000059eb008301e900f0
:1004b000fdff3e00040037006128e100010032002a
:1004c0000082eb00040007001101ba000200e00006
:1004d000e8ff3a00000006003159ba008301e90044
:1004e0000c0032002159ba008301e90008003200f3
:1004f0000400e00003003a00e280400032a0b400b3
:10050000f5ff370011d9ba008301e900faff3a007c
:100510008100e800e180400032a0b4000000060045
:100520007c220400000000004827040000000000b6
:10053000f61a040000000000f62504000000000088
:100540001a24040000000000f2270400000000004c
:100550000040da000000fe00e68747008e1f7800aa
:10056000d0bf9f0066875700012f78000e0037002c
:100570005fba970014407800efb997009340780075
:100580000201e900814f5000040032000080fb00ae
:100590008180fb0001005000060037000402e800e3
:1005a000d4bf9f00030fe800e00f5100f0ff3a00b6
:1005b000020078004f0778006f00b10000000600cd
:1005c0008001780002003700815978000201e900bb
:1005d000e00f5100fcff3a00000006000c00fa009a
:1005e000889fbe0000047800f0ff2700d0bf9f0066
:1005f0008004eb0099bf9f0088bf9f00a8bf9f00a9
:10060000200c2000b0bf9f0078815700cfb097002a
:1006100070805700070007000fb89700094878005e
:100620008fb89700088050004f04be000080fa0089
:1006300000000600ef02b000889fbe008a9fbe0047
:100640008c9fbe008e1f7800b0b79f00a1af9f00a7
:1006500092b79f000000eb00a0b79f009d033700fa
:10066000afa897008100e800a1af9f0053c2b3007c
:10067000834f510005003a000007eb0007c3b300a9
:1006800005c2b300b2c2b300130037003fb29700f7
:10069000b40190000304b200040032009401780019
:1006a00082497800030ae800070037000201fb00d6
:1006b000bfb09700020078009203070000017800a5
:1006c000e10f410083033200afb297008502e800da
:1006d000a5b79f007f033700810178003143780080
:1006e000d8c2b300884f53000900320005003c0017
:1006f000854f530008003200824f53000c003a002f
:1007000007003700874f530009003a000600370002
:100710000e30a000f0ff37000e00a000eeff370003
:100720000e10a000ecff37000e20a000eaff3700fb
:1007300062016700010032000e00a100680167003d
:10074000010032000e20a1000601fb000203b100ef
:10075000e90f51000c003e00030378000006eb0097
:100760006a66b9003600fb000003b1000c064000c9
:10077000860178001600fb000003b100e90f50006d
:10078000f7ff3600080037000006eb00a5c2b300f3
:10079000854f530004003a009fb497004906780043
:1007a00099b79f008301e8000005eb008ab79f001e
:1007b000e5c2b30093cf120016003a000ee0a0008d
:1007c000e4c25200d3cf12000300320003037800ca
:1007d0000a007800080037009fb597004b007800aa
:1007e0009bb79f0080b79f008301e8000900370096
:1007f0006a00b9000000410086017800b600fb00e5
:1008000002fd2f0001014100e90f5100f8ff360001
:1008100080b79f0033437800a3af9f00c2c6b300e8
:10082000824f5300250032000f003c0037c6b30052
:10083000874f5300a500320004003c00e04f5300f6
:100840002903320085c5b3000f00370045c6b30049
:10085000854f530017003200e5c24200854f530018
:10086000bd003a001300370037c7b300874f53006d
:100870001f00320007003c00f5c6b300854f53004f
:10088000140032008542e800854f5300b2003a0060
:100890001300370055c7b300854f5300b500320031
:1008a000e3c24200854f5300ab003a00e6c79f0009
:1008b0000d003700e6c79f00b000370070006700ea
:1008c000010120000100320001002800010777002b
:1008d000d0ff3700e6c79f000e60a000a7003700da
:1008e000e6c79f000e50a0000e70a000a3003700c6
:1008f000e6c79f009fb197004303780093b79f001e
:10090000c6b79f00e00f530002003a008512210095
:10091000c5b79f00cfb397000003eb00010037007d
:100920000603e80067407b00e04f5000fcff3a0000
:10093000d6b79f000fb39700e00f530005003200b9
:10094000dfb39700870f53000200310006047800e0
:10095000d8b79f005fb397000004eb00860f5600e6
:100960000100360006045600680767002e003a00b2
:1009700009c2b300afb597003fb597000e0037002e
:100980003a0090000004b200040032001a0078001f
:1009900009487800000de800050037008a0078005b
:1009a00000022000d7020700e10f400001003200e2
:1009b0008b05e8000804e900e00f5400f0ff3a005e
:1009c000f5ff2f008b067800190037003c009000df
:1009d0000004b200090032009c0178000801780090
:1009e0003240780080497800030ee8000204780065
:1009f000e04f50000a003a0012003700080178006a
:100a00003200fb00020478008c00780085bf9f0054
:100a1000bc0207008fba9700e10f400009003200c6
:100a20008d06e8000700370088027800afb697000f
:100a30004fb49700dfb497006fb59700ffb59700ec
:100a40003fb69700090178008204e900e00f5100e9
:100a5000deff3a00adb79f0002027800c8b79f00e2
:100a6000d9b79f00eab79f00fbb79f000504780045
:100a7000840f57009702320009c2b3008d05780039
:100a80003fb597000e0037003a0090000004b20016
:100a9000040032001a00780009487800000de800d0
:100aa000050037008a007800000220009502070048
:100ab000e10f4000010032008b05e8000804e90066
:100ac000e00f5400f0ff3a00810237009fb097001a
:100ad0004103780091b79f0006047800cfc4de0080
:100ae000090578008a057800c8af9f00d9af9f003c
:100af000eaaf9f00fbaf9f004844de004848dd009e
:100b000008047000e8c79f00700367000a00320005
:100b1000e04f540008003200e14f4400060032006c
:100b2000f8c79f008fd8970081cf9f002200200038
:100b3000d2b79f00040037008fd99700f3c79f00fa
:100b400014002000d4b79f0075fc2f008582470059
:100b5000c5b79f0077ff3700e6c79f0066fc2f00f0
:100b600006834700c6b79f0017002000d7b79f0035
:100b700070ff3700e6c79f000e0cb3000e00780030
:100b8000000cb2003a003a00800f570005003d000b
:100b90001fb097004005be004004be0090b79f0004
:100ba0000e00370070006700110032001fb197007f
:100bb0004200be0092b79f0012029000cfa1de005b
:100bc0000004be00830578000802be00030378001d
:100bd0008b0378000605be000404be00c8b79f0062
:100be000d9b79f00eab79f00fbb79f000b00370003
:100bf0009fb497004902780099b79f0004007800dd
:100c0000cf80de000101780082017800c0b79f002c
:100c1000d1b79f00e2b79f00f3b79f004fb2970094
:100c2000dfb297006fb39700ffb39700e00f520059
:100c3000e08f5a00e00f5b00e08f5b0031003d0069
:100c40003e00b3006044b8006055b8000402540090
:100c500085825c0006035d0087835d00c4b79f004a
:100c6000d5b79f00e6b79f00f7b79f002500370074
:100c7000e00f570005003d001fb097004005be0083
:100c80004004be0090b79f000e0037007000670060
:100c9000110032001fb197004200be0092b79f00c2
:100ca00000047800010578008004eb000802780059
:100cb0008a02780009037800890378000605be00df
:100cc0000404be00c8b79f00d9b79f00eab79f00d1
:100cd000fbb79f000b0037009fb4970049027800d4
:100ce00099b79f0004007800010020000200200056
:100cf00003002000c0b79f00d1b79f00e2b79f005c
:100d0000f3b79f008fb09700e08f50000d003a00be
:100d10001200200082b79f004fb29700dfb2970009
:100d20006fb39700ffb39700e00f5200e08f5a00b7
:100d3000e00f5b00e08f5b00020032008002eb00fe
:100d400085b79f000e037800060cb200c6af9f0067
:100d500006042000cfab9700868f53003500320089
:100d600003003c00e08f53004a003a0007003700c0
:100d7000060820004fac9700860f54001500320083
:100d8000060c2000860f540042003a0083f3200036
:100d900016c0b300030278003400be003401be0068
:100da0004fb49700dfb497006fb59700ffb5970079
:100db0000040e10001c8e10002d0e10003d8e100f9
:100dc000330039000643e800f44f5300f2ff3a00c5
:100dd0002f00370016c0b3000801200009002000d2
:100de0006055b8004fb09700dfb097006fb1970023
:100df000ffb197000800e1000988e1000a90e100d6
:100e00000b98e10022003900410020000804d000c6
:100e10008984d2000a85d2008b85d2008100e90046
:100e2000faff3a000643e800f04f5300edff3a00a6
:100e30001700370016c0b30088002000090020000a
:100e40006055b8004fb09700dfb097006fb19700c2
:100e5000ffb197000800e1000988e1000a90e10075
:100e60000b98e1000a003900310020000804d0008e
:100e70008984d2000a85d2008b85d2008100e900e6
:100e8000faff3a000643e800f54f5300edff3a0041
:100e9000e6c79f006fc197000203fb008fb1970068
:100ea000830f530002003d00e3c79f00040037009a
:100eb0000fb29700860f520001003d0086b79f00d9
:100ec000e00f5600030032006303670001003200a8
:100ed0000c06e90006002400060367000600320045
:100ee0008fb29700850f56000200340005065600a9
:100ef000010037000006eb00efc397000703fb007b
:100f00000004eb00b8af9f00860f560002003400cb
:100f100006035600b6af9f00e40267004c003200a3
:100f2000e2026700e1036700e08f52001b0032001d
:100f3000bfb49700b90290000504b2000900320066
:100f400019037800b5c2b300e08f530001003200ee
:100f500085c2e800054b78003fb59700060de80014
:100f60000a003700b6022000858f530001003200ce
:100f70000683e800bfb09700060078006101070013
:100f800080027800e18f420018003200afb5970070
:100f90008b05e800abb79f0014003700858f530026
:100fa000120032003fb09700b00290000504b2007a
:100fb000050032001003780005c2b300054b78002d
:100fc0000608e80006003700bfb0970000022000c6
:100fd0004c01070080027800e18f420003003200dc
:100fe000afb097008100e800a1b79f003fa997002c
:100ff000e00f51006300320008c3b300020578001f
:10100000afb59700bfb49700390090000004b2005c
:10101000040032001900780008487800800ce800cd
:101020000500370089007800000320003501070023
:10103000e10f4000010032008b05e8000a05e900dd
:10104000f1ff3a00baaf9f00abb79f004d003700e9
:10105000bfa99700858f510017003200e802670092
:1010600015003a0008c2b30003057800afb5970039
:10107000bfb49700390090000004b20004003200b1
:101080001900780008487800800ce8000500370057
:1010900089007800000220001a010700e10f4000db
:1010a000010032008b05e8000a05e900f1ff3a0073
:1010b000baaf9f00abb79f00e2026700e103670091
:1010c000e08f52001b0032003fb29700b402900044
:1010d0000504b2000900320014037800b5c2b30061
:1010e000e08f53000100320085c2e800054b780014
:1010f000bfb29700860ae8000a003700b602200057
:10110000858f5300010032000683e800bfb09700ce
:1011100006007800fb00070080027800e18f4200a3
:10112000180032002fb397000603e800a6b79f000f
:1011300014003700858f530012003200bfb39700b0
:10114000b70290000504b2000500320017037800d2
:1011500005c2b300054b7800860be8000600370097
:10116000bfb0970000022000e60007008002780070
:10117000e18f4200030032002fb497000804e8001a
:10118000a8b79f008fb497008902e900422ddd00c7
:101190009aaf9f00632bb900860578008baf9f0044
:1011a000c32bdd0005f3200085824300700067003b
:1011b000e0a79f008e0078000102b200d1a79f0037
:1011c0000e017800f2a79f0005077800a200370003
:1011d0008fb197008301e90083b79f004faa970062
:1011e00005042000850f52007100320003003c000e
:1011f000e00f52007d003a00070037000008200091
:101200004fab9700800f530055003200000c2000b8
:10121000800f530075003a00ffa39700e08f530042
:101220001f003d003e02be002e03be004fb09700df
:10123000dfb097006fb19700ffb197003902070048
:1012400000047800e8c79f000804fb00cfc4de005c
:10125000090578008a0578003e02be002e03be0014
:101260000800be000a01be00aa0207004fb49700a2
:10127000dfb497006fb59700ffb5970000045400e6
:1012800081845c0002055d0083855d00c8b79f0016
:10129000d9b79f00eab79f00fbb79f002c0037002b
:1012a000efa49700e08f54001c0032004fb6970067
:1012b000dfb697003e04be002e05be000801be004a
:1012c0000c00be0044010700e0c79f000000fb00c7
:1012d000cf80de000801be004f010700000056006d
:1012e00081805e0080037800010378000002eb003b
:1012f00007007800860078000401780084017800f7
:101300000203be000002be00c4b79f00d5b79f0015
:10131000e6b79f00f7b79f000d0037009e017800e9
:10132000cfb29700811f7800110009008382d80096
:10133000cf007800a2002000811f78001100090072
:101340000280d80001007800cf007800e0c79f003d
:101350006fc397000643b000e6c79f002300370025
:1013600074112100dfa39700e08f530001003200c9
:10137000641021004fb09700dfb097006fb1970065
:10138000ffb197001fac97000804e9000500330087
:101390008301d1000281d3008180d3000080d3007b
:1013a000f9ff37006f006000644078000e003700de
:1013b0004fb09700dfb097006fb19700ffb1970073
:1013c0008fac97008904e900050033008301d10048
:1013d0000281d3008180d3000080d300f9ff370061
:1013e000674060000043b000e0c79f003fb5970032
:1013f0003a0090000004b200070032001a017800a1
:101400006fc0970000497800020de800e04f5000df
:1014100007003a0009003700efc597000b00fb00fa
:10142000bfb0970037000700e10f40000300320013
:101430002fb097000000e800a0b79f009fa897007a
:10144000e480500091af9f000fa997006301510005
:1014500082af9f00680757008fb19700e08f51005f
:101460005bff3a007fa79700e80167000fb2970083
:10147000848f510017003200bfaa9700e08f5200fe
:101480001400340008c2b30005057800afb597001a
:10149000bfb49700390090000004b200040032008d
:1014a0001900780008487800800ce8000500370033
:1014b000890078000002200012000700e10f4000c0
:1014c000010032008b05e8000a05e900f1ff3a004f
:1014d000abb79f002fab970016417800e2c79f0083
:1014e000e04f51005efc3a002fb097004f077800a4
:1014f0004f06be004f05be004f04be00ef02b10014
:1015000000000600889fbe0001047800b80090002b
:10151000628160008084eb003c0032008101780031
:101520000320b2001801900002003a00830f51001e
:1015300036003a000190a000310498008004780041
:10154000f90fb200e00f510002003a0028009000ad
:10155000000c7800ea8f540006003a000100780081
:101560000008b20003003a0088007800d000200094
:10157000e4ff070018009000d8009000810f500091
:101580000b0032000000e8001004980018007800fa
:1015900009487800000ce80010c0b300c11b21000e
:1015a00080487800ea8f540018003a0005003700a0
:1015b0008800780009407800170007008004780050
:1015c00012003700380090000010b2000f00320007
:1015d00018019000a8009000480090004f000700fc
:1015e00098009000810f50000400320038009000f5
:1015f0000003b300300498008084eb000000eb008f
:101600001004980028009000000c78000900780071
:101610004f04be00000006000200fa00889fbe00d2
:10162000a0ff9f00010478003800900000017800be
:101630000204b20034003a00e2006000828f5000e1
:1016400005003a000003b30030049800110498002c
:101650000080eb002e003700d8049000e08f54008b
:1016600006003a0012002000e68057004800900073
:101670002a0007001904980023003700a8009000f2
:10168000e08f500008003a00f11b2100210498006f
:10169000010c7800210020005104980011049800ea
:1016a0000030a0003004980018019000a8009000bd
:1016b0004800900019000700280090008080eb008f
:1016c00011049800aff8970001487800000ce8007a
:1016d0002ff89700ea4f50000b003a0038009000b6
:1016e0000010b2000800320018019000a80090001d
:1016f00048009000090007000000eb00100498006b
:10170000a8009000010c7800aff897000100fb00e2
:101710004f04be000080fa00000006000a00fa0034
:10172000e20f500021003e00608e8000e10f50006b
:1017300006003200852320004423200023232000bc
:1017400000232000e08f520004003a008522200090
:10175000442220002322200000222000060028002e
:101760009003630002003a00870a780010087300b3
:10177000004020001300600001003a0013a0a00008
:101780000200780006003700930278000510b200ce
:10179000fdff3200b102fb00050a78000000e900fd
:1017a000e00f5000f8ff3a00080037003300200037
:1017b000b3bf9f00c0bf9f00d1bf9f00e2bf9f008b
:1017c0006a80570000c0da006fb997000200780005
:1017d0000080fa00000006006022b8000602200027
:1017e0000000d0008180d2000482d2008582d20025
:1017f0000000a0000202520083825a000300310060
:101800000202420083824a000000a1000603e900b0
:10181000f3ff3a0000000600020ab900001bb900fd
:101820000200b80081004200810043000000060071
:101830000800fa00889fbe008a9fbe0084bf9f00f8
:1018400095bf9f00a6bf9f00b7bf9f003004be009a
:101850002005be000fba97009fba97002fbb9700d4
:10186000bfbb97000404440085844c0006054d006e
:1018700087854d000898be000a90be000440e10034
:1018800005c8e10006d0e10007d8e1000200310000
:10189000680040001008e8004f05be004f04be007d
:1018a0000080fa0000000600fe874700889fbe0007
:1018b0008a9fbe008c9fbe008e1f7800d0b79f000d
:1018c000e1b79f00f2b79f0083bf9f0084b79f00de
:1018d00095b79f00a6b79f00b7b79f008000eb00a9
:1018e000f1af9f00e1af9f00d1af9f00c1af9f005c
:1018f000b1af9f00010678000d042000ccb79f0017
:101900000605be000404be007fae97006faf9700cf
:101910005fa89700e00f56000f003d00cf71de007a
:101920000c01460002817100f2af9f005d000700cc
:101930004f20de00818040008100700064000700bd
:101940000802be000a03be0060fd2f000f00400029
:10195000b7ff07001d003700520007004f21de00cf
:101960008180400081007100590007003faa970064
:10197000cfaa97005fab9700efab9700080052002b
:1019800089805a000a015b008b815b00b0af9f0029
:10199000c1af9f00d2af9f00e3af9f004f70de004a
:1019a0000c01460002007000130020000820e10036
:1019b00009a8e1000ab0e1000bb8e100010039001c
:1019c0008001eb0003005000f0af9f007fae970056
:1019d000e00f56000f00350010002000010020002d
:1019e0006011b8005fb29700efb297007fb3970025
:1019f0008fbb97000402700085827000060371009f
:101a000087837100d4b79f00e5b79f00f6b79f00aa
:101a100087bf9f00cfb297008502e800c5b79f003f
:101a20008d8f5200b8ff3a000c017800e00f510092
:101a300007003d000fb297009fb297002fb39700a9
:101a4000bfb3970060fd2f000f00400078ff070034
:101a5000ffa09700e08f500008003a003fac9700cd
:101a6000cfac97005fad9700efad9700d8b79f0060
:101a7000e9b79f00fab79f008bbf9f005fb0970048
:101a8000efb097007fb197008fb997004f077800ac
:101a90004f06be004f05be004f04be00ef01b1006f
:101aa000000006004f01de008e004700810071003b
:101ab000c1af9f00afa897004f09de0000004000b3
:101ac00000007100b0af9f001faa97000000060041
:101ad000a1af9f000e0007004f18de000402420075
:101ae0000002720094af9f00090007000000400050
:101af000818048000201490083814900b0b79f00fe
:101b0000c1b79f00d2b79f00e3b79f000000060057
:101b10001fb09700afb097003fb19700cfb19700cb
:101b200000000600881f780018002000881f780039
:101b30005dff07008f87e9004f0478000000060072
:101b4000801feb0058ff07008f87e90000000600a8
:101b5000889fbe008a9fbe008c1f78006044b8003a
:101b60006055b8000800e1000988e1000a90e10032
:101b70000b98e1000d003d000000540081805c00e6
:101b800002015d0083815d001c0020000820e1004f
:101b900009a8e1000ab0e1000bb8e1000b003d002c
:101ba000210007000006eb00080037000006eb00ec
:101bb000e00f5200e08f5a00e00f5b00e08f5b0007
:101bc00002003d00180007001c002000d5ff0700a0
:101bd000800578000105780082047800030478000d
:101be0000b0278008a0278000903780088037800e5
:101bf000e00f5600060032006000b8006011b80027
:101c0000040250008582580006035900878359005a
:101c10000400be000601be004f0678004f05be005e
:101c20004f04be00000006000402540085825c00e0
:101c300006035d0087835d0000000600889fbe00ec
:101c40008a9fbe008c1f78006044b8006055b800c1
:101c50000800e1000988e1000a90e1000b98e1002a
:101c60000b003d000000540081805c0002015d001b
:101c700083815d001c0020000820e10009a8e1002c
:101c80000ab0e1000bb8e1000b003d000600370090
:101c90000006eb00e00f5200e08f5a00e00f5b00ff
:101ca000e08f5b0004003d000402540085825c006c
:101cb00006035d0087835d00a1ff070080057800b3
:101cc0000105780082047800030478000b02780094
:101cd0008a0278000903780088037800e00f560034
:101ce000060032006000b8006011b8000402500025
:101cf0008582580006035900878359000400be00fe
:101d00000601be004f0678004f05be004f04be001e
:101d100000000600889fbe008a9fbe008c1f7800ce
:101d20000006eb00e00f5000e08f5800e00f590074
:101d3000e08f590007003d006044b8006055b800ce
:101d40000000540081805c0002015d0083815d0021
:101d50001c002000e00f5200e08f5a00e00f5b00f3
:101d6000e08f5b0007003d006044b8006055b8009c
:101d70000402540085825c0006035d0087835d00d9
:101d80000c00a200100007000203be000002be000b
:101d9000e00f5600060032006000b8006011b80085
:101da00004025000858258000603590087835900b9
:101db0000400be000601be004f0678004f05be00bd
:101dc0004f04be0000000600889fbe008a9fbe0030
:101dd0008c9fbe000404b8000506b80089044600c4
:101de00060854e000606b8000a054600e0854e00f4
:101df0000706b8008b054600040eb80089044600ab
:101e00000a854e00e0854d00050eb8000a05460023
:101e10008b854e00060eb8008b0546000416b800f0
:101e20000a0546008b854e000516b8008b05460056
:101e3000041eb8008b0546000800be000a01be0063
:101e40004f06be004f05be004f04be000000060056
:020000040000fa
:101e5000323100003a300000383a000031310000e1
:101e600000410000707200002032000039200000a4
:101e7000323000003133000000000000000000009c
:101e8000ff00000000000000000000000000000053
:101e90000000000000000000000000000000000042
:101ea0000000000000000000000000000000000032
:101eb000010000000200000002000000000000001d
:101ec0000000000000000000000000000000000012
:101ed0000000000000000000000000000000000002
:101ee00000000000020000000300000000000000ed
:101ef00000000000000000000000000000000000e2
:101f000000000000000000000000000000000000d1
:101f100000000000000000000300000007000000b7
:101f200002000000020000000200000000000000ab
:101f300000000000000000000000000000000000a1
:101f4000000000000000000000000000040000008d
:101f50000700000002000000020000000200000074
:101f60000000000000000000000000000000000071
:101f70000000000000000000000000000000000061
:101f8000050000000f000000020000000200000039
:101f9000020000000000000000000000000000003f
:101fa0000000000000000000000000000000000031
:101fb00000000000060000000f000000020000000a
:101fc000020000000200000000000000000000000d
:101fd0000000000000000000000000000000000001
:101fe0000000000000000000070000000f000000db
:101ff00002000000020000000200000000000000db
:1020000000000000000000000000000000000000d0
:1020100000000000000000000000000008000000b8
:102020000f0000000200000002000000020000009b
:1020300000000000000000000000000000000000a0
:102040000000000000000000000000000000000090
:10205000090000000d000000070000000200000061
:10206000010000000100000001000000010000006c
:10207000010000000100000000000000000000005e
:10208000000000000a0000000d0000000700000032
:10209000020000000100000001000000010000003b
:1020a000010000000100000001000000000000002d
:1020b00000000000000000000b0000000f00000006
:1020c000020000000200000002000000000000000a
:1020d0000000000000000000000000000000000000
:1020e0000000000000000000000000002e2e000094
:1020f0002f730000726300002f75000074690000e8
:102100006c7300002f6900006e73000069670000a7
:10211000687400002e630000004900004e53000068
:1021200049470000485400002100000046610000bb
:10213000696c000065640000207400006f200000de
:10214000616c00006c6f000063610000746500004a
:102150000d0a0000004800006561000070200000ca
:10216000616e00006420000070610000796c000066
:102170006f61000064200000776900006c6c000053
:10218000206e000065760000657200002066000089
:10219000697400000d0a0000004100007474000022
:1021a000656d000070740000696e0000672000001b
:1021b000746f0000206100006c6c00006f63000011
:1021c00061740000652000006d6500006d6f000007
:1021d000727900002e2e00000d0a0000004300005e
:1021e0006f7500006c640000206e00006f740000ca
:1021f000206100006c6c00006f63000061740000df
:10220000652000006d6500006d6f000072790000b0
:102210002c2000006e650000656400002074000042
:102220006f20000066720000656500000d0a000066
:1022300000000000a81100000400000000000000e1
:10224000aa1100005200000000000000ac110000c4
:102250005200000000000000ae110000000200006b
:10226000010000002d2d00002d2d00002d2d00005f
:102270002d0d00000a420000414e00004b200000de
:10228000256400000d0a00002d2d00002d2d0000fa
:102290002d2d00002d0000000d0a0000002500007b
:1022a00030320000583a0000202500003034000091
:1022b000582000007c2000000052000065670000ec
:1022c0003a20000025300000345800002c20000087
:1022d00045490000523a000020250000303400003b
:1022e000580d00000a000000455300005441000052
:1022f00054200000483a0000202500003032000041
:1023000058200000455300005441000054200000b4
:102310004c3a00002025000030320000580d00002b
:102320000a00000050610000636b0000657400004b
:1023300073200000706500006e640000696e00008c
:10234000673a000020250000640d00000a4c0000e0
:10235000696e00006b20000053740000617400007f
:10236000757300003a200000002000004143000087
:1023700054490000564500000d0a000000200000ee
:10238000696e0000616300007469000076650000fa
:102390000d0a000000000000436f0000756c000093
:1023a000646e000027740000207200006567000062
:1023b0006973000074650000722000004152000043
:1023c00050200000686100006e6400006c65000031
:1023d00072000000ffff0000ffff0000ffff000091
:0c23e000000000000000000000000000f1
:020000040000fa
:1023ec00889fbe000044780081447800d2c2a900c6
:1023fc007f4064000064a0002806070009407800b4
:10240c0026060700d2c2a8008984fb00891f780029
:10241c000884fb00881f780040032000801f780090
:10242c008000eb006000200077070700e68757006c
:10243c004f04be0000000600889fbe0000447800d8
:10244c0081447800d2c2a9007f4064000074a000cf
:10245c00120607000940780010060700d2c2a80037
:10246c008984fb00891f78000884fb00881f780092
:10247c00d0032000801f78008000eb00700020004b
:10248c0061070700e68757004f04be0000000600f6
:10249c00889fbe000044780081447800d2c2a90015
:1024ac00ff40640000cab30000c07000fb050700c9
:1024bc0009407800f9050700d2c2a8008984fb0006
:1024cc00891f78000884fb00881f780060042000b6
:1024dc00801f78008000eb00800020004a07070076
:1024ec00e68757004f04be0000000600889fbe0020
:1024fc008044780001047800d2c2a9007fc0640037
:10250c000064a000e505070008407800e30507001b
:10251c004840de00e1050700d2c2a800881f780001
:10252c008984fb00891f780010052000801f78002b
:10253c008000eb006000200033070700e68757009f
:10254c004f04be0000000600889fbe0000447800c7
:10255c00d2c2a9007f406400d0050700c80507005f
:10256c0080447800d2c2a800c0c9b300804f540088
:10257c000a0032000980fb00801f78000884fb00f1
:10258c00881f7800d0052000801f78008000eb00a9
:10259c00500020001c070700e68757000940780010
:1025ac004f04be0000000600889fbe0080447800e7
:1025bc00d2c2a9007fc06400b80507000040eb0040
:1025cc00b6050700ae05070000447800d2c2a8008b
:1025dc000880fb00801f78008984fb00891f78002d
:1025ec00b0062000801f78008000eb005000200017
:1025fc0005070700e6875700084078004f04be0027
:10260c0000000600889fbe00004478000840780057
:10261c00cdff07008084fb000840e800caff0700dc
:10262c004800dd00090070004f04be0000000600e9
:10263c00881f780000447800c0d420008040eb0054
:10264c0090cf100006003200d2c2a900f0cbb3002c
:10265c009205070030c0b30090050700d2c2a80055
:10266c004540de0063006000c1d420008048780043
:10267c00e04f500007003200d2c2a900f0c9b300ed
:10268c0086050700c0d420001040780083050700a1
:10269c00d2c2a8004f04780000000600889fbe003c
:1026ac008104780002047800d2c2a900a0c7b3004c
:1026bc007a050700080178008000eb00090078001b
:1026cc00bd050700d2c2a8004f04be0000000600e2
:1026dc00881f78000044780008407800e04f5400d0
:1026ec00080035004501de0063016100c1d4200003
:1026fc00914078008180fb00810f51000100320075
:10270c00cbff0700084078008fff07004f047800cc
:10271c0000000600881f780000447800084078000c
:10272c00e04f5400080035004501de0063016100f4
:10273c00c1d42000914078008180fb00810f5100b2
:10274c0001003200baff070008407800adff070017
:10275c004f04780000000600889fbe0000447800fb
:10276c008144780008407800e04f540008003500a0
:10277c004501de0063016100c1d420009140780066
:10278c008180fb00810f510001003200a8ff07007f
:10279c00894078000840780011ff07004f04be0004
:1027ac0000000600889fbe00004478008144780039
:1027bc0008407800e04f5400080035004501de0069
:1027cc0063016100c1d42000914078008180fb003e
:1027dc00810f51000100320095ff070089407800fd
:1027ec000840780014ff07004f04be0000000600ec
:1027fc00889fbe000044780081447800084078002f
:10280c00e04f5400080035004501de006301610013
:10281c00c1d42000914078008180fb00810f5100d1
:10282c000100320082ff07008940780008407800e0
:10283c0017ff07004f04be0000000600889fbe0073
:10284c00004478008104780008407800e04f540080
:10285c00080035004501de0063016100c1d4200091
:10286c00914078008180fb00810f51000100320003
:10287c006fff07008940780008407800d8fe0700f9
:10288c00c848de000840e800d5fe07004f04be0033
:10289c0000000600889fbe000104780082047800c6
:1028ac00800078000040eb00e4ff0700d2c2a900d2
:1028bc00a0c3b300f9040700090178008800780070
:1028cc000000eb003c050700d2c2a8004f04be007c
:1028dc0000000600881f7800010478008040780012
:1028ec0040c5b3009cff07008800780060c5b300aa
:1028fc00d2ff07004f04780000000600889fbe003e
:10290c008040780040c5b30093ff070011c0b300ae
:10291c0020c5b300a3ff0700a8c6b3008004eb00da
:10292c000840780020ff070061006000890f50000c
:10293c00fbff3a0011c0b30020c5b300acff070089
:10294c00d2c2a90080c1b300d40407000040eb0040
:10295c00d2040700ca0407000084fb00d2c2a800fe
:10296c00d2c2a90090c1b300cc0407000040eb0018
:10297c00ca040700c2040700d2c2a8004800dd0048
:10298c00080070004f04be00000006000200fa00b0
:10299c00889fbe008a9fbe00800478008105780065
:1029ac000040eb00e0f79f00f8c9b3000005eb0016
:1029bc000800370081c0b3000840780079ff070099
:1029cc0081c0b3000840780089ff0700e0c2b30063
:1029dc0017090700084078003dff070068006000f9
:1029ec008a0f5000f3ff3a000100210020c0b30011
:1029fc0092ff0700080021008880450060c0b300ea
:102a0c008eff070010c0b300ac04070012002000ba
:102a1c00ea8057000800780020ff07000b017800bf
:102a2c0089007800100021001cff07000040eb001b
:102a3c00a2040700a1c0b300c0c9b3006cff07001b
:102a4c0081c0b300f0c9b30056ff0700c8c9b3007a
:102a5c000005eb00084078001dff070068006000cf
:102a6c008a0f5000fbff3200594090000080fb00a1
:102a7c00801f7800494090000080fb00801f780088
:102a8c00394090000080fb00801f780029409000a6
:102a9c000080fb00801f7800194090000080fb0034
:102aac00801f7800994478000980fb00801f780013
:102abc008b1f780000192000801f78008000eb002d
:102acc00a0002000d0050700f08757004f05be007e
:102adc004f04be000080fa00000006000600fa0059
:102aec001001be00d2bf9f00e3bf9f00a001900069
:102afc00f3bf9f00660140001202be000488be00b6
:102b0c00d0029000250098005fba9700efba9700aa
:102b1c000489be008302780055009800ee804000c6
:102b2c009aff07000080fa0000000600c0c9b3003d
:102b3c00e7fe0700800078000104b20010c0b3006b
:102b4c0001003a000040eb000000060090c3b30007
:102b5c00dffe0700000006000800fa00889fbe0098
:102b6c008a9fbe0080057800f8ff070011c0b300f3
:102b7c00e1f79f00e04f50005a0032000b84e80050
:102b8c00416a80000040eb002cff0700620020002f
:102b9c00f0805700406a80003eff07009ff49700ca
:102bac00c84cdd000ff097000081fb00828474009c
:102bbc00aff197003ff197004ff29700700262005f
:102bcc0032003a004815dd008381fb0003057500d7
:102bdc000a85e900406a8000640040000a01780020
:102bec008b0078002bff070068019000c811dd00f6
:102bfc004811de000281710062049800384990008f
:102c0c000281fb00821f7800284990000281fb00a2
:102c1c00821f7800184990000281fb00821f780007
:102c2c00084990000281fb00821f780078419000d7
:102c3c000281fb00821f7800684190000281fb003a
:102c4c00821f78008a1f7800221d2000821f7800c6
:102c5c008000eb00900020006b0507000045eb00a6
:102c6c00eae79f00fa805700080078005c02070032
:102c7c00f08757006ff197008a4f510003003a001c
:102c8c00ea8057000800780018060700496a880097
:102c9c0080c0b3009ffe0700426a80008081fb0069
:102cac00828f510006003a00a0c0b30099fe0700c5
:102cbc008080fb00c0c0b300e0fe070003003700bb
:102ccc008200e900c0c0b300dcfe070001c4b30001
:102cdc00e0c9b300b3fe07009cff0700e04f5000b3
:102cec00a7ff3a004f05be004f04be000080fa005b
:102cfc00000006000001780000d420008040eb00aa
:102d0c0090cf100006003200c04090000040eb0055
:102d1c0080cf500009003a0011002000010037005c
:102d2c008000eb00c208dd0000d4200081004000d0
:102d3c0010c0b30080487800920098000000060094
:102d4c00116a8000808f500002003a0001d42000ec
:102d5c008048eb00316a8000808f500003003a00fd
:102d6c000040eb0001d42000c04098000000060099
:102d7c000200fa00881f7800000478000040eb0085
:102d8c00c0ff9f0000d4200011c0b30090cf1000f2
:102d9c0007003a00e480570008007800126a8000af
:102dac00020001004ff89700e04f500008003a0075
:102dbc0000d42000c0409000e1cf500004003a0045
:102dcc00e480570008007800326a8000020001009d
:102ddc004f0478000080fa0000000600002020005c
:102dec00ca22b700cb22a900ca22b700d2c2a900be
:102dfc0000c0eb00ee030700d2c2a80000000600e2
:102e0c00889fbe008a1f780000047800d2c2a800f8
:102e1c00586a880000d420000008eb00efff070080
:102e2c0020c0b300b5fe070030c0b300b3fe0700ee
:102e3c0020c7b30026fe070001c4b300e0c9b300ed
:102e4c0058fe0700d9c9b3000005eb000940780013
:102e5c001ffe0700610060008a0f5000fbff32006c
:102e6c00217a200040c1b3009afe07008000eb00dd
:102e7c0080c0b30071fe0700f1ff2000a0c0b300ba
:102e8c006efe07008000eb00c0c0b3006bfe0700b5
:102e9c000100210040c0b30068fe0700f1ff2100d3
:102eac0060c0b30065fe0700d1c0b30000c4b3001e
:102ebc0029fe070061cfb30020c4b30026fe070033
:102ecc0001c4b30030c4b30023fe0700e15e200050
:102edc00a0c4b30059fe070021c1b30040c4b30025
:102eec001dfe070021c1200060c4b30053fe070083
:102efc009840780040c6b30017fe07009840900039
:102f0c0050c6b30014fe0700a840900020c6b300c2
:102f1c0011fe0700b840900030c6b3000efe07004b
:102f2c00c840900000c6b3000bfe0700d8409000cc
:102f3c0010c6b30008fe07000110200000c1b3004a
:102f4c0064fe070041c0b300f0c9b30015fe0700d2
:102f5c004f0578004f04be0000000600881f780063
:102f6c00710020000044eb000080fb0088417800d9
:102f7c008002eb00170020000082eb0000037800b9
:102f8c000181de0061416100834f510002003a0073
:102f9c00d202a90001003700d202a800521680000c
:102fac0068016100850f5100020032000139dd001b
:102fbc0002447400d222a800d222a9008100e900a8
:102fcc00848f5000edff3a000880fb00801f7800d2
:102fdc00861f780080032000801f780021002000cd
:102fec00b000200088040700e687570008407800ee
:102ffc004f04780000000600881f78000044780019
:10300c0040102100904f540008003200ca42a90021
:10301c008840440000ccb30000c07000cfff070014
:10302c00ca42a80040102100084878004f047800dc
:10303c00000006000400fa008000eb00e1bf9f00d6
:10304c00f1bf9f008041eb000002eb003106200035
:10305c0015003700e4bf9f006fb99700810f510036
:10306c0010003e00f4bf9f007fb99700810f510004
:10307c0006003e007fb997000201e800f2bf9f00f6
:10308c007fb99700810f5100faff36006fb9970096
:10309c000201e800e2bf9f006fb99700810f510059
:1030ac00f0ff36000040e900834f5000e9ff3a0082
:1030bc000080fa0000000600881f7800ca42a900b0
:1030cc007f406000a5ff07000040eb00a3ff070056
:1030dc000084fb000040eb00a0ff0700ca42a800e0
:1030ec004800dd00080070004f0478000000060066
:1030fc00881f780001047800ca42a9007f40600054
:10310c000064a00095ff07000840780093ff0700bb
:10311c004840de0091ff0700ca42a8004f04780027
:10312c0000000600881f780000447800e04f54002f
:10313c00030035000880fb004500de00aeff0700f1
:10314c00ca42a9007f40640084ff07000040eb00e6
:10315c0082ff0700ca42a8004f0478000000060056
:10316c00889fbe000044780008407800edff0700ff
:10317c00804478000840e800eaff07004800dd00c2
:10318c008984fb00090070004f04be00000006009b
:10319c00889fbe000144780080447800e04f5000c6
:1031ac00030035000080fb004500de0092ff0700a5
:1031bc00ca42a9007fc064000064a00067ff07003a
:1031cc000840780065ff0700ca42a8004f04be0003
:1031dc0000000600889fbe0000447800810478003f
:1031ec008940780008407800e9ff0700c848de00f5
:1031fc000840e800e6ff07004f04be000000060090
:10320c00889fbe000144780080447800e04f500055
:10321c00030035000080fb004500de0076ff070050
:10322c00ca42a9007fc064000074a0004bff0700d5
:10323c000840780049ff0700ca42a8004f04be00ae
:10324c0000000600889fbe000044780081047800ce
:10325c008940780008407800e9ff0700c848de0084
:10326c000840e800e6ff07004f04be00000006001f
:10327c004010210000c8eb0000000600a0c9b300fc
:10328c00a8ff07000080fb000000ea004f00de00f2
:10329c0000000600b0c9b300a2ff07006140600047
:1032ac000000060000000600889fbe008a9fbe003a
:1032bc008c9fbe008e1f7800c842a900c862a8006f
:1032cc00d002a900d022a900ca42a800d202a800ac
:1032dc00d222a800482321008004eb00880078004b
:1032ec0060c9b300bbff070060c9b3009cff0700b7
:1032fc00880f5000f9ff3a00b0c9b30089ff0700ee
:10330c0001c1b300e0c6b300bdff0700d8ff070042
:10331c0040c6b30047ff070060c9b30090ff070029
:10332c00890f5000edff3a000160220040c7b30046
:10333c00a8ff07000007eb000ac2b3008046eb00b1
:10334c0040c6b3003bff07000e067800fb142900b3
:10335c000c40780028ff07008c1f780020132900f0
:10336c00801f7800400c210099f40700400c2100cc
:10337c00b8060700e48757008e0478000d447800e7
:10338c006f40640002003a00c0142900b106070027
:10339c000840780072ff0700801f7800899f440066
:1033ac008b1f7800400c210089f40700400c210091
:1033bc00a806070008c4e8008904e800e68757005f
:1033cc008a4f5400eeff3a00c0142900a1060700f2
:1033dc00c01429009f0607000c06e800e40f5600f5
:1033ec00dbff3a00c01429009a060700c01429001c
:1033fc0098060700c0c1b3002fff07000004780037
:10340c0040c1b3002cff0700881f7800801f780094
:10341c00d0152900801f7800400c21006cf40700a7
:10342c00400c21008b060700a0c9b3003dff07002c
:10343c0000447800b0c9b3003aff07000884fb00d1
:10344c00881f78000080fb00801f7800401729003f
:10345c00801f7800400c21005df40700400c210017
:10346c007c06070085ff07000080fb00801f7800aa
:10347c0020192900801f7800400c210054f407000b
:10348c00400c21007306070082ff0700f0875700ed
:10349c00e04f500003003200501b29006d0607005e
:1034ac00a7ff3700f01b29006a060700a4ff3700ae
:1034bc0060af21000ffe07000040eb00c119210096
:1034cc0080487800e480400080487800e480400028
:1034dc008048780000000600c11921000041eb0073
:1034ec00914f11000a003200e4804000914f11000e
:1034fc0005003200e4804000914f11000b003a00af
:10350c0021002000030037001100200001003700cb
:10351c008000eb00c208dd00c2192100010141004e
:10352c0011c0b3000149780010019800000006009a
:10353c00f18c8000808f500002003a00c1192100ec
:10354c008048eb00118d8000808f500002003a0003
:10355c00011a21008048eb00318d8000808f5000d3
:10356c0002003a00401a21000048eb00000006005f
:10357c000200fa00889fbe008a9fbe008c1f780054
:10358c00000678000040eb00c0f79f00c81921002e
:10359c00e805440019c0b3000045780098cf14002a
:1035ac0004003a0018019000ec8057000c007800e1
:1035bc00020001008b0f540004003200640444002c
:1035cc004ff097008a4f5000f4ff32004f067800fe
:1035dc004f05be004f04be000080fa00000006003c
:1035ec00e001900002802000828f510008003a0018
:1035fc0012c0b30082487800800890004809dd00b2
:10360c00c808de008100710001089800d8ff07008f
:10361c00000006000a00fa000001eb00b2bf9f0098
:10362c006011b800c2bf9f00d3bf9f00e2bf9f00d4
:10363c00f3bf9f008100d1003fb99700828f5000eb
:10364c00150036003fb99700020141006001790076
:10365c00bfb9970083814100e08179006fba970070
:10366c00ffba9700c819dd004811de000281710015
:10367c0002014200e0814a00e2bf9f00f3bf9f00bd
:10368c003fb997000201e800b2bf9f003fb9970015
:10369c00810f5100ebff39006fb89700ffb897000e
:1036ac00b1bf9f006fb89700ffb8970001002000d2
:1036bc00e0bf9f00f1bf9f003fb997006fb8970024
:1036cc00ffb8970002004000e0804800e0bf9f0078
:1036dc00f1bf9f006fb89700ffb897000080ea0019
:1036ec008180ea00c0bf9f00d1bf9f004fb89700f8
:1036fc00dfb897000080fa00000006000400fa0012
:10370c00889fbe008a9fbe00000478008144780028
:10371c00fe0044001101be00a2bf9f00b3bf9f007a
:10372c007a0044001001be008288be002fb99700b9
:10373c00bfb997000288be000000eb00400c980057
:10374c0068009000c800dd004800de0000807000ba
:10375c006004980008089000c800dd004800de00f6
:10376c0000807000000c98006e054400f80090007a
:10377c00ef806000c208dd000a007800a5ff07009a
:10378c0080057800f8009000ef806000c208dd0032
:10379c000a0078009fff07004801dd00c858de00d2
:1037ac0001007100400c98008980fb00f4804000ff
:1037bc0008007800c9fc07004f05be004f04be008e
:1037cc000080fa0000000600889fbe008a9fbe00a1
:1037dc0002047800f4844100621b210005000900fa
:1037ec00325c78006800b1006601440003192100c6
:1037fc0005000900335978006200b10082002000f6
:10380c00620498007e0144000300090030597800de
:10381c004200b1004000b1007a004400c2182100ff
:10382c0003000900325878004000b1007801900084
:10383c00f0f02f00000061000060a00002ff2f00dc
:10384c00020060005000b300700498000040eb00d0
:10385c00704c98004849dd004848de0000007100bb
:10386c00000c980020412300100c98000001eb0084
:10387c00220c980000c8b300605498007154980052
:10388c00420c98006e054400410120000a007800ab
:10389c0060ff070080057800f8009000ef80600062
:1038ac00c208dd000a0078005aff07004801dd005d
:1038bc00c858de0001007100400c9800ee804400f6
:1038cc000800780031fc07004f05be004f04be0015
:1038dc0000000600889fbe008a9fbe008c1f7800e7
:1038ec008003780006fd2000408380008045eb00bb
:1038fc000004eb00caff2f00090820001cc0b30015
:10390c001000370010019000020255008182fb006c
:10391c008081fb008381520083014200898f51001a
:10392c000b003e00870f51000500390096019000f6
:10393c00830f510002003100000378008c457800a1
:10394c000100780090007800888f5000edff3a005d
:10395c000105210080805000818f530003003e0040
:10396c0016019000828f500003003900e0cf550003
:10397c0001003a000000eb004f0678004f05be0036
:10398c004f04be000000060010019000c1ff2f0084
:10399c0082805000904178000381fb000080fb0086
:1039ac00000051000080400000000600889fbe000f
:1039bc008004780009007800c6ff07000004780036
:1039cc00e00f540001003a004883800008007800a2
:1039dc00edff070080007800818f540003003e004b
:1039ec00080078004f04be0000000600ffff3700ff
:1039fc000000060000fd2000408388000208200023
:103a0c008000eb00ebf2070000000600800078005d
:103a1c000040eb0042838000e00f510005003200b3
:103a2c0010c0b300c2072000828f50000100360086
:103a3c000040eb0000000600889fbe008a9fbe007d
:103a4c008c1f78004c8380000c0178008004eb0004
:103a5c00cbff2f000a08200017003700120390003c
:103a6c00868355000384fb008282fb008502540090
:103a7c00858243008a8f520027003e00818f5200be
:103a8c000c003900640343000282fb000402430073
:103a9c00030a780011029800040978006600b90046
:103aac0042052100020040007008420010c0b30023
:103abc001a0037000301780092017800898f5100b9
:103acc00e6ff3a00032020008c81410082815100e6
:103adc00c299de00838f50000b003100e48140005e
:103aec00830141008009eb00030978001101980063
:103afc006600b90043052100030040007008410036
:103b0c0010c0b3000500370060092900d10407007c
:103b1c000040eb00010037000040eb004f0678003e
:103b2c004f05be004f04be0000000600889fbe007b
:103b3c008a9fbe00800078000000eb00f2ff2a0094
:103b4c00828f50003b003e000184ea00f83fb20037
:103b5c00e40f540037003e000040200080806000dd
:103b6c000000eb00808f5000320032006640b9003c
:103b7c00e2112900e240780000b02f00e0cf5000a5
:103b8c002c003a006640b900640040000105210099
:103b9c0061007800e00f500026003a006640b90042
:103bac000080e800e4005100e1047800090078008e
:103bbc0096ff0700e04f500004003a00b00a2900bd
:103bcc00a40407000000eb001a003700d00c2900f9
:103bdc00a00407000800be0097ff0700e04f50004c
:103bec000c003a00f00e29009a0407008085eb00c7
:103bfc000045eb008b007800090078006bff070094
:103c0c00800578000800be008bff07008a4f50002b
:103c1c00f8ff32006644b90008007800a1112900b1
:103c2c006101780064004000010521006109780001
:103c3c00610078004f05be004f04be000000060076
:103c4c0002ceb3000241400010c0b300e1c5b30086
:103c5c00814f5100010036000040eb0000000600cf
:103c6c00108e800000000600208e800000000600f0
:103c7c000000eb00208e8800108e880000000600eb
:103c8c00108e80000000e800108e8800a62702002d
:103c9c0000000000808d800000000600218e800056
:103cac008100e800218e88000080fb00908d880048
:103cbc007e2602000000000000000600411b2100cf
:103ccc008048780000000600108e800068004000dc
:103cdc00108e8800d302a900710020000040eb0078
:103cec00052020000002eb00160020008081eb0074
:103cfc00d2e2a8009216800005016100840f5100e9
:103d0c00020032000131dd0002407000d2e2a90055
:103d1c008100e900838f5000f5ff3a000000060097
:103d2c00881f780080437800108e80006800400067
:103d3c00108e8800208e800068004000208e880045
:103d4c00710020000040eb008783fb00804178006d
:103d5c00062020008002eb00180020000082eb00ff
:103d6c0001b9de0061416100834f510002003a004d
:103d7c00d302a90001003700d302a800d2e2a800a8
:103d8c009216800006016100850f5100020032007e
:103d9c000141dd0002407000d2e2a9008100e9007f
:103dac00848f5000eeff3a004f04780000000600ac
:103dbc00dbff0700000006000200fa00889fbe002f
:103dcc008a9fbe0000057800810478000204780008
:103ddc000000eb00b0bf9f00800f550012003a00ae
:103dec003fb89700800f540039003600108e8000c9
:103dfc000000e800108e8800a627020000000000da
:103e0c00bfb89700808d800080f478003fb8970091
:103e1c000000e800b0bf9f003fb89700880f50002b
:103e2c00f2ff39002a003700e08f54000400320002
:103e3c003fb89700800f540014003e002400370058
:103e4c003fb89700800f540021003600208e800070
:103e5c000000e800208e88003fb897006a40780088
:103e6c000080fb00908d88007e2602000000000080
:103e7c003fb897000000e800b0bf9f003fb8970024
:103e8c00800f5400f1ff3e0011003700108e8000af
:103e9c000000e800108e8800208e80000000e800f2
:103eac00208e8800bfbd97003fb897006a4078000d
:103ebc00bfff070080f47d003fb897000000e800ca
:103ecc00b0bf9f003fb89700800f5400efff3e003b
:103edc004f05be004f04be000080fa000000060033
:103eec00d122a800f0ef2f00d022b600f1f72f005e
:103efc008000fd00d022b6008000fd00d0c2a900d9
:103f0c00c922a9008000fd00d222b6008000fd006d
:103f1c00d222b600000006004822ef008000eb0021
:103f2c000012800061006000810f5000fcff320025
:103f3c0040128000000006000200fa008000eb0036
:103f4c00f1bf9f000080fb0040128800001280002f
:103f5c0061006000810f5000fcff320040128000b5
:0c3f6c00f0bf9f000080fa00000006007b
:020000040000fa
:103f7800400c00000e01000000000000c41000000a
:103f88004200000000000000c21100000400000010
:103f9800020000000000000000000000b011000056
:103fa8000600000000000000a81100000800000042
:103fb80002000000ffaffe00affdaf00fcaf000045
:103fc800d00f00009a000000000000008c110000d3
:103fd8001000000000000000b611000006000000fc
:103fe80002000000b0487a00db5bea009c11000088
:103ff8000c00000000000000c611000004000000d2
:104008000200000000000000000000006a1000002c
:104018005a000000000000005611000020000000b7
:1040280000000000580e0000d8000000000000004a
:10403800ca11000002000000020000007690000093
:104048004e0d00000a01000000000000761100007b
:1040580016000000020000000004a30012345600fd
:10406800c0a801007bc0a8000101c000a8019300fe
:10407800c2aba70082000000000800004004000056
:1040880000000000061100002a00000002000000e5
:104098003031320033343500363738003941420088
:1040a8004344450046003000313233003435360091
:1040b80037383900616263006465660000286e0065
:1040c800756c6c0029000000300f0000a000000093
:1040d80002000000010000000000000000000a00cb
:1040e8000000000000000000006400000000000064
:1040f80000000000e80300000000000000001000bd
:10410800270000000000000000a086000100000059
:104118000000000040420f00000000000000800086
:1041280096980000000000000000e100f50500007e
:104138000000000000ca9a003b00000000000000d8
:10414800e40b5400020000000000e8007648170065
:10415800000000000010a500d4e8000000000000e6
:10416800a0724e0018090000000040007a10f30009
:104178005a0000000080c600a47e8d0003000000e5
:1041880000c16f00f2862300000000008a5d7800fd
:104198004563010000006400a7b3b600e00d00000d
:1041a80000e889000423c7008a000000bc11000051
:1041b800060000000000000030110000260000008a
:1041c80002000000bd11000000bd11000900000040
:1041d80000020000bf11000000bf11000e02010024
:1041e80000000000000000000000000006020200bd
:1041f8000000000030110000cc1100000200000097
:0c420800020000000100000000000000a7
:020000040000fa
:104214000000fa00889fbe008a9fbe008c9fbe00eb
:104224000004780081057800e00f5400600032003b
:104234007a40b90064014000e1f328006105790087
:104244000080e80061007800f00f500058003e0044
:10425400f484570042002000d1082900e0d4200053
:10426400f300070088007800e0d420000101070073
:10427400efb09700e0d42000fe0007008b00780028
:10428400e0d42000fb000700e04f55003800320066
:104294007a40b9002bf428008b0540000044eb0061
:1042a4000c002100fdff20005b0178000c00610080
:1042b4000a0032000d01610004003a00c9007800d0
:1042c400e0d420000201070026003700c90078006e
:1042d400e0d42000d60007002200370003002000ad
:1042e400e80f5100e08f59001e003e0002600100fb
:1042f400080037000b0037000f00370019003700a3
:10430400110037001700370016003700150037007a
:1043140011003700c9007800e0d42000ec00070049
:10432400100037008984e90099407800e0d4200027
:10433400ae0007000b003700c9007800e0d420006d
:10434400cc000700070037004901be00e0d420007c
:10435400cf000700030037004901be00e0d420006d
:10436400d30007000844e800884f5500ceff3e0004
:104374004200200011092900e0d42000ac0007000d
:10438400e9d420000044eb00040037000900780061
:10439400e600070000407800a70207000900780043
:1043a400f30007008040780088cf5000f7ff3a0000
:1043b4004f06be004f05be004f04be000080fa0049
:1043c400000006000210200081d52000e0d4200067
:1043d4007f00070080f22800801f780010f3280077
:1043e400801f780080012000801f7800c100200019
:1043f4001000200086ff0700e68757000000060033
:10440400c02722003dfa0700e04f500002003a00a6
:10441400c01c290091020700000006002a00fa00cf
:1044240005102000a5b79f0085002000b5b79f00a8
:1044340065c0b30085ef9f0045c0b30095ef9f00b2
:1044440005102000e04f520001003200052020003a
:10445400d5b79f007482570005000900305a7800d0
:104464006400b1006000b1006e80570003000900d1
:10447400315878004000b1004100b1006a80570013
:1044840005000900325878006000b1006200b100f4
:104494006480570003000900335878004000b100dd
:1044a4004300b10060fd2f000f004000a11e290051
:1044b40005000900315878006000b100c0fd2f00ec
:1044c4000f0040000119210005000900315878004f
:1044d4006000b1008060200090b79f00a10220001e
:1044e40060fd2f000f0040002af907000080fa0049
:1044f40000000600881f7800e00190006280200020
:10450400828f510021003a0012c0b3008248780023
:104514000004780078009000c800dd004800de0048
:10452400008070007004980008089000c800dd0046
:104534004800de0000807000000c980028089000fd
:10454400c800dd004800de0001007000200c980067
:10455400e20f50000d00320060022000080040000d
:1045640042002000c1182100faef0700e00f5000bc
:1045740006003a007601440014c0b300fc01440074
:10458400c118210000192100a4ff07004f0478007e
:104594000000060082017800c2182100030009000f
:1045a400315978004100b1000219210005000900c9
:1045b400305978006000b1000042eb00021f29006e
:1045c40096ff070000000600a01e29000000060058
:1045d40041009800020878008000eb003100980048
:1045e40021009800110098000000060010019000be
:1045f400900f51000d003200c00190002001900086
:1046040081717900900090008100e8001100980009
:10461400a00090008100e80021009800908f5000d5
:1046240002003a008000eb00210098000000060020
:10463400889fbe008a9fbe008005780081047800b0
:1046440002057800e00f5500070032000004eb007b
:10465400b94078000b007800e4ff07000804e80084
:10466400880f5500faff3e004f05be004f04be0000
:10467400000006000200fa00f1bf9f0022002000a3
:104684008f80e900eaff07000080fa0000000600be
:104694000400fa00e2bf9f00f3bf9f004200200025
:1046a400e4805700e2ff07000080fa0000000600e3
:1046b4000400fa00e2bf9f00f3bf9f004200200005
:1046c400e4805700daff07000080fa0000000600cb
:1046d400889fbe008a1f7800000578008104780056
:1046e4000004eb000040eb00994f1000050032007d
:1046f40089017800004178000804e800d34f1100d4
:10470400fdff3a00880078000a007800d9ff07000e
:1047140008017800890078000a007800c4ff0700c7
:104724004f0578004f04be00000006001001900001
:104734008040eb00e00f51000b003200b00190000c
:10474400c0009000e1c079000201e9001200980065
:104754000301e80032009800900f510002003a0073
:104764000001eb00320098000140780000000600d0
:10477400100090008000ea00008070004f00de000e
:1047840000000600a041220055fb07000080eb005a
:10479400b08a8800d08a8800f08a8800108b88004c
:1047a400308b8800508b8800708b8800908b880039
:1047b400000006000200fa00889fbe008a9fbe0027
:1047c400800478000044eb00e8f79f00e0c2b300e7
:1047d400990107006ff09700884f500010003a00cd
:1047e40068152100fc0544000045eb00a910900069
:1047f400988f100004003a0018019000ea805700d6
:1048040009007800020001008b0f540004003200fc
:10481400640444006ff097008a4f5000f3ff3200a5
:104824004f05be004f04be000080fa0000000600e1
:1048340070519000f14f510012003a0012c0b300c1
:1048440082487800901090004809dd00c808de0016
:104854008100710011109800a01090004809dd003b
:10486400c808de008100710021109800b01090008b
:104874004809dd00c808de0081007100311098008d
:10488400ccff070000000600b28a8000e10f41005f
:1048940009003200a31521000001eb000082eb00a7
:1048a400750020000201e80002037800930f120053
:1048b40008003a00010037000003eb004233dd003a
:1048c4006215210006034100011b7800000b7800eb
:1048d40003003700e4814100850f5100f1ff3a00e5
:1048e4000000060082027800e8804000480add00eb
:1048f4004809de0002017200321098004819dd00f8
:10490400481ade0002027200241098001410980065
:104914000001eb00421098000001be0011c1b30079
:1049240005007800aafb0700000006000200fa0058
:104934000040eb00e0ff9f00f0ff9f00e0ff9f00be
:1049440070ccb300eff8970080cf500013003e0006
:104954008041eb0031c6b30000417800f3ff9f00b3
:104964007ff89700814f500006003e007ff89700c3
:104974000040e800f0ff9f007ff89700814f50004f
:10498400faff36006ff897000040e800e0ff9f0050
:104994006ff89700824f5000f0ff36000080fa0055
:1049a400000006000400fa000000eb00e0bf9f00d6
:1049b400f0bf9f00e0bf9f00a0092000efb8970060
:1049c400808f500013003e008001eb00e10f2000b7
:1049d40000017800f3bf9f007fb89700810f50005b
:1049e40006003e007fb897000000e800f0bf9f007b
:1049f4007fb89700810f5000faff36006fb8970018
:104a04000000e800e0bf9f006fb89700820f5000dd
:104a1400f0ff36000080fa0000000600889fbe0008
:104a24002ca3ef00f8ef2f000004fd00c822b6000d
:104a34000004fd002cfd07000040eb00a1fc070072
:104a4400e20007005ffe07000004fd00ca22b60072
:104a54000004fd000040eb009afc070060172100f1
:104a640013fa07000040eb0096fc0700cb02a800f5
:104a740016000700e1fb070061fe07000218210091
:104a8400c117210060172100c2fe07008afa07003f
:104a94003cff070060010700260107007a000700b9
:104aa400801821007c0007000044eb00094020002e
:104ab400f4f90700884f5000fdff320089007800a8
:104ac40000802000f9f90700f9ff3700c142a9006e
:104ad400c342a80070012000801f7800110020004c
:104ae40020002000cafd07008f87e90000000600af
:104af400889fbe008a9fbe0080447800010478002d
:104b04008205780003057800c342a90030c0b300d1
:104b140064fc07000940780062fc07004840de009e
:104b240060fc0700084078005efc07000a0178007a
:104b34008b0078000000eb00a1fc0700c342a80032
:104b44008a1f7800881f7800c0022000801f780028
:104b54001100200030002000adfd0700e68757005b
:104b64004f05be004f04be0000000600889fbe0033
:104b74008a9fbe0080447800010478008205780092
:104b840003057800c342a90020c0b30045fc070018
:104b94000940780043fc07004840de0041fc070060
:104ba400084078003ffc07000a0178008000eb0011
:104bb4000b00780082fc0700c342a8008a1f78001b
:104bc400881f780020042000801f78001100200036
:104bd400400020008efd0700e68757004f05be0009
:104be4004f04be0000000600881f780012c0b30006
:104bf4008248780020119000b1072000810f5100f5
:104c04001f003a00102c9000202a9000c840dd00bc
:104c14000000eb004821de008001780002007000f3
:104c2400838070000482fb0005002000482bdd0017
:104c3400c823de00870373004823dd0006007000ec
:104c44008780700002f02f0002016400030020003e
:104c5400481add00c812de00850272004812dd0029
:104c640004007000858070000418280055c52700d2
:104c74000000420081804a00308e8800418e880006
:104c84004f04780000000600b1072000605f220096
:104c9400fdfe070000000600889fbe008004780027
:104ca400a8062100a20520008000eb00080078007f
:104cb40042ee070031ceb300a002200008004000fd
:104cc40001487800a1c0b3000080e80001487800e2
:104cd400c1ceb3000000e80001487800b30720000b
:104ce400090178000103200008007800fdfe070098
:084cf4004f04be0000000600a1
:020000040000fa
:104cfc00801f7800908d80000070a700d302a80060
:104d0c000070a600d302a900d2e2a900d2e2a8004a
:104d1c000060a700d302a8000060a600d302a9007f
:104d2c00d2e2a900d2e2a8000050a700d302a8004a
:104d3c000050a600d302a900d2e2a900d2e2a8003a
:104d4c000040a700d302a8000040a600d302a9008f
:104d5c00d2e2a900d2e2a8000030a700d302a8003a
:104d6c000030a600d302a900d2e2a900d2e2a8002a
:104d7c000020a700d302a8000020a600d302a9009f
:104d8c00d2e2a900d2e2a8000010a700d302a8002a
:104d9c000010a600d302a900d2e2a900d2e2a8001a
:104dac000000a700d302a8000000a600d302a900af
:104dbc00d2e2a900d2e2a800d2e2a9004f0078000a
:044dcc0000000600dd
:020000040000fa
:104dd0000000280000118800004020001011880009
:104de0004000200040118800cae2a900123a800069
:104df000f20bb20060042000710520002374200033
:104e000080497800814978008249780033368000f3
:104e1000f20f2e00028161000230b30032368800aa
:104e2000123a80000260a0002374200080497800bc
:104e300081497800824978000000060003202000a4
:104e40000001eb001111800083806000828f500010
:104e5000fcff3a000080fb002011880000000600e3
:104e6000889fbe008004780019407800e04f500011
:104e7000050032000044eb00f0ff070059407800c5
:104e8000884f5000fcff3a004f04be0000000600af
:104e9000889fbe008a9fbe008c1f780000047800a7
:104ea00078509000e14f50001f003a008048780091
:104eb00018109000e80f50001b003a000040eb0073
:104ec0002064980010c0b3007ffb07000005eb00d2
:104ed0002a1498002b02200088854500880890003d
:104ee000f48050000b007800cdf907000006780030
:104ef00088089000f48050000b007800c8f9070083
:104f00004801dd00c860de00010071002014980037
:104f100088089000f4c0500008007800faf90700f3
:104f20000a40780068fb07004f0678004f05be0076
:104f30004f04be00000006008074220069f90700db
:0c4f400000000600000006000000060053
:020000040000fa
:104f4c00801f78000000eb00d302a900d2e2a80079
:104f5c00d322af000070a000d2e2a900d2e2a800d8
:104f6c00d322af000060a000d2e2a900d2e2a800d8
:104f7c00d322af000050a000d2e2a900d2e2a800d8
:104f8c00d322af000040a000d2e2a900d2e2a800d8
:104f9c00d322af000030a000d2e2a900d2e2a800d8
:104fac00d322af000020a000d2e2a900d2e2a800d8
:104fbc00d322af000010a000d2e2a900d2e2a800d8
:104fcc00d322af000000a000d2e2a900808d88009f
:084fdc004f0078000000060000
:020000040000fa
:104fe400f0509000e6cf50000a003a009010900074
:104ff4004809dd00c808de00810071001110980026
:10500400a01090004809dd00c808de00810071008e
:105014002110980000000600207f220030f90700cc
:1050240000000600000006000f007800a001b10097
:1050340000000600900188001100ba009180ba00b7
:045044000000060062
:020000040000fa
:0200000401f009
:04000000ffff0000fe
:020000040000fa
:0200000401f009
:04000400ffff0000fa
:020000040000fa
:0200000401f009
:04000800ffff0000f6
:020000040000fa
:0200000401f009
:04000c0079ff000078
:020000040000fa
:0200000401f009
:040010001bff0000d2
:020000040000fa
:0200000401f009
:0400140077ff000072
:020000040000fa
:0200000401f009
:04001800f8ff0000ed
:020000040000fa
:0200000401f009
:04001c00deff000003
:00000001FF
