:020000040000fa
:080000000002040000000000f2
:020000040000fa
:10000800a8020000a8020000a8020000a802000040
:10001800a8020000a8020000a8020000a802000030
:10002800a8020000a8020000a8020000a802000020
:10003800a8020000a8020000a8020000a802000010
:020000040000fa
:020000040000fa
:100400006f2821000e7f24000e01880000000000ec
:100410000c000700001f2100010020001100070050
:10042000000020000000e000020032000000020096
:1004300000000000be120200000000000040da00d0
:100440000000fe004440a900800220000000e000ff
:100450000300320000002000a00188004440a800f2
:100460000000060091018800800078000000eb0089
:1004700015003700e280400032a0b4009101ba00bc
:10048000e280400032a0b4009102ba00e280400055
:1004900032a0b4000002eb00472bde00f507b200eb
:1004a000602ce10004003a000059eb008301e900f0
:1004b000fdff3e00040037006128e100010032002a
:1004c0000082eb00040007001101ba000200e00006
:1004d000e8ff3a00000006003159ba008301e90044
:1004e0000c0032002159ba008301e90008003200f3
:1004f0000400e00003003a00e280400032a0b400b3
:10050000f5ff370011d9ba008301e900faff3a007c
:100510008100e800e180400032a0b4000000060045
:10052000fc120400000000002e1004000000000077
:10053000be0f040000000000b2050400000000002f
:10054000a812040000000000aa120400000000002d
:100550000040da000000fe00e68747008e1f7800aa
:10056000d0bf9f0066875700012f78000e0037002c
:100570005fba970014407800efb997009340780075
:100580000201e900814f5000040032000080fb00ae
:100590008180fb0001005000060037000402e800e3
:1005a000d4bf9f00030fe800e00f5100f0ff3a00b6
:1005b000020078004f0778006f00b10000000600cd
:1005c0008001780002003700815978000201e900bb
:0c05d000e00f5100fcff3a0000000600a4
:020000040000fa
:1005dc00486500006c6c00006f200000776f000015
:1005ec006e64000065720000667500006c200000ef
:1005fc005443000050200000776f0000726c000024
:10060c006421000000000000ffff0000ffff00005d
:10061c00ffff0000000000000000000000000000d0
:020000040000fa
:10062c00205b20003304070000e12000013820008b
:10063c00808040000008eb007c004000810f5000df
:10064c00fcff3a00e0de20000048eb0066004000b2
:10065c000048eb00660040000048eb0066004000dc
:10066c000048eb000000060001e120000040eb0018
:10067c0002c2b3008001eb00918f110005003a001b
:10068c00c2c1b3000440bc0061e020000100410085
:10069c00000006000040e800fc804000824f500043
:1006ac00f4ff3a0000000500889fbe008a9fbe0040
:1006bc008c9fbe008e1f78008005780001077800a3
:1006cc00c9e120000004eb00f68654000c02200067
:1006dc0029b89700e00f500011003200990f170055
:1006ec000f003a007c42b9006c0242008d004200bf
:1006fc00420020000b00780094ff070000017800f6
:10070c00e00f510006003a0008407800c2c1b30067
:10071c000440bc0061e020000100410005003700ee
:10072c000804e800fc8444008c0f5400e8ff3a00f5
:10073c000000eb004f0778004f06be004f05be00cf
:10074c004f04be000000060001e120000041eb0058
:10075c0003c2b30014002000910f12000a003a00eb
:10076c0071ba970014029000800f520006003a00f4
:10077c0002407800c2c1b3000440bc0060e020001d
:10078c0000004100000006000241e800fc8040002f
:10079c00834f5100efff3a0000000500889fbe0018
:1007ac0000047800e0e02000020720000001410076
:1007bc008040eb00900f140001003a008140e800eb
:1007cc007c004000820f5000faff3a001840900065
:1007dc008044eb0080cf500007003200a2ff0700de
:1007ec0080007800e08f500003003200c8009800b1
:1007fc0019002000d9009800094078004f04be0071
:10080c0000000600889fbe008a9fbe008c9fbe0021
:10081c0000067800014578008206780003df20008e
:10082c0078804100930f160021003200e6814100d0
:10083c00808f5100fbff3a00e3de20000004eb0048
:10084c00884578000040eb00934f100014003a00ec
:10085c0085ff070080017800e08f51001600320000
:10086c00e4de20006644b9000804420011c0b30065
:10087c00014c78001c0498001a4498002d04980030
:10088c000b40780062c0b3000440bc00040241007d
:10089c00c401980010002000d00198000700370018
:1008ac000804e800e6814100e40f5400e4ff3a003c
:1008bc000040eb0001003700034078004f06be00fb
:1008cc004f05be004f04be00000006000a00fa00ef
:1008dc00810178000000eb00b0bf9f006000b80001
:1008ec00c0bf9f00d1bf9f00e0bf9f00f1bf9f0022
:1008fc000201d100120037006fba9700ffba9700bf
:10090c003fb897000000400063007800bfb8970024
:10091c0081804000e3807800c808dd004800de00dc
:10092c000080700000004200e0804a00e0bf9f00a1
:10093c00f1bf9f003fb897000000e800b0bf9f00d8
:10094c003fb89700820f5000ebff39006fb897004b
:10095c00ffb89700b1bf9f006fb89700ffb8970022
:10096c0001002000e0bf9f00f1bf9f006fb897000f
:10097c00ffb897003fb9970002004000e0804800a4
:10098c00e0bf9f00f1bf9f006fb89700ffb89700c2
:10099c000080ea008180ea00c0bf9f00d1bf9f00a9
:1009ac004fb89700dfb897000080fa0000000600ef
:1009bc00889fbe008a9fbe008c9fbe008e1f780051
:1009cc0002047800cc0cde00c24cdd0080844400b4
:1009dc005810900068169000a0019800bc01980077
:1009ec00b8169000481390008d0978009601980075
:1009fc00330990004812dd004811de00020172003c
:100a0c00221498004301900012019000c811dd00df
:100a1c004811de000281710012149800c86ddd00cf
:100a2c000005eb004832de008a02780004027500f3
:100a3c0085827500f20f200002036300070020007e
:100a4c00c83bdd000680fd00864378000043eb00c8
:100a5c0006037200878372000ef02f000e82660070
:100a6c0005002000c82add000480fd0084427800c7
:100a7c000042eb000402730085827300341498006a
:100a8c0045149800c802dd000a0278004861de00b7
:100a9c008a0178000201720083817200f40f200039
:100aac00040666000d002000c86edd000c80fd0001
:100abc008c4678000046eb000c0171008d817100b2
:100acc000e03600007002000c83bdd000680fd001f
:100adc00864378000043eb000601710087817100aa
:100aec005214980063149800081890004801dd0017
:100afc004800de0000007100001c98004808dd0072
:100b0c00c808de0081007000711498001a1c98004f
:100b1c00e88044007a0044004303070009005000b9
:100b2c0066005000c800de004800dd000080700048
:100b3c00101c98001a0c9800894078000800780066
:100b4c00710307004f0778004f06be004f05be002b
:100b5c004f04be0000000600e6874700889fbe00d9
:100b6c008a9fbe008c9fbe008e1f78000004780008
:100b7c0078509000e64f5000fd003a00981090001d
:100b8c004808dd00c808de00808070001114980051
:100b9c00281590004850dd004855de000005750012
:100bac002a149800781090004801dd004800de00ff
:100bbc000000710070149800081890004801dd00c6
:100bcc004800de0000007100001c9800b815900071
:100bdc004816900058109000f0b79f0068179000ce
:100bec00fa0644000d007800affe07008004780080
:100bfc00e08f540010003a000a007800d2fe070083
:100c0c0080047800e08f5400d90032001d01be0032
:100c1c00e2049800f304980070804400e60044005d
:100c2c001101be000288be00d8009000a10c9800f3
:100c3c0098119000b30c9800c858dd000000eb0030
:100c4c004861de0080017800020070008380700033
:100c5c000c81fb0003002000481edd00c816de00de
:100c6c008d0676004816dd000c0070008d8070003b
:100c7c0002f02f000281650003002000481ddd00fa
:100c8c00c815de008b0575004815dd000a067000de
:100c9c008b8670000a00250080572000001c9800ed
:100cac0029009000b900900050149800611498002d
:100cbc001903be003614980047149800590290008e
:100ccc0005002000ea0f5200e08f5a00a6003e00fb
:100cdc00046001000a0037000d00370030003700b7
:100cec00a10037003700370072003700880037004a
:100cfc009d0037009a0037008f00370093003700b3
:100d0c0078109000610060009900320030003700cc
:100d1c00781090006200600095003200f0ff200017
:100d2c000005650000002600000575006100460006
:100d3c00e0804e00501498006114980050a52a00d1
:100d4c0051a52a00301498004114980049009000d5
:100d5c00a00090000900780001000100e04f500055
:100d6c00060032002a01b30020002000d0049800b5
:100d7c004900900089fe0700050037000a20a000fa
:100d8c0010002000d00498000000eb00c004980074
:100d9c000801be008a0078000000eb004300370019
:100dac0078109000f2006000f08f500002003a00c2
:100dbc00400020006d003700640060006c003200c1
:100dcc0069003700f8109000e185600007003200e0
:100ddc000a40a0000801be008a0078000000eb0069
:100dec00f3fe07009000200060003700cc08de0006
:100dfc00c208dd0088099000f48151008181510006
:100e0c00200220000800400081004000590a900098
:100e1c00030178000900780083bf9f0004000100e3
:100e2c000a40a000ffb09700c80bdd000b03780050
:100e3c004872de008b027800040373008583730014
:100e4c000e82fb0005002000c82add000480fd0096
:100e5c00844278000042eb00040273008582730028
:100e6c0006f02f000683600007002000c83bdd0061
:100e7c000680fd00864378000043eb0006027200fa
:100e8c008782720034149800451498008fb997002b
:100e9c0003014600e0814e00521498006314980040
:100eac000801be008a0078000b007800c0fe070025
:100ebc002f003700f810900070806000e180600017
:100ecc00e00f50000400320060002000e08f500062
:100edc002600320011003700808f500024003200b1
:100eec000a40a00061034300e0834b0056149800b5
:100efc006714980052a52a0053a52a0032149800b2
:100f0c00431498000801be008a00780007003700df
:100f1c007810900061006000150032000a40a000bb
:100f2c000801be008a0078000000eb00a0fe07005c
:100f3c00800020000d0037000a20a0006000b800df
:100f4c005014980061149800010037000a40a0006a
:100f5c000801be008a0078000000eb0094fe070038
:100f6c000000eb000100370010002000d0049800b6
:100f7c004f0778004f06be004f05be004f04be0061
:100f8c006f00b100000006000041780071002000e5
:100f9c000040eb000281fb00140020008191de0078
:100fac00e1c1610002003a00d202a9000100370041
:100fbc00d202a80053168000e881610002003200c2
:100fcc008121dd0003407000d222a800d222a900aa
:100fdc008100e900e18f4000f0ff3a0000000600bc
:100fec000400fa008000eb00e1bf9f00f1bf9f00fe
:100ffc0032062000110037008001eb000a00370098
:10100c00f1bf9f0003003700ffb997008301e80090
:10101c00f3bf9f00ffb99700828f5100faff360093
:10102c00efb997008301e800e3bf9f00efb9970089
:10103c00828f5100f2ff36000040e900e04f500073
:10104c00edff3a000080fa0000000600889fbe0009
:10105c008104780002447800ca42a900a302070068
:10106c000400370019407800c7ff0700805c780047
:10107c000844e900e04f5400faff3a00ca42a800c5
:10108c004f04be0000000600889fbe00810478005b
:10109c0002447800ca42a9009402070003003700fa
:1010ac0039407800910207000844e900e04f5400f1
:1010bc00fbff3a00ca42a8004f04be000000060025
:1010cc00889fbe008104780002447800ca42a900bf
:1010dc00860207000300370080020700805c78005e
:1010ec000844e900e04f5400fbff3a00ca42a80054
:1010fc004f04be00000006000200fa00889fbe00ec
:10110c00d0bf9f00810478000204780022c0b30095
:10111c00e680570040c6b300ccff070008417800ba
:10112c0089007800c0c2b300e5ff07004f04be0081
:10113c000080fa00000006000200fa00889fbe0042
:10114c00d0bf9f00810478000204780022c0b30055
:10115c00e680570000c6b300bcff070008417800ca
:10116c008900780080c2b300d5ff07004f04be0091
:10117c000080fa00000006000200fa00889fbe0002
:10118c00d0bf9f00810478000204780022c0b30015
:10119c00e6805700c0c6b300acff070008417800da
:1011ac0089007800a0c2b300b7ff07004f04be004f
:1011bc000080fa0000000600881f7800ca42a900cf
:1011cc007f40600049020700440207000084fb00d6
:1011dc0042020700ca42a8004800dd000800700067
:1011ec004f04780000000600881f78000104780086
:1011fc00ca42a9007f4060000064a0003b020700c7
:10120c0008407800390207004840de00370207002a
:10121c00ca42a8004f0478000000060000222100fa
:10122c0000c8eb0000000600889fbe000044780058
:10123c0009222100994f540007003200ca42a9002c
:10124c008840d00000ccb30000c07000270207001b
:10125c00ca42a800884c78004f04be00000006006b
:10126c00889fbe000044780081447800e04f540011
:10127c00030035000880fb004500de00eaff070094
:10128c00ca42a9007f4064000074a0001702070046
:10129c000940780015020700ca42a8004f04be009e
:1012ac0000000600889fbe0000447800810478008e
:1012bc008940780008407800e9ff0700c848de0044
:1012cc000840e800e6ff07004f04be0000000600df
:1012dc00889fbe000044780081447800e04f5400a1
:1012ec00030035000880fb004500de00ceff070040
:1012fc00ca42a9007f4064000064a000fb01070003
:10130c0009407800f9010700ca42a8004f04be004a
:10131c0000000600889fbe0000447800810478001d
:10132c008940780008407800e9ff0700c848de00d3
:10133c000840e800e6ff07004f04be00000006006e
:10134c00881f780000447800e04f540003003500fb
:10135c000880fb004500de00b3ff0700ca42a9006d
:10136c007f406400e1010700dc010700ca42a800cd
:10137c004f04780000000600889fbe0000447800ef
:10138c0008407800eeff0700804478000840e80031
:10139c00ebff07004800dd008984fb0009007000aa
:1013ac004f04be0000000600a0c9b300e4ff070014
:1013bc0000000600fcff07000080fb000000ea00b4
:1013cc004f00de0000000600b0c9b300dcff0700d0
:1013dc006140600000000600e0c9b300d8ff0700c0
:1013ec000000d1006100600000000600889fbe0074
:1013fc008a1f78008004780001057800f6ff07004a
:10140c000004eb00e04f500013003200084078005d
:10141c00d9ff07000004780020c0b300d6ff0700f6
:10142c00000178000804410000002300080050006f
:10143c008a0f500008003e000040eb00ceff070072
:10144c008a0f500003003900e3ff0700e04f500003
:10145c00fdff3a000004eb000a0178000800be0012
:10146c0045ff0700dcff070080447800e0cf540004
:10147c00fcff3a008800780009407800a5ff0700bf
:10148c008a00780020c0b300a2ff07000941780051
:10149c008000eb0040cdb300ecfe07004f05780058
:1014ac004f04be00000006000600fa001001be004a
:1014bc00d2bf9f00e3bf9f00a0019000f3bf9f002d
:1014cc00660140001202be000488be00d0029000eb
:1014dc00250098005fba9700efba97000489be0008
:1014ec008302780055009800ee804000bfff070093
:1014fc000080fa00000006000a00fa00889fbe0077
:10150c008a9fbe008c1f780000057800a6ff07009c
:10151c0012c0b300c2ef9f000a84e8000b00230046
:10152c003200370082002000f280570020948000a7
:10153c00f1fe07007fee97004866dd00efe89700ac
:10154c000180fb00000676008ff197001ff19700d9
:10155c00aff49700f084640017003a004811dd00e6
:10156c008381fb00030171000281e900209480005b
:10157c00660040008a007800dffe070068009000db
:10158c00c800dd004800de00008070006004980098
:10159c00c9ef9f00f4805700080078009500070001
:1015ac004fe89700e04f500003003a00f4805700da
:1015bc00080078001c02070020948000e1ff250041
:1015cc008b0f5000010032008080e90060c0b30036
:1015dc0050ff07002c9488000041eb008000eb00ca
:1015ec00c0ccb30099fe07006fff0700e04f50001e
:1015fc00ccff3a004f0678004f05be004f04be00ea
:10160c000080fa0000000600889fbe00c842a900b6
:10161c00c862a800d002a900d022a900ca42a80022
:10162c00d202a800d222a8000922210041232100c5
:10163c0060c9b30037ff070060c9b3004eff070055
:10164c0041232100810f5000f8ff3a00b0c9b300cc
:10165c003bff070070006000fcff320001c1b300cb
:10166c00e0c6b300fefe070080cceb0040c6b30022
:10167c005bfe070060c9b3003fff07000004780061
:10168c00e00f5400e9ff3a0040c6b30054fe0700d7
:10169c000160220040c7b3001eff070088007800dd
:1016ac00014078001bff07000100230040c0b3007d
:1016bc0018ff07009100200040c3b30015ff07007e
:1016cc0011c0b300e0c9b300e5fe07004f04be0033
:1016dc00000006000040eb00a126210080487800a5
:1016ec00e480400080487800e48040008048780026
:1016fc0000000600a126210091407800e0cf5000a8
:10170c000a003200e12621000041eb00914f11004c
:10171c0005003200e4804000914f11000a003a00ad
:10172c0021c0b3000100370011c0b3008180fb0061
:10173c00c208dd00a22621008100410012c0b300c6
:10174c0082487800900098000000060061938000a9
:10175c00808f500002003a00a12621008048eb0047
:10176c0081938000808f500002003a00e126210016
:10177c008048eb00a1938000808f500002003a005b
:10178c00202721000048eb00000006000200fa00b0
:10179c00889fbe008a1f7800800478000040eb0010
:1017ac0080ff9f00c82621006c0544000a0037000a
:1017bc0068f89700e14f500004003a0018017800d7
:1017cc00e88057000900780002000100640444001e
:1017dc008a0f5400030032000ff89700e04f5000be
:1017ec00f3ff32004f0578004f04be000080fa0072
:1017fc0000000600e001900002802000828f510062
:10180c0008003a0012c0b3008248780080089000ab
:10181c004809dd00c808de0081007100010898004d
:10182c00daff0700000006000a00fa000001eb00d6
:10183c00b2bf9f006011b800c2bf9f00d3bf9f0012
:10184c00e2bf9f00f3bf9f008100d1001200370060
:10185c006fba9700ffba97003fb997000201410099
:10186c0060017900bfb9970083814100e081790064
:10187c00c819dd004811de0002817100020142002e
:10188c00e0814a00e2bf9f00f3bf9f003fb9970081
:10189c000201e800b2bf9f003fb99700810f5100d1
:1018ac00ebff39006fb89700ffb89700b1bf9f00ee
:1018bc006fb89700ffb8970001002000e0bf9f00b1
:1018cc00f1bf9f006fb89700ffb897003fb9970022
:1018dc0002004000e0804800e0bf9f00f1bf9f0085
:1018ec006fb89700ffb897000080ea008180ea008b
:1018fc00c0bf9f00d1bf9f004fb89700dfb89700c3
:10190c000080fa00000006000400fa00889fbe0068
:10191c008a9fbe00000478007e0144001202be00c3
:10192c00a4bf9f00b5bf9f007a0044001002be0008
:10193c000489be002fb99700bfb997000288be007a
:10194c000000eb00400c9800200c9800f4c0400004
:10195c000185fb0068009000c800dd004800de0037
:10196c0000807000600498004850dd00000c980066
:10197c00ee044400f8009000ef806000c208dd0027
:10198c0009007800a8ff070080057800f800900097
:10199c00ef806000c208dd0009007800a2ff07009c
:1019ac004801dd00c858de0001007100400c9800b1
:1019bc008a00780008007800eb0207004f05be0093
:1019cc004f04be000080fa0000000600889fbe0095
:1019dc008a9fbe0002047800f4844100b293800018
:1019ec00c3938000028cbe00d39380002304980024
:1019fc0066014400e32521000500090033597800f5
:101a0c006200b10082002000620498007e01440054
:101a1c0003000900305978004200b1004000b100c9
:101a2c007a004400a22521000300090032587800f6
:101a3c004000b10078019000f0f02f000000610030
:101a4c000060a00002ff2f00020060005000b300f5
:101a5c00700498000040eb00704c98004849dd0081
:101a6c004848de0000007100000c98002041230063
:101a7c00100c98000001eb00220c980000c8b30079
:101a8c006054980071549800420c98006e05440004
:101a9c00410120000a00780063ff070080057800f0
:101aac00f8009000ef806000c208dd000a007800aa
:101abc005dff07004801dd00c858de000100710021
:101acc00400c9800ee80440008007800a402070047
:101adc004f05be004f04be00000006009a13020022
:101aec0000000000e0938000000006000080fb0076
:101afc00f093880086110200000000000000060030
:101b0c004e13020000000000e0938000000006006d
:101b1c000080fb00f09388001c1102000000000004
:101b2c0000000600d302a900710020000040eb0069
:101b3c0013002000d2e2a800921680000220b2000e
:101b4c00020032000119dd0002407000d2e2a9004f
:101b5c008100e900e18f4000f6ff3a00000006002a
:101b6c0000417800710020000040eb008282fb00f5
:101b7c001400200081a9de00e1c1610002003a00de
:101b8c00d302a90001003700d302a800d2e2a800ba
:101b9c00921680000220b200020032008121dd008a
:101bac0003407000d2e2a9008100e900e18f4000ff
:101bbc00f0ff3a0000000600e9ff070000000600f5
:101bcc000200fa00889fbe008a9fbe0000047800c5
:101bdc0001057800820478000000eb00b0bf9f0084
:101bec00800f54000d003a00080037004e1302001d
:101bfc0000000000bfb89700e093800000f578006b
:101c0c003fb897000000e800b0bf9f003fb89700b6
:101c1c00890f5000f5ff39001b003700e00f55000d
:101c2c0016003a00090037003fb89700684078006a
:101c3c000080fb00f09388001c11020000000000e3
:101c4c003fb897000000e800b0bf9f003fb8970076
:101c5c00890f5000f4ff39000b003700bfbd97000f
:101c6c003fb8970068407800bdff070000f57d0085
:101c7c003fb897000000e800b0bf9f003fb8970046
:101c8c00890f5000f5ff39004f05be004f04be0010
:101c9c000080fa0000000600d122a800f0ef2f000f
:101cac00d022b600f1f72f008000fd00d022b60044
:101cbc008000fd00d0c2a900c922a9008000fd004f
:101ccc00d222b6008000fd00d222b6000000060031
:101cdc004822ef000012800061006000fdff32001e
:101cec0040128000000006000200fa008000eb00a9
:101cfc00f1bf9f000080fb004012880000128000a2
:101d0c0061006000fdff320040128000f0bf9f00b8
:101d1c000080fa0000000600000006002a00fa000d
:101d2c0006102000a6b79f0085002000b5b79f00c5
:101d3c0065c0b30085ef9f0045c0b30095ef9f00d1
:101d4c0086027800e04f520001003200052020008e
:101d5c00d5b79f007482570005000900305a7800ef
:101d6c006400b1006000b1006e80570003000900f0
:101d7c00315878004000b1004100b1006a80570032
:101d8c0005000900325878006000b1006200b10013
:101d9c006480570003000900335878004000b100fc
:101dac004300b10060fd2f000f004000a13028005f
:101dbc0005000900315878006000b100f0928000f5
:101dcc0001938000e0af9f00f1af9f001193800062
:101ddc0081b79f008060200090b79f00a102200077
:101dec0060fd2f000f004000dd0107000080fa00ad
:101dfc000000060082017800a225210003000900e2
:101e0c00315978004100b100e2252100050009009c
:101e1c00305978006000b1000042eb00023128001c
:101e2c00beff070000000600889fbe00000478007b
:101e3c006801900060802000800f510020003a0063
:101e4c0019c0b3008948780078009000c800dd0004
:101e5c004800de00008070007004980008089000b4
:101e6c00c800dd004800de0000807000000c980007
:101e7c0028089000c800dd004800de00010070005a
:101e8c00200c9800e20f50000d0032006002200080
:101e9c000800400042002000a1252100abf90700fa
:101eac00e00f500006003a00760144000942780029
:101ebc00fc014400a1252100e025210097ff07002b
:101ecc004f04be0000000600a030280000000600f1
:101edc00e0fb200007fe07000080eb00109188005b
:101eec003091880050918800709188009091880002
:101efc00b0918800d0918800f09188000000060015
:101f0c000200fa00889fbe008a1f780080047800c7
:101f1c000040eb0080ff9f00482221000a022000b5
:101f2c00080545000b003700f8b897002910900001
:101f3c00808f500004003a0018017800e8805700a8
:101f4c000900780002000100640444008a0f540068
:101f5c00030032000ff89700e04f5000f2ff320000
:101f6c004f0578004f04be000080fa000000060008
:101f7c0070519000f14f510012003a0012c0b300a2
:101f8c0082487800901090004809dd00c808de00f7
:101f9c008100710011109800a01090004809dd001c
:101fac00c808de008100710021109800b01090006c
:101fbc004809dd00c808de0081007100311098006e
:101fcc00cfff070000000600232221000001eb00d8
:101fdc000082eb00930f120006003a004211dd0064
:101fec0023222100028141000119780000097800a8
:101ffc00000006000201e800e4814100e80f5100f6
:10200c00f3ff3a000000060082027800e8804000ee
:10201c00480add004809de00020172003210980007
:10202c004819dd00481ade000202720024109800e4
:10203c00141098000001eb00421098000001be0043
:10204c0011c1b3000500780060fe07000000060017
:10205c0012c0b3008248780020119000b107200014
:10206c00810f51001f003a00102a9000202b900085
:10207c00c820dd000000eb004831de008001780054
:10208c0002007000838070000681fb0003002000ba
:10209c00481bdd00c813de00870373004813dd0006
:1020ac00060070008780700002f02f0002016200b1
:1020bc0003002000481add00c812de008502720001
:1020cc004812dd00040070008580700004182800a0
:1020dc0055c527000000420081804a00009488000a
:1020ec001194880000000600b1072000e0022100d6
:1020fc00b5ff070000000600889fbe008004780032
:10210c0068182100a20520008000eb000800780070
:10211c0028f9070031ceb300a002200008004000cf
:10212c0001487800a1c0b3000080e80001487800a5
:10213c00c1ceb3000000e80001487800b3072000ce
:10214c00090178000103200008007800aeff0700a9
:10215c004f04be0000000600c142a900c342a80003
:10216c00000006000200fa00889fbe008a1f78005b
:10217c00804478000104780002057800c342a9006d
:10218c0030c0b300c3bf9f0061fe07000940780058
:10219c005ffe07004840de005dfe07000840780047
:1021ac005bfe07004fb997008a0078000000eb0037
:1021bc0083fe0700c342a8004f0578004f04be0001
:1021cc000080fa00000006000200fa00889fbe00a2
:1021dc008a1f78008044780001047800020578009a
:1021ec00c342a90020c0b300c3bf9f0048fe070034
:1021fc000940780046fe07004840de0044fe070018
:10220c000840780042fe07004fb997008000eb00b1
:10221c000a0078006afe0700c342a8004f05780048
:0c222c004f04be000080fa000000060015
:020000040000fa
:10223800801f7800f09380000070a700d302a800e8
:102248000070a600d302a900d2e2a900d2e2a80039
:102258000060a700d302a8000060a600d302a9006e
:10226800d2e2a900d2e2a8000050a700d302a80039
:102278000050a600d302a900d2e2a900d2e2a80029
:102288000040a700d302a8000040a600d302a9007e
:10229800d2e2a900d2e2a8000030a700d302a80029
:1022a8000030a600d302a900d2e2a900d2e2a80019
:1022b8000020a700d302a8000020a600d302a9008e
:1022c800d2e2a900d2e2a8000010a700d302a80019
:1022d8000010a600d302a900d2e2a900d2e2a80009
:1022e8000000a700d302a8000000a600d302a9009e
:1022f800d2e2a900d2e2a800d2e2a9004f007800f9
:0423080000000600cb
:020000040000fa
:10230c00801f7800f09380000070a700d202a80014
:10231c000070a600d202a900d222a900d222a800e5
:10232c000060a700d202a8000060a600d202a9009b
:10233c00d222a900d222a8000050a700d202a800e5
:10234c000050a600d202a900d222a900d222a800d5
:10235c000040a700d202a8000040a600d202a900ab
:10236c00d222a900d222a8000030a700d202a800d5
:10237c000030a600d202a900d222a900d222a800c5
:10238c000020a700d202a8000020a600d202a900bb
:10239c00d222a900d222a8000010a700d202a800c5
:1023ac000010a600d202a900d222a900d222a800b5
:1023bc000000a700d202a8000000a600d202a900cb
:1023cc00d222a900d222a800d222a9004f00780064
:0423dc0000000600f7
:020000040000fa
:1023e0008412000002000000020000000030000023
:1023f000e011000042000000000000007c1200001c
:1024000004000000000000005a120000100000004c
:10241000000000007612000006000000020000002c
:10242000b0487a00db5bea006a1200000c00000092
:102430000000000080120000040000000200000004
:102440000000000000000000861100005a0000009b
:102450000000000022120000200000000000000028
:10246000ee0d000098030000000000004212000082
:1024700018000000020000000004a3005020f60035
:10248000c0a801007bc0a8000101c000a801930002
:10249000c2aba70082ee820000080000ee0500003b
:0824a000000000000000000034
:020000040000fa
:1024a800000028000011880000402000101188005a
:1024b8004000200040118800cae2a900103a8000bc
:1024c800f00bb20061042000720520002374200084
:1024d8008149780082497800804978003336800045
:1024e800f00f2e00008061000030b3003036880005
:1024f800103a80000060a000237420008149780011
:102508008249780080497800000006001111800097
:102518000120b200fdff3a000080fb002011880076
:1025280000000600881f78000004780001003700ca
:10253800f6ff070038407800e04f5000fcff3a00f3
:102548004f0478000000060000000600812a2100e0
:102558005108980010c0b30000000600e7fb070010
:1025680000000600a2fb070000000600cffb0700e2
:10257800000006002ca3ef00c902a900c7fd070050
:10258800c7ff07008f000700202421001ffc070059
:10259800f2fe0700e1fd0700c2242100812421008a
:1025a8002024210014fe07004bfc070049fe070009
:1025b8001cf80700a22a210001c2b300204d200008
:1025c80091f807002e000700c8fe070040252100eb
:1025d800cafe070078fb0700e04f5000fdff3200fd
:1025e800e15e200000802000c4fb0700f9ff3700ef
:1025f800889fbe008a1f78000004780078509000f9
:10260800e14f50001b003a008048780018109000f5
:10261800e80f500017003a000040eb0020649800d3
:102628000000eb0020149800290220008884440050
:1026380088089000f4805000090078007bfc0700af
:102648000005780088089000f480500009007800a0
:1026580076fc07004801dd00c850de00010071006b
:102668002014980088089000f4c0500008007800f2
:10267800a6fc07004f0578004f04be0000000600c6
:10268800c02f21001cfc0700000006000000060007
:042698000000060038
:020000040000fa
:10269c00801f78000000eb00d302a900d2e2a80052
:1026ac00d322af000070a000d2e2a900d2e2a800b1
:1026bc00d322af000060a000d2e2a900d2e2a800b1
:1026cc00d322af000050a000d2e2a900d2e2a800b1
:1026dc00d322af000040a000d2e2a900d2e2a800b1
:1026ec00d322af000030a000d2e2a900d2e2a800b1
:1026fc00d322af000020a000d2e2a900d2e2a800b1
:10270c00d322af000010a000d2e2a900d2e2a800b0
:10271c00d322af000000a000d2e2a900e093880011
:08272c004f00780000000600d8
:020000040000fa
:10273400801f78000000eb00d202a900d222a8007a
:10274400ca62af000070a000d222a900d222a80061
:10275400ca62af000060a000d222a900d222a80061
:10276400ca62af000050a000d222a900d222a80061
:10277400ca62af000040a000d222a900d222a80061
:10278400ca62af000030a000d222a900d222a80061
:10279400ca62af000020a000d222a900d222a80061
:1027a400ca62af000010a000d222a900d222a80061
:1027b400ca62af000000a000d222a900e093880002
:0827c4004f0078000000060040
:020000040000fa
:1027cc00000006000000fa000080fa00000006007d
:020000040000fa
:0200000401f009
:04000000ffff0000fe
:020000040000fa
:0200000401f009
:04000400ffff0000fa
:020000040000fa
:0200000401f009
:04000800ffff0000f6
:020000040000fa
:0200000401f009
:04000c0079ff000078
:020000040000fa
:0200000401f009
:040010001bff0000d2
:020000040000fa
:0200000401f009
:0400140077ff000072
:020000040000fa
:0200000401f009
:04001800f8ff0000ed
:020000040000fa
:0200000401f009
:04001c00deff000003
:00000001FF
