:020000040000fa
:080000000002040000000000f2
:020000040000fa
:10000800a8020000a8020000a8020000a802000040
:10001800a8020000a8020000a8020000a802000030
:10002800a8020000a8020000a8020000a802000020
:10003800a8020000a8020000a8020000a802000010
:020000040000fa
:020000040000fa
:100400008fbd22000e7f24000e0188000000000036
:100410000c000700c0ef21000100200011000700c0
:10042000000020000000e000020032000000020096
:1004300000000000cc1d0200000000000040da00b7
:100440000000fe004440a900606420000000e000bd
:100450000300320000002000a00188004440a800f2
:100460000000060091018800800078000000eb0089
:1004700015003700e280400032a0b4009101ba00bc
:10048000e280400032a0b4009102ba00e280400055
:1004900032a0b4000002eb00472bde00f507b200eb
:1004a000602ce10004003a000059eb008301e900f0
:1004b000fdff3e00040037006128e100010032002a
:1004c0000082eb00040007001101ba000200e00006
:1004d000e8ff3a00000006003159ba008301e90044
:1004e0000c0032002159ba008301e90008003200f3
:1004f0000400e00003003a00e280400032a0b400b3
:10050000f5ff370011d9ba008301e900faff3a007c
:100510008100e800e180400032a0b4000000060045
:10052000c61f040000000000ee1c040000000000d4
:100530005c1a040000000000740c040000000000bd
:10054000b01d040000000000a81d04000000000011
:100550000040da000000fe00e68747008e1f7800aa
:10056000d0bf9f0066875700012f78000e0037002c
:100570005fba970014407800efb997009340780075
:100580000201e900814f5000040032000080fb00ae
:100590008180fb0001005000060037000402e800e3
:1005a000d4bf9f00030fe800e00f5100f0ff3a00b6
:1005b000020078004f0778006f00b10000000600cd
:1005c0008001780002003700815978000201e900bb
:0c05d000e00f5100fcff3a0000000600a4
:020000040000fa
:1005dc00313200003a310000363a00003138000068
:1005ec00004d000061790000202000003520000043
:1005fc003230000031330000000000000000000029
:10060c00ff000000000000000000000000000000df
:10061c0000000000000000000000000000000000ce
:10062c0000000000000000000000000000000000be
:10063c0000000000000000000000000000000000ae
:10064c00000000000000000001000000020000009b
:10065c00020000000000000000000000000000008c
:10066c00000000000000000000000000000000007e
:10067c00000000000000000000000000000000006e
:10068c00000000000000000000000000000000005e
:10069c000000000002000000030000000000000049
:1006ac00000000000000000000000000000000003e
:1006bc00000000000000000000000000000000002e
:1006cc00000000000000000000000000000000001e
:1006dc00000000000000000000000000000000000e
:1006ec0003000000070000000200000002000000f0
:1006fc0002000000000000000000000000000000ec
:10070c0000000000000000000000000000000000dd
:10071c0000000000000000000000000000000000cd
:10072c0000000000000000000000000004000000b9
:10073c0007000000020000000200000002000000a0
:10074c00000000000000000000000000000000009d
:10075c00000000000000000000000000000000008d
:10076c00000000000000000000000000000000007d
:10077c000000000000000000050000000f00000059
:10078c000200000002000000020000000000000057
:10079c00000000000000000000000000000000004d
:1007ac00000000000000000000000000000000003d
:1007bc00000000000000000000000000000000002d
:1007cc0000000000060000000f0000000200000006
:1007dc000200000002000000000000000000000009
:1007ec0000000000000000000000000000000000fd
:1007fc0000000000000000000000000000000000ed
:10080c0000000000000000000000000000000000dc
:10081c00070000000f0000000200000002000000b2
:10082c0002000000000000000000000000000000ba
:10083c0000000000000000000000000000000000ac
:10084c00000000000000000000000000000000009c
:10085c000000000000000000000000000800000084
:10086c000f00000002000000020000000200000067
:10087c00000000000000000000000000000000006c
:10088c00000000000000000000000000000000005c
:10089c00000000000000000000000000000000004c
:1008ac000000000000000000090000000d00000026
:1008bc000700000002000000010000000100000021
:1008cc000100000001000000010000000100000018
:1008dc00000000000000000000000000000000000c
:1008ec0000000000000000000000000000000000fc
:1008fc00000000000a0000000d00000007000000ce
:10090c0002000000010000000100000001000000d6
:10091c0001000000010000000100000000000000c8
:10092c0000000000000000000000000000000000bb
:10093c0000000000000000000000000000000000ab
:10094c000b0000001100000002000000010000007c
:10095c00010000000000000000000000000000008a
:10096c00000000000000000000000000000000007b
:10097c00000000000000000000000000000000006b
:10098c000000000000000000000000000c0000004f
:10099c001000000002000000010000000200000036
:1009ac00000000000000000000000000000000003b
:1009bc00000000000000000000000000000000002b
:1009cc00000000000000000000000000000000001b
:1009dc0000000000000000000d00000002000000fc
:1009ec0006000000010000000100000001000000f2
:1009fc0001000000010000000100000000000000e8
:100a0c0000000000000000000000000000000000da
:100a1c0000000000000000000000000000000000ca
:100a2c00000000000e0000000800000002000000a2
:100a3c0001000000010000000000000000000000a8
:100a4c00000000000000000000000000000000009a
:100a5c00000000000000000000000000000000008a
:100a6c00000000000000000000000000000000007a
:100a7c000f0000000d000000070000000200000045
:100a8c000100000001000000010000000100000056
:100a9c000100000001000000000000000000000048
:100aac00000000000000000000000000000000003a
:100abc00000000000000000000000000100000001a
:100acc000f0000000a0000000200000002000000fd
:100adc000200000002000000020000000200000002
:100aec0002000000020000000200000002000000f2
:100afc0000000000000000000000000000000000ea
:100b0c000000000000000000110000000d000000bb
:100b1c0007000000020000000100000001000000be
:100b2c0001000000010000000100000001000000b5
:100b3c0000000000000000000000000000000000a9
:100b4c000000000000000000000000000000000099
:100b5c0000000000120000000f0000000a0000005e
:100b6c000200000002000000000000000000000075
:100b7c000000000000000000000000000000000069
:100b8c000000000000000000000000000000000059
:100b9c000000000000000000000000000000000049
:100bac001300000006000000090000000100000016
:100bbc000100000001000000010000000100000025
:100bcc000100000001000000010000000100000015
:100bdc000000000000000000000000000000000009
:100bec0000000000000000000000000014000000e5
:100bfc0006000000040000000100000001000000dd
:100c0c0001000000010000000000000000000000d6
:100c1c0000000000000000000000000000000000c8
:100c2c0000000000000000000000000000000000b8
:100c3c00000000000000000015000000040000008f
:100c4c000000000000000000000000000000000098
:100c5c000000000000000000000000000000000088
:100c6c000000000000000000000000000000000078
:100c7c000000000000000000000000000000000068
:100c8c000000000016000000050000000700000036
:100c9c000200000002000000020000000100000041
:100cac000100000001000000010000000000000035
:100cbc000000000000000000000000000000000028
:100ccc000000000000000000000000000000000018
:100cdc0017000000050000000700000002000000e3
:100cec0002000000020000000100000001000000f2
:100cfc0001000000010000000000000000000000e6
:100d0c0000000000000000000000000000000000d7
:100d1c0000000000000000000000000018000000af
:100d2c0005000000070000000200000002000000a7
:100d3c0002000000010000000100000001000000a2
:100d4c000100000000000000000000000000000096
:100d5c000000000000000000000000000000000087
:100d6c00000000000000000019000000040000005a
:100d7c00040000000200000002000000020000005d
:100d8c000200000000000000000000000000000055
:100d9c000000000000000000000000000000000047
:100dac000000000000000000000000000000000037
:100dbc00000000001a000000040000000400000005
:100dcc00020000000200000002000000020000000f
:100ddc000000000000000000000000000000000007
:100dec0000000000000000000000000000000000f7
:100dfc0000000000000000000000000000000000e7
:100e0c001b000000040000000100000004000000b2
:100e1c0000000000000000000000000000000000c6
:100e2c0000000000000000000000000000000000b6
:100e3c0000000000000000000000000000000000a6
:100e4c000000000000000000000000001c0000007a
:100e5c00040000000400000001000000010000007c
:100e6c000100000001000000000000000000000074
:100e7c000000000000000000000000000000000066
:100e8c000000000000000000000000000000000056
:100e9c0000000000000000001d0000000400000025
:100eac00050000000200000002000000020000002b
:100ebc000200000002000000000000000000000022
:100ecc000000000000000000000000000000000016
:100edc000000000000000000000000000000000006
:100eec00000000001e0000000a00000004000000ca
:100efc0001000000010000000100000001000000e2
:100f0c0000000000000000000000000000000000d5
:100f1c0000000000000000000000000000000000c5
:100f2c0000000000000000000000000000000000b5
:100f3c001f0000000a000000020000000100000079
:100f4c000100000000000000000000000000000094
:100f5c000000000000000000000000000000000085
:100f6c000000000000000000000000000000000075
:100f7c000000000000000000000000002000000045
:100f8c000a0000000000000000000000000000004b
:100f9c000000000000000000000000000000000045
:100fac000000000000000000000000000000000035
:100fbc000000000000000000000000000000000025
:100fcc0000000000000000002100000006000000ee
:100fdc000100000002000000000000000000000002
:100fec0000000000000000000000000000000000f5
:100ffc0000000000000000000000000000000000e5
:10100c0000000000000000000000000000000000d4
:10101c000000000022000000080000000100000099
:10102c0001000000000000000000000000000000b3
:10103c0000000000000000000000000000000000a4
:10104c000000000000000000000000000000000094
:10105c000000000000000000000000000000000084
:10106c002300000008000000020000000000000047
:10107c000100000000000000000000000000000063
:10108c000000000000000000000000000000000054
:10109c000000000000000000000000000000000044
:1010ac000000000000000000000000002400000010
:1010bc000a0000000000000000000000000000001a
:1010cc000000000000000000000000000000000014
:1010dc000000000000000000000000000000000004
:1010ec0000000000000000000000000000000000f4
:1010fc000000000000000000250000000a000000b5
:10110c0002000000010000000200000000000000ce
:10111c0000000000000000000000000000000000c3
:10112c0000000000000000000000000000000000b3
:10113c0000000000000000000000000000000000a3
:10114c000000000026000000070000000100000065
:10115c000200000000000000000000000000000081
:10116c000000000000000000000000000000000073
:10117c000000000000000000000000000000000063
:10118c000000000000000000000000000000000053
:10119c002700000007000000010000000000000014
:1011ac000000000000000000000000000000000033
:1011bc000000000000000000000000000000000023
:1011cc000000000000000000000000000000000013
:1011dc00000000000000000000000000494e00006c
:1011ec0053490000474800005421000048650000a6
:1011fc006c6c00006f200000776f00006e640000c4
:10120c0065720000667500006c20000054430000fd
:10121c0050200000776f0000726c00006421000009
:10122c0000000000636f00006e6e0000656300003c
:10123c00746900006f6e0000007000006f72000097
:10124c0074000000ffff0000ffff0000ffff000024
:0c125c0000000000000000000000000086
:020000040000fa
:1012680040c72000c805070020822000a23e2200b7
:101278008000eb00010878007c004000820f5000dd
:10128800fcff3a000040eb00018020008048780015
:10129800e680400080487800e6804000804878007a
:1012a800e68040008048780000000600881f78002b
:1012b80010418000e00f50000a003200e383200054
:1012c8008000eb000001eb00d40f20000144e8008f
:1012d8008100e80001007800930f110010003a0027
:1012e800020037000000eb0000447800801f7800ff
:1012f80040022000801f7800a10020000080e90043
:10130800c908070008407800c2c1b3000440bc0007
:101318008081200000004100e48757000400370066
:10132800fc814100848f5000e8ff3a000000eb0088
:101338004f04780000000600e4874700889fbe003d
:101348008a9fbe008c9fbe008e1f780080bf9f00c2
:1013580001077800298220000004eb008005eb00db
:10136800ed0f200008067800998f15001b00320049
:10137800e90190008e8f510018003a007c62b90094
:101388006c02420080812000800042004200200060
:101398000fb897006efc07008b0f50000f003a0043
:1013a8008c1f780080912800801f7800300320006f
:1013b800801f7800a1002000700050009a080700e4
:1013c80008407800c2c1b3000440bc0080812000fe
:1013d80000004100e6875700050037000804e800d0
:1013e800fc8444008d0f5400deff3a000000eb003f
:1013f8004f0778004f06be004f05be004f04be00e1
:101408004f00b10000000600881f780023822000ea
:101418008000eb0014002000e60f20000144780053
:1014280081027800930f120013003a0073b99700f5
:1014380012019000800f51000f003a00851f7800bc
:1014480030922800801f780010042000801f780048
:10145800a10020007e0050007308070008407800b3
:10146800c2c1b3000440bc008081200000004100dc
:10147800e6875700050037008100e800fc8141003d
:10148800868f5000e5ff3a000000eb004f0478001b
:1014980000000600889fbe0000047800018220003a
:1014a80000072000010040000041eb00910f1400ec
:1014b80001003a000241e800fc804000808f5000a3
:1014c800faff3a00984090000040eb00814f51002d
:1014d8001100320075ff0700800078000040eb0023
:1014e800e08f50000c003200c8009800190020005e
:1014f800d900980018049000881f7800e0052000a3
:10150800801f7800a1002000100220004608070074
:10151800e4875700094078004f04be000000060029
:10152800889fbe008a9fbe008c1f78000004780048
:1015380081447800020578008041eb00104080006b
:10154800880f50003a00320040408000880f500059
:101558003700320070408000880f5000340032009d
:10156800a0408000880f5000310032000080200029
:1015780090cf1100120032006600400090cf110099
:10158800090032006600400090cf110009003200c7
:10159800660040003bc0b3003c00200090cf110023
:1015a80023003a00080037001bc0b3001c002000cd
:1015b800050037002bc0b3002c00200002003700c4
:1015c8000006eb008c45780038ff07008041eb00ef
:1015d800e00f500016003200068020006662b90055
:1015e8008400430013c0b300834878009800980033
:1015f80099409800aa0098000b81fb006611b90079
:101608000201430042009800190020005900980088
:10161800881f780030082000801f7800a100200073
:101628001002200000080700e4875700894178006d
:10163800034078004f0678004f05be004f04be00f7
:10164800000006000a00fa000000eb00b0bf9f008f
:10165800010378006000b800c0bf9f00d1bf9f00a1
:10166800e0bf9f00f1bf9f000201d1003fb8970083
:10167800800f5100150036003fb897000000400069
:1016880066007800bfb9970083814100e680790041
:101698006fba9700ffba9700c808dd004800de005f
:1016a8000080700000004200e0804a00e0bf9f0018
:1016b800f1bf9f003fb897000000e800b0bf9f004f
:1016c8003fb89700820f5000ebff39006fb89700c2
:1016d800ffb89700b1bf9f006fb89700ffb8970099
:1016e80001002000e0bf9f00f1bf9f003fb99700b5
:1016f8006fb89700ffb8970002004000e0804800ec
:10170800e0bf9f00f1bf9f006fb89700ffb8970038
:101718000080ea008180ea00c0bf9f00d1bf9f001f
:101728004fb89700dfb897000080fa000000060065
:10173800889fbe008a9fbe008c9fbe008e1f7800c7
:1017480002047800cc0cde00c24cdd00808444002a
:1017580058129000e8129000a4019800b501980072
:1017680038129000c81290008489be003308900097
:101778004801dd004800de000000710020149800d8
:1017880043009000100090004801dd004800de0092
:10179800000071001014980038169000481290004c
:1017a800c865dd000005eb004821de008a017800ed
:1017b8000201750083817500fe0f20000e02620091
:1017c80005002000482bdd00c823de0087037300d6
:1017d8004823dd00060171008781710000f02f00a9
:1017e800000666000d002000c86edd000c80fd00bc
:1017f8008c4678000046eb000c0171008d81710069
:10180800321498004314980058139000e81390007d
:10181800c832dd000a0278004839de008a01780003
:1018280002017200838172000e82630005002000ad
:10183800482edd00c826de008d0676004826dd002d
:101848000c0171008d817100000363000700200006
:10185800c83bdd000680fd00864378000043eb00ae
:101868000601710087817100521498006314980072
:10187800081890004801dd004800de0000007100f3
:10188800001c98004808dd00c808de0081007000d0
:10189800711498001a1c9800e88044007a004400eb
:1018a800a70407000900500066005000c800de00c9
:1018b8004800dd0000807000101c98001a0c980089
:1018c8008940780008007800d70407004f0778009f
:1018d8004f06be004f05be004f04be0000000600c4
:1018e800ea874700889fbe008a9fbe008c9fbe0083
:1018f8008e1f78000004780078509000e64f500062
:1019080095013a0008057800981090004808dd0015
:10191800c808de008080700011149800a81190009b
:101928004818dd00c819de00808171002314980072
:10193800781290004820dd004822de000002720084
:1019480074149800881a90004828dd00c82ade0020
:1019580080827200051c980038179000c815900006
:1019680058169000e81690008c9fbe00851f7800de
:10197800841f7800831f7800811f7800b009200039
:10198800801f7800a1002000d00120002607070052
:10199800f8109000e19f60004208de00e11f60003f
:1019a8004408de00e11f60008100d100e19f600073
:1019b800c0092000801f7800a1002000e00120005d
:1019c80019070700981090007a0044005afe070093
:1019d80080047800f8875700e08f54001000320028
:1019e80059009000801f78008681200006835400eb
:1019f80042b3de0070db260000b3b9000683fb00ab
:101a0800861f7800300a2000801f7800a10020007f
:101a1800f001200004070700e68757002d00370073
:101a28002810900078fe070080047800e08f5400aa
:101a38002100320058099000e8099000e20498005b
:101a4800f304980070804400e60044001101be00d1
:101a58000288be00d8009000a10c98009811900050
:101a6800b30c9800e00a2000801f7800a100200035
:101a780000022000ec06070059009000801f780043
:101a88008181200081805400c288de0070db26003e
:101a98000088b9000080fb00801f7800f00a200051
:101aa800801f7800a1002000f0012000de0607005a
:101ab800e887570007003700300b2000801f7800a8
:101ac800a100200040022000d70607008f87e90008
:101ad80021013700c870dd000000eb004859de0026
:101ae8008001780002007000838070000b82fb0088
:101af80005002000482bdd00c823de0087037300a3
:101b08004823dd00060070008780700002f02f0077
:101b18000201670003002000481add00c812de0039
:101b2800850272004812dd00040170008581700092
:101b3800f2b79f0083bf9f000b002500805720004d
:101b4800001d980029009000b900900050159800d9
:101b5800611598001903be003615980047159800be
:101b68005902900005002000ea0f5200e08f5a0049
:101b7800e8003e00046001000a0037001500370045
:101b88003c003700e3003700460037009900370073
:101b9800bc003700df003700c6003700c800370038
:101ba800d30037007a10900061006000db0032003b
:101bb8000b40a000890178000a0178008b007800aa
:101bc8000000eb00dafe070090002000d004980027
:101bd800d20037007a10900062006000cf00320017
:101be800f0ff2000808565000000260080857500d4
:101bf8007fb197008fb9970061004100e0804900ec
:101c0800501598006115980050a52a0051a52a0082
:101c1800301598004115980049009000a0009000e8
:101c28000900780001000100e04f50000600320072
:101c38002b01b30020002000d00498004900900038
:101c480014fe0700050037000b20a000100020003c
:101c5800d00498000000eb00c004980089017800c7
:101c68000a0178008b0078000000eb00b0fe070046
:101c7800aa0037007a109000f2006000f08f500040
:101c880003003a0040002000d0049800a300370069
:101c980064006000a100320010002000d004980009
:101ca8009e0037007a109000610060000900320041
:101cb8000b40a000890178000a0178008b007800a9
:101cc8000000eb009afe070090002000d004980066
:101cd800920037007a1790004c77de004277dd00db
:101ce8008e1f7800d0102000801f7800a1002000ef
:101cf800600220004c060700080c90007404540091
:101d08000e045400881f7800f0102000801f78000f
:101d1800a10020006002200043060700801feb009e
:101d280010112000801f7800a10020005002200020
:101d38003d060700210220008a8040008e80400076
:101d4800d909900008017800090078000300010013
:101d58000b40a000c863dd0006002000486ade00d2
:101d68000500200004037300858373000d80fb00c9
:101d78006101b800f2af9f0083b79f00481add00e9
:101d8800c812de00850272004812dd0004037300e9
:101d98008583730004f02f000c0262000500200008
:101da800c82add000480fd00844278000042eb0070
:101db8000402730085827300341598004515980055
:101dc8001fb19700afb1970008004100e0804900bb
:101dd8005015980061159800890178000a0178006b
:101de8008b0078000000eb0051fe0700ec875700dd
:101df8004a0037007a109000f00060000e003200b0
:101e08006100600003003a0060002000d0049800e0
:101e1800420037000b40a000890178000a017800d1
:101e28008b0078000000eb0041fe070080002000d6
:101e3800d004980039003700610060003700320094
:101e48000b40a00061034300e0834b005615980047
:101e58006715980050a52a0051a52a00301598004a
:101e680041159800890178000a0178008b007800f4
:101e78000000eb002efe070080002000d004980030
:101e8800260037007a1090006100600023003200bd
:101e98000b40a000890178000a0178008b007800c7
:101ea8000000eb0022fe070080002000d00498000c
:101eb8001a0037000000eb00d00498001700370024
:101ec8000b20a0006000b80050159800611598001c
:101ed800890178000a0178008b0078000000eb0087
:101ee80013fe07000000eb00d00498000b00370039
:101ef8000b40a000890178000a0178008b00780067
:101f08000000eb000afe07000000eb00d004980078
:101f18000200370010002000d0049800d90190007a
:101f2800831f780080812000008054004280de00fa
:101f380071db26000180b9000080fb00801f78005b
:101f4800a0152000801f7800a1002000f0012000cb
:101f5800b5050700e68757004f0778004f06be0013
:101f68004f05be004f04be00af00b10000000600e0
:101f7800881f7800710020000044eb000080fb00ff
:101f8800884178008002eb00170020000082eb00f7
:101f9800000378000181de0061416100834f510038
:101fa80002003a00d202a90001003700d202a800bc
:101fb8005216800068016100850f5100020032004e
:101fc8000139dd0002447400d222a800d222a900ff
:101fd8008100e900848f5000edff3a000880fb0083
:101fe800801f7800861f7800c0032000801f7800bb
:101ff80021002000b00020008b050700e68757006d
:10200800084078004f047800000006000400fa0039
:102018008000eb00e1bf9f00f1bf9f008041eb0013
:102028000002eb003106200015003700e4bf9f00d6
:102038006fb99700810f510010003e00f4bf9f0058
:102048007fb99700810f510006003e007fb99700c5
:102058000201e800f2bf9f007fb99700810f51008d
:10206800faff36006fb997000201e800e2bf9f004f
:102078006fb99700810f5100f0ff36000040e9006a
:10208800834f5000e9ff3a000080fa000000060084
:10209800889fbe008a1f7800810478000244780077
:1020a800ca42a9003a040700e04f54000700320072
:1020b8000045eb0019407800adff0700805c780010
:1020c8000844e9008a4f5400faff3a00ca42a800bf
:1020d8004f0578004f04be0000000600889fbe0030
:1020e8008a1f78000105780002447800ca42a900d6
:1020f80027040700e04f5400060032008044eb003c
:102108003a407800220407000844e900894f540047
:10211800fbff3a00ca42a8004f0578004f04be00f2
:1021280000000600889fbe008a1f7800010578001d
:1021380002447800ca42a90015040700e04f540081
:10214800060032008044eb000d040700005d7800b3
:102158000844e900894f5400fbff3a00ca42a8002e
:102168004f0578004f04be00000006000200fa0088
:10217800889fbe00d0bf9f008104780002047800c9
:1021880022c0b300e680570040c6b300c0ff070076
:102198000841780089007800c0c2b300e1ff070059
:1021a8004f04be000080fa00000006000200fa009a
:1021b800889fbe00d0bf9f00810478000204780089
:1021c80022c0b300e680570000c6b300b0ff070086
:1021d800084178008900780080c2b300d1ff070069
:1021e8004f04be000080fa00000006000200fa005a
:1021f800889fbe00d0bf9f00810478000204780049
:1022080022c0b300e6805700c0c6b300a0ff070095
:102218000841780089007800a0c2b300afff07002a
:102228004f04be000080fa0000000600881f7800f6
:10223800ca42a9007f406000d5030700d003070009
:102248000084fb00ce030700ca42a8004800dd0056
:10225800080070004f04780000000600881f78000e
:1022680001047800ca42a9007f4060000064a00011
:10227800c703070008407800c50307004840de0090
:10228800c3030700ca42a8004f04780000000600f4
:1022980020b7220000c8eb0000000600881f780065
:1022a8000044780020b72200904f54000800320004
:1022b800ca42a9008840440000ccb30000c07000a6
:1022c800b3030700ca42a80020b7220008487800d4
:1022d8004f04780000000600889fbe000144780083
:1022e80080447800e04f5000030035000080fb0078
:1022f8004500de00e9ff0700ca42a9007fc064006c
:102308000074a000a203070008407800a00307009b
:10231800ca42a8004f04be0000000600889fbe0005
:1023280000447800810478008940780008407800eb
:10233800e9ff0700c848de000840e800e6ff07009c
:102348004f04be0000000600889fbe0001447800cc
:1023580080447800e04f5000030035000080fb0007
:102368004500de00cdff0700ca42a9007fc0640017
:102378000064a00086030700084078008403070073
:10238800ca42a8004f04be0000000600889fbe0095
:10239800004478008104780089407800084078007b
:1023a800e9ff0700c848de000840e800e6ff07002c
:1023b8004f04be0000000600881f78000044780023
:1023c800e04f5400030035000880fb004500de00a4
:1023d800b2ff0700ca42a9007f4064006c030700ef
:1023e80067030700ca42a8004f04780000000600ef
:1023f800889fbe000044780008407800eeff070080
:10240800804478000840e800ebff07004800dd0042
:102418008984fb00090070004f04be00000006001c
:10242800a0c9b300e4ff070000000600fcff070096
:102438000080fb000000ea004f00de0000000600fc
:10244800b0c9b300dcff070061406000000006006f
:10245800e0c9b300d8ff07000000d10061006000a8
:1024680000000600889fbe008a9fbe000004780016
:1024780001057800f6ff07008005eb00e04f5000eb
:10248800140032000040eb00d9ff070080057800f7
:1024980020c0b300d6ff07008b05400000002300d2
:1024a8000b0050008a0f50000a003e000040eb006d
:1024b800cfff07008044eb008005eb00800f55003c
:1024c80004003e00e2ff0700894f5000fdff3a007c
:1024d8008005eb000a017800880078000b0078007e
:1024e80042ff07008044eb00d9ff0700894f5000e6
:1024f800fdff3a008b0078000040eb00a3ff0700c7
:102508008a00780020c0b300a0ff07000041eb005c
:102518008000eb0040cdb300ddfe0700584090007e
:102528000080fb00801f7800484090000080fb007e
:10253800801f7800384090000080fb00801f7800e2
:10254800284090000080fb00801f78001840900011
:102558000080fb00801f7800184478000880fb008a
:10256800801f78008a1f7800f0142000801f7800f0
:1025780021002000100120002b0407008a1f78008a
:102588008b1f78008a1f780000152000801f7800b4
:10259800210020002001200023040700f8875700ad
:1025a8004f05be004f04be00000006000600fa00fa
:1025b8001001be00d2bf9f00e3bf9f00a0019000a2
:1025c800f3bf9f00660140001202be000488be00ef
:1025d800d0029000250098005fba9700efba9700e4
:1025e8000489be008302780055009800ee80400000
:1025f8009cff07000080fa0000000600ec874700f7
:10260800889fbe008a9fbe008c9fbe008e1f7800e8
:102618000007780082ff070011c0b30081f79f0010
:10262800e04f50006e0032004d1720000e84e80085
:102638000c002300ebff250082002000f8805700e3
:10264800b05e8100c9fe07000fe897008081fb009b
:102658001fea97000482fb004825dd00030575008a
:10266800afea97008582fb003feb97000683fb00eb
:10267800c834dd00858474007fe997000281fb007f
:10268800821f78004fe997000281fb00821f7800c3
:102698001fe997000281fb00821f78006fe1970015
:1026a8000281fb00821f7800861f7800851f780052
:1026b800841f7800831f7800891f7800d62bf800c4
:1026c8008d1f78002100200000012000d60307009c
:1026d8006fd1970070016100f6875700e00f510035
:1026e80030003a008984e900b05e8100660040004d
:1026f800090178008e0078009cfe070068019000b0
:10270800c811dd004811de000281710062049800e2
:10271800384990000281fb00821f78002849900008
:102728000281fb00821f7800184990000281fb009b
:10273800821f7800084990000281fb00821f780000
:10274800784190000281fb00821f78006841900068
:102758000281fb00821f7800891f78003218200050
:10276800821f780021002000f0002000ae0307003f
:102778008044eb0089e79f0001fe2f008f80400016
:1027880008007800c2000700f08757000ff1970093
:10279800894f510003003a00f08057000800780084
:1027a80024020700b25e81008b0078008c0f510074
:1027b800010032008280e90060c0b300f3fe070028
:1027c800ba5e89000041eb008000eb00c0ccb3008a
:1027d8002ffe070012ff0700e04f500096ff3a0057
:1027e8004f0778004f06be004f05be004f04be00dd
:1027f800cf00b10000000600889fbe008a9fbe007f
:102808008c1f7800c842a900c862a800d002a9009d
:10281800d022a900ca42a800d202a800d222a80049
:10282800b8c9b3008004eb004123210060c9b3009c
:10283800d6fe070060c9b300edfe07004123210062
:10284800810f5000f8ff3a0008407800dafe0700d0
:1028580070006000890f5000fbff320001c1b30017
:10286800e0c6b3009cfe070089fe070040c6b3001f
:10287800e6fd070060c9b300ddfe0700890f5000c0
:10288800e9ff3a0040c6b300e0fd070001602200fe
:1028980040c7b300bdfe07008000eb000040eb001e
:1028a800bafe07000100230040c0b300b7fe0700ce
:1028b8009100200040c3b300b4fe070011c0b3006c
:1028c800e0c9b30084fe070010c6b300bafe0700d3
:1028d8000046780000c6b300b7fe070080457800c0
:1028e80030c6b300b4fe07000045780020c6b30028
:1028f800b1fe07008044780050c6b300aefe070062
:102908000044780040c6b300abfe07008040780062
:102918000c86fb008c1f78008b85fb008b1f7800d2
:102928000a85fb008a1f78008984fb00891f7800cc
:102938000884fb00881f78008180fb00811f7800d5
:10294800b01c2000801f780021002000d00020004b
:1029580035030700ee8757004f0678004f05be0085
:102968004f04be00000006000040eb00c1bb22007f
:1029780080487800e480400080487800e480400087
:102988008048780000000600c1bb22000041eb002f
:10299800914f11000a003200e4804000914f11006d
:1029a80005003200e4804000914f11000b003a000e
:1029b800210020000300370011002000010037002b
:1029c8008000eb00c208dd00c2bb2200010141000b
:1029d80011c0b300014978001001980000000600fa
:1029e800f15d8100808f500002003a00c1bb2200d7
:1029f8008048eb00115e8100808f500002003a0091
:102a080001bc22008048eb00315e8100808f5000bd
:102a180002003a0040bc22000048eb00000006001b
:102a28000200fa00889fbe008a9fbe008c1f7800b3
:102a3800000678000040eb00c0f79f00c8bb2200ea
:102a4800e805440019c0b3000045780098cf140089
:102a580004003a0018019000ec8057000c00780040
:102a6800020001008b0f540004003200640444008b
:102a78004ff097008a4f5000f4ff32004f0678005d
:102a88004f05be004f04be000080fa00000006009b
:102a9800881f7800000478006801900000802000fa
:102aa800800f510024003a0010c0b300804878001d
:102ab80008089000c800dd004800de000100700032
:102ac800000c9800c808900048099000d859900058
:102ad8008381fb00831f7800c85990008381fb0025
:102ae800831f7800b85990008381fb00831f78000a
:102af800a85990008381fb00831f78004811dd00ee
:102b0800c808de00811f7100f85090008180fb002a
:102b1800811f7800801f780070052000801f7800d2
:102b28007100200080012000bf0207000800780023
:102b3800bbff0700f08757004f047800000006002d
:102b48000a00fa000001eb00b2bf9f006011b80054
:102b5800c2bf9f00d3bf9f00e2bf9f00f3bf9f008b
:102b68008100d1003fb99700828f500015003600d0
:102b78003fb997000201410060017900bfb9970091
:102b880083814100e08179006fba9700ffba97000e
:102b9800c819dd004811de000281710002014200ff
:102ba800e0814a00e2bf9f00f3bf9f003fb9970052
:102bb8000201e800b2bf9f003fb99700810f5100a2
:102bc800ebff39006fb89700ffb89700b1bf9f00bf
:102bd8006fb89700ffb8970001002000e0bf9f0082
:102be800f1bf9f003fb997006fb89700ffb89700f3
:102bf80002004000e0804800e0bf9f00f1bf9f0056
:102c08006fb89700ffb897000080ea008180ea005b
:102c1800c0bf9f00d1bf9f004fb89700dfb8970093
:102c28000080fa00000006000400fa00889fbe0039
:102c38008a9fbe0000047800f4c44000fe004400ef
:102c48001101be00a2bf9f00b3bf9f007a004400dd
:102c58001001be008288be002fb99700bfb9970047
:102c68000288be000000eb00400c9800200c980081
:102c78008984fb0068009000c800dd004800de0081
:102c880000807000600498004848dd00000c98003f
:102c98006e054400f8009000ef806000c208dd0077
:102ca8000a007800a6ff070080057800f800900069
:102cb800ef806000c208dd000a007800a0ff07006e
:102cc8004801dd00c858de0001007100400c980082
:102cd80048089000c8089000186190000281fb0025
:102ce800821f7800086190000281fb00821f780033
:102cf800785990000281fb00821f78006859900083
:102d08000281fb00821f7800c808dd004800de0051
:102d1800809f7000785090000080fb00801f780032
:102d2800891f780080082000801f7800710020002b
:102d3800600120003c0207000800be009203070063
:102d4800f08757004f05be004f04be000080fa0010
:102d580000000600889fbe008a9fbe00020478001b
:102d6800f484410082bc220005000900325c78002e
:102d78006800b1006601440003bb22000500090099
:102d8800335978006200b100820020006204980084
:102d98007e01440003000900305978004200b10068
:102da8004000b1007a004400c2ba220003000900c2
:102db800325878004000b10078019000f0f02f0000
:102dc800000061000060a00002ff2f000200600008
:102dd8005000b300700498000040eb00704c98005d
:102de8004849dd004848de0000007100000c9800ea
:102df80020412300100c98000001eb00220c9800e1
:102e080000c8b3006054980071549800420c9800b0
:102e18006e054400410120000a00780048ff0700c1
:102e280080057800f8009000ef806000c208dd009f
:102e38000a00780042ff07004801dd00c858de009c
:102e480001007100400c980048089000c8089000e4
:102e5800186190000281fb00821f780008619000d1
:102e68000281fb00821f7800785990000281fb00e4
:102e7800821f7800685990000281fb00821f780049
:102e8800c808dd004800de00809f70007850900080
:102e98000080fb00801f7800891f7800600a2000ee
:102ea800801f78007100200070012000de010700fb
:102eb800ee8044000800780031030700f0875700cf
:102ec8004f05be004f04be000000060000000600cb
:102ed8002a00fa0005102000a5b79f0085002000f1
:102ee800b5b79f0065c0b30085ef9f0045c0b3002c
:102ef80095ef9f0005102000e04f520001003200be
:102f080005202000d5b79f007482570005000900ee
:102f1800305a78006400b1006000b1006e8057003c
:102f280003000900315878004000b1004100b100a9
:102f38006a80570005000900325878006000b10027
:102f48006200b1006480570003000900335878001c
:102f58004000b1004300b10060fd2f000f004000a9
:102f68008192280005000900315878006000b100fe
:102f7800c0fd2f000f00400001bb22000500090022
:102f8800315878006000b1008060200090b79f0041
:102f9800a102200060fd2f000f004000f80207008a
:102fa8000080fa0000000600881f780001047800fd
:102fb80082017800c1ba220003000900b8587800dd
:102fc8004800b10001bb220005000900b058780094
:102fd8006000b1000042eb00e2922800880078000f
:102fe800bbff0700384090000080fb00801f78007e
:102ff800284090000080fb00801f78001840900057
:103008000080fb00801f7800184478000880fb00cf
:10301800801f780050032000801f78005100200096
:103028004001200080010700ea8757004f0478001c
:1030380000000600889fbe00e0019000628020002a
:10304800828f51004a003a0012c0b30082487800cb
:103058000004780078009000c800dd004800de0019
:10306800008070007004980008089000c800dd0017
:103078004800de0000807000000c980028089000ce
:10308800c800dd004800de0001007000200c980038
:10309800e20f5000360032006902200088844400a4
:1030a80042002000c1ba22000900780028f5070074
:1030b80080007800785890000080fb00801f78001e
:1030c800685890000080fb00801f780058589000d6
:1030d8000080fb00801f7800485890000080fb00ab
:1030e800801f780010002000e08f5000010032009f
:1030f8000000eb00801f7800186890000080fb003b
:10310800801f7800086890000080fb00801f78000e
:10311800786090000080fb00801f78006860900055
:103128000080fb00801f780080042000801f78004a
:1031380051002000300120003b0107004200200020
:10314800c1ba22000900780001f50700f48757008a
:10315800e00f500006003a007601440014c0b300a6
:10316800fc014400c1ba220000bb220058ff07003e
:103178004f04be00000006008092280000000600f0
:103188007020020000000000705e81000000060050
:103198000080fb00805e8900921e02000000000093
:1031a800000006002420020000000000705e81007c
:1031b800000006000080fb00805e8900281e0200d7
:1031c8000000000000000600d302a90071002000e2
:1031d8000040eb00052020000002eb001600200054
:1031e8008081eb00d2e2a800921680000501610000
:1031f800840f5100020032000131dd0002407000ee
:10320800d2e2a9008100e900838f5000f5ff3a005f
:1032180000000600881f78008043780071002000b5
:103228000040eb008783fb008041780006202000e7
:103238008002eb00180020000082eb0001b9de00dc
:1032480061416100834f510002003a00d302a90096
:1032580001003700d302a800d2e2a800921680002d
:1032680006016100850f5100020032000141dd00b6
:1032780002407000d2e2a9008100e900848f50006a
:10328800eeff3a004f04780000000600e1ff070057
:10329800000006000200fa00889fbe008a9fbe0058
:1032a8000005780081047800020478000000eb0033
:1032b800b0bf9f00800f55000f003a003fb897003d
:1032c800800f54002d00360024200200000000006a
:1032d800bfb89700705e810080f478003fb897000f
:1032e8000000e800b0bf9f003fb89700880f50006b
:1032f800f5ff390021003700e08f54000400320048
:103308003fb89700800f540011003e001b003700a3
:103318003fb89700800f5400180036003fb8970058
:103328006a4078000080fb00805e8900281e020049
:10333800000000003fb897000000e800b0bf9f0001
:103348003fb89700800f5400f4ff3e000b00370091
:10335800bfbd97003fb897006a407800cbff0700d1
:1033680080f47d003fb897000000e800b0bf9f00e0
:103378003fb89700800f5400f5ff3e004f05be0090
:103388004f04be000080fa0000000600d122a80009
:10339800f0ef2f00d022b600f1f72f008000fd00db
:1033a800d022b6008000fd00d0c2a900c922a90021
:1033b8008000fd00d222b6008000fd00d222b600b7
:1033c800000006004822ef008000eb000012800099
:1033d80061006000810f5000fcff32004012800045
:1033e800000006000200fa008000eb00f1bf9f0019
:1033f8000080fb004012880000128000610060001d
:10340800810f5000fcff320040128000f0bf9f0087
:103418000080fa0000000600c0a521005afd070040
:103428000080eb00a05b8900c05b8900e05b89003d
:10343800005c8900205c8900405c8900605c890030
:10344800805c8900000006000200fa00889fbe0028
:103458008a9fbe00800478000040eb00e0f79f00e0
:1034680048b72200fc05440000457800a9109000e8
:10347800988f100004003a0018019000ea80570065
:1034880009007800020001008b0f5400040032008c
:10349800640444006ff097008a4f5000f3ff320035
:1034a8004f05be004f04be000080fa000000060071
:1034b800881f78000004780078509000f14f500081
:1034c8001e003a0010c0b300804878001810900021
:1034d800c800dd004800de000100700010149800ec
:1034e800a81090004809dd00c808de00828070003e
:1034f8002114980038119000c811dd004811de0031
:103508000301710032149800821f7800481190005e
:10351800821f7800811f7800801f780060042000d7
:10352800801f780091002000a00120003e000700c5
:1035380008007800c4ff0700ea8757004f047800a6
:1035480000000600a25b8100e10f41000900320083
:1035580083b722000001eb000082eb007500200019
:103568000201e80002037800930f120008003a00f5
:10357800010037000003eb004233dd0042b72200b0
:1035880006034100011b7800000b78000300370098
:10359800e4814100850f5100f1ff3a000000060068
:1035a800889fbe008a1f7800000478000205780012
:1035b80003027800e8844000c848dd004848de007f
:1035c80000807000301498004820dd00c822de001a
:1035d8008082720025149800151498008000eb0072
:1035e80041149800891f7800811f7800841f780093
:1035f800841f780040052000801f7800910020007b
:1036080090012000080007000801be0011c1b300a6
:103618000a007800cffd0700ea8757004f057800b9
:103628004f04be00000006000000fa00889fbe009c
:103638008a9fbe008c9fbe00000478008105780038
:10364800e00f5400620032006002200000c0b900a0
:103658006401400041302800610579000080e800dd
:1036680061007800e20f500059003e00f4845700d2
:1036780042002000418f2800e09c220080000700c3
:1036880088007800e09c22008e000700efb09700c9
:10369800e09c22008b0007008b007800e09c220051
:1036a80088000700e04f5500390032006002200012
:1036b80000c0b9008b3028008b0540000044eb00a7
:1036c8000c002100fdff20005b0178000c00610068
:1036d8000a0032000d01610004003a00c9007800b8
:1036e800e09c22008e00070026003700c900780001
:1036f800e09c22006200070022003700030020003f
:10370800e80f5100e08f59001e003e0002600100e2
:10371800080037000b0037000f003700190037008a
:103728001100370017003700160037001500370062
:1037380011003700c9007800e09c220078000700db
:10374800100037008984e90099407800e09c220045
:103758003a0007000b003700c9007800e09c2200ff
:1037680058000700070037004901be00e09c22000e
:103778005b000700030037004901be00e09c2200ff
:103788005f0007000844e800884f5500ceff3e0060
:1037980042002000818f2800e09c220038000700aa
:1037a800e99c22000044eb0004003700090078007f
:1037b8007200070000407800dd010700090078006a
:1037c8007f0007008040780088cf5000f7ff3a005c
:1037d8004f06be004f05be004f04be000080fa0031
:1037e8000000060002102000819d2200e09c2200bb
:1037f8000b000700e02e2800801f7800702f28009b
:10380800801f780080012000801f7800b100200010
:103818001000200084ff0700e6875700000006001c
:1038280041009800020878008000eb003100980001
:103838002100980011009800000006001001900077
:10384800900f51000d003200c0019000200190003f
:1038580081717900900090008100e80011009800c3
:10386800a00090008100e80021009800908f50008f
:1038780002003a008000eb002100980000000600da
:10388800889fbe008a9fbe0080057800810478006a
:1038980002057800e00f5500070032000004eb0035
:1038a800b94078000b007800e4ff07000804e8003e
:1038b800880f5500faff3e004f05be004f04be00ba
:1038c800000006000200fa00f1bf9f00220020005d
:1038d8008f80e900eaff07000080fa000000060078
:1038e8000400fa00e2bf9f00f3bf9f0042002000df
:1038f800e4805700e2ff07000080fa00000006009d
:103908000400fa00e2bf9f00f3bf9f0042002000be
:10391800e4805700daff07000080fa000000060084
:10392800889fbe008a1f780000057800810478000f
:103938000004eb000040eb00994f10000500320036
:1039480089017800004178000804e800d34f11008d
:10395800fdff3a00880078000a007800d9ff0700c8
:1039680008017800890078000a007800c4ff070081
:103978004f0578004f04be000000060010019000bb
:103988008040eb00e00f51000b003200b0019000c6
:10399800c0009000e1c079000201e900120098001f
:1039a8000301e80032009800900f510002003a002d
:1039b8000001eb003200980001407800000006008a
:1039c800100090008000ea00008070004f00de00c8
:1039d80000000600881f780012c0b30082487800f3
:1039e80020119000b1072000810f510026003a00f5
:1039f800102c9000202a9000c840dd000000eb0049
:103a08004821de0080017800020070008380700089
:103a18000482fb0005002000482bdd00c823de00df
:103a2800870373004823dd0006007000878070005c
:103a380002f02f000201640003002000481add0094
:103a4800c812de00850272004812dd000400700012
:103a5800858070000418280055c527000000420022
:103a680081804a00905e8900a15e8900809fbe0027
:103a780020022000801f780081002000b001200073
:103a8800e9fe0700e68757004f04780000000600ab
:103a9800b1072000e0ce2100aafe070000000600c2
:103aa800889fbe000004780089ad2200a20520008e
:103ab8008000eb0009007800bff2070031ceb300a8
:103ac800a00220000900400001487800a1c0b3000e
:103ad8000080e80001487800c1ceb3000000e8008b
:103ae80001487800384090000080fb00801f780073
:103af800284090000080fb00801f7800184090004c
:103b08000080fb00801f7800984078000180fb004f
:103b1800801f780060012000801f7800810020004d
:103b2800c0012000c0fe0700b3072000080178008c
:103b3800010320000900780099fe0700ea87570072
:103b48004f04be000000060001db21005108980068
:103b580010c0b30000000600821f7800f0032000a8
:103b6800801f7800d100200078005000aefe0700ca
:103b7800e487570000000600a0fa070000000600ce
:103b880038fa07000000060088fa0700000006005f
:103b9800889fbe008a1f78002ca3ef00c902a900e5
:103ba800fafd0700c70007000eff070040b9220012
:103bb80011fb0700c5fc0700e2b92200a1b92200e9
:103bc80040b92200f8fc070067fb0700a4f50700ce
:103bd80082da210001c2b300204d200050f6070010
:103be8000dfe070011010700a9ff070060ba2200b7
:103bf800abff07000044eb003a0720000bfa070070
:103c0800884f5000fdff32000dfa0700804478000d
:103c180003fa07008984fb00891f78000080fb00f5
:103c2800801f78008a1f7800d1002000e000200063
:103c38007dfe0700e15e2000003e22006ffa0700cb
:083c4800e6875700edff37008d
:020000040000fa
:103c5000801f7800805e81000070a700d302a8005a
:103c60000070a600d302a900d2e2a900d2e2a80007
:103c70000060a700d302a8000060a600d302a9003c
:103c8000d2e2a900d2e2a8000050a700d302a80007
:103c90000050a600d302a900d2e2a900d2e2a800f7
:103ca0000040a700d302a8000040a600d302a9004c
:103cb000d2e2a900d2e2a8000030a700d302a800f7
:103cc0000030a600d302a900d2e2a900d2e2a800e7
:103cd0000020a700d302a8000020a600d302a9005c
:103ce000d2e2a900d2e2a8000010a700d302a800e7
:103cf0000010a600d302a900d2e2a900d2e2a800d7
:103d00000000a700d302a8000000a600d302a9006b
:103d1000d2e2a900d2e2a800d2e2a9004f007800c6
:043d20000000060099
:020000040000fa
:103d2400801f7800805e81000070a700d202a80086
:103d34000070a600d202a900d222a900d222a800b3
:103d44000060a700d202a8000060a600d202a90069
:103d5400d222a900d222a8000050a700d202a800b3
:103d64000050a600d202a900d222a900d222a800a3
:103d74000040a700d202a8000040a600d202a90079
:103d8400d222a900d222a8000030a700d202a800a3
:103d94000030a600d202a900d222a900d222a80093
:103da4000020a700d202a8000020a600d202a90089
:103db400d222a900d222a8000010a700d202a80093
:103dc4000010a600d202a900d222a900d222a80083
:103dd4000000a700d202a8000000a600d202a90099
:103de400d222a900d222a800d222a9004f00780032
:043df40000000600c5
:020000040000fa
:103df800d62b000002000000020000000030000086
:103e0800322b00004200000000000000ce2b000012
:103e18000400000000000000ac2b000010000000af
:103e280000000000c82b000006000000020000008f
:103e3800b0487a00db5bea00bc2b00000c000000f5
:103e480000000000d22b0000040000000200000067
:103e58000000000000000000d82a00005a000000fe
:103e680000000000742b000020000000000000008b
:103e780000080000e01b000000000000ce29000040
:103e88000a01000000000000942b00001800000048
:103e9800020000000004a3005020f600c0a80100a2
:103ea8007bc0a8000101c000a8019300c2aba70015
:103eb80082fc8800e0230000ee05000000000000fe
:043ec80000000000f6
:020000040000fa
:103ecc00000028000011880000402000101188001c
:103edc004000200040118800cae2a900123a80007c
:103eec00f20bb20060042000710520002374200046
:103efc008049780081497800824978003336800007
:103f0c00f20f2e00028161000230b30032368800bd
:103f1c00123a80000260a0002374200080497800cf
:103f2c0081497800824978000000060003202000b7
:103f3c000001eb001111800083806000828f500023
:103f4c00fcff3a000080fb002011880000000600f6
:103f5c00889fbe008004780019407800e04f500024
:103f6c00050032000044eb00f0ff070059407800d8
:103f7c00884f5000fcff3a004f04be0000000600c2
:103f8c00889fbe008a9fbe00000478007850900085
:103f9c00e14f500021003a00804878001810900042
:103fac00e80f50001d003a000040eb002064980020
:103fbc000000eb00201498002a02200008054500a0
:103fcc0088089000f48050000a007800dbfa0700a3
:103fdc008005780088089000f48050000a00780072
:103fec00d6fa07004801dd00c858de000100710058
:103ffc002014980070022000801f780061002000bf
:10400c005001200087fd070088089000f4c0500084
:10401c000800780003fb07008f87e9004f05be00fe
:10402c004f04be000000060060fc210055fa07009a
:0c403c0000000600000006000000060066
:020000040000fa
:10404800801f78000000eb00d302a900d2e2a8008c
:10405800d322af000070a000d2e2a900d2e2a800eb
:10406800d322af000060a000d2e2a900d2e2a800eb
:10407800d322af000050a000d2e2a900d2e2a800eb
:10408800d322af000040a000d2e2a900d2e2a800eb
:10409800d322af000030a000d2e2a900d2e2a800eb
:1040a800d322af000020a000d2e2a900d2e2a800eb
:1040b800d322af000010a000d2e2a900d2e2a800eb
:1040c800d322af000000a000d2e2a900705e8900f0
:0840d8004f0078000000060013
:020000040000fa
:1040e000801f78000000eb00d202a900d222a800b5
:1040f000ca62af000070a000d222a900d222a8009c
:10410000ca62af000060a000d222a900d222a8009b
:10411000ca62af000050a000d222a900d222a8009b
:10412000ca62af000040a000d222a900d222a8009b
:10413000ca62af000030a000d222a900d222a8009b
:10414000ca62af000020a000d222a900d222a8009b
:10415000ca62af000010a000d222a900d222a8009b
:10416000ca62af000000a000d222a900705e8900e0
:084170004f007800000006007a
:020000040000fa
:0200000401f009
:04000000ffff0000fe
:020000040000fa
:0200000401f009
:04000400ffff0000fa
:020000040000fa
:0200000401f009
:04000800ffff0000f6
:020000040000fa
:0200000401f009
:04000c0079ff000078
:020000040000fa
:0200000401f009
:040010001bff0000d2
:020000040000fa
:0200000401f009
:0400140077ff000072
:020000040000fa
:0200000401f009
:04001800f8ff0000ed
:020000040000fa
:0200000401f009
:04001c00deff000003
:00000001FF
