:020000040000fa
:080000000002040000000000f2
:020000040000fa
:10000800a8020000a8020000a8020000a802000040
:10001800a8020000a8020000a8020000a802000030
:10002800a8020000a8020000a8020000a802000020
:10003800a8020000a8020000a8020000a802000010
:020000040000fa
:020000040000fa
:100400006f0d21000e7f24000e0188000000000007
:100410000c000700207e21000100200011000700d1
:10042000000020000000e000020032000000020096
:1004300000000000fc160200000000000040da008e
:100440000000fe004440a900202820000000e00039
:100450000300320000002000a00188004440a800f2
:100460000000060091018800800078000000eb0089
:1004700015003700e280400032a0b4009101ba00bc
:10048000e280400032a0b4009102ba00e280400055
:1004900032a0b4000002eb00472bde00f507b200eb
:1004a000602ce10004003a000059eb008301e900f0
:1004b000fdff3e00040037006128e100010032002a
:1004c0000082eb00040007001101ba000200e00006
:1004d000e8ff3a00000006003159ba008301e90044
:1004e0000c0032002159ba008301e90008003200f3
:1004f0000400e00003003a00e280400032a0b400b3
:10050000f5ff370011d9ba008301e900faff3a007c
:100510008100e800e180400032a0b4000000060045
:100520006814040000000000c0190400000000006e
:10053000300e0400000000006e18040000000000ef
:1005400006160400000000006a1a04000000000003
:100550000040da000000fe00e68747008e1f7800aa
:10056000d0bf9f0066875700012f78000e0037002c
:100570005fba970014407800efb997009340780075
:100580000201e900814f5000040032000080fb00ae
:100590008180fb0001005000060037000402e800e3
:1005a000d4bf9f00030fe800e00f5100f0ff3a00b6
:1005b000020078004f0778006f00b10000000600cd
:1005c0008001780002003700815978000201e900bb
:0c05d000e00f5100fcff3a0000000600a4
:020000040000fa
:1005dc00323200003a300000383a00003539000061
:1005ec000041000070720000203200003920000031
:1005fc003230000031330000000000000000000029
:10060c00ff000000000000000000000000000000df
:10061c0000000000000000000000000000000000ce
:10062c0000000000000000000000000000000000be
:10063c0001000000020000000200000000000000a9
:10064c00000000000000000000000000000000009e
:10065c00000000000000000000000000000000008e
:10066c000000000002000000030000000000000079
:10067c00000000000000000000000000000000006e
:10068c00000000000000000000000000000000005e
:10069c000000000000000000030000000700000044
:1006ac000200000002000000020000000000000038
:1006bc00000000000000000000000000000000002e
:1006cc00000000000000000000000000040000001a
:1006dc000700000002000000020000000200000001
:1006ec0000000000000000000000000000000000fe
:1006fc0000000000000000000000000000000000ee
:10070c00050000000f0000000200000002000000c5
:10071c0002000000000000000000000000000000cb
:10072c0000000000000000000000000000000000bd
:10073c0000000000060000000f0000000200000096
:10074c000200000002000000000000000000000099
:10075c00000000000000000000000000000000008d
:10076c000000000000000000070000000f00000067
:10077c000200000002000000020000000000000067
:10078c00000000000000000000000000000000005d
:10079c000000000000000000000000000800000045
:1007ac000f00000002000000020000000200000028
:1007bc00000000000000000000000000000000002d
:1007cc00000000000000000000000000000000001d
:1007dc00090000000d0000000700000002000000ee
:1007ec0001000000010000000100000001000000f9
:1007fc0001000000010000000000000000000000eb
:10080c00000000000a0000000d00000007000000be
:10081c0002000000010000000100000001000000c7
:10082c0001000000010000000100000000000000b9
:10083c0000000000000000000b0000001100000090
:10084c000200000001000000010000000000000098
:10085c00000000000000000000000000000000008c
:10086c000000000000000000000000000c00000070
:10087c001000000002000000010000000200000057
:10088c00000000000000000000000000000000005c
:10089c00000000000000000000000000000000004c
:1008ac000d00000006000000060000000100000022
:1008bc000100000001000000010000000100000028
:1008cc00010000000000000000000000000000001b
:1008dc00000000000e0000000700000002000000f5
:1008ec0001000000000000000000000000000000fb
:1008fc0000000000000000000000000000000000ec
:10090c0000000000000000002e2e00002f730000dd
:10091c00726300002f750000746900006c73000096
:10092c002f6900006e730000696700006874000096
:10093c002e630000004900004e53000049470000a0
:10094c00485400002100000046610000696c000062
:10095c0065640000207400006f200000616c0000d2
:10096c006c6f000063610000746500000d0a0000ec
:10097c00004800006561000070200000616e0000fe
:10098c006420000070610000796c00006f61000051
:10099c0064200000776900006c6c0000206e000081
:1009ac006576000065720000206600006974000026
:1009bc000d0a00000041000074740000656d000019
:1009cc0070740000696e000067200000746f0000f6
:1009dc00206100006c6c00006f630000617400000b
:1009ec00652000006d6500006d6f000072790000dd
:1009fc002e2e00000d0a0000004300006f75000051
:100a0c006c640000206e00006f7400002061000018
:100a1c006c6c00006f6300006174000065200000c6
:100a2c006d6500006d6f0000727900002c200000d5
:100a3c006e65000065640000207400006f200000eb
:100a4c0066720000656500000d0a000000000000e1
:100a5c00b81000000400000000000000ba100000f4
:100a6c005200000000000000bc100000520000000a
:100a7c0000000000be100000000200000100000099
:100a8c00436f0000756c0000646e0000277400005a
:100a9c002072000065670000697300007465000037
:100aac0072200000415200005020000068610000dc
:100abc006e6400006c65000072000000ffff000017
:100acc00ffff0000ffff000000000000000000001e
:040adc000000000016
:020000040000fa
:100ae000889fbe000044780081447800d2c2a900eb
:100af0007f4064000064a0000806070009407800f9
:100b000006060700d2c2a8008984fb00891f78006e
:100b10000884fb00881f780040032000801f7800b5
:100b20008000eb0060002000b0060700e687570059
:100b30004f04be0000000600889fbe0000447800fd
:100b400081447800d2c2a9007f4064000074a000f4
:100b5000f205070009407800f0050700d2c2a8009e
:100b60008984fb00891f78000884fb00881f7800b7
:100b7000d0032000801f78008000eb007000200070
:100b80009a060700e68757004f04be0000000600e3
:100b9000889fbe000044780081447800d2c2a9003a
:100ba000ff40640000cab30000c07000db0507000e
:100bb00009407800d9050700d2c2a8008984fb004b
:100bc000891f78000884fb00881f780060042000db
:100bd000801f78008000eb00800020008306070063
:100be000e68757004f04be0000000600889fbe0045
:100bf0008044780001047800d2c2a9007fc064005c
:100c00000064a000c505070008407800c305070080
:100c10004840de00c1050700d2c2a800881f780046
:100c20008984fb00891f780010052000801f780050
:100c30008000eb00600020006c060700e68757008c
:100c40004f04be0000000600889fbe0000447800ec
:100c5000d2c2a9007f406400b0050700a8050700c4
:100c600080447800d2c2a800c0c9b300804f5400ad
:100c70000a0032000980fb00801f78000884fb0016
:100c8000881f7800d0052000801f78008000eb00ce
:100c90005000200055060700e687570009407800fd
:100ca0004f04be0000000600889fbe00804478000c
:100cb000d2c2a9007fc06400980507000040eb0085
:100cc000960507008e05070000447800d2c2a800f0
:100cd0000880fb00801f78008984fb00891f780052
:100ce000b0062000801f78008000eb00500020003c
:100cf0003e060700e6875700084078004f04be0014
:100d000000000600889fbe0000447800084078007c
:100d1000cdff07008084fb000840e800caff070001
:100d20004800dd00090070004f04be00000006000e
:100d3000881f780000447800c0d420008040eb0079
:100d400090cf100006003200d2c2a900f0cbb30051
:100d50007205070030c0b30070050700d2c2a800ba
:100d60004540de0063006000c1d420008048780068
:100d7000e04f500007003200d2c2a900f0c9b30012
:100d800066050700c0d42000104078006305070006
:100d9000d2c2a8004f04780000000600889fbe0061
:100da0008104780002047800d2c2a900a0c7b30071
:100db0005a050700080178008000eb000900780060
:100dc0009d050700d2c2a8004f04be000000060027
:100dd000881f78000044780008407800e04f5400f5
:100de000080035004501de0063016100c1d4200028
:100df000914078008180fb00810f5100010032009a
:100e0000cbff0700084078008fff07004f047800f1
:100e100000000600881f7800004478000840780031
:100e2000e04f5400080035004501de006301610019
:100e3000c1d42000914078008180fb00810f5100d7
:100e400001003200baff070008407800adff07003c
:100e50004f04780000000600889fbe000044780020
:100e60008144780008407800e04f540008003500c5
:100e70004501de0063016100c1d42000914078008b
:100e80008180fb00810f510001003200a8ff0700a4
:100e9000894078000840780011ff07004f04be0029
:100ea00000000600889fbe0000447800814478005e
:100eb00008407800e04f5400080035004501de008e
:100ec00063016100c1d42000914078008180fb0063
:100ed000810f51000100320095ff07008940780022
:100ee0000840780014ff07004f04be000000060011
:100ef000889fbe0000447800814478000840780054
:100f0000e04f5400080035004501de006301610038
:100f1000c1d42000914078008180fb00810f5100f6
:100f20000100320082ff0700894078000840780005
:100f300017ff07004f04be0000000600889fbe0098
:100f4000004478008104780008407800e04f5400a5
:100f5000080035004501de0063016100c1d42000b6
:100f6000914078008180fb00810f51000100320028
:100f70006fff07008940780008407800d8fe07001e
:100f8000c848de000840e800d5fe07004f04be0058
:100f900000000600889fbe000104780082047800eb
:100fa000800078000040eb00e4ff0700d2c2a900f7
:100fb000a0c3b300d90407000901780088007800b5
:100fc0000000eb001c050700d2c2a8004f04be00c1
:100fd00000000600881f7800010478008040780037
:100fe00040c5b3009cff07008800780060c5b300cf
:100ff000d2ff07004f04780000000600889fbe0063
:101000008040780040c5b30093ff070011c0b300d3
:1010100020c5b300a3ff0700a8c6b3008004eb00ff
:101020000840780020ff070061006000890f500031
:10103000fbff3a0011c0b30020c5b300acff0700ae
:10104000d2c2a90080c1b300b40407000040eb0085
:10105000b2040700aa0407000084fb00d2c2a80063
:10106000d2c2a90090c1b300ac0407000040eb005d
:10107000aa040700a2040700d2c2a8004800dd00ad
:10108000080070004f04be00000006000200fa00d5
:10109000889fbe008a9fbe0080047800810578008a
:1010a0000040eb00e0f79f00f8c9b3000005eb003b
:1010b0000800370081c0b3000840780079ff0700be
:1010c00081c0b3000840780089ff0700e0c2b30088
:1010d00096080700084078003dff070068006000a0
:1010e0008a0f5000f3ff3a000100210020c0b30036
:1010f00092ff0700080021008880450060c0b3000f
:101100008eff070010c0b3008c04070012002000ff
:10111000ea8057000800780020ff07000b017800e4
:1011200089007800100021001cff07000040eb0040
:1011300082040700a1c0b300c0c9b3006cff070060
:1011400081c0b300f0c9b30056ff0700c8c9b3009f
:101150000005eb00084078001dff070068006000f4
:101160008a0f5000fbff3200594090000080fb00c6
:10117000801f7800494090000080fb00801f7800ad
:10118000394090000080fb00801f780029409000cb
:101190000080fb00801f7800194090000080fb0059
:1011a000801f7800994478000980fb00801f780038
:1011b0008b1f780000192000801f78008000eb0052
:1011c000a000200009050700f08757004f05be006a
:1011d0004f04be000080fa00000006000600fa007e
:1011e0001001be00d2bf9f00e3bf9f00a00190008e
:1011f000f3bf9f00660140001202be000488be00db
:10120000d0029000250098005fba9700efba9700cf
:101210000489be008302780055009800ee804000eb
:101220009aff07000080fa0000000600c0c9b30062
:10123000e7fe0700800078000104b20010c0b30090
:1012400001003a000040eb000000060090c3b3002c
:10125000dffe0700000006000800fa00889fbe00bd
:101260008a9fbe0080057800f8ff070011c0b30018
:10127000e1f79f00e04f50005a0032000b84e80075
:10128000416a80000040eb002cff07006200200054
:10129000f0805700406a80003eff07009ff49700ef
:1012a000c84cdd000ff097000081fb0082847400c1
:1012b000aff197003ff197004ff297007002620084
:1012c00032003a004815dd008381fb0003057500fc
:1012d0000a85e900406a8000640040000a01780045
:1012e0008b0078002bff070068019000c811dd001b
:1012f0004811de00028171006204980038499000b4
:101300000281fb00821f7800284990000281fb00c7
:10131000821f7800184990000281fb00821f78002c
:10132000084990000281fb00821f780078419000fc
:101330000281fb00821f7800684190000281fb005f
:10134000821f78008a1f7800221d2000821f7800eb
:101350008000eb0090002000a40407000045eb0093
:10136000eae79f00fa805700080078003c02070077
:10137000f08757006ff197008a4f510003003a0041
:10138000ea8057000800780051050700496a880084
:1013900080c0b3009ffe0700426a80008081fb008e
:1013a000828f510006003a00a0c0b30099fe0700ea
:1013b0008080fb00c0c0b300e0fe070003003700e0
:1013c0008200e900c0c0b300dcfe070001c4b30026
:1013d000e0c9b300b3fe07009cff0700e04f5000d8
:1013e000a7ff3a004f05be004f04be000080fa0080
:1013f000000006000001780000d420008040eb00cf
:1014000090cf100006003200c04090000040eb007a
:1014100080cf500009003a00110020000100370081
:101420008000eb00c208dd0000d4200081004000f5
:1014300010c0b300804878009200980000000600b9
:10144000116a8000808f500002003a0001d4200011
:101450008048eb00316a8000808f500003003a0022
:101460000040eb0001d42000c040980000000600be
:101470000200fa00881f7800000478000040eb00aa
:10148000c0ff9f0000d4200011c0b30090cf100017
:1014900007003a00e480570008007800126a8000d4
:1014a000020001004ff89700e04f500008003a009a
:1014b00000d42000c0409000e1cf500004003a006a
:1014c000e480570008007800326a800002000100c2
:1014d0004f0478000080fa00000006000020200081
:1014e000ca22b700cb22a900ca22b700d2c2a900e3
:1014f00000c0eb00ce030700d2c2a8000000060027
:10150000889fbe008a1f780000047800d2c2a8001d
:10151000586a880000d420000008eb00efff0700a5
:1015200020c0b300b5fe070030c0b300b3fe070013
:1015300020c7b30026fe070001c4b300e0c9b30012
:1015400058fe0700d9c9b3000005eb000940780038
:101550001ffe0700610060008a0f5000fbff320091
:10156000217a200040c1b3009afe07008000eb0002
:1015700080c0b30071fe0700f1ff2000a0c0b300df
:101580006efe07008000eb00c0c0b3006bfe0700da
:101590000100210040c0b30068fe0700f1ff2100f8
:1015a00060c0b30065fe0700d1c0b30000c4b30043
:1015b00029fe070061cfb30020c4b30026fe070058
:1015c00001c4b30030c4b30023fe0700e15e200075
:1015d000a0c4b30059fe070021c1b30040c4b3004a
:1015e0001dfe070021c1200060c4b30053fe0700a8
:1015f0009840780040c6b30017fe0700984090005e
:1016000050c6b30014fe0700a840900020c6b300e7
:1016100011fe0700b840900030c6b3000efe070070
:10162000c840900000c6b3000bfe0700d8409000f1
:1016300010c6b30008fe07000110200000c1b3006f
:1016400064fe070041c0b300f0c9b30015fe0700f7
:101650004f0578004f04be0000000600881f780088
:10166000710020000044eb000080fb0088417800fe
:101670008002eb00170020000082eb0000037800de
:101680000181de0061416100834f510002003a0098
:10169000d202a90001003700d202a8005216800031
:1016a00068016100850f5100020032000139dd0040
:1016b00002447400d222a800d222a9008100e900cd
:1016c000848f5000edff3a000880fb00801f7800f7
:1016d000861f780080032000801f780021002000f2
:1016e000b0002000c1030700e687570008407800db
:1016f0004f04780000000600881f7800004478003e
:1017000040062100904f540008003200ca42a90050
:101710008840440000ccb30000c07000cfff070039
:10172000ca42a80040062100084878004f0478000b
:10173000000006000400fa008000eb00e1bf9f00fb
:10174000f1bf9f008041eb000002eb00310620005a
:1017500015003700e4bf9f006fb99700810f51005b
:1017600010003e00f4bf9f007fb99700810f510029
:1017700006003e007fb997000201e800f2bf9f001b
:101780007fb99700810f5100faff36006fb99700bb
:101790000201e800e2bf9f006fb99700810f51007e
:1017a000f0ff36000040e900834f5000e9ff3a00a7
:1017b0000080fa0000000600881f7800ca42a900d5
:1017c0007f406000a5ff07000040eb00a3ff07007b
:1017d0000084fb000040eb00a0ff0700ca42a80005
:1017e0004800dd00080070004f047800000006008b
:1017f000881f780001047800ca42a9007f40600079
:101800000064a00095ff07000840780093ff0700e0
:101810004840de0091ff0700ca42a8004f0478004c
:1018200000000600881f780000447800e04f540054
:10183000030035000880fb004500de00aeff070016
:10184000ca42a9007f40640084ff07000040eb000b
:1018500082ff0700ca42a8004f047800000006007b
:10186000889fbe000044780008407800edff070024
:10187000804478000840e800eaff07004800dd00e7
:101880008984fb00090070004f04be0000000600c0
:10189000889fbe000144780080447800e04f5000eb
:1018a000030035000080fb004500de0092ff0700ca
:1018b000ca42a9007fc064000064a00067ff07005f
:1018c0000840780065ff0700ca42a8004f04be0028
:1018d00000000600889fbe00004478008104780064
:1018e0008940780008407800e9ff0700c848de001a
:1018f0000840e800e6ff07004f04be0000000600b5
:10190000889fbe000144780080447800e04f50007a
:10191000030035000080fb004500de0076ff070075
:10192000ca42a9007fc064000074a0004bff0700fa
:101930000840780049ff0700ca42a8004f04be00d3
:1019400000000600889fbe000044780081047800f3
:101950008940780008407800e9ff0700c848de00a9
:101960000840e800e6ff07004f04be000000060044
:101970004006210000c8eb0000000600a0c9b3002b
:10198000a8ff07000080fb000000ea004f00de0017
:1019900000000600b0c9b300a2ff0700614060006c
:1019a0000000060000000600889fbe008a9fbe005f
:1019b0008c1f7800c842a900c862a800d002a90004
:1019c000d022a900ca42a800d202a800d222a800b0
:1019d000482321008004eb008800780060c9b30030
:1019e000bcff070060c9b3009dff0700880f5000cf
:1019f000f9ff3a00b0c9b3008aff070001c1b30084
:101a0000e0c6b300beff0700d9ff070040c6b30021
:101a100048ff070060c9b30091ff0700890f50001d
:101a2000edff3a0040c6b30042ff0700016022000c
:101a300040c7b300a7ff07008000eb000040eb00a9
:101a4000a4ff07000100230040c0b300a1ff07006e
:101a50009100200040c3b3009eff070011c0b300f7
:101a6000e0c9b300a6ff070010c6b3006dff070072
:101a70000046780000c6b3006aff07008045780082
:101a800030c6b30067ff07000045780020c6b300ea
:101a900064ff07008044780050c6b30061ff070070
:101aa0000044780040c6b3005eff07008040780025
:101ab0000c86fb008c1f78008b85fb008b1f780049
:101ac0000a85fb008a1f78008984fb00891f780043
:101ad0000884fb00881f78008180fb00811f78004c
:101ae00010102000801f780021002000d00020006e
:101af000be020700ee87570088ccb300f910200023
:101b0000084078000bff0700a0c9b30045ff07009d
:101b10000080fb00801f7800891f780021002000d2
:101b2000e0002000b1020700e4875700f4ff37000f
:101b300000e320002ffe07000040eb00c10a210057
:101b400080487800e480400080487800e4804000cd
:101b50008048780000000600c10a21000041eb0027
:101b6000914f11000a003200e4804000914f1100b3
:101b700005003200e4804000914f11000b003a0054
:101b80002100200003003700110020000100370071
:101b90008000eb00c208dd00c20a21000101410003
:101ba00011c0b30001497800100198000000060040
:101bb00071858000808f500002003a00c10a210028
:101bc0008048eb0091858000808f500002003a0031
:101bd000010b21008048eb00b1858000808f500010
:101be00002003a00400b21000048eb000000060014
:101bf0000200fa00889fbe008a9fbe008c1f7800fa
:101c0000000678000040eb00c0f79f00c80a2100e2
:101c1000e805440019c0b3000045780098cf1400cf
:101c200004003a0018019000ec8057000c00780086
:101c3000020001008b0f54000400320064044400d1
:101c40004ff097008a4f5000f4ff32004f067800a3
:101c50004f05be004f04be000080fa0000000600e1
:101c6000e001900002802000828f510008003a00bd
:101c700012c0b30082487800800890004809dd0057
:101c8000c808de008100710001089800d8ff070035
:101c9000000006000a00fa000001eb00b2bf9f003e
:101ca0006011b800c2bf9f00d3bf9f00e2bf9f007a
:101cb000f3bf9f008100d1003fb99700828f500091
:101cc000150036003fb9970002014100600179001c
:101cd000bfb9970083814100e08179006fba970016
:101ce000ffba9700c819dd004811de0002817100bb
:101cf00002014200e0814a00e2bf9f00f3bf9f0063
:101d00003fb997000201e800b2bf9f003fb99700ba
:101d1000810f5100ebff39006fb89700ffb89700b3
:101d2000b1bf9f006fb89700ffb897000100200077
:101d3000e0bf9f00f1bf9f003fb997006fb89700c9
:101d4000ffb8970002004000e0804800e0bf9f001d
:101d5000f1bf9f006fb89700ffb897000080ea00be
:101d60008180ea00c0bf9f00d1bf9f004fb897009d
:101d7000dfb897000080fa00000006000400fa00b7
:101d8000889fbe008a9fbe000004780081447800ce
:101d9000fe0044001101be00a2bf9f00b3bf9f0020
:101da0007a0044001001be008288be002fb997005f
:101db000bfb997000288be000000eb00400c9800fd
:101dc00068009000c800dd004800de000080700060
:101dd0006004980008089000c800dd004800de009c
:101de00000807000000c98006e054400f800900020
:101df000ef806000c208dd000a007800a5ff070040
:101e000080057800f8009000ef806000c208dd00d7
:101e10000a0078009fff07004801dd00c858de0077
:101e200001007100400c98008980fb00f4804000a4
:101e300008007800e9fc07004f05be004f04be0013
:101e40000080fa0000000600889fbe008a9fbe0046
:101e500002047800f4844100620c210005000900ae
:101e6000325c78006800b10066014400030a21007a
:101e700005000900335978006200b100820020009b
:101e8000620498007e014400030009003059780084
:101e90004200b1004000b1007a004400c2092100b4
:101ea00003000900325878004000b100780190002a
:101eb000f0f02f00000061000060a00002ff2f0082
:101ec000020060005000b300700498000040eb0076
:101ed000704c98004849dd004848de000000710061
:101ee000000c980020412300100c98000001eb002a
:101ef000220c980000c8b3006054980071549800f8
:101f0000420c98006e054400410120000a00780050
:101f100060ff070080057800f8009000ef80600007
:101f2000c208dd000a0078005aff07004801dd0002
:101f3000c858de0001007100400c9800ee8044009b
:101f40000800780051fc07004f05be004f04be009a
:101f500000000600889fbe008a9fbe008c1f78008c
:101f60008003780006f32000407e80008045eb006f
:101f70000004eb00caff2f00090820001cc0b300ba
:101f80001000370010019000020255008182fb0012
:101f90008081fb008381520083014200898f5100c0
:101fa0000b003e00870f510005003900960190009c
:101fb000830f510002003100000378008c45780047
:101fc0000100780090007800888f5000edff3a0003
:101fd00001fb200080805000818f530003003e00f1
:101fe00016019000828f500003003900e0cf5500a9
:101ff00001003a000000eb004f0678004f05be00dc
:102000004f04be000000060010019000c1ff2f0029
:1020100082805000904178000381fb000080fb002b
:10202000000051000080400000000600889fbe00b4
:102030008004780009007800c6ff070000047800db
:10204000e00f540001003a00487e8000080078004c
:10205000edff070080007800818f540003003e00f0
:10206000080078004f04be0000000600ffff3700a4
:102070000000060000f32000407e880002082000d7
:102080008000eb004ef90700000006008000780099
:102090000040eb00427e8000e00f5100050032005e
:1020a00010c0b300c2072000828f5000010036002c
:1020b0000040eb0000000600889fbe008a9fbe0023
:1020c0008c1f78004c7e80000c0178008004eb00af
:1020d000cbff2f000a0820001700370012039000e2
:1020e000868355000384fb008282fb008502540036
:1020f000858243008a8f520027003e00818f520064
:102100000c003900640343000282fb000402430018
:10211000030a780011029800040978006600b900eb
:1021200042fb2000020040007008420010c0b300d3
:102130001a0037000301780092017800898f51005e
:10214000e6ff3a00032020008c814100828151008b
:10215000c299de00838f50000b003100e481400003
:10216000830141008009eb00030978001101980008
:102170006600b90043fb20000300400070084100e6
:1021800010c0b30005003700a04a28007004070003
:102190000040eb00010037000040eb004f067800e4
:1021a0004f05be004f04be0000000600889fbe0021
:1021b0008a9fbe00800078000000eb00f2ff2a003a
:1021c000828f50003b003e000184ea00f83fb200dd
:1021d000e40f540037003e00004020008080600083
:1021e0000000eb00808f5000320032006640b900e2
:1021f00022532800e240780000b02f00e0cf5000ca
:102200002c003a006640b9006400400001fb200049
:1022100061007800e00f500026003a006640b900e7
:102220000080e800e4005100e10478000900780033
:1022300096ff0700e04f500004003a00f04b2800e2
:10224000430407000000eb001a003700104e28007e
:102250003f0407000800be0097ff0700e04f500052
:102260000c003a0030502800390407008085eb004c
:102270000045eb008b007800090078006bff070039
:10228000800578000800be008bff07008a4f5000d1
:10229000f8ff32006644b90008007800e1522800d7
:1022a000610178006400400001fb200061097800b2
:1022b000610078004f05be004f04be00000006001c
:1022c00002ceb3000241400010c0b300e1c5b3002c
:1022d000814f5100010036000040eb000000060075
:1022e0006086800000000600708680000000060006
:1022f0000000eb0070868800608688000000060001
:10230000608680000000e800608688001e1a0200d7
:10231000000000000086800000000600718680003a
:102320008100e800718688000080fb00108688002c
:10233000f61802000000000000000600410c210019
:102340008048780000000600608680006800400039
:1023500060868800d302a900710020000040eb00d5
:10236000052020000002eb00160020008081eb0019
:10237000d2e2a8009216800005016100840f51008e
:10238000020032000131dd0002407000d2e2a900fb
:102390008100e900838f5000f5ff3a00000006003d
:1023a000881f7800804378006086800068004000c5
:1023b0006086880070868000680040007086880013
:1023c000710020000040eb008783fb008041780013
:1023d000062020008002eb00180020000082eb00a5
:1023e00001b9de0061416100834f510002003a00f3
:1023f000d302a90001003700d302a800d2e2a8004e
:102400009216800006016100850f51000200320023
:102410000141dd0002407000d2e2a9008100e90024
:10242000848f5000eeff3a004f0478000000060051
:10243000dbff0700000006000200fa00889fbe00d4
:102440008a9fbe00000578008104780002047800ad
:102450000000eb00b0bf9f00800f550012003a0053
:102460003fb89700800f5400390036006086800026
:102470000000e800608688001e1a020000000000cc
:10248000bfb897000086800080f478003fb89700be
:102490000000e800b0bf9f003fb89700880f5000d1
:1024a000f2ff39002a003700e08f540004003200a8
:1024b0003fb89700800f540014003e0024003700fe
:1024c0003fb89700800f54002100360070868000ce
:1024d0000000e800708688003fb897006a407800e6
:1024e0000080fb0010868800f61802000000000043
:1024f0003fb897000000e800b0bf9f003fb89700ca
:10250000800f5400f1ff3e0011003700608680000c
:102510000000e80060868800708680000000e80007
:1025200070868800bfbd97003fb897006a4078006a
:10253000bfff070080f47d003fb897000000e8006f
:10254000b0bf9f003fb89700800f5400efff3e00e0
:102550004f05be004f04be000080fa0000000600d8
:10256000d122a800f0ef2f00d022b600f1f72f0003
:102570008000fd00d022b6008000fd00d0c2a9007e
:10258000c922a9008000fd00d222b6008000fd0013
:10259000d222b600000006004822ef008000eb00c7
:1025a0000012800061006000810f5000fcff3200cb
:1025b00040128000000006000200fa008000eb00dc
:1025c000f1bf9f000080fb004012880000128000d5
:1025d00061006000810f5000fcff3200401280005b
:1025e000f0bf9f000080fa00000006000000fa0023
:1025f000889fbe008a9fbe008c9fbe0000047800aa
:1026000081057800e00f5400600032007a40b90084
:102610006401400041302800610579000080e80035
:1026200061007800f00f500058003e00f48457001d
:1026300042002000114a2800e0d42000f3000700e7
:1026400088007800e0d4200001010700efb0970077
:10265000e0d42000fe0007008b007800e0d42000ca
:10266000fb000700e04f5500380032007a40b90007
:102670008b3028008b0540000044eb000c0021004b
:10268000fdff20005b0178000c0061000a003200b1
:102690000d01610004003a00c9007800e0d4200078
:1026a0000201070026003700c9007800e0d42000ae
:1026b000d60007002200370003002000e80f510079
:1026c000e08f59001e003e00026001000800370044
:1026d0000b0037000f0037001900370011003700da
:1026e00017003700160037001500370011003700bb
:1026f000c9007800e0d42000ec000700100037008b
:102700008984e90099407800e0d42000ae000700f9
:102710000b003700c9007800e0d42000cc0007008f
:10272000070037004901be00e0d42000cf000700b9
:10273000030037004901be00e0d42000d3000700a9
:102740000844e800884f5500ceff3e0042002000bc
:10275000514a2800e0d42000ac000700e9d4200052
:102760000044eb000400370009007800e600070091
:1027700000407800ed02070009007800f300070030
:102780008040780088cf5000f7ff3a004f06be0027
:102790004f05be004f04be000080fa000000060096
:1027a0000210200081d52000e0d420007f00070027
:1027b000e02e2800801f7800702f2800801f7800ee
:1027c00080012000801f7800c10020001000200040
:1027d00086ff0700e68757000000060080462100bc
:1027e00004fb0700e04f500002003a00605428004c
:1027f000d7020700000006002a00fa00051020009a
:10280000a5b79f0085002000b5b79f0065c0b30045
:1028100085ef9f0045c0b30095ef9f000510200095
:10282000e04f52000100320005202000d5b79f0084
:102830007482570005000900305a78006400b10026
:102840006000b1006e805700030009003158780025
:102850004000b1004100b1006a8057000500090046
:10286000325878006000b1006200b1006480570007
:1028700003000900335878004000b1004300b10064
:1028800060fd2f000f0040004156280005000900a0
:10289000315878006000b100c0fd2f000f004000eb
:1028a000010a210005000900315878006000b100dc
:1028b0008060200090b79f00a102200060fd2f00e3
:1028c0000f004000f1f907000080fa000000060048
:1028d000881f7800e001900062802000828f510004
:1028e00021003a0012c0b30082487800000478004a
:1028f00078009000c800dd004800de000080700015
:102900007004980008089000c800dd004800de0050
:1029100000807000000c980028089000c800dd00be
:102920004800de0001007000200c9800e20f50000b
:102930000d0032006002200008004000420020002c
:10294000c109210004f70700e00f500006003a001b
:102950007601440014c0b300fc014400c109210009
:10296000000a2100a4ff07004f04780000000600c1
:1029700082017800c2092100030009003159780062
:102980004100b100020a2100050009003059780019
:102990006000b1000042eb00a256280096ff07003d
:1029a0000000060040562800000006004100980084
:1029b000020878008000eb003100980021009800a8
:1029c000110098000000060010019000900f5100c7
:1029d0000d003200c001900020019000817179004b
:1029e000900090008100e80011009800a000900085
:1029f0008100e80021009800908f500002003a000a
:102a00008000eb002100980000000600889fbe00b7
:102a10008a9fbe0080057800810478000205780056
:102a2000e00f5500070032000004eb00b9407800c9
:102a30000b007800e4ff07000804e800880f550049
:102a4000faff3e004f05be004f04be000000060026
:102a50000200fa00f1bf9f00220020008f80e900f1
:102a6000eaff07000080fa00000006000400fa00f8
:102a7000e2bf9f00f3bf9f0042002000e4805700a8
:102a8000e2ff07000080fa00000006000400fa00e0
:102a9000e2bf9f00f3bf9f0042002000e480570088
:102aa000daff07000080fa0000000600889fbe00e1
:102ab0008a1f780000057800810478000004eb008c
:102ac0000040eb00994f10000500320089017800aa
:102ad000004178000804e800d34f1100fdff3a00e0
:102ae000880078000a007800d9ff07000801780004
:102af000890078000a007800c4ff07004f057800bd
:102b00004f04be0000000600100190008040eb0062
:102b1000e00f51000b003200b0019000c0009000a7
:102b2000e1c079000201e900120098000301e80009
:102b300032009800900f510002003a000001eb00b3
:102b4000320098000140780000000600100090005c
:102b50008000ea00008070004f00de0000000600e8
:102b600060602100fcfb07000080eb0030838800e0
:102b7000508388007083880090838800b083880029
:102b8000d0838800f083880010848800000006004d
:102b90000200fa00889fbe008a9fbe008004780071
:102ba0000044eb00e8f79f00e0c2b300df0107003c
:102bb0006ff09700884f500010003a00680621001f
:102bc000fc0544000045eb00a9109000988f100010
:102bd00004003a0018019000ea80570009007800cc
:102be000020001008b0f5400040032006404440012
:102bf0006ff097008a4f5000f3ff32004f05be0080
:102c00004f04be000080fa000000060070519000e2
:102c1000f14f510012003a0012c0b3008248780010
:102c2000901090004809dd00c808de0081007100a6
:102c300011109800a01090004809dd00c808de00bf
:102c40008100710021109800b01090004809dd004b
:102c5000c808de008100710031109800ccff070029
:102c60000000060032838000e10f410009003200bd
:102c7000a30621000001eb000082eb00750020009c
:102c80000201e80002037800930f120008003a00e6
:102c9000010037000003eb004233dd006206210033
:102ca00006034100011b7800000b78000300370089
:102cb000e4814100850f5100f1ff3a000000060059
:102cc00082027800e8804000480add004809de0002
:102cd00002017200321098004819dd00481ade0027
:102ce0000202720024109800141098000001eb00fa
:102cf000421098000001be0011c1b3000500780029
:102d000051fc0700000006000200fa000040eb0042
:102d1000e0ff9f00f0ff9f00e0ff9f0070ccb3003a
:102d2000eff8970080cf500013003e008041eb0089
:102d300031c6b30000417800f3ff9f007ff8970091
:102d4000814f500006003e007ff897000040e800e9
:102d5000f0ff9f007ff89700814f5000faff360088
:102d60006ff897000040e800e0ff9f006ff89700c1
:102d7000824f5000f0ff36000080fa00000006008d
:102d80000400fa000000eb00e0bf9f00f0bf9f00ce
:102d9000e0bf9f00a0092000efb89700808f50008f
:102da00013003e008001eb00e10f200000017800dd
:102db000f3bf9f007fb89700810f500006003e00d0
:102dc0007fb897000000e800f0bf9f007fb8970031
:102dd000810f5000faff36006fb897000000e8003e
:102de000e0bf9f006fb89700820f5000f0ff3600e1
:102df0000080fa0000000600889fbe002ca3ef00b0
:102e0000f8ef2f000004fd00c822b6000004fd000a
:102e1000d3fd07000040eb0048fd07002801070034
:102e20005ffe07000004fd00ca22b6000004fd009a
:102e30000040eb0041fd070060082100dafa0700be
:102e40000040eb003dfd0700cb02a8001600070084
:102e500088fc070061fe070002092100c10821006b
:102e600060082100c2fe070031fb07003cff07009d
:102e7000a60107006c010700c000070080092100bf
:102e8000c20007000044eb0009402000bbfa070025
:102e9000884f5000fdff320089007800008020003c
:102ea000c0fa0700f9ff3700c142a900c342a800d9
:102eb00070012000801f78001100200020002000f9
:102ec000cafd07008f87e90000000600889fbe004a
:102ed0008a9fbe0080447800010478008205780053
:102ee00003057800c342a90030c0b3000bfd070002
:102ef0000940780009fd07004840de0007fd070093
:102f00000840780005fd07000a0178008b00780072
:102f10000000eb0048fd0700c342a8008a1f7800ac
:102f2000881f7800c0022000801f78001100200058
:102f300030002000adfd0700e68757004f05be00ba
:102f40004f04be0000000600889fbe008a9fbe009e
:102f50008044780001047800820578000305780039
:102f6000c342a90020c0b300ecfc07000940780070
:102f7000eafc07004840de00e8fc07000840780053
:102f8000e6fc07000a0178008000eb000b007800e7
:102f900029fd0700c342a8008a1f7800881f780017
:102fa00020042000801f7800110020004000200035
:102fb0008efd0700e68757004f05be004f04be0098
:042fc0000000060007
:020000040000fa
:102fc400400c00000e01000000000000241000006e
:102fd4004200000000000000cc10000004000000cb
:102fe400020000000000000000000000c01000000b
:102ff4000600000000000000b810000008000000f7
:1030040002000000ffaffe00affdaf00fcaf000008
:10301400300f00009a000000000000009c10000027
:103024001000000000000000c610000006000000b0
:1030340002000000b0487a00db5bea00ac1000003c
:103044000c00000000000000d0100000040000008c
:10305400020000000000000000000000ca0f000091
:103064005a0000000000000066100000200000006c
:1030740000000000580e0000d8000000000000000e
:10308400d410000002000000020000008a84000046
:103094004e0d00000a010000000000008610000030
:1030a40016000000020000000004a30012345600c1
:1030b400c0a801007bc0a8000101c000a8019300c2
:1030c400c2aba7008200000000080000400400001a
:0830d4000000000000000000f4
:020000040000fa
:1030dc00881f780012c0b30082487800201190003d
:1030ec00b1072000810f51001f003a00102c9000f6
:1030fc00202a9000c840dd000000eb004821de00d3
:10310c008001780002007000838070000482fb0054
:10311c0005002000482bdd00c823de008703730068
:10312c004823dd00060070008780700002f02f003d
:10313c000201640003002000481add00c812de0002
:10314c00850272004812dd0004007000858070005a
:10315c000418280055c527000000420081804a0051
:10316c0080868800918688004f0478000000060055
:10317c00b1072000e0862100b7fe07000000060022
:10318c00889fbe0080047800a8fc2000a2052000c7
:10319c008000eb000800780006f5070031ceb30084
:1031ac00a00220000800400001487800a1c0b30034
:1031bc000080e80001487800c1ceb3000000e800b0
:1031cc0001487800b30720000901780001032000b2
:1031dc0008007800b7fe07004f04be000000060090
:020000040000fa
:1031ec00801f7800108680000070a700d302a80012
:1031fc000070a600d302a900d2e2a900d2e2a80076
:10320c000060a700d302a8000060a600d302a900aa
:10321c00d2e2a900d2e2a8000050a700d302a80075
:10322c000050a600d302a900d2e2a900d2e2a80065
:10323c000040a700d302a8000040a600d302a900ba
:10324c00d2e2a900d2e2a8000030a700d302a80065
:10325c000030a600d302a900d2e2a900d2e2a80055
:10326c000020a700d302a8000020a600d302a900ca
:10327c00d2e2a900d2e2a8000010a700d302a80055
:10328c000010a600d302a900d2e2a900d2e2a80045
:10329c000000a700d302a8000000a600d302a900da
:1032ac00d2e2a900d2e2a800d2e2a9004f00780035
:0432bc000000060008
:020000040000fa
:1032c0000000280000118800004020001011880034
:1032d0004000200040118800cae2a900123a800094
:1032e000f20bb2006004200071052000237420005e
:1032f000804978008149780082497800333680001f
:10330000f20f2e00028161000230b30032368800d5
:10331000123a80000260a0002374200080497800e7
:1033200081497800824978000000060003202000cf
:103330000001eb001111800083806000828f50003b
:10334000fcff3a000080fb0020118800000006000e
:10335000889fbe008004780019407800e04f50003c
:10336000050032000044eb00f0ff070059407800f0
:10337000884f5000fcff3a004f04be0000000600da
:10338000889fbe008a9fbe008c1f780000047800d2
:1033900078509000e14f50001f003a0080487800bc
:1033a00018109000e80f50001b003a000040eb009e
:1033b0002064980010c0b300e0fb07000005eb009c
:1033c0002a1498002b022000888545008808900068
:1033d000f48050000b0078002efa070000067800f9
:1033e00088089000f48050000b00780029fa07004c
:1033f0004801dd00c860de00010071002014980063
:1034000088089000f4c05000080078005bfa0700bc
:103410000a407800c9fb07004f0678004f05be0040
:103420004f04be0000000600009c2100caf90700fe
:0c3430000000060000000600000006007e
:020000040000fa
:10343c00801f78000000eb00d302a900d2e2a800a4
:10344c00d322af000070a000d2e2a900d2e2a80003
:10345c00d322af000060a000d2e2a900d2e2a80003
:10346c00d322af000050a000d2e2a900d2e2a80003
:10347c00d322af000040a000d2e2a900d2e2a80003
:10348c00d322af000030a000d2e2a900d2e2a80003
:10349c00d322af000020a000d2e2a900d2e2a80003
:1034ac00d322af000010a000d2e2a900d2e2a80003
:1034bc00d322af000000a000d2e2a9000086880051
:0834cc004f007800000006002b
:020000040000fa
:1034d400f0509000e6cf50000a003a00901090009f
:1034e4004809dd00c808de00810071001110980051
:1034f400a01090004809dd00c808de0081007100ba
:103504002110980000000600a0a6210091f90700f0
:1035140000000600000006000f007800a001b100c2
:1035240000000600900188001100ba009180ba00e2
:04353400000006008d
:020000040000fa
:0200000401f009
:04000000ffff0000fe
:020000040000fa
:0200000401f009
:04000400ffff0000fa
:020000040000fa
:0200000401f009
:04000800ffff0000f6
:020000040000fa
:0200000401f009
:04000c0079ff000078
:020000040000fa
:0200000401f009
:040010001bff0000d2
:020000040000fa
:0200000401f009
:0400140077ff000072
:020000040000fa
:0200000401f009
:04001800f8ff0000ed
:020000040000fa
:0200000401f009
:04001c00deff000003
:00000001FF
