:020000040000fa
:080000000002040000000000f2
:020000040000fa
:10000800b0020000b0020000b0020000b002000020
:10001800b0020000b0020000b0020000b002000010
:10002800b0020000b0020000b0020000b8470000b3
:10003800b0020000b0020000b0020000b0020000f0
:10004800b0020000b0020000b0020000b0020000e0
:10005800b0020000b0020000b0020000b0020000d0
:10006800b0020000b0020000b0020000b0020000c0
:10007800b0020000b0020000b0020000b0020000b0
:10008800b0020000b0020000b0020000b0020000a0
:10009800b0020000b0020000b0020000b002000090
:1000a800b0020000b0020000b0020000b002000080
:1000b800b0020000b0020000b0020000b002000070
:1000c800b0020000b0020000b0020000b002000060
:1000d800b0020000b0020000b0020000b002000050
:1000e800b0020000b0020000b0020000b002000040
:1000f800b0020000b0020000b0020000b002000030
:10010800b0020000b0020000b0020000b00200001f
:10011800b0020000b0020000b0020000b00200000f
:10012800b0020000b0020000b0020000b0020000ff
:10013800b0020000b0020000b0020000b0020000ef
:10014800b0020000b0020000b0020000b0020000df
:10015800b0020000b0020000b0020000b0020000cf
:10016800b0020000b0020000b0020000b0020000bf
:10017800b0020000b0020000b0020000b0020000af
:10018800b0020000b0020000b0020000b00200009f
:10019800b0020000b0020000b0020000b00200008f
:1001a800b0020000b0020000b0020000b00200007f
:1001b800b0020000b0020000b0020000b00200006f
:1001c800b0020000b0020000b0020000b00200005f
:1001d800b0020000b0020000b0020000b00200004f
:1001e800b0020000b0020000b0020000b00200003f
:0801f800b0020000b00200009b
:020000040000fa
:10020800b0020000b0020000b0020000b00200001e
:10021800b0020000b0020000b0020000b00200000e
:10022800b0020000b0020000b0020000b8470000b1
:10023800b0020000b0020000b0020000b0020000ee
:10024800b0020000b0020000b0020000b0020000de
:10025800b0020000b0020000b0020000b0020000ce
:10026800b0020000b0020000b0020000b0020000be
:10027800b0020000b0020000b0020000b0020000ae
:10028800b0020000b0020000b0020000b00200009e
:10029800b0020000b0020000b0020000b00200008e
:1002a800b0020000b0020000b0020000b00200007e
:1002b800b0020000b0020000b0020000b00200006e
:1002c800b0020000b0020000b0020000b00200005e
:1002d800b0020000b0020000b0020000b00200004e
:1002e800b0020000b0020000b0020000b00200003e
:1002f800b0020000b0020000b0020000b00200002e
:10030800b0020000b0020000b0020000b00200001d
:10031800b0020000b0020000b0020000b00200000d
:10032800b0020000b0020000b0020000b0020000fd
:10033800b0020000b0020000b0020000b0020000ed
:10034800b0020000b0020000b0020000b0020000dd
:10035800b0020000b0020000b0020000b0020000cd
:10036800b0020000b0020000b0020000b0020000bd
:10037800b0020000b0020000b0020000b0020000ad
:10038800b0020000b0020000b0020000b00200009d
:10039800b0020000b0020000b0020000b00200008d
:1003a800b0020000b0020000b0020000b00200007d
:1003b800b0020000b0020000b0020000b00200006d
:1003c800b0020000b0020000b0020000b00200005d
:1003d800b0020000b0020000b0020000b00200004d
:1003e800b0020000b0020000b0020000b00200003d
:0803f800b0020000b002000099
:020000040000fa
:100400004fbe21000e7f24000e0188000000000076
:100410000c00070000d52300010020001100070098
:10042000000020000000e000020032000000020096
:100430000000000026450200000000000040da0035
:100440000000fe004440a900a06b20000000e00076
:100450000300320000002000a00188004440a800f2
:100460000000060091018800800078000000eb0089
:1004700015003700e280400032a0b4009101ba00bc
:10048000e280400032a0b4009102ba00e280400055
:1004900032a0b4000002eb00472bde00f507b200eb
:1004a000602ce10004003a000059eb008301e900f0
:1004b000fdff3e00040037006128e100010032002a
:1004c0000082eb00040007001101ba000200e00006
:1004d000e8ff3a00000006003159ba008301e90044
:1004e0000c0032002159ba008301e90008003200f3
:1004f0000400e00003003a00e280400032a0b400b3
:10050000f5ff370011d9ba008301e900faff3a007c
:100510008100e800e180400032a0b4000000060045
:10052000b0480400000000006c450400000000001a
:1005300026420400000000009a3104000000000080
:100540002446040000000000d6440400000000001f
:100550009a44040000000000c844040000000000a9
:100560000040da000000fe00e68747008e1f78009a
:10057000d0bf9f0066875700012f78000e0037001c
:100580005fba970014407800efb997009340780065
:100590000201e900814f5000040032000080fb009e
:1005a0008180fb0001005000060037000402e800d3
:1005b000d4bf9f00030fe800e00f5100f0ff3a00a6
:1005c000020078004f0778006f00b10000000600bd
:1005d0008001780002003700b15978000201e9007b
:1005e000e00f5100fcff3a00000006008001780097
:1005f00002003700815978000201e900e00f510044
:10060000fcff3a00000006000c00fa00889fbe00c4
:1006100000047800f0ff2700d0bf9f008004eb00ab
:1006200099bf9f0088bf9f00a8bf9f00200c20009b
:10063000b0bf9f0078815700cfb0970070805700ff
:10064000c40007000fb89700094878008fb89700da
:10065000088050004f04be000080fa000000060031
:10066000800078000041eb00b14f1100fdff3a001f
:100670000080ea000080400000000600889fbe0065
:100680008a9fbe000084fb00d1c6b300814f50009a
:10069000210036004b062000110009000b84d80011
:1006a00081057800720040004300dd0029802100b0
:1006b000008044006022b8000600200007fe2300ee
:1006c0005001be004000be00b20f0700aa0020008b
:1006d00000027800811f7800110009008a85d80087
:1006e0000002fd00cf007800690242004322dd00d5
:1006f000048244005403be004402be00a50f07005c
:10070000809fbe00110009000a84d800010478000f
:100710004f00be0010003700ea4f500013003600b3
:10072000a9002000110009000984d8000104780004
:10073000690040004300dd00298021000080440062
:100740006022b8000600200007fe23005001be0012
:100750004000be008f0f07004344dd008884440042
:100760003902be002903be00080037004344dd0003
:1007700020802100080440006022b800060020000c
:1007800007fe23003800be002801be00810f0700cd
:100790008003780001037800820278000302780069
:1007a0000700780086007800050178008401780051
:1007b0004f05be004f04be0000000600889fbe002b
:1007c0008a9fbe00d1c6b300e04f500025003d0017
:1007d0000040ea000004fb00814f50000b00340091
:1007e00042062000110009000204d8000100780030
:1007f000a9002000110009000900d800690040008c
:100800004300dd002a80210023003700ea4f50001a
:1008100011003400a2002000110009000204d800d9
:100820000104780080007800e9804000c308dd0002
:1008300020802100810040004344dd00080040008a
:100840003002be002003be005101be004100be00c8
:10085000500f0700340037004344dd0020802100a2
:100860002c0037000004fb00814f50001c003400b6
:1008700042062000110009000204d800010078009f
:10088000a9002000110009000900d80069004000fb
:100890004300dd002a752100000045003002be0043
:1008a0002003be008b0920008a8545003b00be0066
:1008b0002b01be00370f0700809fbe00110009000a
:1008c0000904d800010478004f00be004344dd0055
:1008d000080545003a02be002a03be00dcff3700cf
:1008e000ea4f500009003400a20020001100090066
:1008f0000204d8000104780080007800e9804000fc
:10090000c308dd0020752100caff37004344dd0025
:10091000207521000804400018007800980090001d
:1009200028019000b801900080037800010378004e
:1009300082027800030278000700780086007800c1
:1009400005017800840178004f05be004f04be0009
:1009500000000600cf06b000889fbe008a9fbe0040
:100960008c9fbe008e1f780080bf9f00c18f9f00ac
:10097000f2a79f000000eb00e0af9f005f0c370084
:10098000cf8897008100e800c18f9f0055c2b30057
:1009900085cf560007003a00810278000007eb007f
:1009a000d3c2b30002c3b30001c2b30037c2b30065
:1009b000130037000fb99700b20290000504b2008f
:1009c00004003200920378008d4b78000709e8009c
:1009d000070037008d02fb008fb8970005007800f4
:1009e000520c070080027800e18f4200430c320075
:1009f000efa997008301e800e3af9f003f0c3700a9
:100a000005067800b5467800b4c2b30084cf56001e
:100a10000f00320005003c0081cf56000a00320072
:100a200087cf560010003a000b00370083cf5600e6
:100a30000300320082cf56000b003a000800370056
:100a40000e30a000eeff37000e00a000ecff3700d4
:100a50000e10a000eaff37000eb0a000e8ff37003c
:100a60000e20a000e6ff3700e2036700010032001d
:100a70000e00a100e8036700010032000e20a10073
:100a80008d03fb000703b100e98f53000d003e000a
:100a90008c037800020020006a10b9003701fb00c7
:100aa0000203b10000014100070678001700fb00b7
:100ab0000003b100e90f5000f7ff3600c2af9f00fe
:100ac0000a0037000003eb00c6af9f00a5c2b300c9
:100ad00085cf560005003a00ffa397004704780031
:100ae000f7a79f00c8af9f000c06e800e5c2b3005f
:100af0009ccf12001b003a000ee0a000feaf9f004a
:100b00008c037800e4c25200d7cf120002003200fa
:100b1000000020000c0037007fa59700ca05780070
:100b2000faa79f00dbaf9f000706e8007dc6b30071
:100b300001c7b300c2c6b3007faa97000e003700fa
:100b40006a00b9000000410007067800b700fb000a
:100b500002fd2f0001014100e90f5100f8ff3600ae
:100b6000030037000ec0a000feaf9f000000eb00a6
:100b7000d0af9f00edff3700bc437800cc8f9f00c3
:100b80008dcf53003300320018003c00f4af9f00bb
:100b90003dc6b3008dcf5300d70032000e003c009d
:100ba000fcc656008dcf53004400320006003c00c6
:100bb000e0cf5300d60b320055c4b30085cf5300ad
:100bc000fc003a003500370085c5b30085cf5300df
:100bd000f8003a00470037005ac6b3008acf5300e6
:100be0001f00320028003c001f00370081cf530057
:100bf0003f0032000a003c0082cf53001c0032004c
:100c0000f4af9f00f5c6b30085cf53003300320028
:100c1000e6c2520085cf5300e6003a0012003700ca
:100c2000f4af9f0055c7b30085cf5300e8003200f2
:100c3000e3c2420085cf530004003200e5c25200f7
:100c400085cf5300db003a0031003700874f9f000b
:100c50002c003700f4af9f008d4f9f001b00370022
:100c6000874f9f0011003700874f9f00dc0037003f
:100c70007000620003012000010032000300280020
:100c800003027200bcff3700874f9f007faa9700c6
:100c900004a0a000f4af9f00d1003700874f9f0051
:100ca000ffaa97000550a000f5af9f007fab97000b
:100cb0000680a000f6af9f00c9003700874f9f0055
:100cc000ffab97000750a000f7af9f007fac9700e5
:100cd0000890a000f8af9f00c1003700874f9f0029
:100ce000ffac97000960a000f9af9f00bc0037007f
:100cf000f4af9f00874f9f007fad97000a50a00080
:100d0000faaf9f00ffad97000b70a000b300370053
:100d1000874f9f007fa09700c0037800f0a79f0037
:100d200087b79f00e08f530002003a00c2b621004f
:100d300082b79f008fb697008003eb000100370059
:100d40008703e8006dc07b00e04f5000fcff3a00d5
:100d500097b79f00dfa99700e08f51000500320090
:100d60001fb29700848f5100020031008302780087
:100d700095b79f009fb397000006eb004fab97001d
:100d8000870f53000100360007065300ffab9700a2
:100d9000e8836300f7af9f002d003a008c067800cf
:100da0000ec2b300efac97000fbc97000e003700e7
:100db000380090000004b2000400320018007800ef
:100dc0000e487800000ce800050037008800780025
:100dd00000022000550b0700e10f40000100320027
:100de0008904e8008d06e900e08f5600f0ff3a0024
:100df0000086eb0009077800160037003d009000e0
:100e00000004b200090032009d017800080178005a
:100e10003240780080497800830ee80002047800b0
:100e2000e04f500008003a000f003700080178003a
:100e30003200fb00020478008d0078003b0b0700b5
:100e4000e10f4000080032000e07e80006003700fe
:100e50006faf97000fb497009fb497002fb597001e
:100e6000bfb597008fbe9700890378008704e9001b
:100e7000e08f5300e1ff3a000e007800e0af9f00e2
:100e800088b79f0099b79f00aab79f00bbb79f0084
:100e9000ffa89700878f5000180b32008c0678004f
:100ea0000ec2b300efac97000fbc97000e003700e6
:100eb000380090000004b2000400320018007800ee
:100ec0000e487800000ce800050037008800780024
:100ed00000022000150b0700e10f40000100320066
:100ee0008904e8008d06e900e08f5600f0ff3a0023
:100ef000e9af9f00010b37007fa19700c203780084
:100f0000f2a79f0007047800cfc4de00090578002f
:100f10008a057800c8b79f00d9b79f00eab79f003d
:100f2000fbb79f00800020008b05d1000a85d3000d
:100f30008984d3000884d3000000e900faff3a0056
:100f400088af9f0099af9f00aaaf9f00bbaf9f00e3
:100f5000884678008fd09700814f9f007fa9970027
:100f6000f00361000b003200e0cf560009003200b0
:100f7000e1cf46000700320081417800934f9f0087
:100f80000fea9700a44f9f002500200095b79f000f
:100f9000040037000feb9700964f9f0017002000ca
:100fa00097b79f0098f82f000884470088b79f00e4
:100fb00068ff3700874f9f0089f82f00898447001a
:100fc00089b79f001a0020009ab79f0061ff370081
:100fd000874f9f00ffad97000b0cb300fbaf9f0046
:100fe0000a7020007fa897000a066000bc07320044
:100ff0000a0021000a0560000200320061002000a2
:10100000d1af9f007fa997007005610009003200f1
:101010007fa497004803be004802be00f8a79f00c7
:10102000c4b79f00d5b79f00e6b79f00f7b79f00f2
:101030000f003700ffa497004900be00f9a79f00ea
:101040009a0c0700800378008105780082047800fc
:10105000870278000b06780089067800030578007f
:10106000c5b79f00dcb79f00edb79f00fab79f00a0
:101070006022b8006033b8004fb09700dfb097002f
:101080006fb19700ffb19700da0b0700e00f500037
:101090000c003d004fb29700dfb297006fb397008e
:1010a000ffb3970007f0a200c4b79f00d5b79f0019
:1010b000e6b79f00f7b79f00ffaa97003500b3007f
:1010c000f5af9f000005eb00ea879f006022b800a3
:1010d0006033b8004fb09700dfb097006fb1970052
:1010e000ffb19700270c07008a0f50004b00320019
:1010f0004fb09700dfb097006fb19700ffb1970036
:101100009b0d0700c2f82f000f014100090d0700d9
:101110006f8197000201e9006311b900aa00200065
:10112000809fbe00110009000a01d800000178006c
:101130004f00be00e2879f00e00f510002003d001b
:101140000201e900e2879f006f8697000c41ea00e8
:101150000240780099fd07004fb29700dfb2970078
:101160006fb39700ffb397000a0d0700b08f9f0081
:10117000a18f9f00928f9f00838f9f006022b800f5
:101180000600200007ff2300000578008106780094
:1011900082057800830478008ab79f009db79f007e
:1011a000abb79f00b9b79f000fb097009fb09700f3
:1011b0002fb19700bfb197008e0b0700e00f5000d2
:1011c00002003d000c05e900130037006022b80062
:1011d00006002000470224003f8d9700af8e970045
:1011e0009f8d97008f8c97008ab79f009db79f00b7
:1011f000abb79f00b9b79f000fb097009fb09700a3
:101200002fb19700bfb197007f0b0700e00f500090
:10121000020035000c05e800ea879f00ef84970084
:1012200089b79f00ffac97000910b2000a003a008e
:101230007fab97000620b200890f530052043200a2
:101240000fb59700e40f450003003500dfad9700b0
:101250008b0f5500d50335005fa89700e00f5000b5
:10126000050032007fab97000620b200020032007a
:101270000000e900d0af9f00dfa89700f28f500078
:101280000300360027012000874f9f00020037002f
:101290002fd99700824f9f006022b8006033b800ba
:1012a0004fb09700dfb097006fb19700ffb1970084
:1012b000b40b0700e00f5000af0032008f499700d9
:1012c000e34f9f000fe297008342520005407800f1
:1012d0003afd07000002be000203be004fb09700b7
:1012e000dfb097006fb19700ffb197004b0b07007d
:1012f00080037800810578008204780087af9f0022
:10130000aba79f0099a79f00030778000704780008
:10131000080278008b027800090378008e037800b9
:101320000400be000601be00c0b79f00d1b79f00f9
:10133000e2b79f00f3b79f0088007800b1a79f0035
:101340000b017800c2a79f0089017800d3a79f00f6
:10135000eea79f003fa09700cfa097005fa1970046
:10136000efa19700210c0700700c07000002be00df
:101370000203be000fac9700b8a79f00afa4970070
:10138000c9a79f001fa59700daa79f00eea79f009f
:101390003fa09700cfa097005fa19700efa1970013
:1013a000f10c07000002be000203be00b4a79f00bc
:1013b000c5a79f00d6a79f00e7a79f006022b8009f
:1013c0000600200007fe23000f0b0700e00f50006f
:1013d000130035006022b8000600200007fe23003d
:1013e0000fa89700afa097001fa197008e0178006b
:1013f000830a070080067800810378008205780060
:101400008d027800070678000b05780083047800c9
:10141000c5b79f00dcb79f00eab79f00f9b79f00f0
:101420004fb09700dfb097006fb19700ffb1970002
:10143000ee0b070090979f00a1979f008001eb00a3
:10144000b3979f000002eb00c4979f00ef4a9700fc
:101450000504fb008804e800c34cdd00cb9b2100a1
:10146000898445003900be002901be001f92970003
:10147000af9297003f939700cf9397000020e10031
:1014800001a8e10002b0e10003b8e1001700390053
:101490000400200005002a009699290097fb2300ec
:1014a0004fb09700dfb097006fb19700ffb1970082
:1014b000380c0700800678008103780082057800e8
:1014c0008d027800070678000b0578008304780009
:1014d000c5b79f00dcb79f00eab79f00f9b79f0030
:1014e0008fb497000905e800220037004343dd0070
:1014f000068345003602be001603be001f9097000b
:10150000af9097003f919700cf9197000400e100c2
:101510000588e1000690e1000798e100160031001f
:101520006022b80006002000470224004fb0970058
:10153000dfb097006fb19700ffb19700150c07005f
:101540008006780081037800820578008d0278009b
:10155000070678000b05780083047800c5b79f0064
:10156000dcb79f00eab79f00f9b79f008fb29700e2
:101570000505e900ea879f000aa020007fab9700dd
:101580008a0463000a2020008a8f540056003a0023
:10159000dfab9700f48f53000200340048012000b5
:1015a000d8af9f004fb09700dfb097006fb19700a2
:1015b000ffb197008d0b0700d08f9f00e18f9f0038
:1015c0008005eb00fb8f9f000000eb0080979f00e1
:1015d0005fae97005f8c9700ef8c97007f8d970030
:1015e0008f9597000f0037000c06e900a40020003b
:1015f000050020006033b8000800be000a01be00ec
:10160000590d0700800378000103780082027800fa
:101610000302780007047800860478000505780046
:1016200084057800e00f5400e08f5c00e00f5d005f
:10163000e08f5d000b003200a400200005002000b8
:101640006033b8000800be000a01be004d0d07005f
:10165000e00f5000e08f5800e00f5900e08f590074
:10166000e1ff3200dcaf9f00d88f9f00e98f9f0021
:10167000fa8f9f008b979f000f4b97000605fb008a
:101680008a0f560018003d00afdb970087425300d9
:101690000540780049fc07000002be000203be00be
:1016a0004fb09700dfb097006fb19700ffb1970080
:1016b0005a0a0700800378008105780082047800c8
:1016c000870278000b067800890678000305780009
:1016d000c5b79f00dcb79f00edb79f00fab79f002a
:1016e000afdc9700894f9f004fad9700650755000d
:1016f000dfad97008b055700cbaf9f005fa8970029
:10170000e00f500005003a000a802000ffa8970073
:101710000a856000800f5500030032004fa9970032
:101720000201e900c2af9f00ffa997006385610035
:10173000030032004faa97000402e900c4af9f00e3
:10174000ffaa9700e484620049003200e28462004c
:101750000fbb970036059000e1856200e08f5400d2
:10176000180032000a04b200090032009604780022
:10177000bac2b300e08f5500010032000ac5e8008c
:101780008a4c78008fbb9700890be800090037006e
:10179000b90220008a8f5500010032008984e800d8
:1017a0008fb8970009007800e0080700e10f4000bb
:1017b000260032006fac97000804e800e8af9f00f5
:1017c00022003700898f5500200032000a04b20041
:1017d000060032008fbc97001905780005c2b300df
:1017e000054d78008a0ce800050037008fb8970097
:1017f00000022000cd080700e10f40001300320076
:101800006fad97000a05e800eaaf9f000f003700b0
:10181000380090000004b200040032001800780084
:101820000a487800000ce8000500370088007800be
:1018300000032000bd080700e10f40000100320056
:101840008b05e8008904e900040037000ac3b300ef
:10185000cfac9700efad97000fbc9700e08f54001e
:10186000ebff3c00c9af9f00ebaf9f004d0037007e
:10187000ffad970068856500890f550018003a0094
:101880000f003700380090000004b200040032005e
:10189000180078000a487800000ce80005003700be
:1018a0008800780000022000a0080700e10f400037
:1018b000010032008b05e8008904e90004003700cc
:1018c0000ac2b300cfac9700efad97000fbc9700f2
:1018d000e08f5400ebff3c00c9af9f00ebaf9f00cf
:1018e0007fa89700e20460008fb897003105900050
:1018f000e1056000e08f5400180032000a04b200d5
:101900000900320091047800bac2b300e08f55009c
:10191000010032000ac5e8008a4c78000fb9970030
:101920000909e80009003700b90220008a8f550034
:10193000010032008984e8008fb897000900780020
:101940007a080700e10f400016003200efa9970067
:101950008301e800e3af9f0012003700898f550034
:10196000100032000a04b200060032000fba9700dd
:101970001405780005c2b300054d78000a0ae80096
:10198000050037008fb897000002200067080700a5
:10199000e10f400003003200efaa97008502e80043
:1019a000e5af9f004fb09700dfb097006fb1970091
:1019b000ffb197008d0a070081047800c0b79f002f
:1019c000d9b79f000004eb00e8b79f000005eb00cb
:1019d000fab79f008f4d97000b05fb00ffa89700fb
:1019e000888f500009003d004355dd00c69b210053
:1019f0000a0543003a02be002a03be0089007800af
:101a00006011b800580c07000a0037007fa9970042
:101a1000f0046100cb9b2100080032004355dd003b
:101a20000a8545001a01be004fb09700dfb097004d
:101a30007a0b070080057800090037004355dd0068
:101a40006b057d00cfb1970080057800811f78007d
:101a5000110009008a81d8008005fd00cf007800c0
:101a60000fba9700340590000a04b2000800320053
:101a70009404780005c3b30005c545008a4c78007e
:101a8000090ae800e04f550009003a000b00370052
:101a9000060320000b0343008fb897000600780070
:101aa0002208070080037800e18f43000300320022
:101ab0006fab97000603e800e6af9f008f4b9700df
:101ac0000705fb007fac9700e00f540015003d00b8
:101ad0000b007800cf80de000101780082017800e1
:101ae0004355dd00c69b21000a0543003a02be00b3
:101af0002a03be00270c07000205be000004be003a
:101b00004fb09700dfb097006fb19700ffb197001b
:101b100008005000898058000a0159008b81590043
:101b20001f003700ffa8970070836000120032008a
:101b3000615eb9004355dd00c69b21000a054300e4
:101b40001a01be000c00be00440b07004fb1970005
:101b5000dfb197000006510081865900dc9f9f008d
:101b6000ed9f9f008002eb00f59f9f000003eb00bc
:101b700086a79f000e0037004354dd00ca9b21005a
:101b80006a057c000adeb900cfb397000c845300cd
:101b9000080078000100200002002000030020005f
:101ba000d09f9f00e19f9f00f29f9f0083a79f000f
:101bb0005f9a9700ef9a97007f9b97008fa39700fb
:101bc00084b79f0095b79f00a6b79f00b7b79f0047
:101bd000dfaa9700e08f520005003a000e80200037
:101be0007fab97000e076300850f5700c4003200db
:101bf0008fbb9700370790000e04b200060032003a
:101c00000704780098037800e5c2b300854b78009c
:101c1000070ce800060037008fb89700e0022000ac
:101c2000c207070080037800e18f43000300320001
:101c3000efac97008904e800e9af9f000f4d9700d3
:101c40008ad79f00ffad97000b20b200aba79f0083
:101c50007fa8970070006000c0b79f00ce9b210056
:101c6000ffae97000fbe970086003700afa0970029
:101c7000e08f50000d0032000fb297009fb2970026
:101c80002fb39700bfb39700e00f5200e08f5a00c8
:101c9000e00f5b00e08f5b0004003a008042eb0045
:101ca000854f9f008006eb008f0037008001fb000e
:101cb000e08f56000a003d00c319dd008301470094
:101cc0003302be002303be000fb097009fb0970001
:101cd0002fb19700bfb19700a30b07000900370091
:101ce0004fb39700e00f530008003200c319dd0026
:101cf000830147001301be000fb097009fb097000b
:101d0000c60a07000004780008003700c319dd0088
:101d10006e8479008fb39700809fbe001100090088
:101d20008883d800000478004f00be00bc019000fa
:101d30000304b200080032001c02780009c3b3009b
:101d400089414400034a7800040ee800e0cf5100c6
:101d500009003a000b00370003032000888141008e
:101d60008c0078000300780070070700800178007d
:101d7000e18f4100030032006fad97000a05e800d3
:101d8000eaaf9f008f4d97008b01fb00e08f56005c
:101d900013003d00cfc4de00090578008a057800f5
:101da000c319dd00830147003302be002303be00d8
:101db0000800be000a01be00760b07000fb29700b4
:101dc0009fb297002fb39700bfb397000002520055
:101dd00081825a0002035b0083835b001d00370091
:101de000cfb29700e08f520011003200cfc4de0066
:101df000c319dd00830147001301be000800be00c7
:101e0000960a07000fb397009fb397000001530095
:101e100081815b00929f9f00a39f9f008004eb0045
:101e2000b99f9f000005eb00ca9f9f000d0037007f
:101e3000c319dd00ee81790003c0b9008fb59700aa
:101e400000805500000278000500200006002000f8
:101e500007002000949f9f00a59f9f00b69f9f00b2
:101e6000c79f9f001f9c9700af9c97003f9d9700c6
:101e7000cf9d970088b79f0099b79f00aab79f0092
:101e8000bbb79f008f4997000340e900804f9f0038
:101e9000e0cf510075ff3a008fd497008906fb0010
:101ea0005fad97008d0655000f0037003800900099
:101eb0000004b20004003200180078000c487800da
:101ec000000ce800050037008800780000032000bf
:101ed00016070700e10f4000010032008904e80006
:101ee0008d06e900030037000cc3b300efac970088
:101ef0000fbc9700e08f5600ecff3a00e9af9f005f
:101f0000ffae97000d02b2008fbd9700bb0390009b
:101f1000110032000704b200050032009b03780074
:101f200055c4b300854b7800870de80006003700e4
:101f30008fb8970050042000fc060700800378004b
:101f4000e18f4300160032006fa897000000e80000
:101f5000e0af9f00120037000704b2008d8f5300de
:101f6000060032008fb897009103780055c6b30081
:101f7000854b78008708e800060037008fb8970087
:101f800050062000e906070080037800e18f430037
:101f9000030032006fa997000201e800e2af9f0042
:101fa000ef8697008fb99700b3039000e08f56003b
:101fb00013003d008d06ea00ed879f000704b20084
:101fc0000500320093037800d5c2b300854b78003a
:101fd0008709e800060037008fb89700d00220007c
:101fe000d206070080037800e18f4300150032001d
:101ff0006faa97000402e800e4af9f0011003700c9
:102000000704b200060032008fba970095037800eb
:10201000b6c2b300864b7800870ae8000600370096
:102020008fb89700b0022000c00607008003780038
:10203000e18f430003003200efab97008703e80015
:10204000e7af9f000fbc9700b80690000d04b200e8
:10205000ef8397000d00320018067800ae002000d4
:10206000809fbe00110009008e03d8008003780015
:102070004f00be000743b000074e78000c0ce8008c
:10208000e0cf53000c003a000e003700ad002000f6
:10209000110009008d03d800800378000703b00009
:1020a0008fb8970007007800a0060700800378002b
:1020b000e18f430003003200efac97008904e80091
:1020c000e9af9f000fbd9700ba0690000d04b20063
:1020d000ef8397000d0032001a067800ae00200052
:1020e000809fbe00110009008e03d8008103780094
:1020f0004f00be000743b000074e78000c0de8000b
:10210000e0cf53000c003a000e003700ad00200075
:10211000110009008d03d800810378000703b00087
:102120008fb89700070078008006070080037800ca
:10213000e18f430003003200efad97008b05e8000c
:10214000ebaf9f007fa89700e80260006b063200ab
:10215000cfa89700e08f5000680634000dc2b3008e
:10216000810478006fad97000fbc97003800900095
:102170000004b20004003200180078000d48780016
:10218000000ce800050037008800780000022000fd
:1021900066060700e10f4000010032000a05e80072
:1021a0008904e900f1ff3a00530637000fb19700a8
:1021b000e00f510004003d000285ea00dfa997000e
:1021c0008a814100d3af9f004fb09700dfb09700e6
:1021d0006fb19700ffb197005308070080b79f00c9
:1021e00091b79f00a2b79f00b3b79f00c99b210082
:1021f0000045eb000c0037003900be003901be007d
:102200000fb297009fb297002fb39700bfb397000c
:102210000020e10001a8e10002b0e10003b8e10004
:10222000030039000a45e800f44f5500f2ff3a0078
:102230000a05fb00dfaa97008a825200d5af9f00f3
:10224000f88f520014003c00054078000bf907009d
:102250000002be000203be004fb09700dfb097003f
:102260006fb19700ffb19700e50607008003780083
:102270008105780082047800870278000b067800d8
:102280008906780003057800c5b79f00dcb79f007a
:10229000edb79f00fab79f002fd8970047f90700c6
:1022a0000002be000203be0084af9f0095af9f00f6
:1022b000a6af9f00b7af9f000fb097009fb09700e9
:1022c0002fb19700bfb197006e0807000002be0053
:1022d0000203be004fb09700dfb097006fb19700c8
:1022e000ffb19700200907000002be000203be00f4
:1022f0000fa897009fa897002fa99700bfa9970044
:10230000a408070008080700000278000107780009
:102310000206be00dfac9700040478000b00370013
:10232000a4002000050020006033b80008007800f9
:102330008e0078000c01be000b0a07000004780034
:10234000010778000206be008904e900e08f54000e
:1023500025003200a4002000050020006033b800f2
:10236000080078008e0078000c01be00050a070006
:10237000e00f5000e08f5800e00f5900e08f590047
:10238000e7ff320018003700dfaa9700f88f5200ed
:1023900016003c0005407800b8f807000002be00b7
:1023a0000203be004fb09700dfb097006fb19700f7
:1023b000ffb197009206070080037800810578003e
:1023c00082047800870278000b067800890678007e
:1023d00003057800c5b79f00dcb79f00edb79f00ed
:1023e000fab79f0001003700d9af9f006f869700b2
:1023f000e90f560015003c006022b8006033b800b9
:102400004fb09700dfb097006fb19700ffb1970012
:102410005c070700e00f5000530032004fb09700f8
:10242000dfb097006fb19700ffb19700be070700bc
:10243000e00f5000e08f5800e00f5900e08f590086
:1024400049003a00e10f5600470034000400200024
:1024500005002e00b6e0220017012400bf8e970071
:10246000af8d97009f8c97000f8d97008db79f00c1
:102470009bb79f00a9b79f00bab79f000fb0970006
:102480009fb097002fb19700bfb19700d906070002
:10249000e00f500002003d007301560001003700bc
:1024a00072015600e2879f004f489700c3f807006b
:1024b000b08f9f00a18f9f00928f9f00838f9f00fe
:1024c0008003780081057800820478000305780095
:1024d00087b79f009bb79f00a9b79f00bab79f001f
:1024e0000fb297009fb297002fb39700bfb397002a
:1024f0004fb09700dfb097006fb19700ffb1970022
:10250000c606070088070700800378008105780069
:1025100082047800870278000b067800890678002c
:1025200003057800050078008c0078000d01780024
:102530008a0178000203be000002be0084b79f003b
:1025400095b79f00a6b79f00b7b79f008002eb002a
:1025500085af9f00a5a79f0095a79f000504780061
:10256000b8a79f00210037004fb09700dfb0970059
:102570006fb19700ffb197006b07070080027800ea
:102580008106780085b79f009db79f00a2b79f0086
:10259000b3b79f00050078008d007800b9070700e9
:1025a0000002be000203be0084af9f0095af9f00f3
:1025b000a6af9f00b7af9f004fb09700dfb0970066
:1025c0006fb19700ffb19700670807008006780099
:1025d000810378008daf9f00a7a79f0092a79f005f
:1025e000b3a79f008006eb00ed879f00459c21006c
:1025f0001dc0b3000c0037003500be003501be0021
:102600000fb497009fb497002fb59700bfb5970000
:102610000040e10001c8e10002d0e10003d8e10080
:10262000030039008d46e800f4cf5600f2ff3a006f
:102630008d4f9f006f879700cfac97000e87540097
:102640005fad97000a0757008d06fb008d06570007
:10265000cdb79f000d802000ffad97008d866500ef
:10266000cdaf9f0003003a000d007800800f5500a9
:1026700003003200cfb097008100e900c1b79f008e
:102680007fa99700e306610003003200cfb19700f5
:102690008301e900c3b79f007faa97006407620027
:1026a0004c00320062076200e1026200e00f570056
:1026b0001b0032000fbb9700360790000e04b200db
:1026c0000900320016067800b7c2b300e08f52004e
:1026d0000100320087c3e800074e78008fbb9700e7
:1026e0008c0be8000a003700bc0220008e8f5200dd
:1026f000010032000c86e8008fb897000c007800cb
:102700000a05070080037800e18f430028003200ab
:102710006fac97000804e800e8af9f002400370082
:102720008e8f5200220032008fbc9700b9069000b5
:102730000d04b200050032001907780005c2b3008d
:10274000054f78008e0ce800060037008fb8970020
:1027500000022000f504070080037800e18f4300a9
:10276000130032006fad97000a05e800eaaf9f0042
:102770000f003700380090000004b200040032005f
:10278000180078000c487800000ce80005003700bd
:102790008800780000032000e4040700e10f4000f7
:1027a000010032000a05e8008904e900040037004e
:1027b0000cc3b300cfb497006fad97000fbc970068
:1027c000e08f5400ebff3c00c9b79f00eaaf9f00c9
:1027d000a2003700ffad9700e88665008e8f560097
:1027e00018003a000f003700380090000004b200d3
:1027f00004003200180078000c487800000ce80053
:10280000050037008800780000022000c704070098
:10281000e10f4000010032000a05e8008904e900e8
:10282000040037000cc2b300cfb497006fad97001f
:102830000fbc9700e08f5400ebff3c00c9b79f002e
:10284000eaaf9f007fa8970062076000e102600086
:10285000e00f57001b0032008fb89700310790003f
:102860000e04b2000900320011067800b7c2b300ae
:10287000e08f52000100320087c3e800074e780065
:102880000fb997000c09e8000a003700bc022000cd
:102890008e8f5200010032000c86e8008fb897003e
:1028a0000c007800a104070080037800e18f43004a
:1028b0006a003200efa997008301e800e3af9f00b0
:1028c000660037008e8f5200640032000fba970006
:1028d000b40690000d04b200050032001407780021
:1028e00005c2b300054f78000e0ae8000600370065
:1028f0008fb89700000220008c0407008003780046
:10290000e18f430055003200efaa97008502e800ee
:10291000e5af9f0051003700be0190000304b200f4
:102920000200fb00e08f5100270032009e06780075
:102930007fab9700e00f530008003d004300dd002f
:10294000000046003002be002003be000800be00aa
:102950000a01be00840807000f003700ff839700bc
:10296000e08f5300060032004300dd000000460007
:102970001001be000800be00a807070006003700cf
:102980004300dd006c017800811f78001100090010
:102990000284d800cf007800a2002000811f7800b8
:1029a000110009000200d80001007800cf00780073
:1029b0000043b000804e78000d0fe800e04f50005b
:1029c00022003a002e003700ffa89700838f5000a6
:1029d00008003d004300dd00000046003002be005c
:1029e0002003be000800be000a01be005e0807000a
:1029f0000d0037007f819700e00f51000600320084
:102a00004300dd00000046001001be000800be00cb
:102a100082070700040037004300dd006c017800e6
:102a2000110009000284d800a20020001100090052
:102a30000200d800010078000003b0008e0078008a
:102a40003a040700e10f40000d003200efa99700a3
:102a50008301e800e3af9f00090037007faa9700d9
:102a600070026200f4879f00cc9b21000fb4970096
:102a70009fb497002fb59700bfb597000fbf970081
:102a80000f4897000041e900824f9f00e04f50003f
:102a9000a1ff3a0011003700380090000004b20096
:102aa000040032001800780009487800000ce800a3
:102ab0000500370088007800000320001b04070091
:102ac000e10f4000010032000a05e8006f80970026
:102ad0000000e900e0879f000300370009c3b3004e
:102ae0006fad97000fbc97006f809700e00f50000c
:102af000e9ff3c00eaaf9f00dfaa9700f28f520087
:102b00000300340027012000874f9f000200370098
:102b10002fdb9700864f9f000f4d97008a03fb0025
:102b20005fac970087035400d7af9f00e04f55007c
:102b300003003a00cfac9700e08f5400130032003e
:102b40000fbd9700ba0390000704b20006003200e0
:102b50008a0578001b057800e5c2b300054d7800b2
:102b60008a0de800060037008fb89700e0022000c9
:102b7000ee03070080037800e18f4300030032007a
:102b80006fa897000000e800e0af9f000f48970093
:102b90000af707000002be000203be000fae970056
:102ba000afa597009fa497003fa597000c00780061
:102bb0008b007800090178008a017800750607000b
:102bc000d905070080037800810578008204780029
:102bd000870278000b0678008906780003057800e4
:102be000050078008c0078000d0178008a017800db
:102bf0000203be000002be0084b79f0095b79f008d
:102c0000a6b79f00b7b79f00ffaa9700f0826200a7
:102c1000c5af9f00ce9b2100ffae97000fbe97006f
:102c2000760037008401fb00e08f56000a003d006b
:102c3000c319dd00830147003302be002303be0039
:102c40000fb097009fb097002fb19700bfb19700ca
:102c5000c5070700090037004fab9700e00f53008e
:102c600008003200c319dd00830147001301be00d4
:102c70000fb097009fb09700e806070000047800a7
:102c800008003700c319dd006e8479008fb3970008
:102c9000809fbe00110009008883d80000047800de
:102ca0004f00be00bc0190000304b20008003200d7
:102cb0001c02780009c3b30089414400034a78002c
:102cc000040ee800e0cf510009003a000b00370085
:102cd00003032000888141008c0078000300780005
:102ce0009203070080017800e18f41000300320069
:102cf0006fad97000a05e800eaaf9f008f4d97007f
:102d00008b01fb00e08f560013003d00cfc4de00b6
:102d1000090578008a057800c319dd0083014700a2
:102d20003302be002303be000800be000a01be003d
:102d3000980707000fb297009fb297002fb3970034
:102d4000bfb397000002520081825a0002035b0069
:102d500083835b001d003700cfaa9700e08f5200ed
:102d600011003200cfc4de00c319dd00830147002b
:102d70001301be000800be00b80607000fb397009d
:102d80009fb397000001530081815b00d2979f00a1
:102d9000e3979f008004eb00f9979f000005eb008c
:102da0008a9f9f000d003700c319dd00ee81790076
:102db00003c0b9008fb5970000805500000278006d
:102dc000050020000600200007002000d4979f0087
:102dd000e5979f00f6979f00879f9f005f9497005d
:102de000ef9497007f9597008f9d970088b79f007d
:102df00099b79f00aab79f00bbb79f008f49970064
:102e00000342e900844f9f00e0cf510085ff3a0064
:102e10000f003700380090000004b20004003200b8
:102e2000180078000d487800000ce8000500370015
:102e300088007800000320003c030700e10f4000f9
:102e4000010032000a05e8008904e90004003700a7
:102e50000dc3b300dfac97006fad97000fbc9700b8
:102e6000e08f5400ebff3a00d9af9f00eaaf9f001c
:102e7000ffac9700e88264005fad97008a8f520034
:102e80001e033200cfb59700e08f55001b033400be
:102e90000dc2b3008b0478006fad97000fbc970094
:102ea000380090000004b2000400320018007800de
:102eb0000d487800000ce800050037008800780015
:102ec0000002200019030700e10f4000010032005a
:102ed0000a05e8008904e900f1ff3a00060337001b
:102ee000ffac9700090cb2008c8f540041003a00ef
:102ef0007fa89700890f500005003d007fa4970030
:102f00004803be004802be00f8a79f001200370029
:102f10007fad9700f0036500898f530013003200e6
:102f20007fa097004005be00f0a79f00900490008e
:102f3000cfccde008a0278000b0678008903780087
:102f4000050078008c00780009017800870178007e
:102f50000203be000002be0084b79f0095b79f0029
:102f6000a6b79f00b7b79f000b003700ffa29700de
:102f700045007800f5a79f0000047800cfc4de006c
:102f8000090578008a05780088b79f0099b79f00e7
:102f9000aab79f00bbb79f000fb097009fb09700e4
:102fa0002fb19700bfb19700e00f5000e08f58009d
:102fb000e00f5900e08f590039003d00ffa897004d
:102fc0003100b300f1af9f006022b8006033b80059
:102fd0000fb497009fb497002fb59700bfb5970027
:102fe0000804520089845a000a055b008b855b0047
:102ff00027003700ffac9700e08f540009003d0028
:103000007fa297004401be004400be00f4a79f00c9
:1030100080b79f0091b79f00a2b79f00b3b79f00f2
:103020001f003700ffaa9700f083620011003200f2
:103030007fa497004803be00f8a79f00060578000c
:10304000870678008c0478000a0078008d007800ec
:103050000c017800890178000203be000002be0066
:1030600084b79f0095b79f00a6b79f00b7b79f0092
:103070000b003700ffa2970045007800f5a79f00de
:1030800000047800090020000a0020000b00200046
:1030900088b79f0099b79f00aab79f00bbb79f0052
:1030a000dfac9700e08f54000d003a001a002000ba
:1030b000daaf9f000fb097009fb097002fb1970035
:1030c000bfb19700e00f5000e08f5800e00f5900ab
:1030d000e08f5900020032008000eb00d1af9f006a
:1030e0007fa99700020cb200c2b79f00070420001e
:1030f000870f51003400320003003c00e00f510004
:1031000049003a000700370007082000cfb19700b8
:10311000878f510014003200070c2000878f510068
:1031200041003a004d9c210017c0b3003d00be0095
:103130003d01be000fb497009fb497002fb59700d4
:10314000bfb597000040e10001c8e10002d0e100f6
:1031500003d8e100330039008743e800f4cf53007f
:10316000f2ff3a002f00370017c0b3000001200023
:10317000010020006011b8000fb497009fb49700c1
:103180002fb59700bfb597000040e10001c8e100ee
:1031900002d0e10003d8e1002200390049002000fc
:1031a0000000d0008180d2000281d2008381d20051
:1031b0008904e900faff3a008743e800f0cf5300a2
:1031c000edff3a001700370017c0b3008000200061
:1031d000010020006011b8000fb497009fb4970061
:1031e0002fb59700bfb597000040e10001c8e1008e
:1031f00002d0e10003d8e1000a00390039002000c4
:103200000000d0008180d2000281d2008381d200f0
:103210008904e900faff3a008743e800f5cf53003c
:10322000edff3a00874f9f000f4d97008a03fb0088
:10323000dfad97008b8f530002003d008b4f9f0046
:10324000040037005fa89700870f500001003d0081
:10325000d7af9f00cfa89700e08f50000500320045
:103260007fa99700e3036100020032008100e900ba
:10327000c1af9f0007002400ffa99700878361006a
:10328000090032004faa9700dfaa9700850f52006d
:103290000300340005025200c4af9f000200370053
:1032a0000003eb00c6af9f00478c20007fac970067
:1032b000870664004708b100878f560006003a0071
:1032c000cfac9700e08f5400110032008904e90070
:1032d000c9af9f000e003700078c20007fad97001c
:1032e000870665000704b100878f560008003a0082
:1032f000cfad9700e28f5500030034008b85e900c5
:10330000cbaf9f00020037000000eb00c0af9f0072
:103310008f4897008103fb000001eb0082af9f0004
:10332000cfa99700878f5100020034008783510096
:1033300087af9f007faa9700640762008300320076
:1033400062076200e1066200e00f57001b003200d6
:103350008fba9700350790000e04b20009003200c2
:1033600095037800bec2b300e08f56000100320022
:103370000ec7e8008e4b78000fbb9700070be800e4
:103380000a003700b70220008e8f5600010032007d
:103390008783e8008fb8970007007800e3010700f3
:1033a00080027800e18f42004f003200efab9700bf
:1033b0008703e800e7af9f004b0037008e8f560071
:1033c000130032000fbc9700b80390000704b2004e
:1033d000050032001807780005c2b300054f7800d9
:1033e0000e0ce800060037008fb89700000220009e
:1033f000ce01070080027800e18f42003a003200df
:10340000efac97008904e800e9af9f003600370071
:10341000078c20007fad9700070765000704b10007
:10342000870f570030003a008fbd9700bb03900014
:103430000704b2008d8f5300050032001b0778008f
:1034400005c3b300054f78008e0de8000600370075
:103450008fb8970000032000b401070080027800b5
:10346000e18f4200030032006fa897000000e800df
:10347000e0af9f008fb89700b10390000704b2003f
:10348000ffae97000d02b200e08f5300090032003a
:10349000910378008ec7b300e08f56000100320020
:1034a0008ec5b3008e4b78000fb997000709e8006e
:1034b0000a0037008e072000878f56000100320077
:1034c0008e0520008fb897000e0078009701070046
:1034d00080027800e18f420003003200efa99700dc
:1034e0008301e800e3af9f000faa9700e00f5200ae
:1034f000b00032000dc3b300840478006fad9700b4
:103500000fbc9700380090000004b20004003200a5
:10351000180078000d487800000ce800050037001e
:10352000880078000003200080010700e10f4000c0
:10353000010032000a05e8008904e900f1ff3a00c1
:1035400089af9f00eaaf9f009a0037008faa9700cb
:103550008e8f5200180032007fab9700e8036300a3
:1035600015003a000dc2b300850478006fad9700d6
:103570000fbc9700380090000004b2000400320035
:10358000180078000d487800000ce80005003700ae
:10359000880078000002200064010700e10f40006d
:1035a000010032000a05e8008904e900f1ff3a0051
:1035b00089af9f00eaaf9f00ffab9700628763006f
:1035c000e1866300e00f57001b0032000fbc97003c
:1035d000380790000e04b20009003200980378000a
:1035e000bec2b300e08f5600010032000ec7e800f3
:1035f0008e4b78008fbc9700870ce8000a003700dc
:10360000b70220008e8f5600010032008783e80049
:103610008fb8970007007800440107008002780007
:10362000e18f4200180032006fad97000a05e800f4
:10363000eaaf9f00140037008e8f56001200320050
:103640008fbd9700bb0390000704b2000500320055
:103650001b07780005c2b300054f78008e0de80007
:10366000060037008fb89700000220002f010700e6
:1036700080027800e18f4200030032006fa89700bb
:103680000000e800e0af9f00078c2000ffa8970033
:10369000878660000708b100878f560013003a0044
:1036a0000fb99700b20390000704b2000500320082
:1036b0001207780005c3b300054f78000e09e80033
:1036c000060037008fb8970000032000170107009d
:1036d00080027800e18f420036003200efa99700a7
:1036e0008301e800e3af9f00320037000788200025
:1036f000878f56002f003a000fba9700b40390004e
:103700000704b200050032001407780005c3b300b7
:10371000054f78000e0ae800060037008fb89700c2
:10372000000320000101070080027800e18f4200c1
:1037300003003200efaa97008502e800e5af9f0082
:103740000fbb9700b60390000704b200ffae9700ce
:103750000d02b200e08f530009003200960378009a
:103760008ec7b300e08f5600010032008ec5b30053
:103770008e4b78000fbc9700070ce8000a0037005a
:103780008e072000878f5600010032008e05200032
:103790008fb897000e007800e400070080027800e0
:1037a000e18f420003003200efac97008904e8008b
:1037b000e9af9f005fad97000a07e900c275dd0021
:1037c000aba79f006376b9000c007800c0af9f00e4
:1037d0004377dd00c79b210087034700ffa89700c0
:1037e000f080600091a79f007fa997000202b200bd
:1037f000b2a79f0007077800a2003700dfa9970053
:103800008301e900d3af9f004fb297000504200069
:10381000850f52007100320003003c00e00f52009f
:103820007d003a0007003700000820004fb39700e2
:10383000800f530055003200000c2000800f530011
:1038400075003a00ffab9700e08f53001f003d006a
:103850003e02be002e03be000fb097009fb097003f
:103860002fb19700bfb19700bf0407000004780094
:10387000884f9f000804fb00cfc4de0009057800d4
:103880008a0578003e02be002e03be000800be007e
:103890000a01be00bf0407000fb497009fb4970051
:1038a0002fb59700bfb597000004540081845c00d9
:1038b00002055d0083855d0088b79f0099b79f0072
:1038c000aab79f00bbb79f002c0037009fa49700aa
:1038d000e08f54001c0032000fb697009fb697008f
:1038e0003e04be002e05be000801be000c00be0056
:1038f000ca030700804f9f000000fb00cf80de005e
:103900000801be00d50307000000560081805e005c
:1039100080037800010378000002eb0007007800c4
:103920008600780004017800840178000203be005c
:103930000002be0084b79f0095b79f00a6b79f0006
:10394000b7b79f000d0037009e0478008fb2970034
:10395000811f7800110009008982d800cf0078000b
:10396000a2002000811f7800110009000280d80009
:1039700001007800cf007800804f9f000f4b970028
:103980000643b000864f9f0023003700b4b52100e6
:10399000bfa39700e08f530001003200a4b42100c0
:1039a0000fb097009fb097002fb19700bfb197005d
:1039b0002fa497000804e900050033008301d1001b
:1039c0000281d3008180d3000080d300f9ff37004b
:1039d0006f006000644078000e0037000fb0970061
:1039e0009fb097002fb19700bfb19700cfac970061
:1039f0008904e900050033008301d1000281d3006e
:103a00008180d3000080d300f9ff37006740600059
:103a10000043b000804f9f000fbd97003a00900018
:103a20000004b200070032001a0178000f48970026
:103a300000497800020de800e04f500007003a000e
:103a4000090037008f4d97000b00fb008fb89700df
:103a500036000700e10f4000030032006fa8970016
:103a60000000e800e0af9f00afa09700e4805000a6
:103a7000a1a79f004fa9970063015100c2af9f000b
:103a800068075700dfa99700e08f51005bff3a00fd
:103a90007faa9700e8026200838f5200170032006d
:103aa0008faa9700e08f5200140034000dc2b300bb
:103ab000850478006fad97000fbc97003800900028
:103ac0000004b20004003200180078000d487800ad
:103ad000000ce80005003700880078000002200094
:103ae00012000700e10f4000010032000a05e80063
:103af0008904e900f1ff3a00eaaf9f004f8b97007d
:103b0000964678008d4f9f00e0cf56009cf33a0018
:103b10006fa897004f0778004f06be004f05be0004
:103b20004f04be00cf06b10000000600889fbe0013
:103b300001047800b8009000628160008084eb008e
:103b40003c003200810178000320b200180190008f
:103b500002003a00830f510036003a000190a000a5
:103b60003104980080047800f90fb200e00f510092
:103b700002003a0028009000000c7800ea8f540000
:103b800006003a00010078000008b20003003a0085
:103b900088007800d0002000e4ff070018009000a3
:103ba000d8009000810f50000b0032000000e800a8
:103bb000100498001800780009487800000ce8000c
:103bc00010c0b30001bd210080487800ea8f540086
:103bd00018003a0005003700880078000940780096
:103be00017000700800478001200370038009000aa
:103bf0000010b2000f00320018019000a8009000e1
:103c0000480090004f00070098009000810f50007e
:103c100004003200380090000003b3003004980024
:103c20008084eb000000eb00100498002800900056
:103c3000000c7800090078004f04be000000060068
:103c40000200fa00889fbe00a0ff9f0001047800d8
:103c500038009000000178000204b20034003a00fd
:103c6000e2006000828f500005003a000003b300bc
:103c700030049800110498000080eb002e003700fb
:103c8000d8049000e08f540006003a001200200093
:103c9000e6805700480090002a00070019049800a9
:103ca00023003700a8009000e08f500008003a0081
:103cb00031bd210021049800010c78002100200072
:103cc00051049800110498000030a00030049800be
:103cd00018019000a800900048009000190007000b
:103ce000280090008080eb0011049800aff8970046
:103cf00001487800000ce8002ff89700ea4f5000c8
:103d00000b003a00380090000010b20008003200aa
:103d100018019000a80090004800900009000700da
:103d20000000eb0010049800a8009000010c78003f
:103d3000aff897000100fb004f04be000080fa00be
:103d4000000006000a00fa00e20f500021003e00c9
:103d500010df8000e10f50000600320085232000b4
:103d6000442320002323200000232000e08f520062
:103d700004003a0085222000442220002322200053
:103d800000222000060028009003630002003a0091
:103d9000870a7800100873000040200013006000bc
:103da00001003a0013a0a0000200780006003700ce
:103db000930278000510b200fdff3200b102fb0053
:103dc000050a78000000e900e00f5000f8ff3a0013
:103dd0000800370033002000b3bf9f00c0bf9f0022
:103de000d1bf9f00e2bf9f006a80570000c0da0089
:103df0006fb99700020078000080fa00000006000a
:103e00002800fa00889fbe008a9fbe008c9fbe00db
:103e100007067800878669000c003b0003047800e1
:103e20008704780008f0a10009f0a100840f500079
:103e3000858f5800860f5900890f5c0003003300fe
:103e40000cf0a20001003a000cf0a100fe000700f7
:103e50006400e1005f003200780147006408e1007f
:103e6000610032006c014700748557003200be00cb
:103e70001201be003a04be001a05be001e039000e7
:103e8000be0a90008503530006003d000004fd00bb
:103e90008104fd000205fd008305fd008703ea00a3
:103ea000050378000df8a30004003200600414003c
:103eb000e0841c0060051d00e0851d006022b80044
:103ec0007d0320000d38e1008006eb000b00390077
:103ed0004433dd00f300b200830173003900370082
:103ee000848272000d027800e10664008b85d100a7
:103ef0000a85d3008984d3000884d3008703e900ae
:103f0000f7ff3b0008004000898048000a01490093
:103f10008b81490004003b0060001000e080180025
:103f200060011900e08119000358a3000900320064
:103f30008d82720084827200610260008301d10070
:103f40000281d3008180d3000080d3000603e80003
:103f50001b0037000348a30017003a000600e000ea
:103f6000170034000603e9000d00a300000048001c
:103f70008180480002014900838149000348a30071
:103f80000f003a000600e000090034000603e900d3
:103f900000004000818048000201490083814900ff
:103fa00001003a000003eb000348a300f5ff3200d4
:103fb0006022b800020037008482720061826600cd
:103fc0007500070003f0a1000cf0a70003f0a000ab
:103fd000b1003700640147006408e10002003a00c4
:103fe0000df8a300a9003a003200be001201be0085
:103ff000a90037008f1fd100200307008f87e90039
:104000000000e00000000600809feb001b0307009b
:104010008f87e9000000e000000006002800fa0099
:10402000889fbe008a9fbe008c9fbe0003866b00e7
:10403000850007006400e100440032006408e100ec
:104040004a0032006100e100460032006108e100f0
:1040500049003200ec0647006000b8003d02be0097
:104060003d03be00f48657006011b8003d04be0059
:104070003d05be007d0320000b0037000000a000be
:104080008d06e900130032000402420085824a00d6
:1040900006034b0087834b000000400081804800ee
:1040a00002014900838149000802520089825a00b6
:1040b0000a035b008b835b00f0ff3b0008024200b9
:1040c00089824a000a034b008b834b008d06e9006e
:1040d000edff3a008482720086827200f707b20018
:1040e0008782720001003200150020001e0490003b
:1040f0003e0b900006035400e63fb0000368a300a7
:10410000070032000000a7000500a0008301d100d5
:104110000281d3008180d3000080d3000603e80031
:104120008301d1000281d3008180d3000080d300bd
:104130000002eb000482d2001700070003f0a10088
:104140000cf0a70003f0a000530037006402470002
:104150006408e1004d0032003400be003401be00ae
:10416000f6ff37006108e100480032006011b80036
:104170006000b800f1ff370003ff270002002000b5
:10418000fbff3700801feb00bc0207008f87e900b0
:104190000000e0000000060018002000570020008a
:1041a000080453000d003d000600200097fc2f007e
:1041b0000740e1001e00340084827200610260004a
:1041c0008301d1000281d3008180d3000080d3001d
:1041d0000804e800f8ff3a0047002000610460008e
:1041e00005047400040464000d0032006100400006
:1041f000e080480060014900e081490003b8a50063
:10420000070032000603e8006538e10004003a00c8
:104210008301d1000281d3008180d3000080d300cc
:10422000f87f20000830e100030035000803780023
:104230006000b8006011b8004433dd00f300b20044
:104240008301730000000600680447000294be006a
:104250000094be00fc0447008694be008494be0017
:1042600009007800ce02070008007800cc020700a1
:1042700099007800814f70000b003b000800be00e1
:10428000a70207004f00b10003003700f3ff27002b
:10429000f2ff2f006110b9004f06be004f05be00af
:1042a0004f04be000080fa00000006008103780081
:1042b000a30007000001be006000b8000478a3005e
:1042c00013003a006220e10015003e000d003900a5
:1042d0008301d1000281d3008180d3008301d1000a
:1042e0000281d3008180d3008301d1000281d300f9
:1042f0008180d3000538b000c42add00f300b2008d
:104300008381720007f0a70003f0a0000000060000
:10431000f3ff2700f2ff2f006110b900fbff370009
:1043200003ff2700f7ff37001400fa00889fbe0044
:104330008a9fbe008c9fbe000004be000205be0026
:10434000680047000a90be000890be009402070073
:104350000070a7000bf0a1000bf8a30020003a00aa
:104360009e0990000e099000fe0090006e009000e3
:104370009e0290003443200084825200c6ff320027
:104380000a003c00b4fc2f000428e10014003400b3
:104390008301d1000281d3008180d3000080d3004b
:1043a0008502e800faff3a00bbff3700b4002000a6
:1043b0000428e10007003c00000040008180480024
:1043c00002014900838149008502e900faff3a00b1
:1043d000b1ff370003002800020020000100370071
:1043e0006011b8006000b800abff37001400fa009d
:1043f000889fbe008a9fbe008c9fbe000004be0046
:104400000205be00680047000a90be000890be008a
:10441000630207000070a7000bf0a1000bf8a300d7
:1044200016003a009e029000304320008082520025
:10443000b0fe2f000028e1000d003c00b0fc2f0072
:104440000028e1000d0034001e0990008e08900045
:104450007e0090000501b0000201d1008180d300f0
:104460000080d3008502e800fbff3a008aff370096
:10447000010028000000200087ff37006000b8001e
:1044800085ff3700889fbe00008270000402710023
:104490002400320036432000c50020008383cf0073
:1044a0000a0039000541b1008283cf0007003900be
:1044b0000541b1008183cf00040039000541b100fe
:1044c0008083cf00010039000541b10085c353004e
:1044d0006022b800120032000a003b0084827200a1
:1044e000610260008301d1000281d3008180d3008a
:1044f0000080d3000603e8008743e800f7ff3a0096
:104500000700370000004000818048000201490098
:10451000838149000603e9008743e900f9ff3a0077
:104520001dff07004f04be00000006006011b80028
:10453000d4ff3700c4010700050978000000060019
:10454000c70ade00f107b200f50fb2000800320022
:10455000e1cf4200020032000170a00024000500fb
:10456000810f7000010032000408050044000500be
:10457000810f700002003a00140005008502e90076
:104580000000400081c04800fcff3b000170a0001b
:10459000240005002800fa00889fbe008a9fbe0004
:1045a0008c9fbe0003866b0027ff07000028a30036
:1045b00064003a000128a30067003a000008a30045
:1045c00062003a000108a30065003a001e00900056
:1045d000be08900081064000ed3fb100f480570016
:1045e000ee019000111ab8008e099000311bb8003e
:1045f0009e099000311cb800511db800f485570089
:1046000046000700fe0190003a0007008b85e80095
:104610003e0007008e09900040000700ee01900068
:10462000340007008b85e800380007008e099000f1
:10463000400007009e0990001b18b8008904400044
:104640000a854800fe019000340007008b85e800d1
:1046500038000700ee019000300007008e0990003e
:104660001b18b800890440000a8548000a98a30076
:1046700008003a000402420085824a0006034b000b
:1046800087834b0008044c0089844c000a054d00c8
:104690008d06e90084827200850273004c3add00c9
:1046a000850272000100320015002000443ade004d
:1046b0001400b2004538de00cb45dd000b00700071
:1046c000c540de00cb4ddd008b8070004549de002b
:1046d000cb55dd000b017100c551de000d037800e4
:1046e000adfe070003f0a1000cf0a70003f0a0004e
:1046f000e9fe37001b18b800850240000683480019
:10470000e0834b0060044c00070037001b18b80022
:104710000603400087834800faff37001b18b800e3
:104720008703400008844800e0844c0060054d0089
:10473000000006001b18b8000804400089844800e7
:10474000faff37000108a300d0fe3a005800be006f
:104750005801be00e3ff37000008a300cbfe3a007b
:1047600009047800f9ff370007f0a200a4fd370024
:104770001400fa00889fbe008a9fbe008c9fbe0076
:104780000005be000206be00680047000c90be0097
:104790000a90be00820107006400e1001a003200a6
:1047a00016003e006100e1001a0032006e04900025
:1047b000fe0490000e0b90009e0b90006011b8005c
:1047c0009e0590000b38b100d50120008281710058
:1047d000610164008703d1000683d3008984d3007c
:1047e0000884d3008502e900f8ff3a00930107002e
:1047f0000df0a70001f0a000a7fe3700f1ff270091
:10480000f0ff2f00a4fe370001f827000000200071
:10481000f7ff37006000b800f5ff37006022b800ee
:10482000060220000000d0008180d2000482d20065
:104830008582d2000000a0000202520083825a004a
:10484000030031000202420083824a000000a100fe
:104850000603e900f3ff3a0000000600020ab9006f
:10486000001bb9000200b800810042008100430033
:10487000000006000800fa00889fbe008a9fbe0064
:1048800084bf9f0095bf9f00a6bf9f00b7bf9f003a
:104890003004be002005be000fba97009fba9700f3
:1048a0002fbb9700bfbb97000404440085844c00d5
:1048b00006054d0087854d000898be000a90be0091
:1048c0000440e10005c8e10006d0e10007d8e1009e
:1048d00002003100680040001008e8004f05be00eb
:1048e0004f04be000080fa0000000600fe8747006b
:1048f000889fbe008a9fbe008c9fbe008e1f7800de
:10490000d0b79f00e1b79f00f2b79f0083bf9f0021
:1049100084b79f0095b79f00a6b79f00b7b79f00c9
:104920008000eb00f1af9f00e1af9f00d1af9f008f
:10493000c1af9f00b1af9f00010678000d042000b9
:10494000ccb79f000605be000404be007fae9700f2
:104950006faf97005fa89700e00f56000f003d0073
:10496000cf71de000c01460002817100f2af9f00a2
:104970005d0007004f20de00818040008100700054
:10498000640007000802be000a03be0060fd2f009d
:104990000f004000b7ff07001d003700520007005e
:1049a0004f21de0081804000810071005900070026
:1049b0003faa9700cfaa97005fab9700efab970095
:1049c0000800520089805a000a015b008b815b005d
:1049d000b0af9f00c1af9f00d2af9f00e3af9f0079
:1049e0004f70de000c014600020070001300200032
:1049f0000820e10009a8e1000ab0e1000bb8e100dd
:104a0000010039008001eb0003005000f0af9f006f
:104a10007fae9700e00f56000f0035001000200019
:104a2000010020006011b8005fb29700efb297005c
:104a30007fb397008fbb97000402700085827000df
:104a40000603710087837100d4b79f00e5b79f000c
:104a5000f6b79f0087bf9f00cfb297008502e8009e
:104a6000c5b79f008d8f5200b8ff3a000c01780047
:104a7000e00f510007003d000fb297009fb2970072
:104a80002fb39700bfb3970060fd2f000f004000c9
:104a900078ff0700ffa09700e08f500008003a0061
:104aa0003fac9700cfac97005fad9700efad97009c
:104ab000d8b79f00e9b79f00fab79f008bbf9f0050
:104ac0005fb09700efb097007fb197008fb9970064
:104ad0004f0778004f06be004f05be004f04be00d2
:104ae000ef01b100000006004f01de008e0047001c
:104af00081007100c1af9f00afa897004f09de0091
:104b00000000400000007100b0af9f001faa970096
:104b100000000600a1af9f000e0007004f18de0046
:104b2000040242000002720094af9f0009000700d7
:104b30000000400081804800020149008381490053
:104b4000b0b79f00c1b79f00d2b79f00e3b79f00e7
:104b5000000006001fb09700afb097003fb197006c
:104b6000cfb1970000000600881f780018002000d1
:104b7000881f78005dff07008f87e9004f047800e9
:104b800000000600801feb0058ff07008f87e90038
:104b900000000600889fbe008a9fbe008c1f780020
:104ba0000006eb00e00f5000e08f5800e00f5900c6
:104bb000e08f590007003d006044b8006055b80020
:104bc0000000540081805c0002015d0083815d0073
:104bd0001c002000e00f5200e08f5a00e00f5b0045
:104be000e08f5b0007003d006044b8006055b800ee
:104bf0000402540085825c0006035d0087835d002b
:104c00000c00a200b30007000203be000002be00b9
:104c1000e00f5600060032006000b8006011b800d6
:104c2000040250008582580006035900878359000a
:104c30000400be000601be004f0678004f05be000e
:104c40004f04be00000006000003be003cfe07004b
:104c50006220e100020032000600be0005000500ef
:104c6000e507b100f107b20004f023008480700072
:104c700007f0a70001f0a00024000500889fbe00f7
:104c80008a9fbe008c9fbe000404be000605be00c5
:104c9000809fbe00829fbe002f00070004067800a0
:104ca0000800be000a01be002b0007008406780041
:104cb0004f03be004f02be008d4f76007fb09700bd
:104cc00013003300f0ff2f008b8f6b0006003b00ba
:104cd0000d0666000c00a7000a00370007f0a600ca
:104ce000100020000a003700880f5200898f5a00f8
:104cf0008a0f5b008b8f5b000300390010002000df
:104d000001003e000000200007f0a7000000ea00bc
:104d10004f06be004f05be004f04be000000060057
:104d2000e48240001078a3000700320064024000d3
:104d30001178a3003400be001401be00040032004c
:104d40000330a700000006003500be001501be00bc
:104d50000330a0000000060005ff27000582610067
:104d6000070032000428e1000100320024000500a1
:104d70000600070001003a00440005000408050091
:104d800002000700f9ff3a00140005006f8261007d
:104d90008102700085027100850272000000060029
:104da000800078005002be005003be004439de008f
:104db000f700b200f37f2000030161000900320018
:104dc0000218e10016003a008501720083017300a9
:104dd000838173000008200015003a004000200085
:104de0001300370085017200830173008381730013
:104df00005003a0004a8be0006a8be00100020006e
:104e00000b0037000201e9000402420085824a00db
:104e100006034b0087834b000748a300f9ff3200cd
:104e20000740a00004a8be0006a8be002000200085
:104e30008000980092009800000006008100200089
:104e4000618055000b003d000b00200061fe2f002b
:104e50000100e1001d0034008281710061016400e5
:104e60008904d1000884d3000000e800faff3a006a
:104e70007100200061006400030070000200600007
:104e80000900320061044400e0844c000988a50058
:104e9000050032008b05e8006808e10002003a00d6
:104ea0008904d1000884d300f20f20000258e100e9
:104eb00005003d00c75ddd00f907b200898075007f
:104ec00008007800000006000bf827008b0078002f
:104ed00000000500889fbe008a9fbe008c9fbe0018
:104ee0000404b8000506b8008904460060854e0039
:104ef0000606b8000a054600e0854e000706b80021
:104f00008b054600040eb800890446000a854e0051
:104f1000e0854d00050eb8000a0546008b854e0061
:104f2000060eb8008b0546000416b8000a054600b8
:104f30008b854e000516b8008b054600041eb80090
:104f40008b0546000800be000a01be004f06be00e9
:0c4f50004f05be004f04be00000006002c
:020000040000fa
:104f5c00323000003a330000343a000030320000a6
:104f6c00004d000061790000202000003920000075
:104f7c00323000003133000000000000000000005f
:104f8c00ff00000000000000000000000000000016
:104f9c000000000000000000000000000000000005
:104fac0000000000000000000000000000000000f5
:104fbc0000000000000000000000000000000000e5
:104fcc0000000000000000000100000002000000d2
:104fdc0002000000000000000000000000000000c3
:104fec0000000000000000000000000000000000b5
:104ffc0000000000000000000000000000000000a5
:10500c000000000000000000000000000000000094
:10501c00000000000200000003000000000000007f
:10502c000000000000000000000000000000000074
:10503c000000000000000000000000000000000064
:10504c000000000000000000000000000000000054
:10505c000000000000000000000000000000000044
:10506c000300000007000000020000000200000026
:10507c000200000000000000000000000000000022
:10508c000000000000000000000000000000000014
:10509c000000000000000000000000000000000004
:1050ac0000000000000000000000000004000000f0
:1050bc0007000000020000000200000002000000d7
:1050cc0000000000000000000000000000000000d4
:1050dc0000000000000000000000000000000000c4
:1050ec0000000000000000000000000000000000b4
:1050fc000000000000000000050000000f00000090
:10510c00020000000200000002000000000000008d
:10511c000000000000000000000000000000000083
:10512c000000000000000000000000000000000073
:10513c000000000000000000000000000000000063
:10514c0000000000060000000f000000020000003c
:10515c00020000000200000000000000000000003f
:10516c000000000000000000000000000000000033
:10517c000000000000000000000000000000000023
:10518c000000000000000000000000000000000013
:10519c00070000000f0000000200000002000000e9
:1051ac0002000000000000000000000000000000f1
:1051bc0000000000000000000000000000000000e3
:1051cc0000000000000000000000000000000000d3
:1051dc0000000000000000000000000008000000bb
:1051ec000f0000000200000002000000020000009e
:1051fc0000000000000000000000000000000000a3
:10520c000000000000000000000000000000000092
:10521c000000000000000000000000000000000082
:10522c000000000000000000090000000d0000005c
:10523c000700000002000000010000000100000057
:10524c00010000000100000001000000010000004e
:10525c000000000000000000000000000000000042
:10526c000000000000000000000000000000000032
:10527c00000000000a0000000d0000000700000004
:10528c00020000000100000001000000010000000d
:10529c0001000000010000000100000000000000ff
:1052ac0000000000000000000000000000000000f2
:1052bc0000000000000000000000000000000000e2
:1052cc000b000000110000000200000001000000b3
:1052dc0001000000000000000000000000000000c1
:1052ec0000000000000000000000000000000000b2
:1052fc0000000000000000000000000000000000a2
:10530c000000000000000000000000000c00000085
:10531c00100000000200000001000000020000006c
:10532c000000000000000000000000000000000071
:10533c000000000000000000000000000000000061
:10534c000000000000000000000000000000000051
:10535c0000000000000000000d0000000200000032
:10536c000600000001000000010000000100000028
:10537c00010000000100000001000000000000001e
:10538c000000000000000000000000000000000011
:10539c000000000000000000000000000000000001
:1053ac00000000000e0000000800000002000000d9
:1053bc0001000000010000000000000000000000df
:1053cc0000000000000000000000000000000000d1
:1053dc0000000000000000000000000000000000c1
:1053ec0000000000000000000000000000000000b1
:1053fc000f0000000d00000007000000020000007c
:10540c00010000000100000001000000010000008c
:10541c00010000000100000000000000000000007e
:10542c000000000000000000000000000000000070
:10543c000000000000000000000000001000000050
:10544c000f0000000a000000020000000200000033
:10545c000200000002000000020000000200000038
:10546c000200000002000000020000000200000028
:10547c000000000000000000000000000000000020
:10548c000000000000000000110000000d000000f2
:10549c0007000000020000000100000001000000f5
:1054ac0001000000010000000100000001000000ec
:1054bc0000000000000000000000000000000000e0
:1054cc0000000000000000000000000000000000d0
:1054dc0000000000120000000f0000000a00000095
:1054ec0002000000020000000000000000000000ac
:1054fc0000000000000000000000000000000000a0
:10550c00000000000000000000000000000000008f
:10551c00000000000000000000000000000000007f
:10552c00130000000600000009000000010000004c
:10553c00010000000100000001000000010000005b
:10554c00010000000100000001000000010000004b
:10555c00000000000000000000000000000000003f
:10556c00000000000000000000000000140000001b
:10557c000600000004000000010000000100000013
:10558c00010000000100000000000000000000000d
:10559c0000000000000000000000000000000000ff
:1055ac0000000000000000000000000000000000ef
:1055bc0000000000000000001500000004000000c6
:1055cc0000000000000000000000000000000000cf
:1055dc0000000000000000000000000000000000bf
:1055ec0000000000000000000000000000000000af
:1055fc00000000000000000000000000000000009f
:10560c00000000001600000005000000070000006c
:10561c000200000002000000020000000100000077
:10562c00010000000100000001000000000000006b
:10563c00000000000000000000000000000000005e
:10564c00000000000000000000000000000000004e
:10565c001700000005000000070000000200000019
:10566c000200000002000000010000000100000028
:10567c00010000000100000000000000000000001c
:10568c00000000000000000000000000000000000e
:10569c0000000000000000000000000018000000e6
:1056ac0005000000070000000200000002000000de
:1056bc0002000000010000000100000001000000d9
:1056cc0001000000000000000000000000000000cd
:1056dc0000000000000000000000000000000000be
:1056ec000000000000000000190000000400000091
:1056fc000400000002000000020000000200000094
:10570c00020000000000000000000000000000008b
:10571c00000000000000000000000000000000007d
:10572c00000000000000000000000000000000006d
:10573c00000000001a00000004000000040000003b
:10574c000200000002000000020000000200000045
:10575c00000000000000000000000000000000003d
:10576c00000000000000000000000000000000002d
:10577c00000000000000000000000000000000001d
:10578c001b000000040000000100000004000000e9
:10579c0000000000000000000000000000000000fd
:1057ac0000000000000000000000000000000000ed
:1057bc0000000000000000000000000000000000dd
:1057cc000000000000000000000000001c000000b1
:1057dc0004000000040000000100000001000000b3
:1057ec0001000000010000000000000000000000ab
:1057fc00000000000000000000000000000000009d
:10580c00000000000000000000000000000000008c
:10581c0000000000000000001d000000040000005b
:10582c000500000002000000020000000200000061
:10583c000200000002000000000000000000000058
:10584c00000000000000000000000000000000004c
:10585c00000000000000000000000000000000003c
:10586c00000000001e0000000a0000000400000000
:10587c000100000001000000010000000100000018
:10588c00000000000000000000000000000000000c
:10589c0000000000000000000000000000000000fc
:1058ac0000000000000000000000000000000000ec
:1058bc001f0000000a0000000200000001000000b0
:1058cc0001000000000000000000000000000000cb
:1058dc0000000000000000000000000000000000bc
:1058ec0000000000000000000000000000000000ac
:1058fc00000000000000000000000000200000007c
:10590c000a00000000000000000000000000000081
:10591c00000000000000000000000000000000007b
:10592c00000000000000000000000000000000006b
:10593c00000000000000000000000000000000005b
:10594c000000000000000000210000000600000024
:10595c000100000002000000000000000000000038
:10596c00000000000000000000000000000000002b
:10597c00000000000000000000000000000000001b
:10598c00000000000000000000000000000000000b
:10599c0000000000220000000800000001000000d0
:1059ac0001000000000000000000000000000000ea
:1059bc0000000000000000000000000000000000db
:1059cc0000000000000000000000000000000000cb
:1059dc0000000000000000000000000000000000bb
:1059ec00230000000800000002000000000000007e
:1059fc00010000000000000000000000000000009a
:105a0c00000000000000000000000000000000008a
:105a1c00000000000000000000000000000000007a
:105a2c000000000000000000000000002400000046
:105a3c000a00000000000000000000000000000050
:105a4c00000000000000000000000000000000004a
:105a5c00000000000000000000000000000000003a
:105a6c00000000000000000000000000000000002a
:105a7c000000000000000000250000000a000000eb
:105a8c000200000001000000020000000000000005
:105a9c0000000000000000000000000000000000fa
:105aac0000000000000000000000000000000000ea
:105abc0000000000000000000000000000000000da
