:020000040000fa
:080000000002040000000000f2
:020000040000fa
:100008000007000000070000a80200000007000029
:1000180000070000000700000007000000070000bc
:1000280000070000000700000007000000070000ac
:10003800000700000007000000070000000700009c
:10004800000700000007000000070000000700008c
:10005800000700000007000000070000000700007c
:10006800000700000007000000070000000700006c
:10007800000700000007000000070000000700005c
:10008800000700000007000000070000000700004c
:10009800000700000007000000070000000700003c
:1000a800000700000007000000070000000700002c
:1000b800000700000007000000070000000700001c
:1000c800000700000007000000070000000700000c
:1000d80000070000000700000007000000070000fc
:1000e80000070000000700000007000000070000ec
:1000f80000070000000700000007000000070000dc
:1001080000070000000700000007000000070000cb
:1001180000070000000700000007000000070000bb
:1001280000070000000700000007000000070000ab
:10013800000700000007000000070000000700009b
:10014800000700000007000000070000000700008b
:10015800000700000007000000070000000700007b
:10016800000700000007000000070000000700006b
:10017800000700000007000000070000000700005b
:10018800000700000007000000070000000700004b
:10019800000700000007000000070000000700003b
:1001a800000700000007000000070000000700002b
:1001b800000700000007000000070000000700001b
:1001c800000700000007000000070000000700000b
:1001d80000070000000700000007000000070000fb
:1001e80000070000000700000007000000070000eb
:0801f8000007000000070000f1
:020000040000fa
:100208000007000000070000a80200000007000027
:1002180000070000000700000007000000070000ba
:1002280000070000000700000007000000070000aa
:10023800000700000007000000070000000700009a
:10024800000700000007000000070000000700008a
:10025800000700000007000000070000000700007a
:10026800000700000007000000070000000700006a
:10027800000700000007000000070000000700005a
:10028800000700000007000000070000000700004a
:10029800000700000007000000070000000700003a
:1002a800000700000007000000070000000700002a
:1002b800000700000007000000070000000700001a
:1002c800000700000007000000070000000700000a
:1002d80000070000000700000007000000070000fa
:1002e80000070000000700000007000000070000ea
:1002f80000070000000700000007000000070000da
:1003080000070000000700000007000000070000c9
:1003180000070000000700000007000000070000b9
:1003280000070000000700000007000000070000a9
:100338000007000000070000000700000007000099
:100348000007000000070000000700000007000089
:100358000007000000070000000700000007000079
:100368000007000000070000000700000007000069
:100378000007000000070000000700000007000059
:100388000007000000070000000700000007000049
:100398000007000000070000000700000007000039
:1003a8000007000000070000000700000007000029
:1003b8000007000000070000000700000007000019
:1003c8000007000000070000000700000007000009
:1003d80000070000000700000007000000070000f9
:1003e80000070000000700000007000000070000e9
:0803f8000007000000070000ef
:020000040000fa
:100400006f0a21000e7f24000e018800000000000a
:100410000c000700c052220001002000110007005c
:10042000000020000000e000020032000000020096
:100430000000000090050200000000000040da000b
:100440000000fe004440a900204e20000000e00013
:100450000300320000002000a00188004440a800f2
:100460000000060091018800800078000000eb0089
:1004700015003700e280400032a0b4009101ba00bc
:10048000e280400032a0b4009102ba00e280400055
:1004900032a0b4000002eb00472bde00f507b200eb
:1004a000602ce10004003a000059eb008301e900f0
:1004b000fdff3e00040037006128e100010032002a
:1004c0000082eb00040007001101ba000200e00006
:1004d000e8ff3a00000006003159ba008301e90044
:1004e0000c0032002159ba008301e90008003200f3
:1004f0000400e00003003a00e280400032a0b400b3
:10050000f5ff370011d9ba008301e900faff3a007c
:100510008100e800e180400032a0b4000000060045
:100520004824040000000000282804000000000007
:10053000d61d040000000000782704000000000021
:10054000b6260400000000000c2a04000000000091
:100550003600f800809fbe00829fbe00849fbe00d0
:10056000869fbe00cb130700508288000100240044
:10057000810f5000010036000000fe00900078005e
:10058000618288008180e9000040eb00c41307000d
:100590000040880011408800cc0ade004409dd00dc
:1005a0004c02de00040271000401780094408800cf
:1005b0008401d10083408800c221de00734088009e
:1005c000c321de0063408800c421de00b480200027
:1005d000034a78008381fb008301d100a4802000be
:1005e000034a78008301d10094802000034a7800f8
:1005f0008301d10084802000034a78008301d10068
:1006000074802000034a7800c40ade00cc09dd00b3
:100610004402de000482710067026200b440880078
:10062000cb0ade00c509dd004b02de00048271004a
:1006300067026200d440880043812000ef496000d7
:10064000c909dd004700de0000807100c708de0038
:1006500083812000ef49600000be2000800f510020
:1006600004003a000000eb00d0408800e04e290072
:1006700008130700a02f200071408000808f5000d9
:1006800004003a000000eb00b0408800d04f290081
:10069000001307008080200031c1b30090cf10000c
:1006a00006003a000000eb00b04088006000200027
:1006b000d0408800c0502900f6120700601d2000bd
:1006c00061408000808f500006003a004081200089
:1006d0000048eb000000eb00b0408800e05129002a
:1006e000ec12070080802000a2c0b300904f1100e0
:1006f0000c003a000000eb00b04088000040800091
:1007000011408000c209dd004e00de000080710053
:10071000ce08de00428120006f496000805229002f
:10072000dc12070080802000f1c0b30090cf1000e1
:1007300002003a00e0532900d61207001a08f80018
:100740001608f80080812000104078000080fb002f
:10075000801f780040812000104078000080fb005e
:10076000801f7800c0542900801f780000c6200038
:10077000c601070000c62000c6120700ea8757001e
:10078000b0408000e00f50000a003a00d0408000e6
:10079000e00f50000700320010c0b30041062100f6
:1007a0008048780061828000508280000188e900e2
:1007b00002003700400621000048eb004081200085
:1007c00010407800e64f500007003e000080fb001c
:1007d0000000400051828000010040003000900085
:1007e000e04088001f003700e74f500002003a0049
:1007f000e74088001b003700e84f500002003a0035
:10080000e840880017003700e94f500002003a0026
:10081000e940880013003700ea4f500002003a0018
:10082000ea4088000f003700eb4f500002003a000a
:10083000eb4088000b003700ec4f500002003a00fc
:10084000ec40880007003700ed4f500002003a00ee
:10085000ed40880003003700ee4f500001003a00e1
:10086000ee408800d0408000e00f50002a003200a7
:100870008081200010407800e64f500007003e00c5
:100880000080fb0000004000518280000100400019
:1008900030009000f04088001f003700e74f500004
:1008a00002003a00f74088001b003700e84f500074
:1008b00002003a00f840880017003700e94f500066
:1008c00002003a00f940880013003700ea4f500058
:1008d00002003a00fa4088000f003700eb4f50004a
:1008e00002003a00fb4088000b003700ec4f50003c
:1008f00002003a00fc40880007003700ed4f50002e
:1009000002003a00fd40880003003700ee4f50001f
:1009100001003a00fe408800400621000041eb0043
:10092000904f110004003200f0408000740e070068
:100930002040880003003700e0408000700e070070
:10094000204088001e08f8001c08f800400621001e
:10095000104078000080fb00801f7800004080007d
:1009600011408000809fbe0060572900801f7800e2
:1009700000c620004501070000c620004512070000
:100980008081200010407800ec875700e64f50002f
:1009900007003e000080fb00000040005182800004
:1009a0000100400021408000310098001f00370006
:1009b000e74f500002003a00274080001b0037003c
:1009c000e84f500002003a0028408000170037002e
:1009d000e94f500002003a00294080001300370020
:1009e000ea4f500002003a002a4080000f00370012
:1009f000eb4f500002003a002b4080000b00370004
:100a0000ec4f500002003a002c40800007003700f5
:100a1000ed4f500002003a002d40800003003700e7
:100a2000ee4f500001003a002e40800080812000ef
:100a3000104078000080fb00801f78000408f80058
:100a400070592900801f780000c620000f010700a0
:100a500000c620000f1207004a10f8004c10f800e2
:100a6000b0802000104078000080fb00801f7800dc
:100a7000e05a2900801f780000c62000030107000b
:100a800000c62000031207008060a900ee8757000f
:100a90004f03be004f02be004f01be004f00be001c
:100aa0003600f900004006000200fa000040eb00aa
:100ab000e0ff9f00f0ff9f00e0ff9f0070ccb300bd
:100ac000eff8970080cf500013003e008041eb000c
:100ad00031c6b30000417800f3ff9f007ff8970014
:100ae000814f500006003e007ff897000040e8006c
:100af000f0ff9f007ff89700814f5000faff36000b
:100b00006ff897000040e800e0ff9f006ff8970043
:100b1000824f5000f0ff36000080fa00000006000f
:100b20000200fa00889fbe002ca3ef00f8ef2f0010
:100b30000004fd00c822b6000004fd00f40e07000a
:100b40000040eb00690e0700ae110700805e29002f
:100b5000d011070000602900ce110700805e290037
:100b6000cc1107000004fd00ca22b6000004fd00fd
:100b70000040eb005d0e0700e00421005b0b070066
:100b80000040eb00590e0700cb02a800cd11070072
:100b90006a0d07000304200002c220008000eb0061
:100ba0000040eb00ca1107000040eb00b0ff9f00bf
:100bb000a0ff9f00f0c3b300aff8970080cf5000b4
:100bc00013003e0004c22000a30a200011c0b3009d
:100bd0002ff997000281fb00644179000281fb003c
:100be0002ffb97008682fb0085825100850f510004
:100bf00001003200b1ff9f002ff997000241e80089
:100c0000a2ff9f00affa970080cf5200f0ff36009e
:100c10003ff89700e04f500003003a008061290040
:100c20009c1107000200370040622900991107005b
:100c30000043eb00a6ff9f00f0c3b300aff897009e
:100c400080cf50000d003e0003c22000a1cab300b7
:100c50002ff997000282fb00affa970005c1500000
:100c600082717a002ffb97000643e800a6ff9f00e1
:100c70002ff99700804f5100f5ff36000304200044
:100c800002c220008000eb000040eb00a61107002c
:100c900008c2200009042000090178008000eb0050
:100ca00008007800720007000801be008000eb0019
:100cb0000040eb00861107008042eb00a5ff9f007b
:100cc000f0c3b3002ffb9700804f530014003e0089
:100cd00088047800a80a20002ff897000080fb0005
:100ce000694078000080fb002ff997008280fb00ac
:100cf00081005400810f500002003200006329007f
:100d000064110700affa97008542e800a5ff9f0035
:100d1000f0c3b3002ffb9700804f5300eeff360067
:100d20000040200001002000128480000089be00e5
:100d3000204d200021848000802898000040eb0096
:100d4000a0ff9f00f0c4b300aff8970080cf500021
:100d50001d003e0069632900a8cab300e0c2b300c9
:100d6000431107002084800000289000801f780035
:100d7000891f780000c620004400070000c620003c
:100d8000441107002084800080289000b107b00043
:100d9000012898006ff197008280fb00010040005d
:100da000eff29700054854006ff397000643e80000
:100db000e6f79f00e4875700f0c4b300aff8970050
:100dc00080cf5000e5ff3600100e210031848000f6
:100dd000802898002ff997000241e800a2ff9f00a9
:100de0003ff897000040e800b0ff9f003ff89700f1
:100df000affa970005405000a0ff9f00f5ff3700b5
:100e00000040da000000fe00e68747008e1f7800f1
:100e1000d0bf9f0066875700012f78000e00370073
:100e20005fba970014407800efb9970093407800bc
:100e30000201e900814f5000040032000080fb00f5
:100e40008180fb0001005000060037000402e8002a
:100e5000d4bf9f00030fe800e00f5100f0ff3a00fd
:100e6000020078004f0778006f00b1000000060014
:100e70008001780002003700815978000201e90002
:100e8000e00f5100fcff3a00000006000c00fa00e1
:100e9000889fbe0000047800f0ff2700d0bf9f00ad
:100ea0008004eb0099bf9f0088bf9f00a8bf9f00f0
:100eb000200c2000b0bf9f0078815700cfb0970072
:100ec00070805700070007000fb8970009487800a6
:100ed0008fb89700088050004f04be000080fa00d1
:100ee00000000600ef02b000889fbe008a9fbe008f
:100ef0008c9fbe008e1f7800b0b79f00a1af9f00ef
:100f000092b79f000000eb00a0b79f009d03370041
:100f1000afa897008100e800a1af9f0053c2b300c3
:100f2000834f510005003a000007eb0007c3b300f0
:100f300005c2b300b2c2b300130037003fb297003e
:100f4000b40190000304b200040032009401780060
:100f500082497800030ae800070037000201fb001d
:100f6000bfb09700020078009203070000017800ec
:100f7000e10f410083033200afb297008502e80021
:100f8000a5b79f007f0337008101780031437800c7
:100f9000d8c2b300884f53000900320005003c005e
:100fa000854f530008003200824f53000c003a0076
:100fb00007003700874f530009003a00060037004a
:100fc0000e30a000f0ff37000e00a000eeff37004b
:100fd0000e10a000ecff37000e20a000eaff370043
:100fe00062016700010032000e00a1006801670085
:100ff000010032000e20a1000601fb000203b10037
:10100000e90f51000c003e00030378000006eb00de
:101010006a66b9003600fb000003b1000c06400010
:10102000860178001600fb000003b100e90f5000b4
:10103000f7ff3600080037000006eb00a5c2b3003a
:10104000854f530004003a009fb49700490678008a
:1010500099b79f008301e8000005eb008ab79f0065
:10106000e5c2b30093cf120016003a000ee0a000d4
:10107000e4c25200d3cf1200030032000303780011
:101080000a007800080037009fb597004b007800f1
:101090009bb79f0080b79f008301e80009003700dd
:1010a0006a00b9000000410086017800b600fb002c
:1010b00002fd2f0001014100e90f5100f8ff360049
:1010c00080b79f0033437800a3af9f00c2c6b30030
:1010d000824f5300250032000f003c0037c6b3009a
:1010e000874f5300a500320004003c00e04f53003e
:1010f0002903320085c5b3000f00370045c6b30091
:10110000854f530017003200e5c24200854f53005f
:10111000bd003a001300370037c7b300874f5300b4
:101120001f00320007003c00f5c6b300854f530096
:10113000140032008542e800854f5300b2003a00a7
:101140001300370055c7b300854f5300b500320078
:10115000e3c24200854f5300ab003a00e6c79f0050
:101160000d003700e6c79f00b00037007000670031
:101170000101200001003200010028000107770072
:10118000d0ff3700e6c79f000e60a000a700370021
:10119000e6c79f000e50a0000e70a000a30037000d
:1011a000e6c79f009fb197004303780093b79f0065
:1011b000c6b79f00e00f530002003a00c5ff2000b1
:1011c000c5b79f00cfb397000003eb0001003700c5
:1011d0000603e80067407b00e04f5000fcff3a0048
:1011e000d6b79f000fb39700e00f53000500320001
:1011f000dfb39700870f5300020031000604780028
:10120000d8b79f005fb397000004eb00860f56002d
:101210000100360006045600680767002e003a00f9
:1012200009c2b300afb597003fb597000e00370075
:101230003a0090000004b200040032001a00780066
:1012400009487800000de800050037008a007800a2
:1012500000022000d7020700e10f40000100320029
:101260008b05e8000804e900e00f5400f0ff3a00a5
:10127000f5ff2f008b067800190037003c00900026
:101280000004b200090032009c01780008017800d7
:101290003240780080497800030ee80002047800ac
:1012a000e04f50000a003a001200370008017800b1
:1012b0003200fb00020478008c00780085bf9f009c
:1012c000bc0207008fba9700e10f4000090032000e
:1012d0008d06e8000700370088027800afb6970057
:1012e0004fb49700dfb497006fb59700ffb5970034
:1012f0003fb69700090178008204e900e00f510031
:10130000deff3a00adb79f0002027800c8b79f0029
:10131000d9b79f00eab79f00fbb79f00050478008c
:10132000840f57009702320009c2b3008d05780080
:101330003fb597000e0037003a0090000004b2005d
:10134000040032001a00780009487800000de80017
:10135000050037008a00780000022000950207008f
:10136000e10f4000010032008b05e8000804e900ad
:10137000e00f5400f0ff3a00810237009fb0970061
:101380004103780091b79f0006047800cfc4de00c7
:10139000090578008a057800c8af9f00d9af9f0083
:1013a000eaaf9f00fbaf9f004844de004848dd00e5
:1013b00008047000e8c79f00700367000a0032004d
:1013c000e04f540008003200e14f440006003200b4
:1013d000f8c79f008fd8970081cf9f002200200080
:1013e000d2b79f00040037008fd99700f3c79f0042
:1013f00014002000d4b79f0075fc2f0085824700a1
:10140000c5b79f0077ff3700e6c79f0066fc2f0037
:1014100006834700c6b79f0017002000d7b79f007c
:1014200070ff3700e6c79f000e0cb3000e00780077
:10143000000cb2003a003a00800f570005003d0052
:101440001fb097004005be004004be0090b79f004b
:101450000e00370070006700110032001fb19700c6
:101460004200be0092b79f0012029000cfa1de00a2
:101470000004be00830578000802be000303780064
:101480008b0378000605be000404be00c8b79f00a9
:10149000d9b79f00eab79f00fbb79f000b0037004a
:1014a0009fb497004902780099b79f000400780024
:1014b000cf80de000101780082017800c0b79f0074
:1014c000d1b79f00e2b79f00f3b79f004fb29700dc
:1014d000dfb297006fb39700ffb39700e00f5200a1
:1014e000e08f5a00e00f5b00e08f5b0031003d00b1
:1014f0003e00b3006044b8006055b80004025400d8
:1015000085825c0006035d0087835d00c4b79f0091
:10151000d5b79f00e6b79f00f7b79f0025003700bb
:10152000e00f570005003d001fb097004005be00ca
:101530004004be0090b79f000e00370070006700a7
:10154000110032001fb197004200be0092b79f0009
:1015500000047800010578008004eb0008027800a0
:101560008a02780009037800890378000605be0026
:101570000404be00c8b79f00d9b79f00eab79f0018
:10158000fbb79f000b0037009fb49700490278001b
:1015900099b79f000400780001002000020020009d
:1015a00003002000c0b79f00d1b79f00e2b79f00a3
:1015b000f3b79f008fb09700e08f50000d003a0006
:1015c0001200200082b79f004fb29700dfb2970051
:1015d0006fb39700ffb39700e00f5200e08f5a00ff
:1015e000e00f5b00e08f5b00020032008002eb0046
:1015f00085b79f000e037800060cb200c6af9f00af
:1016000006042000cfab9700868f530035003200d0
:1016100003003c00e08f53004a003a000700370007
:10162000060820004fac9700860f540015003200ca
:10163000060c2000860f540042003a00e3e420002c
:1016400016c0b300030278003400be003401be00af
:101650004fb49700dfb497006fb59700ffb59700c0
:101660000040e10001c8e10002d0e10003d8e10040
:10167000330039000643e800f44f5300f2ff3a000c
:101680002f00370016c0b300080120000900200019
:101690006055b8004fb09700dfb097006fb197006a
:1016a000ffb197000800e1000988e1000a90e1001d
:1016b0000b98e10022003900410020000804d0000e
:1016c0008984d2000a85d2008b85d2008100e9008e
:1016d000faff3a000643e800f04f5300edff3a00ee
:1016e0001700370016c0b300880020000900200052
:1016f0006055b8004fb09700dfb097006fb197000a
:10170000ffb197000800e1000988e1000a90e100bc
:101710000b98e1000a003900310020000804d000d5
:101720008984d2000a85d2008b85d2008100e9002d
:10173000faff3a000643e800f54f5300edff3a0088
:10174000e6c79f006fc197000203fb008fb19700af
:10175000830f530002003d00e3c79f0004003700e1
:101760000fb29700860f520001003d0086b79f0020
:10177000e00f5600030032006303670001003200ef
:101780000c06e9000600240006036700060032008c
:101790008fb29700850f56000200340005065600f0
:1017a000010037000006eb00efc397000703fb00c2
:1017b0000004eb00b8af9f00860f56000200340013
:1017c00006035600b6af9f00e40267004c003200eb
:1017d000e2026700e1036700e08f52001b00320065
:1017e000bfb49700b90290000504b20009003200ae
:1017f00019037800b5c2b300e08f53000100320036
:1018000085c2e800054b78003fb59700060de8005b
:101810000a003700b6022000858f53000100320015
:101820000683e800bfb0970006007800610107005a
:1018300080027800e18f420018003200afb59700b7
:101840008b05e800abb79f0014003700858f53006d
:10185000120032003fb09700b00290000504b200c1
:10186000050032001003780005c2b300054b780074
:101870000608e80006003700bfb09700000220000d
:101880004c01070080027800e18f42000300320023
:10189000afb097008100e800a1b79f003fa9970073
:1018a000e00f51006300320008c3b3000205780066
:1018b000afb59700bfb49700390090000004b200a4
:1018c000040032001900780008487800800ce80015
:1018d000050037008900780000032000350107006b
:1018e000e10f4000010032008b05e8000a05e90025
:1018f000f1ff3a00baaf9f00abb79f004d00370031
:10190000bfa99700858f510017003200e8026700d9
:1019100015003a0008c2b30003057800afb5970080
:10192000bfb49700390090000004b20004003200f8
:101930001900780008487800800ce800050037009e
:1019400089007800000220001a010700e10f400022
:10195000010032008b05e8000a05e900f1ff3a00ba
:10196000baaf9f00abb79f00e2026700e1036700d8
:10197000e08f52001b0032003fb29700b40290008b
:101980000504b2000900320014037800b5c2b300a8
:10199000e08f53000100320085c2e800054b78005b
:1019a000bfb29700860ae8000a003700b60220009e
:1019b000858f5300010032000683e800bfb0970016
:1019c00006007800fb00070080027800e18f4200eb
:1019d000180032002fb397000603e800a6b79f0057
:1019e00014003700858f530012003200bfb39700f8
:1019f000b70290000504b20005003200170378001a
:101a000005c2b300054b7800860be80006003700de
:101a1000bfb0970000022000e600070080027800b7
:101a2000e18f4200030032002fb497000804e80061
:101a3000a8b79f008fb497008902e900422ddd000e
:101a40009aaf9f00632bb900860578008baf9f008b
:101a5000c32bdd0065e42000858243007000670031
:101a6000e0a79f008e0078000102b200d1a79f007e
:101a70000e017800f2a79f0005077800a20037004a
:101a80008fb197008301e90083b79f004faa9700a9
:101a900005042000850f52007100320003003c0055
:101aa000e00f52007d003a000700370000082000d8
:101ab0004fab9700800f530055003200000c200000
:101ac000800f530075003a00ffa39700e08f53008a
:101ad0001f003d003e02be002e03be004fb0970027
:101ae000dfb097006fb19700ffb197003902070090
:101af00000047800e8c79f000804fb00cfc4de00a4
:101b0000090578008a0578003e02be002e03be005b
:101b10000800be000a01be00aa0207004fb49700e9
:101b2000dfb497006fb59700ffb59700000454002d
:101b300081845c0002055d0083855d00c8b79f005d
:101b4000d9b79f00eab79f00fbb79f002c00370072
:101b5000efa49700e08f54001c0032004fb69700ae
:101b6000dfb697003e04be002e05be000801be0091
:101b70000c00be0044010700e0c79f000000fb000e
:101b8000cf80de000801be004f01070000005600b4
:101b900081805e0080037800010378000002eb0082
:101ba000070078008600780004017800840178003e
:101bb0000203be000002be00c4b79f00d5b79f005d
:101bc000e6b79f00f7b79f000d0037009e01780031
:101bd000cfb29700811f7800110009008382d800de
:101be000cf007800a2002000811f780011000900ba
:101bf0000280d80001007800cf007800e0c79f0085
:101c00006fc397000643b000e6c79f00230037006c
:101c1000b4fe2000dfa39700e08f530001003200e4
:101c2000a4fd20004fb09700dfb097006fb1970080
:101c3000ffb197001fac97000804e90005003300ce
:101c40008301d1000281d3008180d3000080d300c2
:101c5000f9ff37006f006000644078000e00370025
:101c60004fb09700dfb097006fb19700ffb19700ba
:101c70008fac97008904e900050033008301d1008f
:101c80000281d3008180d3000080d300f9ff3700a8
:101c9000674060000043b000e0c79f003fb5970079
:101ca0003a0090000004b200070032001a017800e8
:101cb0006fc0970000497800020de800e04f500027
:101cc00007003a0009003700efc597000b00fb0042
:101cd000bfb0970037000700e10f4000030032005b
:101ce0002fb097000000e800a0b79f009fa89700c2
:101cf000e480500091af9f000fa99700630151004d
:101d000082af9f00680757008fb19700e08f5100a6
:101d10005bff3a007fa79700e80167000fb29700ca
:101d2000848f510017003200bfaa9700e08f520045
:101d30001400340008c2b30005057800afb5970061
:101d4000bfb49700390090000004b20004003200d4
:101d50001900780008487800800ce800050037007a
:101d6000890078000002200012000700e10f400007
:101d7000010032008b05e8000a05e900f1ff3a0096
:101d8000abb79f002fab970016417800e2c79f00ca
:101d9000e04f51005efc3a002fb097004f077800eb
:101da0004f06be004f05be004f04be00ef02b1005b
:101db00000000600889fbe0001047800b800900073
:101dc000628160008084eb003c0032008101780079
:101dd0000320b2001801900002003a00830f510066
:101de00036003a000190a000310498008004780089
:101df000f90fb200e00f510002003a0028009000f5
:101e0000000c7800ea8f540006003a0001007800c8
:101e10000008b20003003a0088007800d0002000db
:101e2000e4ff070018009000d8009000810f5000d8
:101e30000b0032000000e800100498001800780041
:101e400009487800000ce80010c0b30061092100c7
:101e500080487800ea8f540018003a0005003700e7
:101e60008800780009407800170007008004780097
:101e700012003700380090000010b2000f0032004e
:101e800018019000a8009000480090004f00070043
:101e900098009000810f500004003200380090003c
:101ea0000003b300300498008084eb000000eb00d6
:101eb0001004980028009000000c780009007800b9
:101ec0004f04be00000006000200fa00889fbe001a
:101ed000a0ff9f0001047800380090000001780006
:101ee0000204b20034003a00e2006000828f500029
:101ef00005003a000003b300300498001104980074
:101f00000080eb002e003700d8049000e08f5400d2
:101f100006003a0012002000e680570048009000ba
:101f20002a0007001904980023003700a800900039
:101f3000e08f500008003a00910921002104980028
:101f4000010c780021002000510498001104980031
:101f50000030a0003004980018019000a800900004
:101f60004800900019000700280090008080eb00d6
:101f700011049800aff8970001487800000ce800c1
:101f80002ff89700ea4f50000b003a0038009000fd
:101f90000010b2000800320018019000a800900064
:101fa00048009000090007000000eb0010049800b2
:101fb000a8009000010c7800aff897000100fb002a
:101fc0004f04be000080fa00000006000a00fa007c
:101fd000e20f500021003e0020858000e10f5000fc
:101fe0000600320085232000442320002323200004
:101ff00000232000e08f520004003a0085222000d8
:102000004422200023222000002220000600280075
:102010009003630002003a00870a780010087300fa
:10202000004020001300600001003a0013a0a0004f
:102030000200780006003700930278000510b20015
:10204000fdff3200b102fb00050a78000000e90044
:10205000e00f5000f8ff3a0008003700330020007e
:10206000b3bf9f00c0bf9f00d1bf9f00e2bf9f00d2
:102070006a80570000c0da006fb99700020078004c
:102080000080fa00000006006022b800060220006e
:102090000000d0008180d2000482d2008582d2006c
:1020a0000000a0000202520083825a0003003100a7
:1020b0000202420083824a000000a1000603e900f8
:1020c000f3ff3a0000000600020ab900001bb90045
:1020d0000200b800810042008100430000000600b9
:1020e0000800fa00889fbe008a9fbe0084bf9f0040
:1020f00095bf9f00a6bf9f00b7bf9f003004be00e2
:102100002005be000fba97009fba97002fbb97001b
:10211000bfbb97000404440085844c0006054d00b5
:1021200087854d000898be000a90be000440e1007b
:1021300005c8e10006d0e10007d8e1000200310047
:10214000680040001008e8004f05be004f04be00c4
:102150000080fa0000000600fe874700889fbe004e
:102160008a9fbe008c9fbe008e1f7800d0b79f0054
:10217000e1b79f00f2b79f0083bf9f0084b79f0025
:1021800095b79f00a6b79f00b7b79f008000eb00f0
:10219000f1af9f00e1af9f00d1af9f00c1af9f00a3
:1021a000b1af9f00010678000d042000ccb79f005e
:1021b0000605be000404be007fae97006faf970017
:1021c0005fa89700e00f56000f003d00cf71de00c2
:1021d0000c01460002817100f2af9f005d00070014
:1021e0004f20de0081804000810070006400070005
:1021f0000802be000a03be0060fd2f000f00400071
:10220000b7ff07001d003700520007004f21de0016
:102210008180400081007100590007003faa9700ab
:10222000cfaa97005fab9700efab97000800520072
:1022300089805a000a015b008b815b00b0af9f0070
:10224000c1af9f00d2af9f00e3af9f004f70de0091
:102250000c01460002007000130020000820e1007d
:1022600009a8e1000ab0e1000bb8e1000100390063
:102270008001eb0003005000f0af9f007fae97009d
:10228000e00f56000f003500100020000100200074
:102290006011b8005fb29700efb297007fb397006c
:1022a0008fbb9700040270008582700006037100e6
:1022b00087837100d4b79f00e5b79f00f6b79f00f2
:1022c00087bf9f00cfb297008502e800c5b79f0087
:1022d0008d8f5200b8ff3a000c017800e00f5100da
:1022e00007003d000fb297009fb297002fb39700f1
:1022f000bfb3970060fd2f000f00400078ff07007c
:10230000ffa09700e08f500008003a003fac970014
:10231000cfac97005fad9700efad9700d8b79f00a7
:10232000e9b79f00fab79f008bbf9f005fb097008f
:10233000efb097007fb197008fb997004f077800f3
:102340004f06be004f05be004f04be00ef01b100b6
:10235000000006004f01de008e0047008100710082
:10236000c1af9f00afa897004f09de0000004000fa
:1023700000007100b0af9f001faa97000000060088
:10238000a1af9f000e0007004f18de0004024200bc
:102390000002720094af9f00090007000000400097
:1023a000818048000201490083814900b0b79f0045
:1023b000c1b79f00d2b79f00e3b79f00000006009f
:1023c0001fb09700afb097003fb19700cfb1970013
:1023d00000000600881f780018002000881f780081
:1023e0005dff07008f87e9004f04780000000600ba
:1023f000801feb0058ff07008f87e90000000600f0
:10240000889fbe008a9fbe008c1f78006044b80081
:102410006055b8000800e1000988e1000a90e10079
:102420000b98e1000d003d000000540081805c002d
:1024300002015d0083815d001c0020000820e10096
:1024400009a8e1000ab0e1000bb8e1000b003d0073
:10245000210007000006eb00080037000006eb0033
:10246000e00f5200e08f5a00e00f5b00e08f5b004e
:1024700002003d00180007001c002000d5ff0700e7
:102480008005780001057800820478000304780054
:102490000b0278008a02780009037800880378002c
:1024a000e00f5600060032006000b8006011b8006e
:1024b00004025000858258000603590087835900a2
:1024c0000400be000601be004f0678004f05be00a6
:1024d0004f04be00000006000402540085825c0028
:1024e00006035d0087835d0000000600889fbe0034
:1024f0008a9fbe008c1f78006044b8006055b80009
:102500000800e1000988e1000a90e1000b98e10071
:102510000b003d000000540081805c0002015d0062
:1025200083815d001c0020000820e10009a8e10073
:102530000ab0e1000bb8e1000b003d0006003700d7
:102540000006eb00e00f5200e08f5a00e00f5b0046
:10255000e08f5b0004003d000402540085825c00b3
:1025600006035d0087835d00a1ff070080057800fa
:102570000105780082047800030478000b027800db
:102580008a0278000903780088037800e00f56007b
:10259000060032006000b8006011b800040250006c
:1025a0008582580006035900878359000400be0045
:1025b0000601be004f0678004f05be004f04be0066
:1025c00000000600889fbe008a9fbe008c1f780016
:1025d0000006eb00e00f5000e08f5800e00f5900bc
:1025e000e08f590007003d006044b8006055b80016
:1025f0000000540081805c0002015d0083815d0069
:102600001c002000e00f5200e08f5a00e00f5b003a
:10261000e08f5b0007003d006044b8006055b800e3
:102620000402540085825c0006035d0087835d0020
:102630000c00a200100007000203be000002be0052
:10264000e00f5600060032006000b8006011b800cc
:102650000402500085825800060359008783590000
:102660000400be000601be004f0678004f05be0004
:102670004f04be0000000600889fbe008a9fbe0077
:102680008c9fbe000404b8000506b800890446000b
:1026900060854e000606b8000a054600e0854e003b
:1026a0000706b8008b054600040eb80089044600f2
:1026b0000a854e00e0854d00050eb8000a0546006b
:1026c0008b854e00060eb8008b0546000416b80038
:1026d0000a0546008b854e000516b8008b0546009e
:1026e000041eb8008b0546000800be000a01be00ab
:1026f0004f06be004f05be004f04be00000006009e
:020000040000fa
:102700004020000025300000345800002c2000003c
:10271000667200006565000020250000303400006e
:10272000582c0000206e0000657800007420000026
:1027300025300000345800000d0a00000041000060
:102740006c6c00006f63000061740000696e000033
:10275000672000006d6500006d6f00007279000059
:1027600020410000204000002025000030340000ff
:1027700058200000666f0000722000002530000025
:102780003258000020620000797400006573000078
:102790000d0a0000004100006c6c00006f63000037
:1027a00061740000696e0000672000006d65000024
:1027b0006d6f000072790000204200002040000090
:1027c000202500003034000058200000666f000013
:1027d0007220000025300000325800002062000006
:1027e00079740000657300002c200000746f0000f5
:1027f000746100006c200000253000003258000099
:102800002c2000006e650000787400002025000078
:1028100030340000580d00000a000000466100003e
:10282000696c000065640000207400006f200000e7
:10283000616c00006c6f0000636100007465000053
:102840000d0a000000410000636300006573000092
:10285000736900006e67000020250000303400001e
:10286000582c0000204900004420000025300000c2
:10287000325800002c2000006973000056610000ef
:1028800072200000256400000d0a000000450000d1
:102890006e7400007279000020730000697a0000f5
:1028a0006520000025300000345800002c20000076
:1028b000697300004172000072610000792000001d
:1028c000256400002c2000000d0a000000480000d4
:1028d0006561000070200000616e0000642000004f
:1028e00070610000796c00006f61000064200000de
:1028f000776900006c6c0000206e000065760000b7
:102900006572000020660000697400000d0a000076
:102910000041000074740000656d000070740000d8
:10292000696e000067200000746f000020610000e5
:102930006c6c00006f630000617400006520000093
:102940006d6500006d6f0000727900002e2e000092
:102950000d0a0000004300006f7500006c64000069
:10296000206e00006f740000206100006c6c00009d
:102970006f63000061740000652000006d65000059
:102980006d6f0000727900002c2000006e65000061
:1029900065640000207400006f2000006672000073
:1029a000656500000d0a00000000000082100000b4
:1029b000040000000000000084100000520000002d
:1029c000000000008610000052000000000000001f
:1029d0008810000000020000010000004d4f0000c0
:1029e000562e0000442000005b5700005d2c0000c4
:1029f000205700000d0a0000004d00004f56000057
:102a00002e440000205700002c2000005b570000df
:102a10005d0d00000a0000004d4f00005620000030
:102a2000572c0000205b0000572b0000307800007e
:102a3000535300005d0d00000a000000434c0000ed
:102a4000522000005b5700005d0d00000a000000ee
:102a50005355000042200000576200002c20000067
:102a6000236c000069740000352c0000205b00001e
:102a7000576400005d0d00000a0000004d4f00008b
:102a800056200000572c0000205b0000572b000050
:102a90005d0d00000a000000494e00005354000084
:102aa000205300005243000020250000642c000049
:102ab0002044000053540000202500006420000042
:102ac0007c7c0000202800004d4f000056200000b4
:102ad0007b250000647d00002c2000007b25000089
:102ae000647d0000290d00000a000000256c000034
:102af000752c0000205700005220000025640000c3
:102b00002c2000005352000043200000253000001c
:102b1000345800002c2000004453000054200000d2
:102b200025300000345800000d0a00000057000056
:102b300052490000544500002025000030340000b8
:102b400058200000667200006f6d00002025000014
:102b500030320000640d00000a00000065720000c1
:102b60007220000040200000696400002025000061
:102b7000303200005820000070720000672500000d
:102b80003034000058200000402000007374000022
:102b90006b20000025300000345800000d0a0000b2
:102ba0002a2a00002a2a00002a2a00002a2a0000d5
:102bb0002a2a00002a2a00002a2a00002a2a0000c5
:102bc0002a2a00002a2a00002a0d00000a0000001c
:102bd0002a2a00002a2a00002a2a00002a2a0000a5
:102be0002a2a00002a2a00002a2a00002a2a000095
:102bf0002a2a00002a2a00002a0d00000a000000ec
:102c00002a2000002a200000454e00004332000028
:102c1000384a00003630000020640000656d000076
:102c20006f2000002a2000002a0d00000a0000008a
:102c300057610000726d0000206200006f6f00009d
:102c4000740d00000a000000436f00006c64000077
:102c5000206200006f6f0000740d00000a00000089
:102c600065720000720d00000a00000025300000af
:102c7000345800000d0a0000000000005b690000ed
:102c800070760000345d000020520000656700008f
:102c90006973000074650000726900006e670000cf
:102ca00020680000616e0000646c00006572000026
:102cb00020250000640d00000a0000005b69000090
:102cc00070760000345d00002052000058200000a3
:102cd00050610000636b0000657400002025000057
:102ce000642000006279000074650000732c00000d
:102cf00020700000726f0000746f0000636f0000ae
:102d00006c20000025300000325800002c2000000c
:102d10006c6500006e6700007468000020250000ec
:102d200030320000582c00002043000052430000c5
:102d30002025000030340000582c000020730000d3
:102d40007263000020250000642e0000256400004e
:102d50002e250000642e0000256400000d0a0000ee
:102d6000005b000069700000763400005d20000008
:102d70005458000020500000616300006b650000a3
:102d800074200000256400002062000079740000b7
:102d9000657300002c200000707200006f7400004a
:102da0006f6300006f6c00002025000030320000cf
:102db000582c0000206c0000656e00006774000055
:102dc0006820000025300000325800002c20000050
:102dd000435200004320000025300000345800001a
:102de0002c200000647300007420000025640000a3
:102df0002e250000642e0000256400002e25000012
:102e0000640d00000a000000436f0000756c0000b4
:102e1000646e0000277400002072000065670000e7
:102e200069730000746500007220000041520000c8
:102e300050200000686100006e6400006c650000b6
:102e4000720000005b610000727000005d200000f5
:102e500000720000657000006c7900000020000026
:102e60006f6b0000002000002a2a00002a200000ca
:102e700046410000494c0000202a00002a2a000098
:102e800000770000686f00002d680000617300008b
:102e900020000000256400002e250000642e0000a4
:102ea000256400002e25000064000000726500000b
:102eb000706c00006965000064000000647500002b
:102ec0006e6e00006f0000000d0a000000ff0000a1
:102ed000ffff0000ffff0000ff00000000000000f7
:102ee00000000000000000005b750000647000003e
:102ef0005d20000052580000207000006163000057
:102f00006b6500007420000040200000706f00001e
:102f10007274000020250000642f0000256400006a
:102f20002c200000637200006320000025300000a8
:102f300034580000206c0000656e000067740000cb
:102f40006820000025300000325800000d0a000003
:102f5000005b000075640000705d000020540000fc
:102f60005820000070610000636b00006574000071
:102f700020400000207000006f72000074200000ec
:102f8000256400002f250000642c00002063000051
:102f9000726300002025000030340000582000003b
:102fa0006c6500006e67000074680000202500005a
:102fb00030320000582f0000253000003258000049
:102fc0000d0a0000000000005b7400006370000048
:102fd0005d20000052580000207000006163000076
:102fe0006b6500007420000040200000706f00003e
:102ff0007274000020250000642f0000256400008a
:103000002c200000637200006320000025300000c7
:1030100034580000206c0000656e000067740000ea
:103020006820000025300000325800000d0a000022
:10303000000000005b6e0000747000005d20000066
:1030400025300000313600006c750000202500009e
:1030500030310000366c0000750d00000a000000e1
:103060005b6e0000747000005d200000736900005a
:103070007a6500006f6600002025000064000000f3
:103080005b690000636d0000705d0000205000006f
:10309000696e000067200000706f00006e6700001e
:1030a0002c200000736900007a6500006f66000044
:1030b0003a20000025300000325800000d0a0000c0
:0430c000000000000c
:020000040000fa
:1030c400881f780001447800d2c2a9007f406000c4
:1030d4000064a000fc04070008407800fa0407001c
:1030e400d2c2a8004f04780000000600881f7800b0
:1030f40001447800d2c2a9007f4060000074a0009f
:10310400f104070008407800ef040700d2c2a800c9
:103114004f04780000000600881f780001447800fe
:10312400d2c2a9007f40600001cab3000140700010
:10313400e504070008407800e3040700d2c2a800b1
:103144004f04780000000600881f7800010478000e
:10315400d2c2a9007f4060000064a000da04070026
:1031640008407800d80407004840de00d604070071
:10317400d2c2a8004f04780000000600d2c2a90001
:103184007f406000d0040700c8040700d2c2a80032
:1031940000000600d2c2a9007f406000ca040700f4
:1031a4000040eb00c8040700c0040700d2c2a80016
:1031b40000000600889fbe000044780008407800a4
:1031c400eeff07008084fb000840e800ebff0700e7
:1031d4004800dd00090070004f04be000000060036
:1031e400881f780000447800c0d620008040eb009f
:1031f40090cf100006003200d2c2a900f0cbb30079
:10320400b104070030c0b300af040700d2c2a80065
:103214004540de0063006000c1d62000804878008d
:10322400e04f500007003200d2c2a900f0c9b30039
:10323400a5040700c0d6200010407800a2040700af
:10324400d2c2a8004f04780000000600889fbe0088
:103254008104780002047800d2c2a900a0c7b30098
:1032640099040700080178008000eb000900780049
:10327400dc040700d2c2a8004f04be000000060010
:10328400881f78000044780008407800e04f54001c
:10329400080035004501de0063016100c1d620004d
:1032a400914078008180fb00810f510001003200c1
:1032b400cbff070008407800b0ff07004f047800f8
:1032c40000000600881f7800004478000840780059
:1032d400e04f5400080035004501de006301610041
:1032e400c1d62000914078008180fb00810f5100fd
:1032f40001003200baff070008407800adff070064
:103304004f04780000000600889fbe000044780047
:103314008144780008407800e04f540008003500ec
:103324004501de0063016100c1d6200091407800b0
:103334008180fb00810f510001003200a8ff0700cb
:1033440089407800084078005dff07004f04be0004
:1033540000000600889fbe00004478008144780085
:1033640008407800e04f5400080035004501de00b5
:1033740063016100c1d62000914078008180fb0088
:10338400810f51000100320095ff07008940780049
:103394000840780055ff07004f04be0000000600f7
:1033a400889fbe000044780081447800084078007b
:1033b400e04f5400080035004501de006301610060
:1033c400c1d62000914078008180fb00810f51001c
:1033d4000100320082ff070089407800084078002d
:1033e4004dff07004f04be0000000600889fbe008a
:1033f400004478008104780008407800e04f5400cd
:10340400080035004501de0063016100c1d62000db
:10341400914078008180fb00810f5100010032004f
:103424006fff0700894078000840780024ff0700f8
:10343400c848de000840e80021ff07004f04be0032
:1034440000000600889fbe00010478008204780012
:10345400800078000040eb00e4ff0700d2c2a9001e
:10346400a0c3b3001804070009017800880078009d
:103474000000eb005b040700d2c2a8004f04be00aa
:1034840000000600881f780001047800804078005e
:1034940040c5b3009cff07008800780060c5b300f6
:1034a400d2ff07004f04780000000600889fbe008a
:1034b4008040780040c5b30093ff070011c0b300fb
:1034c40020c5b300a3ff0700a8c6b3008004eb0027
:1034d400084078002fff070061006000890f50004a
:1034e400fbff3a0011c0b30020c5b300acff0700d6
:1034f400d2c2a90080c1b300f30307000040eb006f
:10350400f1030700e90307000084fb00d2c2a8000e
:10351400d2c2a90090c1b300eb0307000040eb0046
:10352400e9030700e1030700d2c2a8004800dd0058
:10353400080070004f04be00000006000200fa00fc
:10354400889fbe008a9fbe00800578000105780030
:103554000040eb00e0f79f00f8c9b3008004eb00e3
:103564000800370081c0b3000840780079ff0700e5
:1035740081c0b3000840780089ff0700e0c2b300af
:103584003a070700084078003dff0700e8016000a3
:10359400898f5100f3ff3a000100210020c0b300dd
:1035a40092ff07000800210088014500830078008d
:1035b40060c0b3008dff070010c0b300ca0307004a
:1035c40012002000ea805700080078001fff07005f
:1035d4000a0178008b007800100021001bff07000f
:1035e4000040eb00c0030700a1c0b300c0c9b30092
:1035f4006bff070081c0b300f0c9b30055ff07009b
:10360400c8c9b3008004eb00084078001cff070021
:1036140068006000890f5000fbff32004f05be00b8
:103624004f04be000080fa00000006000600fa0005
:103634001001be00d2bf9f00e3bf9f00a001900015
:10364400f3bf9f00660140001202be000488be0062
:10365400d0029000250098005fba9700efba970057
:103664000489be008302780055009800ee80400073
:10367400b2ff07000080fa0000000600c0c9b300d2
:10368400fffe0700800078000104b20010c0b30000
:1036940001003a000040eb000000060090c3b300b4
:1036a400f7fe0700000006000800fa00889fbe002d
:1036b4008a9fbe0080057800f8ff070011c0b300a0
:1036c400e1f79f00e04f5000400032008b84e80097
:1036d400416b80000040eb0044ff070062002000c3
:1036e400f0805700406b800056ff07001ff49700de
:1036f4004844dd000ff097000081fb0002047400d1
:10370400aff197003ff197004ff29700700262000b
:1037140018003a004811dd008381fb0003017100a9
:103724000281e900406b8000640040008b00780057
:1037340044ff070069019000c811dd004811de0054
:1037440002817100e20498000045eb00eaf79f0053
:10375400ea80570009007800130107006ff1970011
:103764008a4f510003003a00ea80570009007800ac
:1037740046040700486b880080c0b300d1fe0700f0
:10378400426b80008081fb00828f510006003a006a
:10379400a0c0b300cbfe07008080fb00c0c0b30014
:1037a40012ff0700030037008200e900c0c0b30025
:1037b4000eff070001c4b300e0c9b300e5fe070033
:1037c400b6ff0700e04f5000c1ff3a004f05be00ae
:1037d4004f04be000080fa000000060000017800db
:1037e40000d620008040eb0090cf1000060032008d
:1037f400c04090000040eb0080cf500009003a0028
:1038040011002000010037008000eb00c208dd0039
:1038140000d620008100400010c0b300804878002a
:103824009200980000000600116b8000808f500009
:1038340002003a0001d620008048eb00316b800082
:10384400808f500003003a000040eb0001d62000b6
:10385400c0409800000006000200fa00881f7800ab
:10386400000478000040eb00c0ff9f0000d6200059
:1038740011c0b30090cf100007003a00e480570055
:1038840008007800126b8000020001004ff89700d6
:10389400e04f500008003a0000d62000c0409000dd
:1038a400e1cf500004003a00e4805700080078009b
:1038b400326b8000020001004f0478000080fa009f
:1038c4000000060000202000ca22b700cb22a90075
:1038d400ca22b700d2c2a90000c0eb003f03070010
:1038e400d2c2a80000000600889fbe008a1f78008c
:1038f40000047800d2c2a800586b880000d62000cb
:103904000008eb00efff070020c0b300e7fe07004c
:1039140030c0b300e5fe070020c7b30058fe07001f
:1039240001c4b300e0c9b3008afe0700d9c9b300db
:103934000005eb000940780051fe070061006000bb
:103944008a0f5000fbff3200217a200040c1b300ef
:10395400ccfe07008000eb0080c0b300a3fe07008c
:10396400f1ff2000a0c0b300a0fe07008000eb0020
:10397400c0c0b3009dfe07000100210040c0b30099
:103984009afe0700f1ff210060c0b30097fe070014
:10399400d1c0b30000c4b3005bfe070061cfb30025
:1039a40020c4b30058fe070001c4b30030c4b30000
:1039b40055fe0700e15e2000a0c4b3008bfe0700a3
:1039c40021c1b30040c4b3004ffe070021c1200051
:1039d40060c4b30085fe07009840780040c6b30079
:1039e40049fe07009840900050c6b30046fe070009
:1039f400a840900020c6b30043fe0700b8409000e2
:103a040030c6b30040fe0700c840900000c6b300b3
:103a14003dfe0700d840900010c6b3003afe0700f0
:103a24000110200000c1b30096fe070041c0b3009e
:103a3400f0c9b30047fe07004f0578004f04be00ed
:103a44000000060060dd210064ff07000040eb0079
:103a54006107210080487800e480400080487800b5
:103a6400e4804000804878000000060061072100df
:103a74000041eb00914f11000e003200e480400041
:103a8400914f11000800320031c0b300e207210059
:103a94008041eb0092cf11000e003a0021c0b30028
:103aa400220020000500370011c0b30012002000de
:103ab400020037000001eb00824078004211dd0073
:103ac400630721000281410013c0b3000349780059
:103ad40010019800e39f6000e0632900801f7800d4
:103ae40000c62000e8f4070000c62000e80507002f
:103af400e487570000000600c1838000808f5000d7
:103b040002003a00610721008048eb00e183800055
:103b1400808f500002003a00a10721008048eb008a
:103b240001848000808f500002003a00e0072100e9
:103b34000048eb00000006000200fa00889fbe0067
:103b44008a9fbe008c1f7800000678000040eb00be
:103b5400c0f79f0068072100e805440019c0b300be
:103b64000045780098cf140004003a001801900032
:103b7400ec8057000c007800020001008b0f540009
:103b840004003200640444004ff097008a4f500050
:103b9400f4ff32004f0678004f05be004f04be000c
:103ba4000080fa0000000600881f780000047800f6
:103bb4006801900000802000800f510028003a0026
:103bc40010c0b3008048780008089000c800dd00e9
:103bd4004800de0001007000000c9800d8589000e6
:103be4008180fb00811f7800c85890008180fb0011
:103bf400811f7800b85890008180fb00811f7800f5
:103c0400a85890008180fb00811f7800c8089000ac
:103c1400811f7800801f7800785090000080fb009e
:103c2400801f7800780090006f4060002100200021
:103c34000100dd000080fb00801f7800e0652900a2
:103c4400801f780000c620008ff4070000c6200003
:103c54008f05070008007800b7ff0700f2875700b8
:103c64004f047800000006000a00fa000001eb008f
:103c7400b2bf9f006011b800c2bf9f00d3bf9f00b6
:103c8400e2bf9f00f3bf9f008100d1003fb99700be
:103c9400828f5000150036003fb9970002014100a1
:103ca40060017900bfb9970083814100e081790008
:103cb4006fba9700ffba9700c819dd004811de00fb
:103cc4000281710002014200e0814a00e2bf9f00cc
:103cd400f3bf9f003fb997000201e800b2bf9f0005
:103ce4003fb99700810f5100ebff39006fb897007f
:103cf400ffb89700b1bf9f006fb89700ffb8970057
:103d040001002000e0bf9f00f1bf9f003fb9970072
:103d14006fb89700ffb8970002004000e0804800a9
:103d2400e0bf9f00f1bf9f006fb89700ffb89700f6
:103d34000080ea008180ea00c0bf9f00d1bf9f00dd
:103d44004fb89700dfb897000080fa000000060023
:103d54000400fa00889fbe008a9fbe000004780019
:103d640081447800fe0044001101be00a2bf9f0000
:103d7400b3bf9f007a0044001001be008288be00d9
:103d84002fb99700bfb997000288be000000eb006e
:103d9400400c980068009000c800dd004800de0078
:103da400008070006004980008089000c800dd00de
:103db4004800de0000807000000c98006e0544008e
:103dc400f8009000ef806000c208dd000a0078006f
:103dd400a5ff070080057800f8009000ef806000e0
:103de400c208dd000a0078009fff07004801dd00db
:103df400c858de0001007100400c9800480890008b
:103e0400c8089000186190000281fb00821f7800ae
:103e1400086190000281fb00821f780078599000ad
:103e24000281fb00821f7800685990000281fb0028
:103e3400821f7800c808dd004800de00809f700003
:103e440008089000c800dd004800de00809f700074
:103e5400785090000080fb00801f7800780090006c
:103e64006f0060004200dd00801f7800106b2900a5
:103e7400801f780000c6200003f4070000c620005d
:103e8400030507008980fb00f480400008007800e7
:103e9400e6fd0700f28757004f05be004f04be0041
:103ea4000080fa0000000600889fbe008a9fbe00c2
:103eb40002047800f484410002092100050009008d
:103ec400325c78006800b10066014400a30621005a
:103ed40005000900335978006200b1008200200017
:103ee400620498007e014400030009003059780000
:103ef4004200b1004000b1007a0044006206210093
:103f040003000900325878004000b10078019000a5
:103f1400f0f02f00000061000060a00002ff2f00fd
:103f2400020060005000b300700498000040eb00f1
:103f3400704c98004849dd004848de0000007100dc
:103f4400000c980020412300100c98000001eb00a5
:103f5400220c980000c8b300605498007154980073
:103f6400420c98006e054400410120000a007800cc
:103f74003dff070080057800f8009000ef806000a6
:103f8400c208dd000a00780037ff07004801dd00a1
:103f9400c858de0001007100400c980048089000e9
:103fa400c8089000186190000281fb00821f78000d
:103fb400086190000281fb00821f7800785990000c
:103fc4000281fb00821f7800685990000281fb0087
:103fd400821f7800c808dd004800de00809f700062
:103fe40008089000c800dd004800de00809f7000d3
:103ff400785090000080fb00801f780078009000cb
:104004006f0060004200dd00801f7800106b290003
:10401400801f780000c620009bf3070000c6200024
:104024009b040700ee8044000800780043fd07006d
:10403400f28757004f05be004f04be000000060083
:1040440000000600881f780064ee2000f17b8000e9
:104054000043eb008002eb0017c0b30009003700f7
:1040640091019000808f51000500390014049000e4
:10407400888f510002003100010278000743780064
:104084008200780011017800850f5100f4ff3a0096
:1040940062f6200001015100820f500003003e002f
:1040a40014009000800f5100030039000080eb00e1
:1040b400e04f530001003200010078004f04780003
:1040c4000000060010019000c1ff2f008280500004
:1040d400904178000381fb000080fb000000510048
:1040e4000080400000000600889fbe008a1f780000
:1040f400000578000a007800d2ff07000004780069
:10410400e10f440001003a00f87b800009007800c8
:10411400cbff07009804780008007800e9ff070047
:10412400800f5500f9ff3e00080078004f05780025
:104134004f04be000000060060ee2000f07b880003
:10414400020820008000eb0048f30700000006008e
:10415400800078000040eb00f27b8000e00f51000b
:104164000500320010c0b300c2072000828f500047
:10417400010036000040eb0000000600889fbe00ee
:104184008a9fbe008c9fbe008e1f780000077800b7
:1041940081057800f87b800018017800e00f510059
:1041a400300032000d3829000c08200098049000db
:1041b400c1ff2f00898450008281fb008880fb00ae
:1041c4008180510081844400821f7800891f780017
:1041d400881f78008d1f780000c620002af307008e
:1041e40000c620002a040700e88757008c8f54007b
:1041f4003c003e008b8f54001600390018009000dc
:10420400640040000885fb000a054000180d780092
:104214001b0598000a0c78006670b900a2f620000d
:1042240002004000700845008b1f78008a1f780048
:10423400f0392900801f780000c6200012f307001f
:1042440000c6200012040700e687570010c0b30020
:10425400250037001804780018017800e00f510099
:10426400d2ff3a00f07b80000020b000080050002c
:104274004280de00808f550016003100e480450046
:10428400010044000008eb00000c78001b049800b7
:104294006671b900a4f620000401410070094400cd
:1042a400801f7800811f78008b1f7800881f78009a
:1042b400b03c2900801f780000c62000f2f20700fd
:1042c40000c62000f2030700ea87570010c0b300bd
:1042d40005003700e0402900ed0307000040eb0033
:1042e400010037000040eb004f0778004f06be0086
:1042f4004f05be004f04be0000000600889fbe00ac
:104304008a9fbe000001eb00f1ff2a00810f5000dc
:1043140052003e000084ea00f83fb2000940200049
:10432400890460008904ea00cf4cde00e19f640048
:10433400881f7800801f780030422900801f780091
:1043440000c62000d0f2070000c62000d0030700fa
:10435400e8875700e40f54003f003e00e0cf5400cc
:104364003c0032006640b90064014000614d290000
:10437400e14479000080e800610578000980fb00d1
:10438400801f78008a1f780070442900801f7800fd
:1043940000c62000bcf2070000c62000bc030700d2
:1043a400e687570002b02f00e0cf54002b003a00fc
:1043b4006640b9006400400061f6200061017800a5
:1043c400e00f510025003a000a00780060ff070062
:1043d400e04f500004003a0070462900ac03070087
:1043e4000001eb001d00370090482900a8030700d6
:1043f4008a0078000800780060ff0700e04f500052
:104404000c003a00b04a2900a10307008085eb00a4
:104414008044eb000a00be0033ff070080057800eb
:104424008a0078000800780054ff0700894f500084
:10443400f8ff32006644b900604d290060017c0039
:104444006400440061f6200061097800610178008d
:1044540002003700020037000001eb000200780080
:104464004f05be004f04be000000060002ceb3009c
:104474000241400010c0b300e1c5b300814f5100b8
:10448400010036000040eb0000000600e0848000dc
:1044940000000600f0848000000006000000eb002d
:1044a400f0848800e084880000000600e084800036
:1044b4000000e800e0848800c02902000000000039
:1044c4005084800000000600f18480008100e80030
:1044d400f18488000080fb00608488009828020032
:1044e4000000000000000600e10821008048780078
:1044f40000000600e084800068004000e08488003a
:10450400d302a900710020000040eb000520200028
:104514000002eb00160020008081eb00d2e2a8002c
:104524009216800005016100840f510002003200e0
:104534000131dd0002407000d2e2a9008100e900ef
:10454400838f5000f5ff3a0000000600881f7800b2
:1045540080437800e084800068004000e0848800a4
:10456400f084800068004000f0848800710020001e
:104574000040eb008783fb00804178000620200088
:104584008002eb00180020000082eb0001b9de007d
:1045940061416100834f510002003a00d302a90037
:1045a40001003700d302a800d2e2a80092168000ce
:1045b40006016100850f5100020032000141dd0057
:1045c40002407000d2e2a9008100e900848f50000b
:1045d400eeff3a004f04780000000600dbff0700fe
:1045e400000006000200fa00889fbe008a9fbe00f9
:1045f4000005780081047800020478000000eb00d4
:10460400b0bf9f00800f550012003a003fb89700da
:10461400800f540039003600e08480000000e80078
:10462400e0848800c029020000000000bfb89700a1
:104634005084800080f478003fb897000000e800c0
:10464400b0bf9f003fb89700880f5000f2ff3900b9
:104654002a003700e08f5400040032003fb897006e
:10466400800f540014003e00240037003fb8970028
:10467400800f540021003600f08480000000e80020
:10468400f08488003fb897006a4078000080fb00ff
:104694006084880098280200000000003fb897005a
:1046a4000000e800b0bf9f003fb89700800f54009f
:1046b400f1ff3e0011003700e08480000000e800b4
:1046c400e0848800f08480000000e800f084880022
:1046d400bfbd97003fb897006a407800bfff07004e
:1046e40080f47d003fb897000000e800b0bf9f0051
:1046f4003fb89700800f5400efff3e004f05be0007
:104704004f04be000080fa0000000600d122a80079
:10471400f0ef2f00d022b600f1f72f008000fd004b
:10472400d022b6008000fd00d0c2a900c922a90091
:104734008000fd00d222b6008000fd00d222b60027
:10474400000006004822ef008000eb000012800009
:1047540061006000810f5000fcff320040128000b5
:10476400000006000200fa008000eb00f1bf9f0089
:104774000080fb004012880000128000610060008d
:10478400810f5000fcff320040128000f0bf9f00f8
:104794000080fa0000000600804422000ffc07009d
:1047a400e04f500002003a0040702900b8020700b0
:1047b400000006002a00fa0005102000a5b79f009b
:1047c40085002000b5b79f0065c0b30085ef9f004a
:1047d40045c0b30095ef9f0005102000e04f520044
:1047e4000100320005202000d5b79f0074825700d5
:1047f40005000900305a78006400b1006000b1007f
:104804006e80570003000900315878004000b10061
:104814004100b1006a805700050009003258780051
:104824006000b1006200b100648057000300090019
:10483400335878004000b1004300b10060fd2f0000
:104844000f004000717629000500090031587800f6
:104854006000b100c0fd2f000f004000a106210040
:1048640005000900315878006000b1008060200024
:1048740090b79f00a102200060fd2f000f004000b0
:104884002efb07000080fa0000000600881f780055
:10489400000478006801900060802000800f5100bf
:1048a4005b003a0010c0b3008048780020722900f1
:1048b4007702070078009000c800dd004800de00a1
:1048c400008070007004980008089000c800dd00a3
:1048d4004800de0000807000000c9800280890005a
:1048e400c800dd004800de0001007000200c9800c4
:1048f400e20f500016003a0090722900640207008b
:10490400000220000800400062002000a1062100ef
:104914003cf10700e00f50000a003a00600220005a
:1049240008004000420020006106210035f1070024
:10493400e00f500003003a00f0722900540207000f
:104944003100370030732900510207002e00370070
:10495400000220000800400062002000d1762900f7
:1049640028f10700e00f500015003a0010742900e8
:1049740047020700186890000080fb00801f780041
:10498400086890000080fb00801f78007860900029
:104994000080fb00801f7800686090000080fb00ae
:1049a400801f7800a0742900801f780000c62000b2
:1049b40035f1070000c6200035020700ea875700da
:1049c400600220000800400042002000610621002f
:1049d4000cf10700e00f500009003a007601440092
:1049e40014c0b300fc01440061062100a0062100ac
:1049f40070ff0700607529002502070002003700d8
:104a0400e0752900220207004076290020020700f1
:104a14004f0478000000060082017800620621003d
:104a240003000900315978004100b100a2062100b9
:104a340005000900305978006000b1000042eb0025
:104a4400d27629005bff070000000600707629007b
:044a54000000060058
:020000040000fa
:104a5800600c00000e010000000000009c10000027
:104a68000400000002000000000000000000000038
:104a78008a100000060000000000000082100000fc
:104a88000800000002000000ffaffe00affdaf000d
:104a9800fcaf0000e60e00009a00000000000000d5
:104aa80066100000100000000000000090100000d8
:104ab8000600000002000000b0487a00db5bea0054
:104ac800761000000c00000000000000a01000009c
:104ad80004000000020000000000000000000000c8
:104ae800800f00005a000000000000002a1000009b
:104af80020000000000000006e0d0000d80000003b
:104b0800000000004a1000001c0000000200000025
:104b18000000000000000400a312340056c0a800e2
:104b2800017bc000a8010100c0a8010093c2ab002e
:104b3800a7820000000000000008000060040000d8
:104b480000000000da0f00002a0000000200000048
:104b580030313200333435003637380039414200bd
:104b680043444500460030003132330034353600c6
:104b780037383900616263006465660000286e009a
:104b8800756c6c0029000000460e0000a0000000b3
:104b980002000000010000000000000000000a0000
:104ba8000000000000000000006400000000000099
:104bb80000000000e80300000000000000001000f2
:104bc800270000000000000000a08600010000008f
:104bd8000000000040420f000000000000008000bc
:104be80096980000000000000000e100f5050000b4
:104bf8000000000000ca9a003b000000000000000e
:104c0800e40b5400020000000000e800764817009a
:104c1800000000000010a500d4e80000000000001b
:104c2800a0724e0018090000000040007a10f3003e
:104c38005a0000000080c600a47e8d00030000001a
:104c480000c16f00f2862300000000008a5d780032
:104c58004563010000006400a7b3b600e00d000042
:104c680000e889000423c7008a00000096100000ad
:104c780006000000000000000410000026000000ec
:104c880002000000971000000097100009000000c3
:104c98000002000099100000009910000e020100a7
:104ca80000000000000000000000000006020200f2
:104cb8000000000004100000a41000000200000022
:0c4cc800020000000100000000000000dd
:020000040000fa
:104cd400606b220065fb07000080eb0050818800b8
:104ce4007081880090818800b0818800d08188001c
:104cf400f08188001082880030828800000006005d
:104d04000200fa00889fbe008a9fbe0080047800db
:104d14000040eb00e0f79f00a8022100fc054400de
:104d240000457800a9109000988f100004003a0004
:104d340018019000ea805700090078000200010081
:104d44008b0f540004003200640444006ff0970099
:104d54008a4f5000f3ff32004f05be004f04be00df
:104d64000080fa0000000600881f78000004780024
:104d740078509000f14f50001f003a0010c0b3006b
:104d84008048780018109000c800dd004800de005c
:104d94000100700010149800a81090004809dd006c
:104da400c808de0082807000211498003811900039
:104db400c811dd004811de000301710032149800af
:104dc400821f780048119000821f7800811f7800ac
:104dd400801f780040772900801f780000c62000db
:104de40029f0070000c62000290107000800780008
:104df400c3ff0700ea8757004f047800000006004d
:104e040052818000e10f410009003200e3022100d9
:104e14000001eb000082eb00750020000201e800b5
:104e240002037800930f120008003a0001003700d3
:104e34000003eb004233dd00a2022100060341001f
:104e4400011b7800000b780003003700e481410067
:104e5400850f5100f1ff3a0000000600889fbe0054
:104e64008a1f7800000478000205780003027800a5
:104e7400e8844000c848dd004848de000080700037
:104e8400301498004820dd00c822de0080827200c1
:104e940025149800151498008000eb004114980024
:104ea400891f7800891f7800811f7800841f78008b
:104eb400841f7800907a2900801f780000c62000a3
:104ec400f1ef070000c62000f10007000801be0052
:104ed40011c1b3000a007800f3fb0700ec87570008
:104ee4004f0578004f04be0000000600889fbe00f6
:104ef40012c0b3008248780020119000b10720004e
:104f0400810f51002a003a00102b9000a028900035
:104f1400c831dd000001eb00480ade00820278009f
:104f240004017100858171000182fb0005002000ed
:104f3400482cdd00c824de00890474004824dd0008
:104f4400080171008981710001f02f0001036300e1
:104f540007002000c83bdd000680fd008643780082
:104f64000043eb00060171008781710006182800d8
:104f740057c527000201430083814b000285880046
:104f840013858800829fbe0030299000c0299000bc
:104f9400829fbe00a0812900801f780000c62000e7
:104fa400b9ef070000c62000b9000700ea875700e0
:104fb4004f04be0000000600b107200080772200e5
:104fc4008fff070040002000801f78000083290025
:104fd400801f780000c62000abef070000c6200049
:104fe400ab000700e487570000000600889fbe005e
:104ff4008004780008f82000a20520008000eb005f
:105004000800780099ef070031ceb300a002200019
:105014000800400001487800a1c0b3000080e80007
:1050240001487800c1ceb3000000e80001487800d0
:10503400b30720000901780001032000080078006c
:1050440086ff07004f04be0000000600889fbe00d4
:105054008a9fbe008c1f780000047800785090006e
:10506400e14f500028003a00804878001810900062
:10507400e80f500024003a0080022000801f7800ce
:1050840000842900801f780000c620007eef0700fe
:1050940000c620007e0007000040eb00206498005a
:1050a40010c0b30010fd07000005eb002a1498009f
:1050b4002b0220008885450088089000f480500069
:1050c4000b007800e8fa07000006780088089000d2
:1050d400f48050000b007800e3fa07004801dd007b
:1050e400c860de0001007100201498008808900058
:1050f400f4c050000800780015fb07000a4078004f
:10510400f9fc0700e48757004f0678004f05be00fe
:105114004f04be00000006008082220053fa0700fc
:0c5124000000060000000600000006006d
:020000040000fa
:10513000801f7800608480000070a700d302a80060
:105140000070a600d302a900d2e2a900d2e2a80012
:105150000060a700d302a8000060a600d302a90047
:10516000d2e2a900d2e2a8000050a700d302a80012
:105170000050a600d302a900d2e2a900d2e2a80002
:105180000040a700d302a8000040a600d302a90057
:10519000d2e2a900d2e2a8000030a700d302a80002
:1051a0000030a600d302a900d2e2a900d2e2a800f2
:1051b0000020a700d302a8000020a600d302a90067
:1051c000d2e2a900d2e2a8000010a700d302a800f2
:1051d0000010a600d302a900d2e2a900d2e2a800e2
:1051e0000000a700d302a8000000a600d302a90077
:1051f000d2e2a900d2e2a800d2e2a9004f007800d2
:0452000000000600a4
:020000040000fa
:1052040000002800001188000040200010118800d0
:10521400c000200040118800cae2a900123a8000b0
:10522400f20bb200600420007105200023742000fa
:1052340080497800814978008249780033368000bb
:10524400f20f2e00028161000230b3003236880072
:10525400123a80000260a000237420008049780084
:10526400814978008249780000000600032020006c
:105274000001eb001111800083806000828f5000d8
:10528400fcff3a000080fb002011880000000600ab
:10529400889fbe008004780019407800e04f5000d9
:1052a400050032000044eb00f0ff0700594078008d
:1052b400884f5000fcff3a004f04be000000060077
:1052c400c142a900c342a80000000600889fbe0096
:1052d4008a9fbe0080447800010478000205be0065
:1052e400c342a90030c0b30077fc0700094078002e
:1052f40075fc07004840de0073fc07000840780096
:1053040071fc07000b0178008a0078000000eb00b4
:10531400b4fc0700c342a8004f05be004f04be0002
:1053240000000600889fbe008a9fbe00804478006b
:10533400010478000205be00c342a90020c0b300e6
:1053440061fc0700094078005ffc07004840de006c
:105354005dfc0700084078005bfc07000b01780047
:105364008000eb000a0078009efc0700c342a800fe
:0c5374004f05be004f04be000000060004
:020000040000fa
:10538000801f78000000eb00d302a900d2e2a80041
:10539000d322af000070a000d2e2a900d2e2a800a0
:1053a000d322af000060a000d2e2a900d2e2a800a0
:1053b000d322af000050a000d2e2a900d2e2a800a0
:1053c000d322af000040a000d2e2a900d2e2a800a0
:1053d000d322af000030a000d2e2a900d2e2a800a0
:1053e000d322af000020a000d2e2a900d2e2a800a0
:1053f000d322af000010a000d2e2a900d2e2a800a0
:10540000d322af000000a000d2e2a900508488009f
:085410004f00780000000600c7
:020000040000fa
:10541800f0509000e6cf500017003a00901090002e
:105428004809dd00c808de0082807000111098006d
:1054380020119000c811dd004811de000301710041
:105448002210980080199000831f7800101890008f
:10545800801f7800821f7800811f7800407e290015
:10546800801f780000c6200086ee070000c62000d6
:1054780086ff0700ea87570000000600c0a0220048
:1054880079f9070000000600000006000f00780008
:10549800a001b10000000600900188001100ba00c8
:0854a8009180ba00000006002b
:020000040000fa
:0200000401f009
:04000000ffff0000fe
:020000040000fa
:0200000401f009
:04000400ffff0000fa
:020000040000fa
:0200000401f009
:04000800ffff0000f6
:020000040000fa
:0200000401f009
:04000c0079ff000078
:020000040000fa
:0200000401f009
:040010001bff0000d2
:020000040000fa
:0200000401f009
:0400140077ff000072
:020000040000fa
:0200000401f009
:04001800f8ff0000ed
:020000040000fa
:0200000401f009
:04001c00deff000003
:00000001FF
