:020000040000fa
:080000000002040000000000f2
:020000040000fa
:10000800a8020000a8020000a8020000a802000040
:10001800a8020000a8020000a8020000a802000030
:10002800a8020000a8020000a8020000a802000020
:10003800a8020000a8020000a8020000a802000010
:020000040000fa
:020000040000fa
:100400000f0921000e7f24000e018800000000006b
:100410000c000700e0f4200001002000110007009c
:10042000000020000000e000020032000000020096
:1004300000000000420d0200000000000040da0051
:100440000000fe004440a900a00520000000e000dc
:100450000300320000002000a00188004440a800f2
:100460000000060091018800800078000000eb0089
:1004700015003700e280400032a0b4009101ba00bc
:10048000e280400032a0b4009102ba00e280400055
:1004900032a0b4000002eb00472bde00f507b200eb
:1004a000602ce10004003a000059eb008301e900f0
:1004b000fdff3e00040037006128e100010032002a
:1004c0000082eb00040007001101ba000200e00006
:1004d000e8ff3a00000006003159ba008301e90044
:1004e0000c0032002159ba008301e90008003200f3
:1004f0000400e00003003a00e280400032a0b400b3
:10050000f5ff370011d9ba008301e900faff3a007c
:100510008100e800e180400032a0b4000000060045
:10052000ce0b040000000000f00e040000000000ec
:10053000b608040000000000a00d04000000000048
:10054000880c040000000000f60f0400000000000a
:100550000040da000000fe00e68747008e1f7800aa
:10056000d0bf9f0066875700012f78000e0037002c
:100570005fba970014407800efb997009340780075
:100580000201e900814f5000040032000080fb00ae
:100590008180fb0001005000060037000402e800e3
:1005a000d4bf9f00030fe800e00f5100f0ff3a00b6
:1005b000020078004f0778006f00b10000000600cd
:1005c0008001780002003700815978000201e900bb
:0c05d000e00f5100fcff3a0000000600a4
:020000040000fa
:1005dc002a2a00002a2a00002a2a00002a2a0000bf
:1005ec002a2a00002a2a00002a2a00002a2a0000af
:1005fc002a2a00002a2a00002a0d00000a00000006
:10060c002a2000002a200000454e00004332000042
:10061c00384a00003630000020640000656d000090
:10062c006f2000002a2000002a0d00000a000000a4
:10063c00436f0000756c0000646e000027740000ae
:10064c00207200006567000069730000746500008b
:10065c007220000041520000502000006861000030
:10066c006e6400006c65000072000000ffff00006b
:10067c00ffff0000ffff0000000000000000000072
:04068c00000000006a
:020000040000fa
:10069000881f780001447800d2c2a9007f40600022
:1006a0000064a0007a030700084078007803070080
:1006b000d2c2a8004f04780000000600881f78000e
:1006c00001447800d2c2a9007f4060000074a000fd
:1006d0006f030700084078006d030700d2c2a8002e
:1006e0004f04780000000600881f7800014478005d
:1006f000d2c2a9007f40600001cab300014070006f
:10070000630307000840780061030700d2c2a80015
:100710004f04780000000600881f7800010478006c
:10072000d2c2a9007f4060000064a0005803070007
:1007300008407800560307004840de0054030700d5
:10074000d2c2a8004f04780000000600d2c2a9005f
:100750007f4060004e03070049030700d2c2a80093
:1007600000000600d2c2a9007f40600048030700d5
:100770000040eb004603070041030700d2c2a80077
:1007800000000600889fbe00004478000840780002
:10079000eeff07008084fb000840e800ebff070045
:1007a0004800dd00090070004f04be000000060094
:1007b0004500de0063006000faeeb700e34f500032
:1007c00007003a00d2c2a900f0c9b3003003070005
:1007d00030c0b3002e030700d2c2a8000e003700bd
:1007e000d2c2a900f0cbb3002903070030c0b30088
:1007f00027030700d2c2a800facebf0006003200cd
:10080000d2c2a900f0c9b30021030700facebf008d
:100810001f030700d2c2a80000000600881f78004e
:100820000044780008407800e04f5400080035008c
:100830004501de0063016100a1ef200091407800d6
:100840008180fb00810f510001003200d8ff0700ba
:1008500008407800bdff07004f0478000000060044
:10086000881f78000044780008407800e04f54006a
:10087000080035004501de0063016100a1ef2000a2
:10088000914078008180fb00810f5100010032000f
:10089000c7ff070008407800baff07004f04780040
:1008a00000000600889fbe00004478008144780064
:1008b00008407800e04f5400080035004501de0094
:1008c00063016100a1ef2000914078008180fb006e
:1008d000810f510001003200b5ff07008940780008
:1008e000084078006aff07004f04be0000000600c1
:1008f000889fbe000044780081447800084078005a
:10090000e04f5400080035004501de00630161003e
:10091000a1ef2000914078008180fb00810f510001
:1009200001003200a2ff07008940780008407800eb
:1009300062ff07004f04be0000000600889fbe0053
:10094000004478008144780008407800e04f54006b
:10095000080035004501de0063016100a1ef2000c1
:10096000914078008180fb00810f5100010032002e
:100970008fff070089407800084078005aff070081
:100980004f04be0000000600889fbe0000447800af
:100990008104780008407800e04f540008003500da
:1009a0004501de0063016100a1ef20009140780065
:1009b0008180fb00810f5100010032007cff0700a5
:1009c000894078000840780031ff0700c848de0001
:1009d0000840e8002eff07004f04be00000006009c
:1009e000889fbe00010478008204780080007800af
:1009f0000040eb00e4ff0700d2c2a900a0c3b3008f
:100a0000a302070009017800880078000000eb00cd
:100a1000d9020700d2c2a8004f04be0000000600a1
:100a2000889fbe008104780002047800800078006e
:100a300020c0b300d4ff0700d2c2a900a0c7b300f2
:100a400093020700080178008000eb00090078009d
:100a5000c9020700d2c2a8004f04be000000060071
:100a6000881f7800010478008040780040c5b300fa
:100a70008cff07008800780060c5b300c2ff070044
:100a80004f04780000000600889fbe008040780078
:100a900040c5b30083ff070011c0b30020c5b300f9
:100aa00093ff0700a8c6b3008004eb00084078005d
:100ab0002cff070061006000890f5000fbff3a0027
:100ac00011c0b30020c5b3009cff0700d2c2a9002b
:100ad00080c1b3006e0207000040eb006c0207000b
:100ae000670207000084fb00d2c2a800d2c2a9009e
:100af00090c1b300660207000040eb0064020700eb
:100b00005f020700d2c2a8004800dd0008007000a4
:100b10004f04be00000006000200fa00889fbe00dd
:100b20008a9fbe0080057800010578000040eb0038
:100b3000e0f79f00f8c9b3008004eb00080037001d
:100b400081c0b3000840780069ff070081c0b3008e
:100b50000840780079ff0700e0c2b3008b0407006b
:100b6000084078002dff0700e8016000898f5100e0
:100b7000f3ff3a000180200020c0b30082ff07008d
:100b800008802000880145008300780060c0b30021
:100b90007dff070010c0b3004202070012002000d2
:100ba000ea805700080078009dff07000a017800de
:100bb0008b0078001080200099ff07000040eb00b8
:100bc00038020700a1c0b300c0c9b3005bff070033
:100bd00081c0b300f0c9b30045ff0700c8c9b30026
:100be0008004eb00084078000cff070068006000fc
:100bf000890f5000fbff32004f05be004f04be00be
:100c00000080fa00000006000600fa001001be0095
:100c1000d2bf9f00e3bf9f00a0019000f3bf9f00e1
:100c2000660140001202be000488be00d00290009f
:100c3000250098005fba9700efba97000489be00bc
:100c40008302780055009800ee804000b2ff070054
:100c50000080fa0000000600c0c9b300effe0700e4
:100c6000800078000104b20010c0b30001003a0017
:100c70000040eb000000060090c3b300e7fe070051
:100c80000000060080007800eecebf0007003200b2
:100c90000040eb0022ef200012417800804f51000d
:100ca00009003a0012002000010037000001eb00ab
:100cb0004211dd00e0ee20000201400010c0b30050
:100cc000004978001101980000000600817780003b
:100cd000808f500001003a00ee6eef00a177800097
:100ce000808f500001003a00f26eef000000060015
:100cf0000200fa00881f7800000478000040eb0032
:100d0000c0ff9f00eecebf00e14f500007003a0049
:100d1000e48057000800780082778000020001001c
:100d20004ff89700e04f500007003a00f2cebf00a6
:100d3000e14f500004003a00e480570008007800ba
:100d4000a2778000020001004f0478000080fa00c2
:100d5000000006000600fa00889fbe008a9fbe00c1
:100d60008c9fbe008004780001067800c2ff070057
:100d7000e04f500051003200ed5e20000985e80090
:100d80000c0178008000eb00090078000cfe0700e1
:100d9000b17780000040eb00fbfe070062002000fe
:100da000f2805700b07780000dff07007fec9700be
:100db0004844dd006fe897008081fb000304740065
:100dc0001ff297004822dd008ff197008381fb001e
:100dd00083057200aff19700e10f44000d003a0067
:100de0008d8f55000b003600f62eef000044eb000f
:100df00009c4b3000300370089407800e0c9b3009c
:100e0000bbfe07009cff0700884f5000faff3a0026
:100e10002a003700f082610010003a0010c0b300d1
:100e2000a00107000b81e900b0778000640040005a
:100e300089007800eafe07000040eb0099010700f6
:100e40006a009000c800dd004800de0000807000ed
:100e5000600598000a007800a5ff0700b8778800b1
:100e600080c0b3007efe070080417800b477800028
:100e70008381fb00848f510006003a00a0c0b300bc
:100e800077fe07008080fb00c0c0b300befe0700f5
:100e9000030037008400e900c0c0b300bafe0700b9
:100ea00001c4b300e0c9b30091fe070072ff070060
:100eb00080417800e0cf5100b1ff3a004f06be00fc
:100ec0004f05be004f04be000080fa00000006007f
:100ed00000202000ca22b700cb22a900ca22b700f6
:100ee000d2c2a90000c0eb00a1010700d2c2a80035
:100ef00000000600889fbe008a1f7800000478006a
:100f0000d2c2a800c8778800ee2eef00f0ff0700dd
:100f100020c0b300dcfe070030c0b300dafe0700db
:100f200020c7b3003dfe070001c4b300e0c9b30011
:100f30006ffe0700d9c9b3000005eb000940780037
:100f400036fe0700610060008a0f5000fbff320090
:100f5000217a200040c1b300c1fe07008000eb00f1
:100f600080c0b30088fe0700f17f2000a0c0b3005e
:100f700085fe07008000eb00c0c0b30082fe0700c2
:100f80000180200040c0b3007ffe0700f1ff200079
:100f900060c0b3007cfe0700d1c0b30000c4b30042
:100fa00040fe070061cfb30020c4b3003dfe070040
:100fb00001c4b30030c4b3003afe0700e15e200074
:100fc000a0c4b30070fe070021c1b30040c4b30049
:100fd00034fe070021c1200060c4b3006afe070090
:100fe0009840780040c6b3002efe0700984090005d
:100ff00050c6b3002bfe0700a840900020c6b300e7
:1010000028fe0700b840900030c6b30025fe070058
:10101000c840900000c6b30022fe0700d8409000f0
:1010200010c6b3001ffe07000110200000c1b3006e
:101030008bfe070041c0b300f0c9b3002cfe0700cf
:101040004f0578004f04be0000000600608b2000b2
:101050000cff07000040eb0074f0b70078f0b70019
:101060007cf0b700000006004107210091407800a5
:10107000e0cf50000c003200810721009140780041
:10108000e0cf500006003200c107210091407800f7
:10109000e0cf50000b003a00210020000300370091
:1010a00011002000010037008000eb004209dd0044
:1010b00011c0b30043072100817179008380e800eb
:1010c0008030790000000600b1838000808f5000de
:1010d00001003a007470ef00d1838000808f5000cf
:1010e00001003a007870ef00f1838000808f50009b
:1010f00001003a007c70ef00000006000200fa00d8
:10110000889fbe008a9fbe008c1f78000006780072
:101110000040eb00c0f79f0048072100e8054400ad
:1011200019c0b3000045780098cf140004003a00bd
:1011300018019000ec8057000c00780002000100bc
:101140008b0f540004003200640444004ff09700f9
:101150008a4f5000f4ff32004f0678004f05be0062
:101160004f04be000080fa0000000600e00190007d
:1011700002802000828f510008003a0012c0b300a4
:1011800082487800800890004809dd00c808de0029
:101190008100710001089800d8ff070000000600d8
:1011a0000a00fa000001eb00b2bf9f006011b80016
:1011b000c2bf9f00d3bf9f00e2bf9f00f3bf9f004d
:1011c0008100d1003fb99700828f50001500360092
:1011d0003fb997000201410060017900bfb9970053
:1011e00083814100e08179006fba9700ffba9700d0
:1011f000c819dd004811de000281710002014200c1
:10120000e0814a00e2bf9f00f3bf9f003fb9970013
:101210000201e800b2bf9f003fb99700810f510063
:10122000ebff39006fb89700ffb89700b1bf9f0080
:101230006fb89700ffb8970001002000e0bf9f0043
:10124000f1bf9f003fb997006fb89700ffb89700b4
:1012500002004000e0804800e0bf9f00f1bf9f0017
:101260006fb89700ffb897000080ea008180ea001d
:10127000c0bf9f00d1bf9f004fb89700dfb8970055
:101280000080fa00000006000400fa00889fbe00fb
:101290008a9fbe000004780081447800fe0044006c
:1012a0001101be00a2bf9f00b3bf9f007a0044009f
:1012b0001001be008288be002fb99700bfb9970009
:1012c0000288be000000eb00400c9800680090000f
:1012d000c800dd004800de00008070006004980057
:1012e00008089000c800dd004800de0000807000a3
:1012f000000c98006e054400f8009000ef8060003c
:10130000c208dd000a007800a5ff0700800578000c
:10131000f8009000ef806000c208dd000a0078004d
:101320009fff07004801dd00c858de000100710082
:10133000400c98008980fb00f48040000800780091
:1013400031fe07004f05be004f04be000080fa00ca
:1013500000000600889fbe008a9fbe00020478003d
:10136000f48441006208210005000900325c780025
:101370006800b100660144008306210005000900f1
:10138000335978006200b1008200200062049800a6
:101390007e01440003000900305978004200b1008a
:1013a0004000b1007a004400420621000300090019
:1013b000325878004000b10078019000f0f02f0022
:1013c000000061000060a00002ff2f00020060002a
:1013d0005000b300700498000040eb00704c98007f
:1013e0004849dd004848de0000007100000c98000c
:1013f00020412300100c98000001eb00220c980003
:1014000000c8b3006054980071549800420c9800d2
:101410006e054400410120000a00780060ff0700cb
:1014200080057800f8009000ef806000c208dd00c1
:101430000a0078005aff07004801dd00c858de00a6
:1014400001007100400c9800ee8044000800780014
:10145000b1fd07004f05be004f04be0000000600ae
:1014600002ceb3000241400010c0b300e1c5b3009a
:10147000814f5100010036000040eb0000000600e3
:10148000aa0f020000000000008480000000060097
:101490000080fb0010848800260e0200000000007f
:1014a0000000060084f0b70000000600d302a90087
:1014b000710020000040eb00052020000002eb003e
:1014c000160020008081eb00d2e2a8009216800076
:1014d00005016100840f5100020032000131dd007e
:1014e00002407000d2e2a9008100e900838f500021
:1014f000f5ff3a0000000600881f7800804378005e
:10150000710020000040eb008783fb0080417800e1
:10151000062020008002eb00180020000082eb0073
:1015200001b9de0061416100834f510002003a00c1
:10153000d302a90001003700d302a800d2e2a8001c
:101540009216800006016100850f510002003200f2
:101550000141dd0002407000d2e2a9008100e900f3
:10156000848f5000eeff3a004f0478000000060020
:10157000e1ff0700000006000200fa00889fbe009d
:101580008a9fbe000005780081047800020478007c
:101590000000eb00b0bf9f00800f55000f003a0025
:1015a0003fb89700800f54002d003600aa0f0200ac
:1015b00000000000bfb897000084800080f478002d
:1015c0003fb897000000e800b0bf9f003fb8970009
:1015d000880f5000f5ff390021003700e08f5400dc
:1015e000040032003fb89700800f540011003e0005
:1015f0001b0037003fb89700800f540018003600da
:101600003fb897006a4078000080fb001084880093
:10161000260e0200000000003fb897000000e8001e
:10162000b0bf9f003fb89700800f5400f4ff3e000a
:101630000b003700bfbd97003fb897006a407800a5
:10164000cbff070080f47d003fb897000000e80062
:10165000b0bf9f003fb89700800f5400f5ff3e00d9
:101660004f05be004f04be000080fa0000000600d7
:10167000d122a800f0ef2f00d022b600f1f72f0002
:101680008000fd00d022b6008000fd00d0c2a9007d
:10169000c922a9008000fd00d222b6008000fd0012
:1016a000d222b60000000600e0bc200075fd070055
:1016b000e04f500002003a00e0312800bc01070072
:1016c000000006002a00fa0005102000a5b79f00c0
:1016d00085002000b5b79f0065c0b30085ef9f006f
:1016e00045c0b30095ef9f0005102000e04f520069
:1016f0000100320005202000d5b79f0074825700fa
:1017000005000900305a78006400b1006000b100a3
:101710006e80570003000900315878004000b10086
:101720004100b1006a805700050009003258780076
:101730006000b1006200b10064805700030009003e
:10174000335878004000b1004300b10060fd2f0025
:101750000f004000c133280005000900315878000f
:101760006000b100c0fd2f000f0040008106210085
:1017700005000900315878006000b1008060200049
:1017800090b79f00a102200060fd2f000f004000d5
:10179000e1fc07000080fa0000000600881f7800c6
:1017a000e001900062802000828f510021003a0009
:1017b00012c0b300824878000004780078009000de
:1017c000c800dd004800de00008070007004980052
:1017d00008089000c800dd004800de0000807000ae
:1017e000000c980028089000c800dd004800de00ca
:1017f00001007000200c9800e20f50000d00320034
:101800006002200008004000420020004106210044
:1018100051fb0700e00f500006003a00760144003b
:1018200014c0b300fc0144004106210080062100e1
:10183000a4ff07004f047800000006008201780032
:101840004206210003000900315978004100b1002f
:101850008206210005000900305978006000b100bf
:101860000042eb002234280096ff0700000006002b
:10187000c03328000000060080c82000fafd0700e1
:101880000080eb007081880090818800b081880022
:10189000d0818800f0818800108288003082880022
:1018a00050828800000006000200fa00889fbe00f7
:1018b0008a9fbe00800478000040eb00e0f79f00a4
:1018c000e8022100fc05440000457800a9109000c2
:1018d000988f100004003a0018019000ea80570029
:1018e00009007800020001008b0f54000400320050
:1018f000640444006ff097008a4f5000f3ff3200f9
:101900004f05be004f04be000080fa000000060034
:1019100070519000f14f510012003a0012c0b30014
:1019200082487800901090004809dd00c808de0069
:101930008100710011109800a01090004809dd008e
:10194000c808de008100710021109800b0109000de
:101950004809dd00c808de008100710031109800e0
:10196000d1ff07000000060072818000e10f4100f6
:1019700009003200230321000001eb000082eb008c
:10198000750020000201e80002037800930f1200a6
:1019900008003a00010037000003eb004233dd008d
:1019a000e202210001317b008280e80080307b0070
:1019b00003003700e4814100850f5100f1ff3a0038
:1019c0000000060082027800e8804000480add003e
:1019d0004809de0002017200321098004819dd004b
:1019e000481ade00020272002410980014109800b9
:1019f0000001eb00421098000001be0011c1b300cd
:101a00000500780053fe0700000006000200fa00ff
:101a10000040eb00e0ff9f00f0ff9f00e0ff9f0011
:101a200070ccb300eff8970080cf500013003e0059
:101a30008041eb0031c6b30000417800f3ff9f0006
:101a40007ff89700814f500006003e007ff8970016
:101a50000040e800f0ff9f007ff89700814f5000a2
:101a6000faff36006ff897000040e800e0ff9f00a3
:101a70006ff89700824f5000f0ff36000080fa00a8
:101a800000000600889fbe002ca3ef00f8ef2f0097
:101a90000004fd00c822b6000004fd00f4fe0700ab
:101aa0000040eb007ffe07009d000700e02e2800ad
:101ab000bf00070060302800bd000700e02e2800ae
:101ac000bb0007000004fd00ca22b6000004fd00b0
:101ad0000040eb0073fe0700e004210005fd070055
:101ae0000040eb006ffe0700cb02a800eefe0700ef
:101af0008205210041052100e00421004fff07007d
:101b000052fd0700e00007005bff070034000700fc
:101b10004401070000062100350007000044eb00e7
:101b2000e95e20004cfc0700884f5000fdff3200aa
:101b3000890078000080200086fc0700f9ff37004c
:101b4000881f780012c0b3008248780020119000ee
:101b5000b1072000810f51001f003a00102c9000a7
:101b6000202a9000c840dd000000eb004821de0084
:101b70008001780002007000838070000482fb0006
:101b800005002000482bdd00c823de00870373001a
:101b90004823dd00060070008780700002f02f00ef
:101ba0000201640003002000481add00c812de00b4
:101bb000850272004812dd0004007000858070000c
:101bc0000418280055c527000001420081814a0001
:101bd00062848800738488004f0478000000060047
:101be000b107200000da20005fff070000000600b8
:101bf000889fbe008004780048fd2000a2052000d8
:101c00008000eb00080078006dfa070031ceb300c9
:101c100001007800feefb700a1c0b300010078001a
:101c200000f0b700c1ceb3000100780001f0b700aa
:101c3000b3072000090178000103200008007800a4
:0c1c400060ff07004f04be00000006001b
:020000040000fa
:101c4c00801f7800108480000070a700d302a800c9
:101c5c000070a600d302a900d2e2a900d2e2a8002b
:101c6c000060a700d302a8000060a600d302a90060
:101c7c00d2e2a900d2e2a8000050a700d302a8002b
:101c8c000050a600d302a900d2e2a900d2e2a8001b
:101c9c000040a700d302a8000040a600d302a90070
:101cac00d2e2a900d2e2a8000030a700d302a8001b
:101cbc000030a600d302a900d2e2a900d2e2a8000b
:101ccc000020a700d302a8000020a600d302a90080
:101cdc00d2e2a900d2e2a8000010a700d302a8000b
:101cec000010a600d302a900d2e2a900d2e2a800fb
:101cfc000000a700d302a8000000a600d302a90090
:101d0c00d2e2a900d2e2a800d2e2a9004f007800ea
:041d1c0000000600bd
:020000040000fa
:101d200000002800001188000040200010118800e9
:101d3000c000200040118800cae2a900123a8000c9
:101d4000f20bb20060042000710520002374200013
:101d500080497800814978008249780033368000d4
:101d6000f20f2e00028161000230b300323688008b
:101d7000123a80000260a00023742000804978009d
:101d80008149780082497800000006000320200085
:101d90000001eb001111800083806000828f5000f1
:101da000fcff3a000080fb002011880000000600c4
:101db000889fbe008004780019407800e04f5000f2
:101dc000050032000044eb00f0ff070059407800a6
:101dd000884f5000fcff3a004f04be000000060090
:101de000889fbe008a9fbe008c1f78000004780088
:101df00078509000e14f50001f003a008048780072
:101e000018109000e80f50001b003a000040eb0053
:101e10002064980010c0b300a2fd07000005eb008d
:101e20002a1498002b02200088854500880890001d
:101e3000f48050000b007800d9fc07000006780001
:101e400088089000f48050000b007800d4fc070054
:101e50004801dd00c860de00010071002014980018
:101e600088089000f4c050000800780006fd0700c4
:101e70000a4078008bfd07004f0678004f05be0032
:101e80004f04be000000060000ef200076fc0700b3
:0c1e900000000600000006000000060034
:020000040000fa
:101e9c00ee0d00000e01000000000000801000009c
:101eac00060000000000000064100000100000009c
:101ebc000000000086100000060000000200000078
:101ecc00b0487a00db5bea00741000000c000000e4
:101edc00000000008c100000040000000200000054
:101eec000000000000000000d40f00005a000000a9
:101efc00000000002e100000200000000000000078
:101f0c00fc0e0000d8000000000000004e10000085
:101f1c0016000000020000000004a300123456005a
:101f2c00c0a801007bc0a8000101c000a80193005b
:101f3c00c2aba7008200000000080000ee05000004
:081f4c0000000000000000008d
:020000040000fa
:101f5400801f78000000eb00d302a900d2e2a800a1
:101f6400d322af000070a000d2e2a900d2e2a80000
:101f7400d322af000060a000d2e2a900d2e2a80000
:101f8400d322af000050a000d2e2a900d2e2a80000
:101f9400d322af000040a000d2e2a900d2e2a80000
:101fa400d322af000030a000d2e2a900d2e2a80000
:101fb400d322af000020a000d2e2a900d2e2a80000
:101fc400d322af000010a000d2e2a900d2e2a80000
:101fd400d322af000000a000d2e2a9000084880050
:081fe4004f0078000000060028
:020000040000fa
:101fec00f0509000e6cf50000a003a00901090009c
:101ffc004809dd00c808de0081007100111098004e
:10200c00a01090004809dd00c808de0081007100b6
:10201c00211098000000060060ff20000ffc070054
:08202c000000060000000600a0
:020000040000fa
:0200000401f009
:04000000ffff0000fe
:020000040000fa
:0200000401f009
:04000400ffff0000fa
:020000040000fa
:0200000401f009
:04000800ffff0000f6
:020000040000fa
:0200000401f009
:04000c0079ff000078
:020000040000fa
:0200000401f009
:040010001bff0000d2
:020000040000fa
:0200000401f009
:0400140077ff000072
:020000040000fa
:0200000401f009
:04001800f8ff0000ed
:020000040000fa
:0200000401f009
:04001c00deff000003
:00000001FF
