:020000040000fa
:080000000002040000000000f2
:020000040000fa
:100008002205000022050000a802000022050000c9
:10001800220500002205000022050000220500003c
:10002800220500002205000022050000220500002c
:10003800220500002205000022050000220500001c
:10004800220500002205000022050000220500000c
:1000580022050000220500002205000022050000fc
:1000680022050000220500002205000022050000ec
:1000780022050000220500002205000022050000dc
:1000880022050000220500002205000022050000cc
:1000980022050000220500002205000022050000bc
:1000a80022050000220500002205000022050000ac
:1000b800220500002205000022050000220500009c
:1000c800220500002205000022050000220500008c
:1000d800220500002205000022050000220500007c
:1000e800220500002205000022050000220500006c
:1000f800220500002205000022050000220500005c
:10010800220500002205000022050000220500004b
:10011800220500002205000022050000220500003b
:10012800220500002205000022050000220500002b
:10013800220500002205000022050000220500001b
:10014800220500002205000022050000220500000b
:1001580022050000220500002205000022050000fb
:1001680022050000220500002205000022050000eb
:1001780022050000220500002205000022050000db
:1001880022050000220500002205000022050000cb
:1001980022050000220500002205000022050000bb
:1001a80022050000220500002205000022050000ab
:1001b800220500002205000022050000220500009b
:1001c800220500002205000022050000220500008b
:1001d800220500002205000022050000220500007b
:1001e800220500002205000022050000220500006b
:0801f8002205000022050000b1
:020000040000fa
:100208002205000022050000a802000022050000c7
:10021800220500002205000022050000220500003a
:10022800220500002205000022050000220500002a
:10023800220500002205000022050000220500001a
:10024800220500002205000022050000220500000a
:1002580022050000220500002205000022050000fa
:1002680022050000220500002205000022050000ea
:1002780022050000220500002205000022050000da
:1002880022050000220500002205000022050000ca
:1002980022050000220500002205000022050000ba
:1002a80022050000220500002205000022050000aa
:1002b800220500002205000022050000220500009a
:1002c800220500002205000022050000220500008a
:1002d800220500002205000022050000220500007a
:1002e800220500002205000022050000220500006a
:1002f800220500002205000022050000220500005a
:100308002205000022050000220500002205000049
:100318002205000022050000220500002205000039
:100328002205000022050000220500002205000029
:100338002205000022050000220500002205000019
:100348002205000022050000220500002205000009
:1003580022050000220500002205000022050000f9
:1003680022050000220500002205000022050000e9
:1003780022050000220500002205000022050000d9
:1003880022050000220500002205000022050000c9
:1003980022050000220500002205000022050000b9
:1003a80022050000220500002205000022050000a9
:1003b8002205000022050000220500002205000099
:1003c8002205000022050000220500002205000089
:1003d8002205000022050000220500002205000079
:1003e8002205000022050000220500002205000069
:0803f8002205000022050000af
:020000040000fa
:100400000f0021000e7f24000e0188000000000074
:100410000c00070000f1210001002000110007007e
:10042000000020000000e000020032000000020096
:1004300000000000fc030200000000000040da00a1
:100440000000fe004440a900c02f20000000e00092
:100450000300320000002000a00188004440a800f2
:100460000000060091018800800078000000eb0089
:1004700015003700e280400032a0b4009101ba00bc
:10048000e280400032a0b4009102ba00e280400055
:1004900032a0b4000002eb00472bde00f507b200eb
:1004a000602ce10004003a000059eb008301e900f0
:1004b000fdff3e00040037006128e100010032002a
:1004c0000082eb00040007001101ba000200e00006
:1004d000e8ff3a00000006003159ba008301e90044
:1004e0000c0032002159ba008301e90008003200f3
:1004f0000400e00003003a00e280400032a0b400b3
:10050000f5ff370011d9ba008301e900faff3a007c
:100510008100e800e180400032a0b4000000060045
:100520002c1e04000000000008220400000000004f
:10053000f2190400000000005a210400000000002d
:100540009820040000000000ec23040000000000dc
:100550003600f800809fbe00829fbe00849fbe00d0
:10056000869fbe00bb100700907588000100240024
:10057000810f5000010036000000fe00900078005e
:10058000a17588008180e9000040eb00b4100700ed
:100590002040880031408800809fbe00201a29003a
:1005a000801f780020c520004901070020c52000d9
:1005b0002810070020408000314080004309de0001
:1005c0000001fd0009e8b7000001fd00e6875700c3
:1005d000ef4f510057003a00c409de004c0add001d
:1005e0004401de000201720067026100644088007d
:1005f000cb09de00c50add004b01de00028172007e
:100600006701610082408800ef4160008001fd00c9
:100610000ae8b7008001fd00c909dd004700de00df
:1006200000807100c708de006f4060000ee8b70070
:10063000e00f520003003200e00f510006003200cc
:10064000ffff3700e00f510003003200a17580006a
:10065000907580000188e9000ec8bf00e64f500089
:1006600006003e000080fb0000004000b20eb40017
:1006700014408000340098001f003700e74f5000fe
:1006800002003a00174080001b003700e84f50007e
:1006900002003a001840800017003700e94f500070
:1006a00002003a001940800013003700ea4f500062
:1006b00002003a001a4080000f003700eb4f500054
:1006c00002003a001b4080000b003700ec4f500046
:1006d00002003a001c40800007003700ed4f500038
:1006e00002003a001d40800003003700ee4f50002a
:1006f00001003a001e4080001008f8000c08f800c5
:100700000ec8bf000080fb00801f78000ac8bf0031
:100710000080fb00801f7800801a2900801f78006d
:1007200020c52000ea00070020c52000c90f0700ef
:10073000ea875700b20ef800b40ef80009c8bf00ef
:100740000080fb00801f7800b01c2900801f78000b
:1007500020c52000de00070020c52000bd0f0700d7
:100760008060a900e88757004f03be004f02be001b
:100770004f01be004f00be003600f90000400600e9
:100780000200fa000040eb00e0ff9f00f0ff9f0036
:10079000e0ff9f0070ccb300eff8970080cf5000cf
:1007a00013003e008041eb0031c6b30000417800e9
:1007b000f3ff9f007ff89700814f500006003e0036
:1007c0007ff897000040e800f0ff9f007ff8970057
:1007d000814f5000faff36006ff897000040e800a4
:1007e000e0ff9f006ff89700824f5000f0ff360047
:1007f0000080fa0000000600889fbe008a9fbe00ad
:1008000000802000104088002ca3ef00f8ef2f009c
:100810000004fd00c822b6000004fd00ae0c070075
:100820000040eb00300c0700660f0700401f290056
:10083000880f0700c0202900860f0700401f2900ed
:10084000840f07000004fd00ca22b6000004fd006a
:100850000040eb00240c070080eb2000370a070063
:100860000040eb00200c0700cb02a800850f07001a
:10087000bc0c070022ec2000e1eb200080eb200004
:10088000580d0700830a0700030e0700ed0f07004d
:10089000120f0700ba0e0700a0ec2000c50e0700db
:1008a0000304200022c120008000eb000040eb0088
:1008b000770f070019c1200089017800a00a2000e5
:1008c0008040eb0012c0b300a40620005343780020
:1008d0008682fb00808f5200010032008240780047
:1008e0000000e900840f5000f8ff3a00e0cf50000c
:1008f00003003a0040222900560f0700020037008b
:1009000000232900530f070009017800a0cab30093
:10091000a1c6b300006978000040e900814f500093
:10092000fcff3a000304200022c120008000eb00fd
:100930000040eb006c0f070028c120000a042000d3
:100940000a0178008000eb000800780059000700d9
:100950008a017800080178008000eb000040eb007d
:100960004b0f0700a80a2000cb232900aa0620006d
:10097000d94078000180fb00880f5000020032004f
:100980000b007800330f07000804e9008a0f5400b9
:10099000f7ff3a000028ef00c0002000b17580008a
:1009a000800878000008f80028242900881f7800b3
:1009b00020c520004600070020c52000250f0700a5
:1009c000e04c2000b1758000800878000008f80035
:1009d000881f780020c520003d00070020c52000aa
:1009e0001c0f0700e88757000044eb00db242900b8
:1009f0003d090700884f5000fdff3200ab0b070098
:100a00000140200020812000420907000a408000a8
:100a1000a40b070080047800a00b07008a1f780051
:100a2000891f7800801f78008b1f780020c5200068
:100a30002700070020c52000060f0700e8875700a1
:100a4000ebff37000040da000000fe00e6874700b9
:100a50008e1f7800d0bf9f0066875700012f780057
:100a60000e0037005fba970014407800efb9970086
:100a7000934078000201e900814f500004003200e9
:100a80000080fb008180fb00010050000600370061
:100a90000402e800d4bf9f00030fe800e00f5100fc
:100aa000f0ff3a00020078004f0778006f00b100b5
:100ab00000000600800178000200370081597800ac
:100ac0000201e900e00f5100fcff3a0000000600bf
:100ad0000c00fa00889fbe0000047800f0ff270099
:100ae000d0bf9f008004eb0099bf9f0088bf9f008c
:100af000a8bf9f00200c2000b0bf9f007881570046
:100b0000cfb0970070805700070007000fb897001c
:100b1000094878008fb89700088050004f04be0045
:100b20000080fa0000000600ef02b000889fbe00bf
:100b30008a9fbe008c9fbe008e1f7800b0b79f00ba
:100b4000a1af9f0092b79f000000eb00a0b79f00ed
:100b50009d033700afa897008100e800a1af9f0078
:100b600053c2b300834f510005003a000007eb0069
:100b700007c3b30005c2b300b2c2b300130037000d
:100b80003fb29700b40190000304b20004003200a9
:100b90009401780082497800030ae80007003700d2
:100ba0000201fb00bfb0970002007800920307002b
:100bb00000017800e10f410083033200afb29700db
:100bc0008502e800a5b79f007f0337008101780008
:100bd00031437800d8c2b300884f53000900320077
:100be00005003c00854f530008003200824f53003f
:100bf0000c003a0007003700874f530009003a0005
:100c0000060037000e30a000f0ff37000e00a000f5
:100c1000eeff37000e10a000ecff37000e20a00002
:100c2000eaff370062016700010032000e00a100f8
:100c300068016700010032000e20a1000601fb00e0
:100c40000203b100e90f51000c003e0003037800dd
:100c50000006eb006a66b9003600fb000003b10035
:100c60000c064000860178001600fb000003b1006e
:100c7000e90f5000f7ff3600080037000006eb00d0
:100c8000a5c2b300854f530004003a009fb49700fb
:100c90004906780099b79f008301e8000005eb0042
:100ca0008ab79f00e5c2b30093cf120016003a0046
:100cb0000ee0a000e4c25200d3cf120003003200c5
:100cc000030378000a007800080037009fb59700fa
:100cd0004b0078009bb79f0080b79f008301e8001e
:100ce000090037006a00b900000041008601780061
:100cf000b600fb0002fd2f0001014100e90f510089
:100d0000f8ff360080b79f0033437800a3af9f0001
:100d1000c2c6b300824f5300250032000f003c00d2
:100d200037c6b300874f5300a500320004003c00d3
:100d3000e04f53002903320085c5b3000f00370090
:100d400045c6b300854f530017003200e5c242008c
:100d5000854f5300bd003a001300370037c7b3007a
:100d6000874f53001f00320007003c00f5c6b30058
:100d7000854f5300140032008542e800854f530030
:100d8000b2003a001300370055c7b300854f530037
:100d9000b5003200e3c24200854f5300ab003a0079
:100da000e6c79f000d003700e6c79f00b000370080
:100db00070006700010120000100320001002800de
:100dc00001077700d0ff3700e6c79f000e60a00044
:100dd000a7003700e6c79f000e50a0000e70a000cd
:100de000a3003700e6c79f009fb197004303780038
:100df00093b79f00c6b79f00e00f530002003a0070
:100e0000a5fc2000c5b79f00cfb397000003eb00ff
:100e1000010037000603e80067407b00e04f500008
:100e2000fcff3a00d6b79f000fb39700e00f5300c6
:100e300005003200dfb39700870f53000200310036
:100e400006047800d8b79f005fb397000004eb005a
:100e5000860f56000100360006045600680767003a
:100e60002e003a0009c2b300afb597003fb5970016
:100e70000e0037003a0090000004b2000400320077
:100e80001a00780009487800000de80005003700d6
:100e90008a00780000022000d7020700e10f40001e
:100ea000010032008b05e8000804e900e00f54005f
:100eb000f0ff3a00f5ff2f008b067800190037008d
:100ec0003c0090000004b200090032009c01780050
:100ed000080178003240780080497800030ee8006d
:100ee00002047800e04f50000a003a001200370078
:100ef000080178003200fb00020478008c007800c2
:100f000085bf9f00bc0207008fba9700e10f400029
:100f1000090032008d06e8000700370088027800db
:100f2000afb697004fb49700dfb497006fb5970046
:100f3000ffb597003fb69700090178008204e900e9
:100f4000e00f5100deff3a00adb79f0002027800cb
:100f5000c8b79f00d9b79f00eab79f00fbb79f00b3
:100f600005047800840f57009702320009c2b300cd
:100f70008d0578003fb597000e0037003a009000cd
:100f80000004b200040032001a007800094878001a
:100f9000000de800050037008a00780000022000fc
:100fa00095020700e10f4000010032008b05e800c8
:100fb0000804e900e00f5400f0ff3a008102370016
:100fc0009fb097004103780091b79f000604780016
:100fd000cfc4de00090578008a057800c8af9f00fd
:100fe000d9af9f00eaaf9f00fbaf9f004844de00ef
:100ff0004848dd0008047000e8c79f0070036700e0
:101000000a003200e04f540008003200e14f440073
:1010100006003200f8c79f008fd8970081cf9f004d
:1010200022002000d2b79f00040037008fd997001c
:10103000f3c79f0014002000d4b79f0075fc2f0059
:1010400085824700c5b79f0077ff3700e6c79f003e
:1010500066fc2f0006834700c6b79f0017002000dc
:10106000d7b79f0070ff3700e6c79f000e0cb30094
:101070000e007800000cb2003a003a00800f5700d2
:1010800005003d001fb097004005be004004be00b3
:1010900090b79f000e00370070006700110032000b
:1010a0001fb197004200be0092b79f00120290004d
:1010b000cfa1de000004be00830578000802be0058
:1010c000030378008b0378000605be000404be000d
:1010d000c8b79f00d9b79f00eab79f00fbb79f0032
:1010e0000b0037009fb497004902780099b79f0022
:1010f00004007800cf80de000101780082017800d2
:10110000c0b79f00d1b79f00e2b79f00f3b79f0021
:101110004fb29700dfb297006fb39700ffb397000d
:10112000e00f5200e08f5a00e00f5b00e08f5b00a1
:1011300031003d003e00b3006044b8006055b80087
:101140000402540085825c0006035d0087835d0015
:10115000c4b79f00d5b79f00e6b79f00f7b79f00c1
:1011600025003700e00f570005003d001fb0970035
:101170004005be004004be0090b79f000e0037003f
:1011800070006700110032001fb197004200be00de
:1011900092b79f0000047800010578008004eb00fe
:1011a000080278008a027800090378008903780031
:1011b0000605be000404be00c8b79f00d9b79f0053
:1011c000eab79f00fbb79f000b0037009fb4970062
:1011d0004902780099b79f000400780001002000c0
:1011e0000200200003002000c0b79f00d1b79f007d
:1011f000e2b79f00f3b79f008fb09700e08f5000d9
:101200000d003a001200200082b79f004fb29700f5
:10121000dfb297006fb39700ffb39700e00f520063
:10122000e08f5a00e00f5b00e08f5b0002003200ad
:101230008002eb0085b79f000e037800060cb20019
:10124000c6af9f0006042000cfab9700868f5300e7
:101250003500320003003c00e08f53004a003a00a2
:1012600007003700060820004fac9700860f540097
:1012700015003200060c2000860f540042003a0090
:1012800003f1200016c0b300030278003400be0052
:101290003401be004fb49700dfb497006fb59700dc
:1012a000ffb597000040e10001c8e10002d0e10075
:1012b00003d8e100330039000643e800f44f53003f
:1012c000f2ff3a002f00370016c0b30008012000db
:1012d000090020006055b8004fb09700dfb09700bc
:1012e0006fb19700ffb197000800e1000988e100a5
:1012f0000a90e1000b98e100220039004100200033
:101300000804d0008984d2000a85d2008b85d200df
:101310008100e900faff3a000643e800f04f53006d
:10132000edff3a001700370016c0b3008800200018
:10133000090020006055b8004fb09700dfb097005b
:101340006fb19700ffb197000800e1000988e10044
:101350000a90e1000b98e1000a00390031002000fa
:101360000804d0008984d2000a85d2008b85d2007f
:101370008100e900faff3a000643e800f54f530008
:10138000edff3a00e6c79f006fc197000203fb0024
:101390008fb19700830f530002003d00e3c79f0009
:1013a000040037000fb29700860f520001003d0085
:1013b00086b79f00e00f560003003200630367000a
:1013c000010032000c06e900060024000603670055
:1013d000060032008fb29700850f560002003400dd
:1013e00005065600010037000006eb00efc397002a
:1013f0000703fb000004eb00b8af9f00860f560008
:101400000200340006035600b6af9f00e4026700f6
:101410004c003200e2026700e1036700e08f5200f7
:101420001b003200bfb49700b90290000504b2005f
:101430000900320019037800b5c2b300e08f5300f1
:101440000100320085c2e800054b78003fb59700e7
:10145000060de8000a003700b6022000858f530011
:10146000010032000683e800bfb097000600780054
:101470006101070080027800e18f4200180032000d
:10148000afb597008b05e800abb79f00140037009d
:10149000858f5300120032003fb09700b0029000d9
:1014a0000504b200050032001003780005c2b30045
:1014b000054b78000608e80006003700bfb097002b
:1014c000000220004c01070080027800e18f4200fa
:1014d00003003200afb097008100e800a1b79f0081
:1014e0003fa99700e00f51006300320008c3b3002a
:1014f00002057800afb59700bfb49700390090009f
:101500000004b20004003200190078000848780096
:10151000800ce800050037008900780000032000f7
:1015200035010700e10f4000010032008b05e800a3
:101530000a05e900f1ff3a00baaf9f00abb79f0080
:101540004d003700bfa99700858f5100170032006a
:10155000e802670015003a0008c2b30003057800ee
:10156000afb59700bfb49700390090000004b200f7
:10157000040032001900780008487800800ce80068
:101580000500370089007800000220001a010700da
:10159000e10f4000010032008b05e8000a05e90078
:1015a000f1ff3a00baaf9f00abb79f00e2026700bd
:1015b000e1036700e08f52001b0032003fb297004a
:1015c000b40290000504b200090032001403780050
:1015d000b5c2b300e08f53000100320085c2e800bd
:1015e000054b7800bfb29700860ae8000a00370072
:1015f000b6022000858f5300010032000683e80008
:10160000bfb0970006007800fb000700800278005a
:10161000e18f4200180032002fb397000603e80064
:10162000a6b79f0014003700858f530012003200c8
:10163000bfb39700b70290000504b2000500320066
:101640001703780005c2b300054b7800860be8004d
:1016500006003700bfb0970000022000e600070038
:1016600080027800e18f4200030032002fb497001f
:101670000804e800a8b79f008fb497008902e9002a
:10168000422ddd009aaf9f00632bb90086057800dc
:101690008baf9f00c32bdd0085f0200085824300c7
:1016a00070006700e0a79f008e0078000102b20082
:1016b000d1a79f000e017800f2a79f0005077800d0
:1016c000a20037008fb197008301e90083b79f0024
:1016d0004faa970005042000850f520071003200c8
:1016e00003003c00e00f52007d003a000700370085
:1016f000000820004fab9700800f530055003200c8
:10170000000c2000800f530075003a00ffa39700e3
:10171000e08f53001f003d003e02be002e03be00be
:101720004fb09700dfb097006fb19700ffb19700ff
:101730003902070000047800e8c79f000804fb0096
:10174000cfc4de00090578008a0578003e02be009d
:101750002e03be000800be000a01be00aa02070058
:101760004fb49700dfb497006fb59700ffb59700af
:101770000004540081845c0002055d0083855d00e7
:10178000c8b79f00d9b79f00eab79f00fbb79f007b
:101790002c003700efa49700e08f54001c003200ab
:1017a0004fb69700dfb697003e04be002e05be0080
:1017b0000801be000c00be0044010700e0c79f0006
:1017c0000000fb00cf80de000801be004f010700d3
:1017d0000000560081805e008003780001037800dd
:1017e0000002eb0007007800860078000401780012
:1017f000840178000203be000002be00c4b79f004f
:10180000d5b79f00e6b79f00f7b79f000d003700e0
:101810009e017800cfb29700811f78001100090067
:101820008382d800cf007800a2002000811f7800ba
:10183000110009000280d80001007800cf00780074
:10184000e0c79f006fc397000643b000e6c79f0044
:101850002300370094fb2000dfa39700e08f5300a4
:101860000100320084fa20004fb09700dfb09700eb
:101870006fb19700ffb197001fac97000804e90013
:10188000050033008301d1000281d3008180d300a1
:101890000080d300f9ff37006f00600064407800db
:1018a0000e0037004fb09700dfb097006fb1970080
:1018b000ffb197008fac97008904e9000500330061
:1018c0008301d1000281d3008180d3000080d30046
:1018d000f9ff3700674060000043b000e0c79f0099
:1018e0003fb597003a0090000004b20007003200b4
:1018f0001a0178006fc0970000497800020de800d7
:10190000e04f500007003a0009003700efc597008c
:101910000b00fb00bfb0970037000700e10f40004d
:10192000030032002fb097000000e800a0b79f002e
:101930009fa89700e480500091af9f000fa99700e7
:101940006301510082af9f00680757008fb1970075
:10195000e08f51005bff3a007fa79700e801670026
:101960000fb29700848f510017003200bfaa970072
:10197000e08f52001400340008c2b300050578005f
:10198000afb59700bfb49700390090000004b200d3
:10199000040032001900780008487800800ce80044
:1019a00005003700890078000002200012000700bf
:1019b000e10f4000010032008b05e8000a05e90054
:1019c000f1ff3a00abb79f002fab970016417800ac
:1019d000e2c79f00e04f51005efc3a002fb0970035
:1019e0004f0778004f06be004f05be004f04be00f3
:1019f000ef02b10000000600889fbe0001047800dd
:101a0000b8009000628160008084eb003c003200ee
:101a1000810178000320b2001801900002003a0012
:101a2000830f510036003a000190a0003104980065
:101a300080047800f90fb200e00f510002003a0074
:101a400028009000000c7800ea8f540006003a004d
:101a5000010078000008b20003003a008800780016
:101a6000d0002000e4ff070018009000d80090008c
:101a7000810f50000b0032000000e80010049800b5
:101a80001800780009487800000ce80010c0b30086
:101a900081ff200080487800ea8f540018003a0047
:101aa000050037008800780009407800170007001b
:101ab0008004780012003700380090000010b20057
:101ac0000f00320018019000a8009000480090001c
:101ad0004f00070098009000810f50000400320072
:101ae000380090000003b300300498008084eb00bd
:101af0000000eb001004980028009000000c780013
:101b0000090078004f04be00000006000200fa0041
:101b1000889fbe00a0ff9f0001047800380090005d
:101b2000000178000204b20034003a00e2006000d4
:101b3000828f500005003a000003b3003004980083
:101b4000110498000080eb002e003700d8049000ac
:101b5000e08f540006003a0012002000e680570093
:101b6000480090002a00070019049800230037005d
:101b7000a8009000e08f500008003a00b1ff20005c
:101b800021049800010c78002100200051049800e5
:101b9000110498000030a000300498001801900053
:101ba000a80090004800900019000700280090004d
:101bb0008080eb0011049800aff89700014878008e
:101bc000000ce8002ff89700ea4f50000b003a0095
:101bd000380090000010b200080032001801900098
:101be000a800900048009000090007000000eb00ea
:101bf00010049800a8009000010c7800aff897003e
:101c00000100fb004f04be000080fa000000060047
:101c10000a00fa00e20f500021003e00f07f800031
:101c2000e10f5000060032008523200044232000ed
:101c30002323200000232000e08f520004003a00fc
:101c400085222000442220002322200000222000a0
:101c5000060028009003630002003a00870a78001b
:101c600010087300004020001300600001003a00db
:101c700013a0a0000200780006003700930278004d
:101c80000510b200fdff3200b102fb00050a78002a
:101c90000000e900e00f5000f8ff3a0008003700ac
:101ca00033002000b3bf9f00c0bf9f00d1bf9f0083
:101cb000e2bf9f006a80570000c0da006fb997004a
:101cc000020078000080fa00000006006022b800e0
:101cd000060220000000d0008180d2000482d200e1
:101ce0008582d2000000a0000202520083825a00c6
:101cf000030031000202420083824a000000a1007a
:101d00000603e900f3ff3a0000000600020ab900ea
:101d1000001bb9000200b8008100420081004300ae
:101d2000000006000800fa00889fbe008a9fbe00df
:101d300084bf9f0095bf9f00a6bf9f00b7bf9f00b5
:101d40003004be002005be000fba97009fba97006e
:101d50002fbb9700bfbb97000404440085844c0050
:101d600006054d0087854d000898be000a90be000c
:101d70000440e10005c8e10006d0e10007d8e10019
:101d800002003100680040001008e8004f05be0066
:101d90004f04be000080fa0000000600fe874700e6
:101da000889fbe008a9fbe008c9fbe008e1f780059
:101db000d0b79f00e1b79f00f2b79f0083bf9f009d
:101dc00084b79f0095b79f00a6b79f00b7b79f0045
:101dd0008000eb00f1af9f00e1af9f00d1af9f000b
:101de000c1af9f00b1af9f00010678000d04200035
:101df000ccb79f000605be000404be007fae97006e
:101e00006faf97005fa89700e00f56000f003d00ee
:101e1000cf71de000c01460002817100f2af9f001d
:101e20005d0007004f20de008180400081007000cf
:101e3000640007000802be000a03be0060fd2f0018
:101e40000f004000b7ff07001d00370052000700d9
:101e50004f21de00818040008100710059000700a1
:101e60003faa9700cfaa97005fab9700efab970010
:101e70000800520089805a000a015b008b815b00d8
:101e8000b0af9f00c1af9f00d2af9f00e3af9f00f4
:101e90004f70de000c0146000200700013002000ad
:101ea0000820e10009a8e1000ab0e1000bb8e10058
:101eb000010039008001eb0003005000f0af9f00eb
:101ec0007fae9700e00f56000f0035001000200095
:101ed000010020006011b8005fb29700efb29700d8
:101ee0007fb397008fbb970004027000858270005b
:101ef0000603710087837100d4b79f00e5b79f0088
:101f0000f6b79f0087bf9f00cfb297008502e80019
:101f1000c5b79f008d8f5200b8ff3a000c017800c2
:101f2000e00f510007003d000fb297009fb29700ed
:101f30002fb39700bfb3970060fd2f000f00400044
:101f400078ff0700ffa09700e08f500008003a00dc
:101f50003fac9700cfac97005fad9700efad970017
:101f6000d8b79f00e9b79f00fab79f008bbf9f00cb
:101f70005fb09700efb097007fb197008fb99700df
:101f80004f0778004f06be004f05be004f04be004d
:101f9000ef01b100000006004f01de008e00470097
:101fa00081007100c1af9f00afa897004f09de000c
:101fb0000000400000007100b0af9f001faa970012
:101fc00000000600a1af9f000e0007004f18de00c2
:101fd000040242000002720094af9f000900070053
:101fe00000004000818048000201490083814900cf
:101ff000b0b79f00c1b79f00d2b79f00e3b79f0063
:10200000000006001fb09700afb097003fb19700e7
:10201000cfb1970000000600881f7800180020004c
:10202000881f78005dff07008f87e9004f04780064
:1020300000000600801feb0058ff07008f87e900b3
:1020400000000600889fbe008a9fbe008c1f78009b
:102050006044b8006055b8000800e1000988e1005c
:102060000a90e1000b98e1000d003d0000005400d3
:1020700081805c0002015d0083815d001c00200006
:102080000820e10009a8e1000ab0e1000bb8e10076
:102090000b003d00210007000006eb0008003700a0
:1020a0000006eb00e00f5200e08f5a00e00f5b00eb
:1020b000e08f5b0002003d00180007001c002000bc
:1020c000d5ff0700800578000105780082047800bc
:1020d000030478000b0278008a0278000903780074
:1020e00088037800e00f5600060032006000b80058
:1020f0006011b800040250008582580006035900a0
:10210000878359000400be000601be004f06780018
:102110004f05be004f04be0000000600040254003c
:1021200085825c0006035d0087835d000000060079
:10213000889fbe008a9fbe008c1f78006044b80054
:102140006055b8000800e1000988e1000a90e1004c
:102150000b98e1000b003d000000540081805c0002
:1021600002015d0083815d001c0020000820e10069
:1021700009a8e1000ab0e1000bb8e1000b003d0046
:10218000060037000006eb00e00f5200e08f5a0017
:10219000e00f5b00e08f5b0004003d000402540090
:1021a00085825c0006035d0087835d00a1ff070058
:1021b0008005780001057800820478000304780027
:1021c0000b0278008a0278000903780088037800ff
:1021d000e00f5600060032006000b8006011b80041
:1021e0000402500085825800060359008783590075
:1021f0000400be000601be004f0678004f05be0079
:102200004f04be0000000600889fbe008a9fbe00eb
:102210008c1f78000006eb00e00f5000e08f5800a4
:10222000e00f5900e08f590007003d006044b800fe
:102230006055b8000000540081805c0002015d0020
:1022400083815d001c002000e00f5200e08f5a00e7
:10225000e00f5b00e08f5b0007003d006044b800ca
:102260006055b8000402540085825c0006035d00de
:1022700087835d000c00a200100007000203be006f
:102280000002be00e00f5600060032006000b800f9
:102290006011b800040250008582580006035900fe
:1022a000878359000400be000601be004f06780077
:1022b0004f05be004f04be0000000600889fbe0010
:1022c0008a9fbe008c9fbe000404b8000506b800bb
:1022d0008904460060854e000606b8000a054600df
:1022e000e0854e000706b8008b054600040eb800d6
:1022f000890446000a854e00e0854d00050eb800b1
:102300000a0546008b854e00060eb8008b05460078
:102310000416b8000a0546008b854e000516b80065
:102320008b054600041eb8008b0546000800be0061
:102330000a01be004f06be004f05be004f04be009e
:042340000000060093
:020000040000fa
:10234400256c0000750d00000a0000004d4f0000d0
:102354005620000057250000642c0000205b00007c
:1023640057250000645d000020200000284d000077
:102374004f560000207b0000256400007d2c0000e7
:10238400207b0000256400007d2900000d0a000068
:10239400000d00000a650000727200002040000079
:1023a400206900006420000025300000325800003d
:1023b40020700000726700002530000034580000cf
:1023c4002040000020730000746b000020250000f2
:1023d40030340000580d00000a0d00000a0d000002
:1023e4000a0000002a2a00002a2a00002a2a0000e3
:1023f4002a2a00002a2a00002a2a00002a2a000089
:102404002a2a00002a2a00002a2a00002a0d000095
:102414000a0000002a2000002a200000454e000087
:1024240043320000384a00003630000020640000c7
:10243400656d00006f2000002a2000002a0d0000b6
:102444000a00000057610000726d00002062000065
:102454006f6f0000740d00000a000000436f00005d
:102464006c640000206200006f6f0000740d0000b7
:102474000a00000065720000720d00000a000000ee
:10248400307800002530000034580000212100007d
:102494000d0a0000005b000073700000695d00001d
:1024a40020520000583a000020250000303400007b
:1024b400642c000020540000583a0000202500003d
:1024c40030340000642c0000206e00006f720000a5
:1024d4006d6100006c200000726500006720000040
:1024e40025300000345800000d0a000000000000f0
:1024f4005b69000070760000345d0000205200002b
:10250400656700006973000074650000726900006b
:102514006e67000020680000616e0000646c0000bb
:102524006572000020250000640d00000a00000010
:102534005b69000070760000345d000020520000ea
:102544005820000050610000636b000065740000b7
:1025540020250000642000006279000074650000fa
:10256400732c000020700000726f0000746f000074
:10257400636f00006c20000025300000325800001a
:102584002c2000006c6500006e6700007468000079
:102594002025000030320000582c000020430000a9
:1025a400524300002025000030340000582c000065
:1025b400207300007263000020250000642e0000d8
:1025c400256400002e250000642e00002564000010
:1025d4000d0a0000005b0000697000007634000002
:1025e4005d2000005458000020500000616300008a
:1025f4006b65000074200000256400002062000068
:1026040079740000657300002c20000070720000d3
:102614006f7400006f6300006f6c000020250000e1
:1026240030320000582c0000206c0000656e000061
:102634006774000068200000253000003258000054
:102644002c200000435200004320000025300000ed
:10265400345800002c200000647300007420000033
:10266400256400002e250000642e0000256400006f
:102674002e250000640d00000a000000436f0000d6
:10268400756c0000646e0000277400002072000066
:102694006567000069730000746500007220000023
:1026a4004152000050200000686100006e64000088
:1026b4006c650000720000005b6100007270000035
:1026c4005d20000000720000657000006c7900005d
:1026d400002000006f6b0000002000002a2a000088
:1026e4002a20000046410000494c0000202a000036
:1026f4002a2a000000770000686f00002d6800009f
:102704006173000020000000256400002e250000f5
:10271400642e0000256400002e25000064000000e3
:1027240072650000706c00006965000064000000c0
:10273400647500006e6e00006f0000000d0a00005a
:1027440000ff0000ffff0000ffff0000ff0000008b
:102754000000000000000000000000005b750000a5
:10276400647000005d2000005258000020700000da
:10277400616300006b6500007420000040200000cd
:10278400706f00007274000020250000642f0000a8
:10279400256400002c200000637200006320000008
:1027a4002530000034580000206c0000656e0000e5
:1027b40067740000682000002530000032580000d3
:1027c4000d0a0000005b000075640000705d0000ed
:1027d400205400005820000070610000636b00006a
:1027e4006574000020400000207000006f7200003b
:1027f40074200000256400002f250000642c0000d4
:1028040020630000726300002025000030340000c3
:10281400582000006c6500006e67000074680000ba
:102824002025000030320000582f00002530000021
:10283400325800000d0a0000000000005b74000024
:10284400637000005d2000005258000020700000fa
:10285400616300006b6500007420000040200000ec
:10286400706f00007274000020250000642f0000c7
:10287400256400002c200000637200006320000027
:102884002530000034580000206c0000656e000004
:1028940067740000682000002530000032580000f2
:1028a4000d0a0000000000005b6e00007470000060
:1028b4005d20000025300000313600006c750000fa
:1028c4002025000030310000366c0000750d00003a
:1028d4000a0000005b6e0000747000005d200000c0
:1028e400736900007a6500006f660000202500000f
:1028f400640000005b690000636d0000705d00000f
:1029040020500000696e000067200000706f000016
:102914006e6700002c200000736900007a650000d7
:102924006f6600003a200000253000003258000095
:082934000d0a00000000000084
:020000040000fa
:10293c00881f780001447800d2c2a9007f40600053
:10294c000064a000df03070008407800dd030700e7
:10295c00d2c2a8004f04780000000600881f78003f
:10296c0001447800d2c2a9007f4060000074a0002e
:10297c00d403070008407800d2030700d2c2a80095
:10298c004f04780000000600881f7800014478008e
:10299c00d2c2a9007f40600001cab30001407000a0
:1029ac00c803070008407800c6030700d2c2a8007d
:1029bc004f04780000000600881f7800010478009e
:1029cc00d2c2a9007f4060000064a000bd030700d4
:1029dc0008407800bb0307004840de00b90307003d
:1029ec00d2c2a8004f04780000000600d2c2a90091
:1029fc007f406000b3030700ad030700d2c2a800fc
:102a0c0000000600d2c2a9007f406000ad030700a1
:102a1c000040eb00ab030700a5030700d2c2a800df
:102a2c0000000600889fbe00004478000840780033
:102a3c00eeff07008084fb000840e800ebff070076
:102a4c004800dd00090070004f04be0000000600c5
:102a5c00881f7800004478005ecdbf00060032006d
:102a6c00d2c2a900f0cbb3009603070030c0b3006c
:102a7c0094030700d2c2a8004540de00630060004a
:102a8c005eedb700e04f500006003200d2c2a90044
:102a9c00f0c9b3008b0307005ecdbf0089030700ac
:102aac00d2c2a8004f04780000000600889fbe0028
:102abc008104780002047800d2c2a900a0c7b30038
:102acc0080030700080178008000eb000900780003
:102adc00bc030700d2c2a8004f04be0000000600d1
:102aec00881f78000044780008407800e04f5400bc
:102afc00080035004501de0063016100e1d52000ce
:102b0c00914078008180fb00810f51000100320060
:102b1c00cfff070008407800b4ff07004f0478008f
:102b2c0000000600881f78000044780008407800f8
:102b3c00e04f5400080035004501de0063016100e0
:102b4c00e1d52000914078008180fb00810f51007d
:102b5c0001003200beff070008407800b1ff0700fb
:102b6c004f04780000000600889fbe0000447800e7
:102b7c008144780008407800e04f5400080035008c
:102b8c004501de0063016100e1d520009140780031
:102b9c008180fb00810f510001003200acff070067
:102bac00894078000840780061ff07004f04be00a0
:102bbc0000000600889fbe00004478008144780025
:102bcc0008407800e04f5400080035004501de0055
:102bdc0063016100e1d52000914078008180fb0009
:102bec00810f51000100320099ff070089407800e5
:102bfc000840780059ff07004f04be000000060093
:102c0c00889fbe000044780081447800084078001a
:102c1c00e04f5400080035004501de0063016100ff
:102c2c00e1d52000914078008180fb00810f51009c
:102c3c000100320086ff07008940780008407800c8
:102c4c0051ff07004f04be0000000600889fbe0025
:102c5c00004478008104780008407800e04f54006c
:102c6c00080035004501de0063016100e1d520005c
:102c7c00914078008180fb00810f510001003200ef
:102c8c0073ff0700894078000840780028ff070090
:102c9c00c848de000840e80025ff07004f04be00ce
:102cac0000000600889fbe000104780082047800b2
:102cbc00800078000040eb00e4ff0700d2c2a900be
:102ccc00a0c3b300ff020700090178008800780058
:102cdc000000eb003b030700d2c2a8004f04be006b
:102cec0000000600881f78000104780080407800fe
:102cfc0040c5b3009cff07008800780060c5b30096
:102d0c00d2ff07004f04780000000600889fbe0029
:102d1c008040780040c5b30093ff070011c0b3009a
:102d2c0020c5b300a3ff0700a8c6b3008004eb00c6
:102d3c000840780033ff070061006000890f5000e5
:102d4c00fbff3a0011c0b30020c5b300acff070075
:102d5c00d2c2a90080c1b300da0207000040eb0028
:102d6c00d8020700d20207000084fb00d2c2a800e0
:102d7c00d2c2a90090c1b300d20207000040eb0000
:102d8c00d0020700ca020700d2c2a8004800dd002a
:102d9c00080070004f04be00000006000200fa009c
:102dac00889fbe008a9fbe008005780001057800d0
:102dbc000040eb00e0f79f00f8c9b3008004eb0083
:102dcc000800370081c0b3000840780079ff070085
:102ddc0081c0b3000840780089ff0700e0c2b3004f
:102dec0010060700084078003dff0700e80160006e
:102dfc00898f5100f3ff3a000100210020c0b3007d
:102e0c0092ff07000800210088014500830078002c
:102e1c0060c0b3008dff070010c0b300af02070005
:102e2c0012002000ea805700080078001fff0700fe
:102e3c000a0178008b007800100021001bff0700ae
:102e4c000040eb00a5020700a1c0b300c0c9b3004d
:102e5c006bff070081c0b300f0c9b30055ff07003a
:102e6c00c8c9b3008004eb00084078001cff0700c1
:102e7c0068006000890f5000fbff32004f05be0058
:102e8c004f04be000080fa00000006000600fa00a5
:102e9c001001be00d2bf9f00e3bf9f00a0019000b5
:102eac00f3bf9f00660140001202be000488be0002
:102ebc00d0029000250098005fba9700efba9700f7
:102ecc000489be008302780055009800ee80400013
:102edc00b2ff07000080fa0000000600c0c9b30072
:102eec00fffe0700800078000104b20010c0b300a0
:102efc0001003a000040eb000000060090c3b30054
:102f0c00f7fe0700000006000800fa00889fbe00cc
:102f1c008a9fbe0080057800f8ff070011c0b3003f
:102f2c00e1f79f00e04f5000400032008b84e80036
:102f3c00d16a80000040eb0044ff070062002000d3
:102f4c00f0805700d06a800056ff07001ff49700ee
:102f5c004844dd000ff097000081fb000204740070
:102f6c00aff197003ff197004ff2970070026200ab
:102f7c0018003a004811dd008381fb000301710049
:102f8c000281e900d06a8000640040008b00780068
:102f9c0044ff070069019000c811dd004811de00f4
:102fac0002817100e20498000045eb00eaf79f00f3
:102fbc00ea80570009007800070107006ff19700bd
:102fcc008a4f510003003a00ea805700090078004c
:102fdc001e030700d86a880080c0b300d1fe07002a
:102fec00d26a80008081fb00828f510006003a007b
:102ffc00a0c0b300cbfe07008080fb00c0c0b300b4
:10300c0012ff0700030037008200e900c0c0b300c4
:10301c000eff070001c4b300e0c9b300e5fe0700d2
:10302c00b6ff0700e04f5000c1ff3a004f05be004d
:10303c004f04be000080fa000000060080007800fb
:10304c0052cdbf00070032000040eb0062d52000db
:10305c0012417800804f510009003a001200200004
:10306c00010037000001eb004211dd0020d52000eb
:10307c000201400010c0b300004978001101980013
:10308c0000000600a16a8000808f500001003a0009
:10309c00526def00c16a8000808f500001003a0031
:1030ac00566def00000006000200fa00881f780041
:1030bc00000478000040eb00c0ff9f0052cdbf0021
:1030cc00e14f500007003a00e480570008007800f8
:1030dc00a26a8000020001004ff89700e04f5000f8
:1030ec0007003a0056cdbf00e14f500004003a00f3
:1030fc00e480570008007800c26a800002000100da
:10310c004f0478000080fa00000006000020200028
:10311c00ca22b700cb22a900ca22b700d2c2a9008a
:10312c0000c0eb0025020700d2c2a8000000060078
:10313c00889fbe008a1f780000047800d2c2a800c5
:10314c00e86a8800522def00f0ff070020c0b300a2
:10315c00eefe070030c0b300ecfe070020c7b30042
:10316c005ffe070001c4b300e0c9b30091fe070085
:10317c00d9c9b3000005eb000940780058fe0700e0
:10318c00610060008a0f5000fbff3200217a2000a2
:10319c0040c1b300d3fe07008000eb0080c0b30039
:1031ac00aafe0700f1ff2000a0c0b300a7fe070095
:1031bc008000eb00c0c0b300a4fe0700010021009a
:1031cc0040c0b300a1fe0700f1ff210060c0b300b6
:1031dc009efe0700d1c0b30000c4b30062fe07001e
:1031ec0061cfb30020c4b3005ffe070001c4b3007d
:1031fc0030c4b3005cfe0700e15e2000a0c4b30045
:10320c0092fe070021c1b30040c4b30056fe070074
:10321c0021c1200060c4b3008cfe070098407800e8
:10322c0040c6b30050fe07009840900050c6b30053
:10323c004dfe0700a840900020c6b3004afe0700d0
:10324c00b840900030c6b30047fe0700c84090005d
:10325c0000c6b30044fe0700d840900010c6b3006f
:10326c0041fe07000110200000c1b3009dfe0700c5
:10327c0041c0b300f0c9b3004efe07004f05780003
:10328c004f04be0000000600209f21006bff0700ca
:10329c000040eb00e0eeb700e4eeb700e8eeb7005c
:1032ac000000060001ee200091407800e0cf5000b5
:1032bc000f00320041ee200091407800e0cf50002a
:1032cc000800320031c0b30082ee200012417800b9
:1032dc00e04f51000e003a0021c0b3002200200044
:1032ec000500370011c0b3001200200002003700a7
:1032fc000001eb00824078004211dd0013c0b300e6
:10330c0004ee2000037279008481e800803179009a
:10331c00e39f6000a0272900801f780020c52000b3
:10332c00e8f5070020c52000c7040700e487570014
:10333c000000060011778000808f500001003a00d9
:10334c00e06eef0031778000808f500001003a0072
:10335c00e46eef0051778000808f500001003a003e
:10336c00e86eef00000006000200fa00889fbe0025
:10337c008a9fbe008c1f7800000678000040eb008e
:10338c00c0f79f0008ee2000e805440019c0b30008
:10339c000045780098cf140004003a001801900002
:1033ac00ec8057000c007800020001008b0f5400d9
:1033bc0004003200640444004ff097008a4f500020
:1033cc00f4ff32004f0678004f05be004f04be00dc
:1033dc000080fa0000000600881f780000047800c6
:1033ec006801900000802000800f510028003a00f6
:1033fc0010c0b3008048780008089000c800dd00b9
:10340c004800de0001007000000c9800d8589000b5
:10341c008180fb00811f7800c85890008180fb00e0
:10342c00811f7800b85890008180fb00811f7800c4
:10343c00a85890008180fb00811f7800c80890007c
:10344c00811f7800801f7800785090000080fb006e
:10345c00801f7800780090006f40600021002000f1
:10346c000100dd000080fb00801f7800a0292900ee
:10347c00801f780020c5200092f5070020c5200091
:10348c007104070008007800b7ff0700f2875700a7
:10349c004f047800000006000a00fa000001eb005f
:1034ac00b2bf9f006011b800c2bf9f00d3bf9f0086
:1034bc00e2bf9f00f3bf9f008100d1003fb997008e
:1034cc00828f5000150036003fb997000201410071
:1034dc0060017900bfb9970083814100e0817900d8
:1034ec006fba9700ffba9700c819dd004811de00cb
:1034fc000281710002014200e0814a00e2bf9f009c
:10350c00f3bf9f003fb997000201e800b2bf9f00d4
:10351c003fb99700810f5100ebff39006fb897004e
:10352c00ffb89700b1bf9f006fb89700ffb8970026
:10353c0001002000e0bf9f00f1bf9f003fb9970042
:10354c006fb89700ffb8970002004000e080480079
:10355c00e0bf9f00f1bf9f006fb89700ffb89700c6
:10356c000080ea008180ea00c0bf9f00d1bf9f00ad
:10357c004fb89700dfb897000080fa0000000600f3
:10358c000400fa00889fbe008a9fbe0000047800e9
:10359c0081447800fe0044001101be00a2bf9f00d0
:1035ac00b3bf9f007a0044001001be008288be00a9
:1035bc002fb99700bfb997000288be000000eb003e
:1035cc00400c980068009000c800dd004800de0048
:1035dc00008070006004980008089000c800dd00ae
:1035ec004800de0000807000000c98006e0544005e
:1035fc00f8009000ef806000c208dd000a0078003f
:10360c00a5ff070080057800f8009000ef806000af
:10361c00c208dd000a0078009fff07004801dd00aa
:10362c00c858de0001007100400c9800480890005a
:10363c00c8089000186190000281fb00821f78007e
:10364c00086190000281fb00821f7800785990007d
:10365c000281fb00821f7800685990000281fb00f8
:10366c00821f7800c808dd004800de00809f7000d3
:10367c0008089000c800dd004800de00809f700044
:10368c00785090000080fb00801f7800780090003c
:10369c006f0060004200dd00801f7800d02e2900f2
:1036ac00801f780020c5200006f5070020c52000eb
:1036bc00e50307008980fb00f480400008007800d7
:1036cc00f2fd0700f28757004f05be004f04be0005
:1036dc000080fa0000000600889fbe008a9fbe0092
:1036ec0002047800f484410022ef20000500090058
:1036fc00325c78006800b1006601440043ed2000a4
:10370c0005000900335978006200b10082002000e6
:10371c00620498007e0144000300090030597800cf
:10372c004200b1004000b1007a00440002ed2000dc
:10373c0003000900325878004000b1007801900075
:10374c00f0f02f00000061000060a00002ff2f00cd
:10375c00020060005000b300700498000040eb00c1
:10376c00704c98004849dd004848de0000007100ac
:10377c00000c980020412300100c98000001eb0075
:10378c00220c980000c8b300605498007154980043
:10379c00420c98006e054400410120000a0078009c
:1037ac003dff070080057800f8009000ef80600076
:1037bc00c208dd000a00780037ff07004801dd0071
:1037cc00c858de0001007100400c980048089000b9
:1037dc00c8089000186190000281fb00821f7800dd
:1037ec00086190000281fb00821f780078599000dc
:1037fc000281fb00821f7800685990000281fb0057
:10380c00821f7800c808dd004800de00809f700031
:10381c0008089000c800dd004800de00809f7000a2
:10382c00785090000080fb00801f7800780090009a
:10383c006f0060004200dd00801f7800d02e290050
:10384c00801f780020c520009ef4070020c52000b2
:10385c007d030700ee804400080078004ffd070050
:10386c00f28757004f05be004f04be000000060053
:10387c0002ceb3000241400010c0b300e1c5b3005a
:10388c00814f5100010036000040eb0000000600a3
:10389c00c077800000000600d07780000000060092
:1038ac000000eb00d0778800c0778800000006008d
:1038bc00f82eec00a02302000000000060778000ce
:1038cc0000000600fa2eec000080fb0070778800e8
:1038dc00782202000000000000000600f0eeb700a5
:1038ec000000060080002000f82eb400d302a900ce
:1038fc00710020000040eb00052020000002eb00ce
:10390c00160020008081eb00d2e2a8009216800005
:10391c0005016100840f5100020032000131dd000d
:10392c0002407000d2e2a9008100e900838f5000b0
:10393c00f5ff3a0000000600881f780080437800ed
:10394c0080002000f82eb400fa2eb4007100200084
:10395c000040eb008783fb008041780006202000ac
:10396c008002eb00180020000082eb0001b9de00a1
:10397c0061416100834f510002003a00d302a9005b
:10398c0001003700d302a800d2e2a80092168000f2
:10399c0006016100850f5100020032000141dd007b
:1039ac0002407000d2e2a9008100e900848f50002f
:1039bc00eeff3a004f04780000000600deff07001f
:1039cc00000006000200fa00889fbe008a9fbe001d
:1039dc000005780081047800020478000000eb00f8
:1039ec00b0bf9f00800f550010003a003fb8970001
:1039fc00800f540031003600f82eec00a02302009a
:103a0c0000000000bfb897006077800080f4780059
:103a1c003fb897000000e800b0bf9f003fb8970088
:103a2c00880f5000f4ff390024003700e08f540059
:103a3c00040032003fb89700800f540012003e0083
:103a4c001e0037003fb89700800f54001b00360053
:103a5c00fa2eec003fb897006a4078000080fb001b
:103a6c007077880078220200000000003fb89700b1
:103a7c000000e800b0bf9f003fb89700800f5400d3
:103a8c00f3ff3e000d003700f82eec00fa2eec0090
:103a9c00bfbd97003fb897006a407800c7ff07008a
:103aac0080f47d003fb897000000e800b0bf9f0095
:103abc003fb89700800f5400f3ff3e004f05be0047
:103acc004f04be000080fa0000000600d122a800be
:103adc00f0ef2f00d022b600f1f72f008000fd0090
:103aec00d022b6008000fd00d0c2a900c922a900d6
:103afc008000fd00d222b6008000fd00d222b6006c
:103b0c00000006004822ef008000eb00001280004d
:103b1c0061006000810f5000fcff320040128000f9
:103b2c00000006000200fa008000eb00f1bf9f00cd
:103b3c000080fb00401288000012800061006000d1
:103b4c00810f5000fcff320040128000f0bf9f003c
:103b5c000080fa0000000600c0e2210037fd0700db
:103b6c00e04f500002003a0000342900b602070072
:103b7c00000006002a00fa0005102000a5b79f00df
:103b8c0085002000b5b79f0065c0b30085ef9f008e
:103b9c0045c0b30095ef9f0005102000e04f520088
:103bac000100320005202000d5b79f007482570019
:103bbc0005000900305a78006400b1006000b100c3
:103bcc006e80570003000900315878004000b100a6
:103bdc004100b1006a805700050009003258780096
:103bec006000b1006200b10064805700030009005e
:103bfc00335878004000b1004300b10060fd2f0045
:103c0c000f004000313a29000500090031587800b6
:103c1c006000b100c0fd2f000f00400041ed2000fe
:103c2c0005000900315878006000b1008060200068
:103c3c0090b79f00a102200060fd2f000f004000f4
:103c4c0056fc07000080fa0000000600881f780070
:103c5c00000478006801900060802000800f510003
:103c6c005b003a0010c0b30080487800e0352900b2
:103c7c007502070078009000c800dd004800de00e7
:103c8c00008070007004980008089000c800dd00e7
:103c9c004800de0000807000000c9800280890009e
:103cac00c800dd004800de0001007000200c980008
:103cbc00e20f500016003a0050362900620207004d
:103ccc0000022000080040006200200041ed2000ae
:103cdc005bf30700e00f50000a003a00600220007e
:103cec00080040004200200001ed200054f30700c2
:103cfc00e00f500003003a00b036290052020700d2
:103d0c0031003700f03629004f0207002e00370033
:103d1c00000220000800400062002000913a2900b7
:103d2c0047f30700e00f500015003a00d037290088
:103d3c0045020700186890000080fb00801f780087
:103d4c00086890000080fb00801f7800786090006d
:103d5c000080fb00801f7800686090000080fb00f2
:103d6c00801f780060382900801f780020c5200053
:103d7c0054f3070020c5200033020700ea875700e0
:103d8c0060022000080040004200200001ed2000ed
:103d9c002bf30700e00f500009003a0076014400b5
:103dac0014c0b300fc01440001ed200040ed2000e4
:103dbc0070ff07002039290023020700020037009a
:103dcc00a039290020020700003a29001e02070032
:103ddc004f047800000006008201780002ed2000fc
:103dec0003000900315978004100b10042ed200078
:103dfc0005000900305978006000b1000042eb006a
:103e0c00923a29005bff070000000600303a2900b7
:043e1c00000006009c
:020000040000fa
:103e2000520c00000e01000000000000f80e00001f
:103e3000040000000200000000000000000000007c
:103e4000ec0e00000600000000000000d00e000094
:103e50001000000000000000f20e0000060000004c
:103e600002000000b0487a00db5bea00e00e0000d0
:103e70000c00000000000000fc0e00000400000028
:103e8000020000000000000000000000380e0000ea
:103e90005a00000000000000920e00002000000008
:103ea00000000000600d0000d800000000000000cd
:103eb000b20e00001e000000020000000000000022
:103ec00000ffff000004a30012345600c0a8010048
:103ed0007bc0a8000101c000a8019300c2aba700ed
:103ee00082000000000800005204000000000000f2
:103ef000000f00000400000002000000fffffe00b1
:103f0000ff000000040f000004000000000000009b
:103f1000a80f00002a00000002000000303132002b
:103f200033343500363738003941420043444500c8
:103f3000460030003132330034353600373839002e
:103f4000616263006465660000286e00756c6c0039
:103f500029000000080f0000a0000000020000007f
:103f6000010000000000000000000a000000000046
:103f700000000000006400000000000000000000dd
:103f8000e80300000000000000001000270000000f
:103f90000000000000a086000100000000000000fa
:103fa00040420f00000000000000800096980000d2
:103fb000000000000000e100f50500000000000026
:103fc00000ca9a003b00000000000000e40b54000f
:103fd000020000000000e800764817000000000022
:103fe0000010a500d4e8000000000000a0724e0000
:103ff00018090000000040007a10f3005a00000089
:104000000080c600a47e8d000300000000c16f0088
:10401000f2862300000000008a5d780045630100fd
:1040200000006400a7b3b600e00d000000e88900be
:104030000423c7008a000000f80f000006000000fb
:1040400000000000d20f0000260000000200000067
:10405000f90f000000f90f00090000000002000045
:10406000fb0f000000fb0f000e020100000000002b
:104070000000000000000000060202000000000036
:10408000d20f0000fe0f000002000000020000003e
:08409000010000000000000027
:020000040000fa
:104098008009220084fc07000080eb0090748800ef
:1040a800b0748800d0748800f07488001075880097
:1040b800307588005075880070758800000006000b
:1040c8000200fa00889fbe008a9fbe008004780024
:1040d8000040eb00e0f79f0028e92000fc054400c1
:1040e80000457800a9109000988f100004003a004d
:1040f80018019000ea8057000900780002000100ca
:104108008b0f540004003200640444006ff09700e1
:104118008a4f5000f3ff32004f05be004f04be0027
:104128000080fa0000000600881f7800000478006c
:1041380078509000f14f50001f003a0010c0b300b3
:104148008048780018109000c800dd004800de00a4
:104158000100700010149800a81090004809dd00b4
:10416800c808de0082807000211498003811900081
:10417800c811dd004811de000301710032149800f7
:10418800821f780048119000821f7800811f7800f4
:10419800801f7800003b2900801f780020c5200080
:1041a80049f2070020c52000280107000800780010
:1041b800c3ff0700ea8757004f0478000000060095
:1041c80092748000e10f41000900320063e9200089
:1041d8000001eb000082eb00750020000201e800fe
:1041e80002037800930f120008003a00010037001c
:1041f8000003eb004233dd0022e9200001317b009f
:104208008280e80080307b0003003700e4814100b1
:10421800850f5100f1ff3a0000000600889fbe009c
:104228008a1f7800000478000205780003027800ed
:10423800e8844000c848dd004848de00008070007f
:10424800301498004820dd00c822de008082720009
:1042580025149800151498008000eb00411498006c
:10426800891f7800891f7800811f7800841f7800d3
:10427800841f7800503e2900801f780020c5200048
:1042880011f2070020c52000f00007000801be0059
:1042980011c1b3000a00780010fd0700ec87570031
:1042a8004f0578004f04be0000000600889fbe003e
:1042b80012c0b3008248780020119000b107200096
:1042c800810f51002a003a00102b9000a02890007e
:1042d800c831dd000001eb00480ade0082027800e8
:1042e80004017100858171000182fb000500200036
:1042f800482cdd00c824de00890474004824dd0051
:10430800080171008981710001f02f000103630029
:1043180007002000c83bdd000680fd0086437800ca
:104328000043eb0006017100878171000618280020
:1043380057c527000201430083814b00e2778800bc
:10434800f3778800829fbe0030299000c029900032
:10435800829fbe0060452900801f780020c520008c
:10436800d9f1070020c52000b8000700ea875700e8
:104378004f04be0000000600b1072000a01522006f
:104388008fff070040002000801f7800c0462900ea
:10439800801f780020c52000cbf1070020c5200031
:1043a800aa000700e487570000000600889fbe00a7
:1043b8008004780088e32000a20520008000eb003c
:1043c80008007800b9f1070031ceb3000100780089
:1043d80062eeb700a1c0b3000100780064eeb70038
:1043e800c1ceb3000100780065eeb700b307200026
:1043f80009017800010320000800780087ff070002
:104408004f04be0000000600889fbe008a9fbe00c1
:104418008c1f78000004780078509000e14f50001d
:1044280028003a008048780018109000e80f5000e3
:1044380024003a0080022000801f7800c04729002d
:10444800801f780020c520009ff1070020c52000ac
:104458007e0007000040eb002064980010c0b30005
:104468001ffd07000005eb002a1498002b0220000e
:104478008885450088089000f48050000b0078007b
:1044880006fc07000006780088089000f4805000b9
:104498000b00780001fc07004801dd00c860de0061
:1044a800010071002014980088089000f4c05000a2
:1044b8000800780033fc07000a40780008fd070070
:1044c800e48757004f0678004f05be004f04be0032
:1044d800000006008020220073fb07000000060091
:0844e8000000060000000600c0
:020000040000fa
:1044f000801f7800707780000070a700d302a800aa
:104500000070a600d302a900d2e2a900d2e2a8005e
:104510000060a700d302a8000060a600d302a90093
:10452000d2e2a900d2e2a8000050a700d302a8005e
:104530000050a600d302a900d2e2a900d2e2a8004e
:104540000040a700d302a8000040a600d302a900a3
:10455000d2e2a900d2e2a8000030a700d302a8004e
:104560000030a600d302a900d2e2a900d2e2a8003e
:104570000020a700d302a8000020a600d302a900b3
:10458000d2e2a900d2e2a8000010a700d302a8003e
:104590000010a600d302a900d2e2a900d2e2a8002e
:1045a0000000a700d302a8000000a600d302a900c3
:1045b000d2e2a900d2e2a800d2e2a9004f0078001e
:0445c00000000600f1
:020000040000fa
:1045c400000028000011880000402000101188001d
:1045d400c000200040118800cae2a900123a8000fd
:1045e400f20bb20060042000710520002374200047
:1045f4008049780081497800824978003336800008
:10460400f20f2e00028161000230b30032368800be
:10461400123a80000260a0002374200080497800d0
:1046240081497800824978000000060003202000b8
:104634000001eb001111800083806000828f500024
:10464400fcff3a000080fb002011880000000600f7
:10465400889fbe008004780019407800e04f500025
:10466400050032000044eb00f0ff070059407800d9
:10467400884f5000fcff3a004f04be0000000600c3
:10468400c142a900c342a80000000600889fbe00e2
:104694008a9fbe0080447800010478000205be00b1
:1046a400c342a90030c0b30088fc07000940780069
:1046b40086fc07004840de0084fc070008407800c0
:1046c40082fc07000b0178008a0078000000eb00f0
:1046d400befc0700c342a8004f05be004f04be0045
:1046e40000000600889fbe008a9fbe0080447800b8
:1046f400010478000205be00c342a90020c0b30033
:1047040072fc07000940780070fc07004840de0096
:104714006efc0700084078006cfc07000b01780071
:104724008000eb000a007800a8fc0700c342a80040
:0c4734004f05be004f04be000000060050
:020000040000fa
:10474000801f78000000eb00d302a900d2e2a8008d
:10475000d322af000070a000d2e2a900d2e2a800ec
:10476000d322af000060a000d2e2a900d2e2a800ec
:10477000d322af000050a000d2e2a900d2e2a800ec
:10478000d322af000040a000d2e2a900d2e2a800ec
:10479000d322af000030a000d2e2a900d2e2a800ec
:1047a000d322af000020a000d2e2a900d2e2a800ec
:1047b000d322af000010a000d2e2a900d2e2a800ec
:1047c000d322af000000a000d2e2a90060778800e9
:0847d0004f0078000000060014
:020000040000fa
:1047d800f0509000e6cf500017003a00901090007b
:1047e8004809dd00c808de008280700011109800ba
:1047f80020119000c811dd004811de00030171008e
:104808002210980080199000831f780010189000db
:10481800801f7800821f7800811f780000422900dd
:10482800801f780020c52000a7f0070020c52000c1
:1048380086ff0700ea87570000000600c03e2200f6
:1048480099fa070000000600000006000f00780033
:10485800a001b10000000600900188001100ba0014
:084868009180ba000000060077
:020000040000fa
:0200000401f009
:04000000ffff0000fe
:020000040000fa
:0200000401f009
:04000400ffff0000fa
:020000040000fa
:0200000401f009
:04000800ffff0000f6
:020000040000fa
:0200000401f009
:04000c0079ff000078
:020000040000fa
:0200000401f009
:040010001bff0000d2
:020000040000fa
:0200000401f009
:0400140077ff000072
:020000040000fa
:0200000401f009
:04001800f8ff0000ed
:020000040000fa
:0200000401f009
:04001c00deff000003
:00000001FF
