:020000040000fa
:080000000002040000000000f2
:020000040000fa
:10000800a0020000a0020000a0020000a002000060
:10001800a0020000a0020000a0020000a002000050
:10002800a0020000a0020000a0020000a002000040
:10003800a0020000a0020000a0020000a002000030
:020000040000fa
:020000040000fa
:100400006fff20000e7f24000e0188000000000016
:100410000c000700404121000100200011000700ee
:10042000000020000000e000020032000000020096
:1004300000000000e4140200000000000040da00a8
:100440000000fe004440a900c03120000000e00090
:100450000300320000002000a00188004440a800f2
:100460000000060091018800800078000000eb0089
:1004700015003700e280400032a0b4009101ba00bc
:10048000e280400032a0b4009102ba00e280400055
:1004900032a0b4000002eb00472bde00f507b200eb
:1004a000602ce10004003a000059eb008301e900f0
:1004b000fdff3e00040037006128e100010032002a
:1004c0000082eb00040007001101ba000200e00006
:1004d000e8ff3a00000006003159ba008301e90044
:1004e0000c0032002159ba008301e90008003200f3
:1004f0000400e00003003a00e280400032a0b400b3
:10050000f5ff370011d9ba008301e900faff3a007c
:100510008100e800e180400032a0b4000000060045
:100520003815040000000000f01204000000000074
:100530006210040000000000e2150400000000004a
:100540000040da000000fe00e68747008e1f7800ba
:10055000d0bf9f0066875700012f78000e0037003c
:100560005fba970014407800efb997009340780085
:100570000201e900814f5000040032000080fb00be
:100580008180fb0001005000060037000402e800f3
:10059000d4bf9f00030fe800e00f5100f0ff3a00c6
:1005a000020078004f0778006f00b10000000600dd
:1005b0008001780002003700815978000201e900cb
:0c05c000e00f5100fcff3a0000000600b4
:020000040000fa
:1005cc00313500003a350000303a0000353000007b
:1005dc000041000070720000203300003020000049
:1005ec003230000031330000000000000000000039
:1005fc00ff000000000000000000000000000000f0
:10060c0000000000000000000000000000000000de
:10061c0000000000000000000000000000000000ce
:10062c0001000000020000000200000000000000b9
:10063c0000000000000000000000000000000000ae
:10064c00000000000000000000000000000000009e
:10065c000000000002000000030000000000000089
:10066c00000000000000000000000000000000007e
:10067c00000000000000000000000000000000006e
:10068c000000000000000000030000000700000054
:10069c000200000002000000020000000000000048
:1006ac00000000000000000000000000000000003e
:1006bc00000000000000000000000000040000002a
:1006cc000700000002000000020000000200000011
:1006dc00000000000000000000000000000000000e
:1006ec0000000000000000000000000000000000fe
:1006fc00050000000f0000000200000002000000d6
:10070c0002000000000000000000000000000000db
:10071c0000000000000000000000000000000000cd
:10072c0000000000060000000f00000002000000a6
:10073c0002000000020000000000000000000000a9
:10074c00000000000000000000000000000000009d
:10075c000000000000000000070000000f00000077
:10076c000200000002000000020000000000000077
:10077c00000000000000000000000000000000006d
:10078c000000000000000000000000000800000055
:10079c000f00000002000000020000000200000038
:1007ac00000000000000000000000000000000003d
:1007bc00000000000000000000000000000000002d
:1007cc00090000000d0000000700000002000000fe
:1007dc000100000001000000010000000100000009
:1007ec0001000000010000000000000000000000fb
:1007fc00000000000a0000000d00000007000000cf
:10080c0002000000010000000100000001000000d7
:10081c0001000000010000000100000000000000c9
:10082c0000000000000000000b00000011000000a0
:10083c0002000000010000000100000000000000a8
:10084c00000000000000000000000000000000009c
:10085c000000000000000000000000000c00000080
:10086c001000000002000000010000000200000067
:10087c00000000000000000000000000000000006c
:10088c00000000000000000000000000000000005c
:10089c000d00000006000000060000000100000032
:1008ac000100000001000000010000000100000038
:1008bc00010000000000000000000000000000002b
:1008cc00000000000e000000080000000200000004
:1008dc00010000000100000000000000000000000a
:1008ec0000000000000000000000000000000000fc
:1008fc0000000000000000000f0000000d000000d0
:10090c0007000000020000000100000001000000d0
:10091c0001000000010000000100000001000000c7
:10092c0000000000000000000000000010000000ab
:10093c000f0000000a00000002000000020000008e
:10094c000200000002000000020000000200000093
:10095c000200000002000000020000000200000083
:10096c00110000000d000000070000000200000054
:10097c000100000001000000010000000100000067
:10098c000100000001000000000000000000000059
:10099c0000000000120000000f0000000a00000020
:1009ac000200000002000000000000000000000037
:1009bc00000000000000000000000000000000002b
:1009cc000000000000000000130000000600000002
:1009dc0009000000010000000100000001000000ff
:1009ec0001000000010000000100000001000000f7
:1009fc0001000000010000000000000014000000d5
:100a0c0006000000040000000100000001000000ce
:100a1c0001000000010000000000000000000000c8
:100a2c0000000000000000000000000000000000ba
:100a3c00150000000600000000000000000000008f
:100a4c00000000000000000000000000000000009a
:100a5c00000000000000000000000000000000008a
:100a6c000000000016000000060000000700000057
:100a7c000200000002000000020000000100000063
:100a8c000100000001000000010000000000000057
:100a9c00000000000000000017000000060000002d
:100aac00070000000200000002000000020000002d
:100abc000100000001000000010000000100000026
:100acc000000000000000000000000001800000002
:100adc0006000000070000000200000002000000f9
:100aec0002000000010000000100000001000000f5
:100afc0001000000000000000000000000000000e9
:100b0c0019000000060000000400000002000000b4
:100b1c0002000000020000000200000000000000c3
:100b2c0000000000000000000000000000000000b9
:100b3c00000000001a000000060000000400000085
:100b4c000200000002000000020000000200000091
:100b5c000000000000000000000000000000000089
:100b6c0000000000000000001b0000000600000058
:100b7c000100000004000000000000000000000064
:100b8c000000000000000000000000000000000059
:100b9c000000000000000000000000001c0000002d
:100bac00060000000400000001000000010000002d
:100bbc000100000001000000000000000000000027
:100bcc000000000000000000000000000000000019
:100bdc00494e0000534900004748000054210000d2
:100bec00ffff0000ffff0000ffff000000000000ff
:080bfc000000000000000000f1
:020000040000fa
:100c0400881f7800710020000044eb000080fb0086
:100c1400884178008002eb00170020000082eb007e
:100c2400000378000181de0061416100834f5100bf
:100c340002003a00d202a90001003700d202a80043
:100c44005216800068016100850f510002003200d5
:100c54000139dd0002447400d222a800d222a90086
:100c64008100e900848f5000edff3a000880fb000a
:100c7400801f7800861f7800b0032000801f780052
:100c840021002000b00020006b050700e687570014
:100c9400084078004f047800000006000400fa00c1
:100ca4008000eb00e1bf9f00f1bf9f008041eb009b
:100cb4000002eb003106200015003700e4bf9f005e
:100cc4006fb99700810f510010003e00f4bf9f00e0
:100cd4007fb99700810f510006003e007fb997004d
:100ce4000201e800f2bf9f007fb99700810f510015
:100cf400faff36006fb997000201e800e2bf9f00d7
:100d04006fb99700810f5100f0ff36000040e900f1
:100d1400834f5000e9ff3a000080fa00000006000b
:100d2400889fbe008a1f78008104780002447800fe
:100d3400ca42a900b2ff0700e04f54000700320086
:100d44000045eb0019407800adff0700805c780097
:100d54000844e9008a4f5400faff3a00ca42a80046
:100d64004f0578004f04be00000006000200fa00a0
:100d7400889fbe00d0bf9f008104780002047800e1
:100d840022c0b300e680570040c6b300e4ff07006a
:100d94000841780089007800c0c2b300e0ff070072
:100da4004f04be000080fa00000006000200fa00b2
:100db400889fbe00d0bf9f008104780002047800a1
:100dc40022c0b300e680570000c6b300d4ff07007a
:100dd400084178008900780080c2b300d0ff070082
:100de4004f04be000080fa00000006000200fa0072
:100df400889fbe00d0bf9f00810478000204780061
:100e040022c0b300e6805700c0c6b300c4ff070089
:100e14000841780089007800a0c2b300c0ff070031
:100e24004f04be000080fa0000000600881f78000e
:100e3400ca42a9007f40600071ff07000040eb0038
:100e44006fff07000084fb000040eb006cff07000d
:100e5400ca42a8004800dd00080070004f04780072
:100e640000000600881f780001047800ca42a90027
:100e74007f4060000064a00061ff07000840780024
:100e84005fff07004840de005dff0700ca42a8007c
:100e94004f0478000000060020f9200000c8eb0091
:100ea40000000600881f78000044780020f9200024
:100eb400904f540008003200ca42a9008840440000
:100ec40000ccb30000c070004dff0700ca42a80068
:100ed40020f92000084878004f047800000006003c
:100ee400889fbe000144780080447800e04f5000a1
:100ef400030035000080fb004500de00e9ff070029
:100f0400ca42a9007fc064000074a0003cff07002f
:100f1400084078003aff0700ca42a8004f04be0008
:100f240000000600889fbe00004478008104780019
:100f34008940780008407800e9ff0700c848de00cf
:100f44000840e800e6ff07004f04be00000006006a
:100f5400889fbe000144780080447800e04f500030
:100f6400030035000080fb004500de00cdff0700d4
:100f7400ca42a9007fc064000064a00020ff0700eb
:100f8400084078001eff0700ca42a8004f04be00b4
:100f940000000600889fbe000044780081047800a9
:100fa4008940780008407800e9ff0700c848de005f
:100fb4000840e800e6ff07004f04be0000000600fa
:100fc400881f780000447800e04f54000300350087
:100fd4000880fb004500de00b2ff0700ca42a900fa
:100fe4007f40640006ff07000040eb0004ff070099
:100ff400ca42a8004f04780000000600889fbe0083
:101004000044780008407800edff07008044780031
:101014000840e800eaff07004800dd008984fb007f
:10102400090070004f04be0000000600a0c9b30010
:10103400e3ff070000000600fcff07000080fb0040
:101044000000ea004f00de0000000600b0c9b30053
:10105400dbff07006140600000000600e0c9b30048
:10106400d7ff07000000d100610060000000060007
:10107400889fbe008a9fbe000004780001057800a6
:10108400f6ff07008005eb00e04f5000140032002b
:101094000040eb00d9ff07008005780020c0b300b2
:1010a400d6ff07008b054000000023000b00500012
:1010b4008a0f50000a003e000040eb00cfff0700fb
:1010c4008044eb008005eb00800f550004003e00d7
:1010d400e2ff0700894f5000fdff3a008005eb0056
:1010e4000a017800880078000b0078003fff0700b1
:1010f4008044eb00d9ff0700894f5000fdff3a0000
:101104008b0078000040eb00a2ff07008a00780003
:1011140020c0b3009fff07000041eb008000eb00fc
:1011240040cdb300fefe0700584090000080fb0055
:10113400801f7800484090000080fb00801f7800ea
:10114400384090000080fb00801f78002840900009
:101154000080fb00801f7800184090000080fb0096
:10116400801f7800184478000880fb00801f7800f6
:101174008a1f780000132000801f780021002000bf
:10118400100120002c0407008a1f78008b1f7800b0
:101194008a1f780010132000801f7800210020008f
:1011a4002001200024040700f88757004f05be00e3
:1011b4004f04be00000006000600fa001001be0045
:1011c400d2bf9f00e3bf9f00a0019000f3bf9f0028
:1011d400660140001202be000488be00d0029000e6
:1011e400250098005fba9700efba97000489be0003
:1011f4008302780055009800ee8040009cff0700b1
:101204000080fa0000000600ec874700889fbe00bb
:101214008a9fbe008c9fbe008e1f78000007780056
:1012240082ff070011c0b30081f79f00e04f500018
:101234006e0032005d1520000e84e8000c002300cf
:10124400ebff250082002000f8805700a07f80007b
:10125400c6fe07000fe897008081fb001fea970095
:101264000482fb004825dd0003057500afea970002
:101274008582fb003feb97000683fb00c834dd004a
:10128400858474007fe997000281fb00821f780047
:101294004fe997000281fb00821f78001fe9970045
:1012a4000281fb00821f78006fe197000281fb003e
:1012b400821f7800861f7800851f7800841f7800bd
:1012c400831f7800891f7800f40ff8008d1f7800c1
:1012d4002100200000012000d70307006fd19700f0
:1012e40070016100f6875700e00f510030003a00aa
:1012f4008984e900a07f800066004000090178002d
:101304008e00780099fe070068019000c811dd0086
:101314004811de000281710062049800384990008f
:101324000281fb00821f7800284990000281fb00a3
:10133400821f7800184990000281fb00821f780008
:10134400084990000281fb00821f780078419000d8
:101354000281fb00821f7800684190000281fb003b
:10136400821f7800891f780042162000821f7800af
:1013740021002000f0002000af0307008044eb00b0
:1013840089e79f0001fe2f008f804000080078004d
:10139400c2000700f08757000ff19700894f5100f2
:1013a40003003a00f0805700080078002902070083
:1013b400a27f80008b0078008c0f51000100320066
:1013c4008280e90060c0b300f2fe0700aa7f8800b3
:1013d4000041eb008000eb00c0ccb30050fe0700de
:1013e40012ff0700e04f500096ff3a004f077800c5
:1013f4004f06be004f05be004f04be00cf00b10033
:1014040000000600889fbe008a9fbe008c1f7800e3
:10141400c842a900c862a800d002a900d022a9002d
:10142400ca42a800d202a800d222a800b8c9b300b8
:101434008004eb004123210060c9b300d5fe0700fe
:1014440060c9b300edfe070041232100810f500065
:10145400f8ff3a0008407800d9fe070070006000e9
:10146400890f5000fbff320001c1b300e0c6b30096
:101474009bfe070088fe070040c6b30007fe070076
:1014840060c9b300ddfe0700890f5000e9ff3a0090
:1014940040c6b30001fe07000160220040c7b3004c
:1014a400bcfe07008000eb000040eb00b9fe070023
:1014b4000100230040c0b300b6fe070091002000e5
:1014c40040c3b300b3fe070011c0b300e0c9b300ca
:1014d40083fe070010c6b300b9fe0700004678007b
:1014e40000c6b300b6fe07008045780030c6b300de
:1014f400b3fe07000045780020c6b300b0fe070025
:101504008044780050c6b300adfe07000044780064
:1015140040c6b300aafe0700804078000c86fb009a
:101524008c1f78008b85fb008b1f78000a85fb00dd
:101534008a1f78008984fb00891f78000884fb00d7
:10154400881f78008180fb00811f7800c01a20006a
:10155400801f780021002000d000200036030700ff
:10156400ee8757004f0678004f05be004f04be00bb
:10157400000006000040eb00a1fd20008048780038
:10158400e480400080487800e4804000804878008f
:1015940000000600a1fd20000041eb00914f110066
:1015a4000a003200e4804000914f1100050032002f
:1015b400e4804000914f11000b003a00210020000c
:1015c4000300370011002000010037008000eb0009
:1015d400c208dd00a2fd20000101410011c0b300da
:1015e400014978001001980000000600e17e8000a7
:1015f400808f500002003a00a1fd20008048eb00db
:10160400017f8000808f500002003a00e1fd20003d
:101614008048eb00217f8000808f500002003a0058
:1016240020fe20000048eb00000006000200fa0043
:10163400889fbe008a9fbe008c1f78000006780039
:101644000040eb00c0f79f00a8fd2000e80544001f
:1016540019c0b3000045780098cf140004003a0084
:1016640018019000ec8057000c0078000200010083
:101674008b0f540004003200640444004ff09700c0
:101684008a4f5000f4ff32004f0678004f05be0029
:101694004f04be000080fa0000000600881f780096
:1016a400000478006801900000802000800f510041
:1016b40024003a0010c0b300804878000808900065
:1016c400c800dd004800de0001007000000c980036
:1016d400c808900048099000d85990008381fb0005
:1016e400831f7800c85990008381fb00831f780012
:1016f400b85990008381fb00831f7800a85990009b
:101704008381fb00831f78004811dd00c808de00d8
:10171400811f7100f85090008180fb00811f7800c8
:10172400801f780070052000801f78008100200051
:1017340080012000c002070008007800bbff0700fa
:10174400f08757004f047800000006000a00fa00f2
:101754000001eb00b2bf9f006011b800c2bf9f0040
:10176400d3bf9f00e2bf9f00f3bf9f008100d10061
:101774003fb99700828f5000150036003fb997009b
:101784000201410060017900bfb9970083814100e3
:10179400e08179006fba9700ffba9700c819dd009d
:1017a4004811de000281710002014200e0814a001a
:1017b400e2bf9f00f3bf9f003fb997000201e8001a
:1017c400b2bf9f003fb99700810f5100ebff390072
:1017d4006fb89700ffb89700b1bf9f006fb897002c
:1017e400ffb8970001002000e0bf9f00f1bf9f00f9
:1017f4003fb997006fb89700ffb897000200400008
:10180400e0804800e0bf9f00f1bf9f006fb89700e1
:10181400ffb897000080ea008180ea00c0bf9f0003
:10182400d1bf9f004fb89700dfb897000080fa003f
:10183400000006000400fa00889fbe008a9fbe00d4
:101844000004780081447800fe0044001101be00c9
:10185400a2bf9f00b3bf9f007a0044001001be00e6
:101864008288be002fb99700bfb997000288be00d6
:101874000000eb00400c980068009000c800dd00f8
:101884004800de00008070006004980008089000a2
:10189400c800dd004800de0000807000000c9800e5
:1018a4006e054400f8009000ef806000c208dd007f
:1018b4000a007800a5ff070080057800f800900072
:1018c400ef806000c208dd000a0078009fff070077
:1018d4004801dd00c858de0001007100400c98008a
:1018e40048089000c8089000186190000281fb002d
:1018f400821f7800086190000281fb00821f78003b
:10190400785990000281fb00821f7800685990008a
:101914000281fb00821f7800c808dd004800de0059
:10192400809f7000785090000080fb00801f78003a
:101934008984fb00891f780070082000801f7800cc
:1019440081002000600120003b020700f480440075
:101954000800780019040700f08757004f05be00ff
:101964004f04be000080fa0000000600889fbe00fd
:101974008a9fbe008c1f780002047800f484410022
:1019840062fe200005000900325c78006800b100a6
:1019940066014400e3fc2000050009003359780087
:1019a4006200b1008b0020006b0498007e014400ab
:1019b40003000900305978004200b1004000b10032
:1019c4007a004400a2fc2000030009003258780089
:1019d4004000b10078019000f0f02f000000610099
:1019e4000060a00002ff2f00020060005000b3005e
:1019f400700498000040eb00704c98000b49dd0027
:101a04000b48de0000007100000c98002041230008
:101a1400100c98000001eb00220c980000c8b300e1
:101a24006054980071549800420c98006e0544006c
:101a3400410120000a00780044ff070000067800f6
:101a4400f8009000ef806000c208dd000a00780012
:101a54003eff07000b01dd008b60de00010071001a
:101a6400400c980048089000c80890001861900045
:101a74000281fb00821f7800086190000281fb0054
:101a8400821f7800785990000281fb00821f780041
:101a9400685990000281fb00821f78008b08dd00ea
:101aa4000b00de00809f7000785090000080fb00e7
:101ab400801f7800891f7800600a2000801f78004a
:101ac4008b00780070012000db010700ee804400e9
:101ad40008007800b7030700f08757004f06780026
:101ae4004f05be004f04be000000060000000600c3
:101af4002a00fa0005102000a5b79f0085002000e9
:101b0400b5b79f0065c0b30085ef9f0045c0b30023
:101b140095ef9f0005102000e04f520001003200b5
:101b240005202000d5b79f007482570005000900e6
:101b3400305a78006400b1006000b1006e80570034
:101b440003000900315878004000b1004100b100a1
:101b54006a80570005000900325878006000b1001f
:101b64006200b10064805700030009003358780014
:101b74004000b1004300b10060fd2f000f004000a1
:101b8400615f280005000900315878006000b10049
:101b9400c0fd2f000f004000e1fc200005000900fb
:101ba400315878006000b1008060200090b79f0039
:101bb400a102200060fd2f000f0040007d030700fc
:101bc4000080fa0000000600881f780001047800f5
:101bd40082017800a1fc200003000900b8587800b5
:101be4004800b100e1fc200005000900b05878006d
:101bf4006000b1000042eb00c25f2800880078005a
:101c0400bbff0700384090000080fb00801f780075
:101c1400284090000080fb00801f7800184090004e
:101c24000080fb00801f7800184478000880fb00c7
:101c3400801f780050032000801f7800610020007e
:101c4400400120007c010700ea8757004f04780018
:101c540000000600889fbe00e00190006280200022
:101c6400828f51004a003a0012c0b30082487800c3
:101c74000004780078009000c800dd004800de0011
:101c8400008070007004980008089000c800dd000f
:101c94004800de0000807000000c980028089000c6
:101ca400c800dd004800de0001007000200c980030
:101cb400e20f50003600320069022000888444009c
:101cc40042002000a1fc2000090078001dfa070052
:101cd40080007800785890000080fb00801f780016
:101ce400685890000080fb00801f780058589000ce
:101cf4000080fb00801f7800485890000080fb00a3
:101d0400801f780010002000e08f50000100320096
:101d14000000eb00801f7800186890000080fb0032
:101d2400801f7800086890000080fb00801f780006
:101d3400786090000080fb00801f7800686090004d
:101d44000080fb00801f780080042000801f780042
:101d5400610020003001200037010700420020000c
:101d6400a1fc200009007800f6f90700f487570069
:101d7400e00f500006003a007601440014c0b3009e
:101d8400fc014400a1fc2000e0fc200058ff0700f7
:101d94004f04be0000000600605f2800000006003b
:101da4009615020000000000607f8000000006001d
:101db4000080fb00707f8800aa130200000000006e
:101dc40000000600d302a900710020000040eb00cf
:101dd400052020000002eb00160020008081eb00ab
:101de400d2e2a8009216800005016100840f510020
:101df400020032000131dd0002407000d2e2a9008d
:101e04008100e900838f5000f5ff3a0000000600ce
:101e1400881f780080437800710020000040eb00a8
:101e24008783fb0080417800062020008002eb00bd
:101e3400180020000082eb0001b9de00614161005e
:101e4400834f510002003a00d302a9000100370079
:101e5400d302a800d2e2a800921680000601610015
:101e6400850f5100020032000141dd000240700084
:101e7400d2e2a9008100e900848f5000eeff3a000d
:101e84004f04780000000600e1ff07000000060090
:101e94000200fa00889fbe008a9fbe0000057800f9
:101ea40081047800020478000000eb00b0bf9f00ba
:101eb400800f55000f003a003fb89700800f540080
:101ec4002d0036009615020000000000bfb89700f0
:101ed400607f800080f478003fb897000000e8003d
:101ee400b0bf9f003fb89700880f5000f5ff39003e
:101ef40021003700e08f5400040032003fb89700ff
:101f0400800f540011003e001b0037003fb89700bb
:101f1400800f5400180036003fb897006a407800dc
:101f24000080fb00707f8800aa13020000000000fc
:101f34003fb897000000e800b0bf9f003fb897008b
:101f4400800f5400f4ff3e000b003700bfbd970024
:101f54003fb897006a407800cbff070080f47d000b
:101f64003fb897000000e800b0bf9f003fb897005b
:101f7400800f5400f5ff3e004f05be004f04be0025
:101f84000080fa0000000600d122a800f0ef2f0024
:101f9400d022b600f1f72f008000fd00d022b60059
:101fa4008000fd00d0c2a900c922a9008000fd0064
:101fb400d222b6008000fd00d222b6000000060046
:101fc4004822ef008000eb000012800061006000f6
:101fd400810f5000fcff3200401280000000060018
:101fe4000200fa008000eb00f1bf9f000080fb00bc
:101ff400401288000012800061006000810f5000d0
:10200400fcff320040128000f0bf9f000080fa0005
:1020140000000600200621005efd07000080eb00a2
:10202400a07c8800c07c8800e07c8800007d88005b
:10203400207d8800407d8800607d8800807d880048
:10204400000006000200fa00889fbe008a9fbe00be
:10205400800478000044eb00e8f79f00e0c2b3007e
:102064003d0207006ff09700884f500010003a00bf
:1020740048f92000fc0544000045eb00a91090003d
:10208400988f100004003a0018019000ea8057006d
:1020940009007800020001008b0f54000400320094
:1020a400640444006ff097008a4f5000f3ff32003d
:1020b4004f05be004f04be000080fa000000060079
:1020c400881f78000004780078509000f14f500089
:1020d4001e003a0010c0b300804878001810900029
:1020e400c800dd004800de000100700010149800f4
:1020f400a81090004809dd00c808de008280700046
:102104002114980038119000c811dd004811de0038
:102114000301710032149800821f78004811900066
:10212400821f7800811f7800801f780080042000bf
:10213400801f7800a1002000a00120003e000700bd
:1021440008007800bfff0700ea8757004f047800b3
:1021540000000600a27c8000e10f4100090032006b
:1021640083f920000001eb000082eb0075002000e1
:102174000201e80002037800930f120008003a00fd
:10218400010037000003eb004233dd0042f9200078
:1021940006034100011b7800000b780003003700a0
:1021a400e4814100850f5100f1ff3a000000060070
:1021b400889fbe008a1f780000047800020578001a
:1021c40003027800e8844000c848dd004848de0087
:1021d40000807000301498004820dd00c822de0022
:1021e4008082720025149800151498008000eb007a
:1021f40041149800891f7800811f7800841f78009b
:10220400841f780060052000801f7800a100200052
:1022140090012000080007000801be0011c1b300ae
:102224000a007800d1fd0700ea8757004f057800bf
:102234004f04be00000006000000fa00889fbe00a4
:102244008a9fbe008c9fbe00000478008105780040
:10225400e00f5400600032007a40b900640140008d
:10226400c12f2800610579000080e8006100780032
:10227400e70f500058003e00f4845700420020004d
:10228400e15e2800e0de20007f000700880078007f
:10229400e0de20008d000700efb09700e0de2000b4
:1022a4008a0007008b007800e0de2000870007002a
:1022b400e04f5500380032007a40b9000b30280056
:1022c4008b0540000044eb000c002100fdff2000c2
:1022d4005b0178000c0061000a0032000d0161000e
:1022e40004003a00c9007800e0de20008e000700f8
:1022f40026003700c9007800e0de200062000700f5
:102304002200370003002000e80f5100e08f59003d
:102314001e003e0002600100080037000b00370079
:102324000f0037001900370011003700170037007d
:10233400160037001500370011003700c900780077
:10234400e0de200078000700100037008984e900ef
:1023540099407800e0de20003a0007000b003700c7
:10236400c9007800e0de20005800070007003700ad
:102374004901be00e0de20005b00070003003700d7
:102384004901be00e0de20005f0007000844e800c9
:10239400884f5500ceff3e0042002000215f2800f8
:1023a400e0de200038000700e9de20000044eb00f6
:1023b400040037000900780072000700004078002c
:1023c40065010700090078007f000700804078005d
:1023d40088cf5000f7ff3a004f06be004f05be00fd
:1023e4004f04be000080fa00000006000210200026
:1023f40081df2000e0de20000b000700602e2800b3
:10240400801f7800f02e2800801f780080012000b3
:10241400801f7800c10020001000200086ff070004
:10242400e687570000000600410098000208780083
:102434008000eb0031009800210098001100980002
:102444000000060010019000900f51000d003200b2
:10245400c0019000200190008171790090009000eb
:102464008100e80011009800a00090008100e800bd
:1024740021009800908f500002003a008000eb0089
:102484002100980000000600889fbe008a9fbe00bd
:10249400800578008104780002057800e00f55007b
:1024a400070032000004eb00b94078000b0078000c
:1024b400e4ff07000804e800880f5500faff3e0017
:1024c4004f05be004f04be00000006000200fa00e3
:1024d400f1bf9f00220020008f80e900eaff07007f
:1024e4000080fa00000006000400fa00e2bf9f002a
:1024f400f3bf9f0042002000e4805700e2ff070082
:102504000080fa00000006000400fa00e2bf9f0009
:10251400f3bf9f0042002000e4805700daff070069
:102524000080fa0000000600889fbe008a1f780021
:1025340000057800810478000004eb000040eb0003
:10254400994f10000500320089017800004178009d
:102554000804e800d34f1100fdff3a00880078001a
:102564000a007800d9ff0700080178008900780084
:102574000a007800c4ff07004f0578004f04be002e
:1025840000000600100190008040eb00e00f5100b5
:102594000b003200b0019000c0009000e1c079004f
:1025a4000201e900120098000301e80032009800db
:1025b400900f510002003a000001eb003200980035
:1025c4000140780000000600100090008000ea003e
:1025d400008070004f00de0000000600881f7800b5
:1025e40012c0b3008248780020119000b107200087
:1025f400810f510026003a00102c9000202a9000f0
:10260400c840dd000000eb004821de0080017800b6
:1026140002007000838070000482fb00050020002b
:10262400482bdd00c823de00870373004823dd0048
:10263400060070008780700002f02f000201640021
:1026440003002000481add00c812de008502720073
:102654004812dd0004007000858070000418280012
:1026640055c527000000420081804a00807f880011
:10267400917f8800809fbe0020022000801f780088
:1026840091002000b0012000ebfe0700e687570010
:102694004f04780000000600b1072000002f21003d
:1026a400acfe070000000600889fbe00000478000e
:1026b40089ef2000a20520008000eb0009007800cb
:1026c400baf7070031ceb300a00220000900400091
:1026d40001487800a1c0b3000080e80001487800f8
:1026e400c1ceb3000000e8000148780038409000f3
:1026f4000080fb00801f7800284090000080fb00d1
:10270400801f7800184090000080fb00801f780034
:10271400984078000180fb00801f78006001200051
:10272400801f780091002000c0012000c2fe070035
:10273400b307200008017800010320000900780095
:102744009bfe0700ea8757004f04be000000060006
:020000040000fa
:10275400801f7800707f80000070a700d302a8005b
:102764000070a600d302a900d2e2a900d2e2a80018
:102774000060a700d302a8000060a600d302a9004d
:10278400d2e2a900d2e2a8000050a700d302a80018
:102794000050a600d302a900d2e2a900d2e2a80008
:1027a4000040a700d302a8000040a600d302a9005d
:1027b400d2e2a900d2e2a8000030a700d302a80008
:1027c4000030a600d302a900d2e2a900d2e2a800f8
:1027d4000020a700d302a8000020a600d302a9006d
:1027e400d2e2a900d2e2a8000010a700d302a800f8
:1027f4000010a600d302a900d2e2a900d2e2a800e8
:102804000000a700d302a8000000a600d302a9007c
:10281400d2e2a900d2e2a800d2e2a9004f007800d7
:0428240000000600aa
:020000040000fa
:10282800f40f000002000000020000000030000069
:10283800520f00004200000000000000ec0f0000f2
:102848000400000000000000ca0f00001000000093
:1028580000000000e60f0000060000000200000073
:10286800b0487a00db5bea00da0f00000c000000d9
:1028780000000000f00f000004000000020000004b
:102888000000000000000000f80e00005a000000e0
:1028980000000000940f000020000000000000006d
:1028a800ee0d00000a01000000000000b40f000057
:1028b80016000000020000000004a3005020f600eb
:1028c800c0a801007bc0a8000101c000a8019300b6
:1028d800c2aba7008200000000080000ee0500005f
:0828e8000000000000000000e8
:020000040000fa
:1028f000000028000011880000402000101188000e
:102900004000200040118800cae2a900123a80006d
:10291000f20bb20060042000710520002374200037
:1029200080497800814978008249780033368000f8
:10293000f20f2e00028161000230b30032368800af
:10294000123a80000260a0002374200080497800c1
:1029500081497800824978000000060003202000a9
:102960000001eb001111800083806000828f500015
:10297000fcff3a000080fb002011880000000600e8
:10298000889fbe008004780019407800e04f500016
:10299000050032000044eb00f0ff070059407800ca
:1029a000884f5000fcff3a004f04be0000000600b4
:1029b00016fa070000000600aef907000000060046
:1029c000fef9070000000600889fbe008a1f7800fd
:1029d0002ca3ef00c902a9006cfd0700c4ff07008b
:1029e00083fe070040fb200087fa070040fc070039
:1029f000e2fb2000a1fb200040fb200073fc07004d
:102a0000ddfa070084fd07007c0007004200070094
:102a100022ff070060fc200024ff07000044eb00b9
:102a20003a05200085f90700884f5000fdff32006d
:102a300087f90700804478007df907008984fb004e
:102a4000891f78000080fb00801f78008a1f7800b3
:102a5000e1002000e0002000f8fd0700e15e20001a
:102a600000802000e9f90700e6875700edff3700f6
:102a7000889fbe008a9fbe000004780078509000b6
:102a8000e14f500021003a00804878001810900073
:102a9000e80f50001d003a000040eb002064980051
:102aa0000000eb00201498002a02200008054500d1
:102ab00088089000f48050000a00780024fb07008a
:102ac0008005780088089000f48050000a007800a3
:102ad0001ffb07004801dd00c858de00010071003f
:102ae0002014980070022000801f780071002000e0
:102af00050012000d1fd070088089000f4c050006c
:102b0000080078004cfb07008f87e9004f05be00e6
:102b10004f04be0000000600805321009efa07000b
:0c2b200000000600000006000000060097
:020000040000fa
:102b2c00801f78000000eb00d302a900d2e2a800bd
:102b3c00d322af000070a000d2e2a900d2e2a8001c
:102b4c00d322af000060a000d2e2a900d2e2a8001c
:102b5c00d322af000050a000d2e2a900d2e2a8001c
:102b6c00d322af000040a000d2e2a900d2e2a8001c
:102b7c00d322af000030a000d2e2a900d2e2a8001c
:102b8c00d322af000020a000d2e2a900d2e2a8001c
:102b9c00d322af000010a000d2e2a900d2e2a8001c
:102bac00d322af000000a000d2e2a900607f880011
:082bbc004f0078000000060044
:020000040000fa
:102bc400f0509000e6cf50000a003a0090109000b8
:102bd4004809dd00c808de0081007100111098006a
:102be400a01090004809dd00c808de0081007100d3
:102bf4002110980000000600205e210065fa0700fd
:082c04000000060000000600bc
:020000040000fa
:0200000401f009
:04000000ffff0000fe
:020000040000fa
:0200000401f009
:04000400ffff0000fa
:020000040000fa
:0200000401f009
:04000800ffff0000f6
:020000040000fa
:0200000401f009
:04000c0079ff000078
:020000040000fa
:0200000401f009
:040010001bff0000d2
:020000040000fa
:0200000401f009
:0400140077ff000072
:020000040000fa
:0200000401f009
:04001800f8ff0000ed
:020000040000fa
:0200000401f009
:04001c00deff000003
:00000001FF
